{
  "address": "0x9fE46736679d2D9a65F0992F2272dE9f3c7fa6e0",
  "abi": [
    {
      "inputs": [
        {
          "internalType": "address",
          "name": "_oracle",
          "type": "address"
        },
        {
          "internalType": "bytes32",
          "name": "_jobId",
          "type": "bytes32"
        },
        {
          "internalType": "uint256",
          "name": "_fee",
          "type": "uint256"
        },
        {
          "internalType": "address",
          "name": "_link",
          "type": "address"
        }
      ],
      "stateMutability": "nonpayable",
      "type": "constructor"
    },
    {
      "anonymous": false,
      "inputs": [
        {
          "indexed": true,
          "internalType": "bytes32",
          "name": "id",
          "type": "bytes32"
        }
      ],
      "name": "ChainlinkCancelled",
      "type": "event"
    },
    {
      "anonymous": false,
      "inputs": [
        {
          "indexed": true,
          "internalType": "bytes32",
          "name": "id",
          "type": "bytes32"
        }
      ],
      "name": "ChainlinkFulfilled",
      "type": "event"
    },
    {
      "anonymous": false,
      "inputs": [
        {
          "indexed": true,
          "internalType": "bytes32",
          "name": "id",
          "type": "bytes32"
        }
      ],
      "name": "ChainlinkRequested",
      "type": "event"
    },
    {
      "anonymous": false,
      "inputs": [
        {
          "indexed": true,
          "internalType": "address",
          "name": "from",
          "type": "address"
        },
        {
          "indexed": true,
          "internalType": "address",
          "name": "to",
          "type": "address"
        }
      ],
      "name": "OwnershipTransferRequested",
      "type": "event"
    },
    {
      "anonymous": false,
      "inputs": [
        {
          "indexed": true,
          "internalType": "address",
          "name": "from",
          "type": "address"
        },
        {
          "indexed": true,
          "internalType": "address",
          "name": "to",
          "type": "address"
        }
      ],
      "name": "OwnershipTransferred",
      "type": "event"
    },
    {
      "anonymous": false,
      "inputs": [
        {
          "indexed": true,
          "internalType": "bytes32",
          "name": "requestId",
          "type": "bytes32"
        },
        {
          "indexed": true,
          "internalType": "bytes",
          "name": "data",
          "type": "bytes"
        }
      ],
      "name": "RequestFulfilled",
      "type": "event"
    },
    {
      "inputs": [],
      "name": "acceptOwnership",
      "outputs": [],
      "stateMutability": "nonpayable",
      "type": "function"
    },
    {
      "inputs": [
        {
          "internalType": "address",
          "name": "_address",
          "type": "address"
        }
      ],
      "name": "checkParkingSpotLocationOwner",
      "outputs": [
        {
          "internalType": "bytes32",
          "name": "",
          "type": "bytes32"
        }
      ],
      "stateMutability": "view",
      "type": "function"
    },
    {
      "inputs": [
        {
          "internalType": "address",
          "name": "_address",
          "type": "address"
        },
        {
          "internalType": "uint16",
          "name": "_index",
          "type": "uint16"
        }
      ],
      "name": "checkParkingSpotLocationOwnerArray",
      "outputs": [
        {
          "internalType": "bytes32",
          "name": "",
          "type": "bytes32"
        }
      ],
      "stateMutability": "view",
      "type": "function"
    },
    {
      "inputs": [],
      "name": "data",
      "outputs": [
        {
          "internalType": "bytes",
          "name": "",
          "type": "bytes"
        }
      ],
      "stateMutability": "view",
      "type": "function"
    },
    {
      "inputs": [],
      "name": "fakeFulfillBytes",
      "outputs": [],
      "stateMutability": "nonpayable",
      "type": "function"
    },
    {
      "inputs": [
        {
          "internalType": "bytes32",
          "name": "requestId",
          "type": "bytes32"
        },
        {
          "internalType": "bytes",
          "name": "bytesData",
          "type": "bytes"
        }
      ],
      "name": "fulfillBytes",
      "outputs": [],
      "stateMutability": "nonpayable",
      "type": "function"
    },
    {
      "inputs": [],
      "name": "owner",
      "outputs": [
        {
          "internalType": "address",
          "name": "",
          "type": "address"
        }
      ],
      "stateMutability": "view",
      "type": "function"
    },
    {
      "inputs": [
        {
          "internalType": "address",
          "name": "",
          "type": "address"
        }
      ],
      "name": "parkingSpotLocationOwner",
      "outputs": [
        {
          "internalType": "bytes32",
          "name": "",
          "type": "bytes32"
        }
      ],
      "stateMutability": "view",
      "type": "function"
    },
    {
      "inputs": [
        {
          "internalType": "address",
          "name": "",
          "type": "address"
        },
        {
          "internalType": "uint256",
          "name": "",
          "type": "uint256"
        }
      ],
      "name": "parkingSpotLocationOwnerArray",
      "outputs": [
        {
          "internalType": "bytes32",
          "name": "",
          "type": "bytes32"
        }
      ],
      "stateMutability": "view",
      "type": "function"
    },
    {
      "inputs": [],
      "name": "parking_spot_location",
      "outputs": [
        {
          "internalType": "bytes32",
          "name": "",
          "type": "bytes32"
        }
      ],
      "stateMutability": "view",
      "type": "function"
    },
    {
      "inputs": [],
      "name": "requestOffchainParkingSpotData",
      "outputs": [],
      "stateMutability": "nonpayable",
      "type": "function"
    },
    {
      "inputs": [
        {
          "internalType": "address",
          "name": "to",
          "type": "address"
        }
      ],
      "name": "transferOwnership",
      "outputs": [],
      "stateMutability": "nonpayable",
      "type": "function"
    },
    {
      "inputs": [],
      "name": "withdrawLink",
      "outputs": [],
      "stateMutability": "nonpayable",
      "type": "function"
    }
  ],
  "transactionHash": "0xa21944ca2fb520447651ce770d822ee700f8e13f81169eb8b6023f509d0c9114",
  "args": [
    "0xe7f1725E7734CE288F8367e1Bb143E90bb3F0512",
    {
      "0": 50,
      "1": 57,
      "2": 102,
      "3": 97,
      "4": 57,
      "5": 97,
      "6": 97,
      "7": 49,
      "8": 51,
      "9": 98,
      "10": 102,
      "11": 49,
      "12": 52,
      "13": 54,
      "14": 56,
      "15": 55,
      "16": 56,
      "17": 56,
      "18": 98,
      "19": 55,
      "20": 99,
      "21": 99,
      "22": 52,
      "23": 97,
      "24": 53,
      "25": 48,
      "26": 48,
      "27": 97,
      "28": 52,
      "29": 53,
      "30": 98,
      "31": 56
    },
    "100000000000000000",
    "0x5FbDB2315678afecb367f032d93F642f64180aa3"
  ],
  "numDeployments": 1,
  "solcInputHash": "cf6bd938d1ff699c5b3c6d9a7dbaf3bb",
  "bytecode": "0x608060405260016004553480156200001657600080fd5b50604051620030193803806200301983398181016040528101906200003c919062000411565b338060008073ffffffffffffffffffffffffffffffffffffffff168273ffffffffffffffffffffffffffffffffffffffff161415620000b2576040517f08c379a0000000000000000000000000000000000000000000000000000000008152600401620000a990620004e4565b60405180910390fd5b81600660006101000a81548173ffffffffffffffffffffffffffffffffffffffff021916908373ffffffffffffffffffffffffffffffffffffffff160217905550600073ffffffffffffffffffffffffffffffffffffffff168173ffffffffffffffffffffffffffffffffffffffff16146200013a5762000139816200017760201b60201c565b5b5050506200014e81620002a960201b60201c565b6200015f84620002ed60201b60201c565b82600b8190555081600c819055505050505062000578565b3373ffffffffffffffffffffffffffffffffffffffff168173ffffffffffffffffffffffffffffffffffffffff161415620001e9576040517f08c379a0000000000000000000000000000000000000000000000000000000008152600401620001e09062000556565b60405180910390fd5b80600760006101000a81548173ffffffffffffffffffffffffffffffffffffffff021916908373ffffffffffffffffffffffffffffffffffffffff1602179055508073ffffffffffffffffffffffffffffffffffffffff16600660009054906101000a900473ffffffffffffffffffffffffffffffffffffffff1673ffffffffffffffffffffffffffffffffffffffff167fed8889f560326eb138920d842192f0eb3dd22b4f139c87a2c57538e05bae127860405160405180910390a350565b80600260006101000a81548173ffffffffffffffffffffffffffffffffffffffff021916908373ffffffffffffffffffffffffffffffffffffffff16021790555050565b80600360006101000a81548173ffffffffffffffffffffffffffffffffffffffff021916908373ffffffffffffffffffffffffffffffffffffffff16021790555050565b600080fd5b600073ffffffffffffffffffffffffffffffffffffffff82169050919050565b6000620003638262000336565b9050919050565b620003758162000356565b81146200038157600080fd5b50565b60008151905062000395816200036a565b92915050565b6000819050919050565b620003b0816200039b565b8114620003bc57600080fd5b50565b600081519050620003d081620003a5565b92915050565b6000819050919050565b620003eb81620003d6565b8114620003f757600080fd5b50565b6000815190506200040b81620003e0565b92915050565b600080600080608085870312156200042e576200042d62000331565b5b60006200043e8782880162000384565b94505060206200045187828801620003bf565b93505060406200046487828801620003fa565b9250506060620004778782880162000384565b91505092959194509250565b600082825260208201905092915050565b7f43616e6e6f7420736574206f776e657220746f207a65726f0000000000000000600082015250565b6000620004cc60188362000483565b9150620004d98262000494565b602082019050919050565b60006020820190508181036000830152620004ff81620004bd565b9050919050565b7f43616e6e6f74207472616e7366657220746f2073656c66000000000000000000600082015250565b60006200053e60178362000483565b91506200054b8262000506565b602082019050919050565b6000602082019050818103600083015262000571816200052f565b9050919050565b612a9180620005886000396000f3fe608060405234801561001057600080fd5b50600436106100cf5760003560e01c80638da5cb5b1161008c578063c2fb852311610066578063c2fb8523146101ee578063c551a1451461020a578063d5aaaf9314610228578063f2fde38b14610232576100cf565b80638da5cb5b146101965780638dc654a2146101b4578063b2c42c3a146101be576100cf565b80630902d949146100d45780631399b38014610104578063272929a1146101345780636da554ae1461016457806373d4a13a1461016e57806379ba50971461018c575b600080fd5b6100ee60048036038101906100e99190611aec565b61024e565b6040516100fb9190611b45565b60405180910390f35b61011e60048036038101906101199190611b96565b6102b8565b60405161012b9190611b45565b60405180910390f35b61014e60048036038101906101499190611bd6565b6102e9565b60405161015b9190611b45565b60405180910390f35b61016c610332565b005b61017661044f565b6040516101839190611c9c565b60405180910390f35b6101946104dd565b005b61019e610674565b6040516101ab9190611ccd565b60405180910390f35b6101bc61069e565b005b6101d860048036038101906101d39190611bd6565b6107eb565b6040516101e59190611b45565b60405180910390f35b61020860048036038101906102039190611e49565b610803565b005b610212610a7a565b60405161021f9190611b45565b60405180910390f35b610230610a80565b005b61024c60048036038101906102479190611bd6565b610c1d565b005b6000600d60008473ffffffffffffffffffffffffffffffffffffffff1673ffffffffffffffffffffffffffffffffffffffff1681526020019081526020016000208261ffff16815481106102a5576102a4611ea5565b5b9060005260206000200154905092915050565b600d60205281600052604060002081815481106102d457600080fd5b90600052602060002001600091509150505481565b6000600e60008373ffffffffffffffffffffffffffffffffffffffff1673ffffffffffffffffffffffffffffffffffffffff168152602001908152602001600020549050919050565b6040518060400160405280601081526020017f38382e383838382c2038382e38383838000000000000000000000000000000008152506008908051906020019061037d929190611890565b50600861038990611fb1565b600981905550600861039a90611fb1565b600e60003373ffffffffffffffffffffffffffffffffffffffff1673ffffffffffffffffffffffffffffffffffffffff16815260200190815260200160002081905550600d60003373ffffffffffffffffffffffffffffffffffffffff1673ffffffffffffffffffffffffffffffffffffffff168152602001908152602001600020600861042790611fb1565b9080600181540180825580915050600190039060005260206000200160009091909190915055565b6008805461045c90611f03565b80601f016020809104026020016040519081016040528092919081815260200182805461048890611f03565b80156104d55780601f106104aa576101008083540402835291602001916104d5565b820191906000526020600020905b8154815290600101906020018083116104b857829003601f168201915b505050505081565b600760009054906101000a900473ffffffffffffffffffffffffffffffffffffffff1673ffffffffffffffffffffffffffffffffffffffff163373ffffffffffffffffffffffffffffffffffffffff161461056d576040517f08c379a00000000000000000000000000000000000000000000000000000000081526004016105649061207f565b60405180910390fd5b6000600660009054906101000a900473ffffffffffffffffffffffffffffffffffffffff16905033600660006101000a81548173ffffffffffffffffffffffffffffffffffffffff021916908373ffffffffffffffffffffffffffffffffffffffff1602179055506000600760006101000a81548173ffffffffffffffffffffffffffffffffffffffff021916908373ffffffffffffffffffffffffffffffffffffffff1602179055503373ffffffffffffffffffffffffffffffffffffffff168173ffffffffffffffffffffffffffffffffffffffff167f8be0079c531659141344cd1fd0a4f28419497f9722a3daafe3b4186f6b6457e060405160405180910390a350565b6000600660009054906101000a900473ffffffffffffffffffffffffffffffffffffffff16905090565b6106a6610c31565b60006106b0610cc3565b90508073ffffffffffffffffffffffffffffffffffffffff1663a9059cbb338373ffffffffffffffffffffffffffffffffffffffff166370a08231306040518263ffffffff1660e01b81526004016107089190611ccd565b602060405180830381865afa158015610725573d6000803e3d6000fd5b505050506040513d601f19601f8201168201806040525081019061074991906120b4565b6040518363ffffffff1660e01b81526004016107669291906120f0565b6020604051808303816000875af1158015610785573d6000803e3d6000fd5b505050506040513d601f19601f820116820180604052508101906107a99190612151565b6107e8576040517f08c379a00000000000000000000000000000000000000000000000000000000081526004016107df906121ca565b60405180910390fd5b50565b600e6020528060005260406000206000915090505481565b816005600082815260200190815260200160002060009054906101000a900473ffffffffffffffffffffffffffffffffffffffff1673ffffffffffffffffffffffffffffffffffffffff163373ffffffffffffffffffffffffffffffffffffffff16146108a5576040517f08c379a000000000000000000000000000000000000000000000000000000000815260040161089c9061225c565b60405180910390fd5b6005600082815260200190815260200160002060006101000a81549073ffffffffffffffffffffffffffffffffffffffff0219169055807f7cc135e0cebb02c3480ae5d74d377283180a2601f8f644edf7987b009316c63a60405160405180910390a28160405161091691906122b8565b6040518091039020837f1a111c5dcf9a71088bd5e1797fdfaf399fec2afbb24aca247e4e3e9f4b61df9160405160405180910390a38160089080519060200190610961929190611916565b50600861096d90611fb1565b600981905550600861097e90611fb1565b600e6000600a60009054906101000a900473ffffffffffffffffffffffffffffffffffffffff1673ffffffffffffffffffffffffffffffffffffffff1673ffffffffffffffffffffffffffffffffffffffff16815260200190815260200160002081905550600d6000600a60009054906101000a900473ffffffffffffffffffffffffffffffffffffffff1673ffffffffffffffffffffffffffffffffffffffff1673ffffffffffffffffffffffffffffffffffffffff1681526020019081526020016000206008610a4f90611fb1565b9080600181540180825580915050600190039060005260206000200160009091909190915055505050565b60095481565b33600a60006101000a81548173ffffffffffffffffffffffffffffffffffffffff021916908373ffffffffffffffffffffffffffffffffffffffff1602179055506000610ae43373ffffffffffffffffffffffffffffffffffffffff166014610ced565b90506000610afc600b543063c2fb852360e01b610f29565b905060006040518060800160405280604d8152602001612a0f604d9139905060008184604051602001610b30929190612316565b6040516020818303038152906040529050610b8b6040518060400160405280600381526020017f67657400000000000000000000000000000000000000000000000000000000008152508285610f5a9092919063ffffffff16565b610c0a6040518060400160405280600481526020017f70617468000000000000000000000000000000000000000000000000000000008152506040518060400160405280600881526020017f6c6f636174696f6e00000000000000000000000000000000000000000000000081525085610f5a9092919063ffffffff16565b610c1683600c54610f8d565b5050505050565b610c25610c31565b610c2e81610fc4565b50565b600660009054906101000a900473ffffffffffffffffffffffffffffffffffffffff1673ffffffffffffffffffffffffffffffffffffffff163373ffffffffffffffffffffffffffffffffffffffff1614610cc1576040517f08c379a0000000000000000000000000000000000000000000000000000000008152600401610cb890612386565b60405180910390fd5b565b6000600260009054906101000a900473ffffffffffffffffffffffffffffffffffffffff16905090565b606060006002836002610d0091906123d5565b610d0a919061242f565b67ffffffffffffffff811115610d2357610d22611d1e565b5b6040519080825280601f01601f191660200182016040528015610d555781602001600182028036833780820191505090505b5090507f300000000000000000000000000000000000000000000000000000000000000081600081518110610d8d57610d8c611ea5565b5b60200101907effffffffffffffffffffffffffffffffffffffffffffffffffffffffffffff1916908160001a9053507f780000000000000000000000000000000000000000000000000000000000000081600181518110610df157610df0611ea5565b5b60200101907effffffffffffffffffffffffffffffffffffffffffffffffffffffffffffff1916908160001a90535060006001846002610e3191906123d5565b610e3b919061242f565b90505b6001811115610edb577f3031323334353637383961626364656600000000000000000000000000000000600f861660108110610e7d57610e7c611ea5565b5b1a60f81b828281518110610e9457610e93611ea5565b5b60200101907effffffffffffffffffffffffffffffffffffffffffffffffffffffffffffff1916908160001a905350600485901c945080610ed490612485565b9050610e3e565b5060008414610f1f576040517f08c379a0000000000000000000000000000000000000000000000000000000008152600401610f16906124fb565b60405180910390fd5b8091505092915050565b610f3161199c565b610f3961199c565b610f50858585846110f3909392919063ffffffff16565b9150509392505050565b610f718284608001516111a390919063ffffffff16565b610f888184608001516111a390919063ffffffff16565b505050565b6000610fbc600360009054906101000a900473ffffffffffffffffffffffffffffffffffffffff1684846111c8565b905092915050565b3373ffffffffffffffffffffffffffffffffffffffff168173ffffffffffffffffffffffffffffffffffffffff161415611033576040517f08c379a000000000000000000000000000000000000000000000000000000000815260040161102a90612567565b60405180910390fd5b80600760006101000a81548173ffffffffffffffffffffffffffffffffffffffff021916908373ffffffffffffffffffffffffffffffffffffffff1602179055508073ffffffffffffffffffffffffffffffffffffffff16600660009054906101000a900473ffffffffffffffffffffffffffffffffffffffff1673ffffffffffffffffffffffffffffffffffffffff167fed8889f560326eb138920d842192f0eb3dd22b4f139c87a2c57538e05bae127860405160405180910390a350565b6110fb61199c565b61110b8560800151610100611294565b508385600001818152505082856020019073ffffffffffffffffffffffffffffffffffffffff16908173ffffffffffffffffffffffffffffffffffffffff16815250508185604001907bffffffffffffffffffffffffffffffffffffffffffffffffffffffff191690817bffffffffffffffffffffffffffffffffffffffffffffffffffffffff191681525050849050949350505050565b6111b082600383516112fe565b6111c3818361148390919063ffffffff16565b505050565b60008060045490506001816111dd919061242f565b6004819055506000634042994660e01b60008087600001513089604001518760018c608001516000015160405160240161121e9897969594939291906125c2565b604051602081830303815290604052907bffffffffffffffffffffffffffffffffffffffffffffffffffffffff19166020820180517bffffffffffffffffffffffffffffffffffffffffffffffffffffffff83818316178352505050509050611289868386846114a5565b925050509392505050565b61129c611a09565b60006020836112ab9190612676565b146112d7576020826112bd9190612676565b60206112c991906126a7565b826112d4919061242f565b91505b81836020018181525050604051808452600081528281016020016040525082905092915050565b60178167ffffffffffffffff16116113355761132f8160058460ff16901b60ff16178461163a90919063ffffffff16565b5061147e565b60ff8167ffffffffffffffff161161138b57611364601860058460ff16901b178461163a90919063ffffffff16565b506113858167ffffffffffffffff1660018561165a9092919063ffffffff16565b5061147d565b61ffff8167ffffffffffffffff16116113e2576113bb601960058460ff16901b178461163a90919063ffffffff16565b506113dc8167ffffffffffffffff1660028561165a9092919063ffffffff16565b5061147c565b63ffffffff8167ffffffffffffffff161161143b57611414601a60058460ff16901b178461163a90919063ffffffff16565b506114358167ffffffffffffffff1660048561165a9092919063ffffffff16565b5061147b565b611458601b60058460ff16901b178461163a90919063ffffffff16565b506114798167ffffffffffffffff1660088561165a9092919063ffffffff16565b505b5b5b5b505050565b61148b611a09565b61149d8384600001515184855161167c565b905092915050565b600030846040516020016114ba929190612794565b604051602081830303815290604052805190602001209050846005600083815260200190815260200160002060006101000a81548173ffffffffffffffffffffffffffffffffffffffff021916908373ffffffffffffffffffffffffffffffffffffffff160217905550807fb5e6e01e79f91267dc17b4e6314d5d4d03593d2ceee0fbb452b750bd70ea5af960405160405180910390a2600260009054906101000a900473ffffffffffffffffffffffffffffffffffffffff1673ffffffffffffffffffffffffffffffffffffffff16634000aea08685856040518463ffffffff1660e01b81526004016115b0939291906127c0565b6020604051808303816000875af11580156115cf573d6000803e3d6000fd5b505050506040513d601f19601f820116820180604052508101906115f39190612151565b611632576040517f08c379a000000000000000000000000000000000000000000000000000000000815260040161162990612870565b60405180910390fd5b949350505050565b611642611a09565b611652838460000151518461176b565b905092915050565b611662611a09565b6116738485600001515185856117c2565b90509392505050565b611684611a09565b825182111561169257600080fd5b846020015182856116a3919061242f565b11156116d8576116d78560026116c8886020015188876116c3919061242f565b611850565b6116d291906123d5565b61186c565b5b6000808651805187602083010193508088870111156116f75787860182525b60208701925050505b6020841061173e5780518252602082611719919061242f565b9150602081611728919061242f565b905060208461173791906126a7565b9350611700565b60006001856020036101000a03905080198251168184511681811785525050508692505050949350505050565b611773611a09565b8360200151831061179957611798846002866020015161179391906123d5565b61186c565b5b83518051602085830101848153818614156117b5576001820183525b5050508390509392505050565b6117ca611a09565b846020015184836117db919061242f565b11156118035761180285600286856117f3919061242f565b6117fd91906123d5565b61186c565b5b600060018361010061181591906129c3565b61181f91906126a7565b905085518386820101858319825116178152815185880111156118425784870182525b505085915050949350505050565b60008183111561186257829050611866565b8190505b92915050565b60008260000151905061187f8383611294565b5061188a8382611483565b50505050565b82805461189c90611f03565b90600052602060002090601f0160209004810192826118be5760008555611905565b82601f106118d757805160ff1916838001178555611905565b82800160010185558215611905579182015b828111156119045782518255916020019190600101906118e9565b5b5090506119129190611a23565b5090565b82805461192290611f03565b90600052602060002090601f016020900481019282611944576000855561198b565b82601f1061195d57805160ff191683800117855561198b565b8280016001018555821561198b579182015b8281111561198a57825182559160200191906001019061196f565b5b5090506119989190611a23565b5090565b6040518060a0016040528060008019168152602001600073ffffffffffffffffffffffffffffffffffffffff16815260200160007bffffffffffffffffffffffffffffffffffffffffffffffffffffffff1916815260200160008152602001611a03611a09565b81525090565b604051806040016040528060608152602001600081525090565b5b80821115611a3c576000816000905550600101611a24565b5090565b6000604051905090565b600080fd5b600080fd5b600073ffffffffffffffffffffffffffffffffffffffff82169050919050565b6000611a7f82611a54565b9050919050565b611a8f81611a74565b8114611a9a57600080fd5b50565b600081359050611aac81611a86565b92915050565b600061ffff82169050919050565b611ac981611ab2565b8114611ad457600080fd5b50565b600081359050611ae681611ac0565b92915050565b60008060408385031215611b0357611b02611a4a565b5b6000611b1185828601611a9d565b9250506020611b2285828601611ad7565b9150509250929050565b6000819050919050565b611b3f81611b2c565b82525050565b6000602082019050611b5a6000830184611b36565b92915050565b6000819050919050565b611b7381611b60565b8114611b7e57600080fd5b50565b600081359050611b9081611b6a565b92915050565b60008060408385031215611bad57611bac611a4a565b5b6000611bbb85828601611a9d565b9250506020611bcc85828601611b81565b9150509250929050565b600060208284031215611bec57611beb611a4a565b5b6000611bfa84828501611a9d565b91505092915050565b600081519050919050565b600082825260208201905092915050565b60005b83811015611c3d578082015181840152602081019050611c22565b83811115611c4c576000848401525b50505050565b6000601f19601f8301169050919050565b6000611c6e82611c03565b611c788185611c0e565b9350611c88818560208601611c1f565b611c9181611c52565b840191505092915050565b60006020820190508181036000830152611cb68184611c63565b905092915050565b611cc781611a74565b82525050565b6000602082019050611ce26000830184611cbe565b92915050565b611cf181611b2c565b8114611cfc57600080fd5b50565b600081359050611d0e81611ce8565b92915050565b600080fd5b600080fd5b7f4e487b7100000000000000000000000000000000000000000000000000000000600052604160045260246000fd5b611d5682611c52565b810181811067ffffffffffffffff82111715611d7557611d74611d1e565b5b80604052505050565b6000611d88611a40565b9050611d948282611d4d565b919050565b600067ffffffffffffffff821115611db457611db3611d1e565b5b611dbd82611c52565b9050602081019050919050565b82818337600083830152505050565b6000611dec611de784611d99565b611d7e565b905082815260208101848484011115611e0857611e07611d19565b5b611e13848285611dca565b509392505050565b600082601f830112611e3057611e2f611d14565b5b8135611e40848260208601611dd9565b91505092915050565b60008060408385031215611e6057611e5f611a4a565b5b6000611e6e85828601611cff565b925050602083013567ffffffffffffffff811115611e8f57611e8e611a4f565b5b611e9b85828601611e1b565b9150509250929050565b7f4e487b7100000000000000000000000000000000000000000000000000000000600052603260045260246000fd5b7f4e487b7100000000000000000000000000000000000000000000000000000000600052602260045260246000fd5b60006002820490506001821680611f1b57607f821691505b60208210811415611f2f57611f2e611ed4565b5b50919050565b600081549050611f4481611f03565b9050919050565b60008190508160005260206000209050919050565b60008160001c9050919050565b6000819050919050565b6000611f8a611f8583611f60565b611f6d565b9050919050565b6000611f9d8254611f77565b9050919050565b600082821b905092915050565b6000611fbc82611f35565b82601f821115611fd257611fcf84611f4b565b90505b611fdb81611f91565b9250602082101561201b576120167fffffffffffffffffffffffffffffffffffffffffffffffffffffffffffffffff83602003600802611fa4565b831692505b5050919050565b600082825260208201905092915050565b7f4d7573742062652070726f706f736564206f776e657200000000000000000000600082015250565b6000612069601683612022565b915061207482612033565b602082019050919050565b600060208201905081810360008301526120988161205c565b9050919050565b6000815190506120ae81611b6a565b92915050565b6000602082840312156120ca576120c9611a4a565b5b60006120d88482850161209f565b91505092915050565b6120ea81611b60565b82525050565b60006040820190506121056000830185611cbe565b61211260208301846120e1565b9392505050565b60008115159050919050565b61212e81612119565b811461213957600080fd5b50565b60008151905061214b81612125565b92915050565b60006020828403121561216757612166611a4a565b5b60006121758482850161213c565b91505092915050565b7f556e61626c6520746f207472616e736665720000000000000000000000000000600082015250565b60006121b4601283612022565b91506121bf8261217e565b602082019050919050565b600060208201905081810360008301526121e3816121a7565b9050919050565b7f536f75726365206d75737420626520746865206f7261636c65206f662074686560008201527f2072657175657374000000000000000000000000000000000000000000000000602082015250565b6000612246602883612022565b9150612251826121ea565b604082019050919050565b6000602082019050818103600083015261227581612239565b9050919050565b600081905092915050565b600061229282611c03565b61229c818561227c565b93506122ac818560208601611c1f565b80840191505092915050565b60006122c48284612287565b915081905092915050565b600081519050919050565b600081905092915050565b60006122f0826122cf565b6122fa81856122da565b935061230a818560208601611c1f565b80840191505092915050565b600061232282856122e5565b915061232e82846122e5565b91508190509392505050565b7f4f6e6c792063616c6c61626c65206279206f776e657200000000000000000000600082015250565b6000612370601683612022565b915061237b8261233a565b602082019050919050565b6000602082019050818103600083015261239f81612363565b9050919050565b7f4e487b7100000000000000000000000000000000000000000000000000000000600052601160045260246000fd5b60006123e082611b60565b91506123eb83611b60565b9250817fffffffffffffffffffffffffffffffffffffffffffffffffffffffffffffffff0483118215151615612424576124236123a6565b5b828202905092915050565b600061243a82611b60565b915061244583611b60565b9250827fffffffffffffffffffffffffffffffffffffffffffffffffffffffffffffffff0382111561247a576124796123a6565b5b828201905092915050565b600061249082611b60565b915060008214156124a4576124a36123a6565b5b600182039050919050565b7f537472696e67733a20686578206c656e67746820696e73756666696369656e74600082015250565b60006124e5602083612022565b91506124f0826124af565b602082019050919050565b60006020820190508181036000830152612514816124d8565b9050919050565b7f43616e6e6f74207472616e7366657220746f2073656c66000000000000000000600082015250565b6000612551601783612022565b915061255c8261251b565b602082019050919050565b6000602082019050818103600083015261258081612544565b9050919050565b60007fffffffff0000000000000000000000000000000000000000000000000000000082169050919050565b6125bc81612587565b82525050565b6000610100820190506125d8600083018b611cbe565b6125e5602083018a6120e1565b6125f26040830189611b36565b6125ff6060830188611cbe565b61260c60808301876125b3565b61261960a08301866120e1565b61262660c08301856120e1565b81810360e08301526126388184611c63565b90509998505050505050505050565b7f4e487b7100000000000000000000000000000000000000000000000000000000600052601260045260246000fd5b600061268182611b60565b915061268c83611b60565b92508261269c5761269b612647565b5b828206905092915050565b60006126b282611b60565b91506126bd83611b60565b9250828210156126d0576126cf6123a6565b5b828203905092915050565b6000819050919050565b60006127006126fb6126f684611a54565b6126db565b611a54565b9050919050565b6000612712826126e5565b9050919050565b600061272482612707565b9050919050565b60008160601b9050919050565b60006127438261272b565b9050919050565b600061275582612738565b9050919050565b61276d61276882612719565b61274a565b82525050565b6000819050919050565b61278e61278982611b60565b612773565b82525050565b60006127a0828561275c565b6014820191506127b0828461277d565b6020820191508190509392505050565b60006060820190506127d56000830186611cbe565b6127e260208301856120e1565b81810360408301526127f48184611c63565b9050949350505050565b7f756e61626c6520746f207472616e73666572416e6443616c6c20746f206f726160008201527f636c650000000000000000000000000000000000000000000000000000000000602082015250565b600061285a602383612022565b9150612865826127fe565b604082019050919050565b600060208201905081810360008301526128898161284d565b9050919050565b60008160011c9050919050565b6000808291508390505b60018511156128e7578086048111156128c3576128c26123a6565b5b60018516156128d25780820291505b80810290506128e085612890565b94506128a7565b94509492505050565b60008261290057600190506129bc565b8161290e57600090506129bc565b8160018114612924576002811461292e5761295d565b60019150506129bc565b60ff8411156129405761293f6123a6565b5b8360020a915084821115612957576129566123a6565b5b506129bc565b5060208310610133831016604e8410600b84101617156129925782820a90508381111561298d5761298c6123a6565b5b6129bc565b61299f848484600161289d565b925090508184048111156129b6576129b56123a6565b5b81810290505b9392505050565b60006129ce82611b60565b91506129d983611b60565b9250612a067fffffffffffffffffffffffffffffffffffffffffffffffffffffffffffffffff84846128f0565b90509291505056fe68747470733a2f2f79666b6f6361717a75382e657865637574652d6170692e75732d656173742d312e616d617a6f6e6177732e636f6d2f746573742f72656769737465723f616464726573733da26469706673582212202b16c4b3cbe3c2e12b40d918aae974da7fc0e7571311e82fcf8fc36b99c8765264736f6c634300080c0033",
  "devdoc": {
    "kind": "dev",
    "methods": {},
    "version": 1
  },
  "userdoc": {
    "kind": "user",
    "methods": {
      "acceptOwnership()": {
        "notice": "Allows an ownership transfer to be completed by the recipient."
      },
      "owner()": {
        "notice": "Get the current owner"
      },
      "transferOwnership(address)": {
        "notice": "Allows an owner to begin transferring ownership to a new address, pending."
      }
    },
    "version": 1
  },
  "storageLayout": {
    "storage": [
      {
        "astId": 319,
        "contract": "contracts/OffchainParkingDataResponse.sol:OffchainParkingDataResponse",
        "label": "s_ens",
        "offset": 0,
        "slot": "0",
        "type": "t_contract(ENSInterface)1214"
      },
      {
        "astId": 321,
        "contract": "contracts/OffchainParkingDataResponse.sol:OffchainParkingDataResponse",
        "label": "s_ensNode",
        "offset": 0,
        "slot": "1",
        "type": "t_bytes32"
      },
      {
        "astId": 324,
        "contract": "contracts/OffchainParkingDataResponse.sol:OffchainParkingDataResponse",
        "label": "s_link",
        "offset": 0,
        "slot": "2",
        "type": "t_contract(LinkTokenInterface)1309"
      },
      {
        "astId": 327,
        "contract": "contracts/OffchainParkingDataResponse.sol:OffchainParkingDataResponse",
        "label": "s_oracle",
        "offset": 0,
        "slot": "3",
        "type": "t_contract(OperatorInterface)1389"
      },
      {
        "astId": 330,
        "contract": "contracts/OffchainParkingDataResponse.sol:OffchainParkingDataResponse",
        "label": "s_requestCount",
        "offset": 0,
        "slot": "4",
        "type": "t_uint256"
      },
      {
        "astId": 334,
        "contract": "contracts/OffchainParkingDataResponse.sol:OffchainParkingDataResponse",
        "label": "s_pendingRequests",
        "offset": 0,
        "slot": "5",
        "type": "t_mapping(t_bytes32,t_address)"
      },
      {
        "astId": 889,
        "contract": "contracts/OffchainParkingDataResponse.sol:OffchainParkingDataResponse",
        "label": "s_owner",
        "offset": 0,
        "slot": "6",
        "type": "t_address"
      },
      {
        "astId": 891,
        "contract": "contracts/OffchainParkingDataResponse.sol:OffchainParkingDataResponse",
        "label": "s_pendingOwner",
        "offset": 0,
        "slot": "7",
        "type": "t_address"
      },
      {
        "astId": 7197,
        "contract": "contracts/OffchainParkingDataResponse.sol:OffchainParkingDataResponse",
        "label": "data",
        "offset": 0,
        "slot": "8",
        "type": "t_bytes_storage"
      },
      {
        "astId": 7199,
        "contract": "contracts/OffchainParkingDataResponse.sol:OffchainParkingDataResponse",
        "label": "parking_spot_location",
        "offset": 0,
        "slot": "9",
        "type": "t_bytes32"
      },
      {
        "astId": 7201,
        "contract": "contracts/OffchainParkingDataResponse.sol:OffchainParkingDataResponse",
        "label": "parkingSpotRequesterAddr",
        "offset": 0,
        "slot": "10",
        "type": "t_address"
      },
      {
        "astId": 7203,
        "contract": "contracts/OffchainParkingDataResponse.sol:OffchainParkingDataResponse",
        "label": "jobId",
        "offset": 0,
        "slot": "11",
        "type": "t_bytes32"
      },
      {
        "astId": 7205,
        "contract": "contracts/OffchainParkingDataResponse.sol:OffchainParkingDataResponse",
        "label": "fee",
        "offset": 0,
        "slot": "12",
        "type": "t_uint256"
      },
      {
        "astId": 7242,
        "contract": "contracts/OffchainParkingDataResponse.sol:OffchainParkingDataResponse",
        "label": "parkingSpotLocationOwnerArray",
        "offset": 0,
        "slot": "13",
        "type": "t_mapping(t_address,t_array(t_bytes32)dyn_storage)"
      },
      {
        "astId": 7246,
        "contract": "contracts/OffchainParkingDataResponse.sol:OffchainParkingDataResponse",
        "label": "parkingSpotLocationOwner",
        "offset": 0,
        "slot": "14",
        "type": "t_mapping(t_address,t_bytes32)"
      }
    ],
    "types": {
      "t_address": {
        "encoding": "inplace",
        "label": "address",
        "numberOfBytes": "20"
      },
      "t_array(t_bytes32)dyn_storage": {
        "base": "t_bytes32",
        "encoding": "dynamic_array",
        "label": "bytes32[]",
        "numberOfBytes": "32"
      },
      "t_bytes32": {
        "encoding": "inplace",
        "label": "bytes32",
        "numberOfBytes": "32"
      },
      "t_bytes_storage": {
        "encoding": "bytes",
        "label": "bytes",
        "numberOfBytes": "32"
      },
      "t_contract(ENSInterface)1214": {
        "encoding": "inplace",
        "label": "contract ENSInterface",
        "numberOfBytes": "20"
      },
      "t_contract(LinkTokenInterface)1309": {
        "encoding": "inplace",
        "label": "contract LinkTokenInterface",
        "numberOfBytes": "20"
      },
      "t_contract(OperatorInterface)1389": {
        "encoding": "inplace",
        "label": "contract OperatorInterface",
        "numberOfBytes": "20"
      },
      "t_mapping(t_address,t_array(t_bytes32)dyn_storage)": {
        "encoding": "mapping",
        "key": "t_address",
        "label": "mapping(address => bytes32[])",
        "numberOfBytes": "32",
        "value": "t_array(t_bytes32)dyn_storage"
      },
      "t_mapping(t_address,t_bytes32)": {
        "encoding": "mapping",
        "key": "t_address",
        "label": "mapping(address => bytes32)",
        "numberOfBytes": "32",
        "value": "t_bytes32"
      },
      "t_mapping(t_bytes32,t_address)": {
        "encoding": "mapping",
        "key": "t_bytes32",
        "label": "mapping(bytes32 => address)",
        "numberOfBytes": "32",
        "value": "t_address"
      },
      "t_uint256": {
        "encoding": "inplace",
        "label": "uint256",
        "numberOfBytes": "32"
      }
    }
  }
}