{
  "address": "0xCf7Ed3AccA5a467e9e704C703E8D87F634fB0Fc9",
  "abi": [
    {
      "inputs": [],
      "stateMutability": "nonpayable",
      "type": "constructor"
    },
    {
      "anonymous": false,
      "inputs": [
        {
          "indexed": true,
          "internalType": "address",
          "name": "owner",
          "type": "address"
        },
        {
          "indexed": true,
          "internalType": "address",
          "name": "approved",
          "type": "address"
        },
        {
          "indexed": true,
          "internalType": "uint256",
          "name": "tokenId",
          "type": "uint256"
        }
      ],
      "name": "Approval",
      "type": "event"
    },
    {
      "anonymous": false,
      "inputs": [
        {
          "indexed": true,
          "internalType": "address",
          "name": "owner",
          "type": "address"
        },
        {
          "indexed": true,
          "internalType": "address",
          "name": "operator",
          "type": "address"
        },
        {
          "indexed": false,
          "internalType": "bool",
          "name": "approved",
          "type": "bool"
        }
      ],
      "name": "ApprovalForAll",
      "type": "event"
    },
    {
      "anonymous": false,
      "inputs": [
        {
          "indexed": true,
          "internalType": "address",
          "name": "from",
          "type": "address"
        },
        {
          "indexed": true,
          "internalType": "address",
          "name": "to",
          "type": "address"
        },
        {
          "indexed": true,
          "internalType": "uint256",
          "name": "tokenId",
          "type": "uint256"
        }
      ],
      "name": "Transfer",
      "type": "event"
    },
    {
      "inputs": [
        {
          "internalType": "address",
          "name": "to",
          "type": "address"
        },
        {
          "internalType": "uint256",
          "name": "tokenId",
          "type": "uint256"
        }
      ],
      "name": "approve",
      "outputs": [],
      "stateMutability": "nonpayable",
      "type": "function"
    },
    {
      "inputs": [
        {
          "internalType": "address",
          "name": "owner",
          "type": "address"
        }
      ],
      "name": "balanceOf",
      "outputs": [
        {
          "internalType": "uint256",
          "name": "",
          "type": "uint256"
        }
      ],
      "stateMutability": "view",
      "type": "function"
    },
    {
      "inputs": [
        {
          "internalType": "uint256",
          "name": "tokenId",
          "type": "uint256"
        }
      ],
      "name": "getApproved",
      "outputs": [
        {
          "internalType": "address",
          "name": "",
          "type": "address"
        }
      ],
      "stateMutability": "view",
      "type": "function"
    },
    {
      "inputs": [
        {
          "internalType": "address",
          "name": "owner",
          "type": "address"
        },
        {
          "internalType": "address",
          "name": "operator",
          "type": "address"
        }
      ],
      "name": "isApprovedForAll",
      "outputs": [
        {
          "internalType": "bool",
          "name": "",
          "type": "bool"
        }
      ],
      "stateMutability": "view",
      "type": "function"
    },
    {
      "inputs": [
        {
          "internalType": "address",
          "name": "user",
          "type": "address"
        },
        {
          "internalType": "uint16",
          "name": "_index",
          "type": "uint16"
        }
      ],
      "name": "mintParkingSpot",
      "outputs": [
        {
          "internalType": "uint256",
          "name": "",
          "type": "uint256"
        }
      ],
      "stateMutability": "nonpayable",
      "type": "function"
    },
    {
      "inputs": [],
      "name": "name",
      "outputs": [
        {
          "internalType": "string",
          "name": "",
          "type": "string"
        }
      ],
      "stateMutability": "view",
      "type": "function"
    },
    {
      "inputs": [
        {
          "internalType": "uint256",
          "name": "tokenId",
          "type": "uint256"
        }
      ],
      "name": "ownerOf",
      "outputs": [
        {
          "internalType": "address",
          "name": "",
          "type": "address"
        }
      ],
      "stateMutability": "view",
      "type": "function"
    },
    {
      "inputs": [
        {
          "internalType": "address",
          "name": "from",
          "type": "address"
        },
        {
          "internalType": "address",
          "name": "to",
          "type": "address"
        },
        {
          "internalType": "uint256",
          "name": "tokenId",
          "type": "uint256"
        }
      ],
      "name": "safeTransferFrom",
      "outputs": [],
      "stateMutability": "nonpayable",
      "type": "function"
    },
    {
      "inputs": [
        {
          "internalType": "address",
          "name": "from",
          "type": "address"
        },
        {
          "internalType": "address",
          "name": "to",
          "type": "address"
        },
        {
          "internalType": "uint256",
          "name": "tokenId",
          "type": "uint256"
        },
        {
          "internalType": "bytes",
          "name": "data",
          "type": "bytes"
        }
      ],
      "name": "safeTransferFrom",
      "outputs": [],
      "stateMutability": "nonpayable",
      "type": "function"
    },
    {
      "inputs": [
        {
          "internalType": "address",
          "name": "operator",
          "type": "address"
        },
        {
          "internalType": "bool",
          "name": "approved",
          "type": "bool"
        }
      ],
      "name": "setApprovalForAll",
      "outputs": [],
      "stateMutability": "nonpayable",
      "type": "function"
    },
    {
      "inputs": [
        {
          "internalType": "bytes32",
          "name": "",
          "type": "bytes32"
        }
      ],
      "name": "spotTokenised",
      "outputs": [
        {
          "internalType": "bool",
          "name": "",
          "type": "bool"
        }
      ],
      "stateMutability": "view",
      "type": "function"
    },
    {
      "inputs": [
        {
          "internalType": "bytes4",
          "name": "interfaceId",
          "type": "bytes4"
        }
      ],
      "name": "supportsInterface",
      "outputs": [
        {
          "internalType": "bool",
          "name": "",
          "type": "bool"
        }
      ],
      "stateMutability": "view",
      "type": "function"
    },
    {
      "inputs": [],
      "name": "symbol",
      "outputs": [
        {
          "internalType": "string",
          "name": "",
          "type": "string"
        }
      ],
      "stateMutability": "view",
      "type": "function"
    },
    {
      "inputs": [
        {
          "internalType": "uint256",
          "name": "tokenId",
          "type": "uint256"
        }
      ],
      "name": "tokenURI",
      "outputs": [
        {
          "internalType": "string",
          "name": "",
          "type": "string"
        }
      ],
      "stateMutability": "view",
      "type": "function"
    },
    {
      "inputs": [
        {
          "internalType": "address",
          "name": "from",
          "type": "address"
        },
        {
          "internalType": "address",
          "name": "to",
          "type": "address"
        },
        {
          "internalType": "uint256",
          "name": "tokenId",
          "type": "uint256"
        }
      ],
      "name": "transferFrom",
      "outputs": [],
      "stateMutability": "nonpayable",
      "type": "function"
    }
  ],
  "transactionHash": "0x562c33ad1090313f6251240f3504194d5d82224acc5d29959723fff00b7b87f6",
  "args": [],
  "numDeployments": 1,
  "solcInputHash": "60bb262414d4da0273f1fd7717239433",
  "bytecode": "0x60806040523480156200001157600080fd5b506040518060400160405280601081526020017f5061726b696e6753706f74546f6b656e000000000000000000000000000000008152506040518060400160405280600381526020017f5053540000000000000000000000000000000000000000000000000000000000815250816000908051906020019062000096929190620000b8565b508060019080519060200190620000af929190620000b8565b505050620001cd565b828054620000c69062000197565b90600052602060002090601f016020900481019282620000ea576000855562000136565b82601f106200010557805160ff191683800117855562000136565b8280016001018555821562000136579182015b828111156200013557825182559160200191906001019062000118565b5b50905062000145919062000149565b5090565b5b80821115620001645760008160009055506001016200014a565b5090565b7f4e487b7100000000000000000000000000000000000000000000000000000000600052602260045260246000fd5b60006002820490506001821680620001b057607f821691505b60208210811415620001c757620001c662000168565b5b50919050565b612ef280620001dd6000396000f3fe608060405234801561001057600080fd5b50600436106100f55760003560e01c80636352211e11610097578063b88d4fde11610066578063b88d4fde14610296578063c87b56dd146102b2578063cc6b64a4146102e2578063e985e9c514610312576100f5565b80636352211e146101fc57806370a082311461022c57806395d89b411461025c578063a22cb4651461027a576100f5565b8063095ea7b3116100d3578063095ea7b31461017857806323b872dd146101945780632d67219e146101b057806342842e0e146101e0576100f5565b806301ffc9a7146100fa57806306fdde031461012a578063081812fc14610148575b600080fd5b610114600480360381019061010f9190611cb5565b610342565b6040516101219190611cfd565b60405180910390f35b610132610424565b60405161013f9190611db1565b60405180910390f35b610162600480360381019061015d9190611e09565b6104b6565b60405161016f9190611e77565b60405180910390f35b610192600480360381019061018d9190611ebe565b6104fc565b005b6101ae60048036038101906101a99190611efe565b610614565b005b6101ca60048036038101906101c59190611f8b565b610674565b6040516101d79190611fda565b60405180910390f35b6101fa60048036038101906101f59190611efe565b6106ba565b005b61021660048036038101906102119190611e09565b6106da565b6040516102239190611e77565b60405180910390f35b61024660048036038101906102419190611ff5565b61078c565b6040516102539190611fda565b60405180910390f35b610264610844565b6040516102719190611db1565b60405180910390f35b610294600480360381019061028f919061204e565b6108d6565b005b6102b060048036038101906102ab91906121c3565b6108ec565b005b6102cc60048036038101906102c79190611e09565b61094e565b6040516102d99190611db1565b60405180910390f35b6102fc60048036038101906102f7919061227c565b610a61565b6040516103099190611cfd565b60405180910390f35b61032c600480360381019061032791906122a9565b610a81565b6040516103399190611cfd565b60405180910390f35b60007f80ac58cd000000000000000000000000000000000000000000000000000000007bffffffffffffffffffffffffffffffffffffffffffffffffffffffff1916827bffffffffffffffffffffffffffffffffffffffffffffffffffffffff1916148061040d57507f5b5e139f000000000000000000000000000000000000000000000000000000007bffffffffffffffffffffffffffffffffffffffffffffffffffffffff1916827bffffffffffffffffffffffffffffffffffffffffffffffffffffffff1916145b8061041d575061041c82610b15565b5b9050919050565b60606000805461043390612318565b80601f016020809104026020016040519081016040528092919081815260200182805461045f90612318565b80156104ac5780601f10610481576101008083540402835291602001916104ac565b820191906000526020600020905b81548152906001019060200180831161048f57829003601f168201915b5050505050905090565b60006104c182610b7f565b6004600083815260200190815260200160002060009054906101000a900473ffffffffffffffffffffffffffffffffffffffff169050919050565b6000610507826106da565b90508073ffffffffffffffffffffffffffffffffffffffff168373ffffffffffffffffffffffffffffffffffffffff161415610578576040517f08c379a000000000000000000000000000000000000000000000000000000000815260040161056f906123bc565b60405180910390fd5b8073ffffffffffffffffffffffffffffffffffffffff16610597610bca565b73ffffffffffffffffffffffffffffffffffffffff1614806105c657506105c5816105c0610bca565b610a81565b5b610605576040517f08c379a00000000000000000000000000000000000000000000000000000000081526004016105fc9061244e565b60405180910390fd5b61060f8383610bd2565b505050565b61062561061f610bca565b82610c8b565b610664576040517f08c379a000000000000000000000000000000000000000000000000000000000815260040161065b906124e0565b60405180910390fd5b61066f838383610d20565b505050565b60006106806008610f87565b600061068b83610f9d565b905060006106996008610fc3565b90506106a58582610fd1565b6106af81836111ab565b809250505092915050565b6106d5838383604051806020016040528060008152506108ec565b505050565b6000806002600084815260200190815260200160002060009054906101000a900473ffffffffffffffffffffffffffffffffffffffff169050600073ffffffffffffffffffffffffffffffffffffffff168173ffffffffffffffffffffffffffffffffffffffff161415610783576040517f08c379a000000000000000000000000000000000000000000000000000000000815260040161077a9061254c565b60405180910390fd5b80915050919050565b60008073ffffffffffffffffffffffffffffffffffffffff168273ffffffffffffffffffffffffffffffffffffffff1614156107fd576040517f08c379a00000000000000000000000000000000000000000000000000000000081526004016107f4906125de565b60405180910390fd5b600360008373ffffffffffffffffffffffffffffffffffffffff1673ffffffffffffffffffffffffffffffffffffffff168152602001908152602001600020549050919050565b60606001805461085390612318565b80601f016020809104026020016040519081016040528092919081815260200182805461087f90612318565b80156108cc5780601f106108a1576101008083540402835291602001916108cc565b820191906000526020600020905b8154815290600101906020018083116108af57829003601f168201915b5050505050905090565b6108e86108e1610bca565b838361121f565b5050565b6108fd6108f7610bca565b83610c8b565b61093c576040517f08c379a0000000000000000000000000000000000000000000000000000000008152600401610933906124e0565b60405180910390fd5b6109488484848461138c565b50505050565b606061095982610b7f565b600060066000848152602001908152602001600020805461097990612318565b80601f01602080910402602001604051908101604052809291908181526020018280546109a590612318565b80156109f25780601f106109c7576101008083540402835291602001916109f2565b820191906000526020600020905b8154815290600101906020018083116109d557829003601f168201915b505050505090506000610a036113e8565b9050600081511415610a19578192505050610a5c565b600082511115610a4e578082604051602001610a3692919061263a565b60405160208183030381529060405292505050610a5c565b610a57846113ff565b925050505b919050565b60076020528060005260406000206000915054906101000a900460ff1681565b6000600560008473ffffffffffffffffffffffffffffffffffffffff1673ffffffffffffffffffffffffffffffffffffffff16815260200190815260200160002060008373ffffffffffffffffffffffffffffffffffffffff1673ffffffffffffffffffffffffffffffffffffffff16815260200190815260200160002060009054906101000a900460ff16905092915050565b60007f01ffc9a7000000000000000000000000000000000000000000000000000000007bffffffffffffffffffffffffffffffffffffffffffffffffffffffff1916827bffffffffffffffffffffffffffffffffffffffffffffffffffffffff1916149050919050565b610b8881611467565b610bc7576040517f08c379a0000000000000000000000000000000000000000000000000000000008152600401610bbe9061254c565b60405180910390fd5b50565b600033905090565b816004600083815260200190815260200160002060006101000a81548173ffffffffffffffffffffffffffffffffffffffff021916908373ffffffffffffffffffffffffffffffffffffffff160217905550808273ffffffffffffffffffffffffffffffffffffffff16610c45836106da565b73ffffffffffffffffffffffffffffffffffffffff167f8c5be1e5ebec7d5bd14f71427d1e84f3dd0314c0f7b2291e5b200ac8c7c3b92560405160405180910390a45050565b600080610c97836106da565b90508073ffffffffffffffffffffffffffffffffffffffff168473ffffffffffffffffffffffffffffffffffffffff161480610cd95750610cd88185610a81565b5b80610d1757508373ffffffffffffffffffffffffffffffffffffffff16610cff846104b6565b73ffffffffffffffffffffffffffffffffffffffff16145b91505092915050565b8273ffffffffffffffffffffffffffffffffffffffff16610d40826106da565b73ffffffffffffffffffffffffffffffffffffffff1614610d96576040517f08c379a0000000000000000000000000000000000000000000000000000000008152600401610d8d906126d0565b60405180910390fd5b600073ffffffffffffffffffffffffffffffffffffffff168273ffffffffffffffffffffffffffffffffffffffff161415610e06576040517f08c379a0000000000000000000000000000000000000000000000000000000008152600401610dfd90612762565b60405180910390fd5b610e118383836114d3565b610e1c600082610bd2565b6001600360008573ffffffffffffffffffffffffffffffffffffffff1673ffffffffffffffffffffffffffffffffffffffff1681526020019081526020016000206000828254610e6c91906127b1565b925050819055506001600360008473ffffffffffffffffffffffffffffffffffffffff1673ffffffffffffffffffffffffffffffffffffffff1681526020019081526020016000206000828254610ec391906127e5565b92505081905550816002600083815260200190815260200160002060006101000a81548173ffffffffffffffffffffffffffffffffffffffff021916908373ffffffffffffffffffffffffffffffffffffffff160217905550808273ffffffffffffffffffffffffffffffffffffffff168473ffffffffffffffffffffffffffffffffffffffff167fddf252ad1be2c89b69c2b068fc378daa952ba7f163c4a11628f55a4df523b3ef60405160405180910390a4610f828383836114d8565b505050565b6001816000016000828254019250508190555050565b60606000610faa836114dd565b90506000610fb782611576565b90508092505050919050565b600081600001549050919050565b600073ffffffffffffffffffffffffffffffffffffffff168273ffffffffffffffffffffffffffffffffffffffff161415611041576040517f08c379a000000000000000000000000000000000000000000000000000000000815260040161103890612887565b60405180910390fd5b61104a81611467565b1561108a576040517f08c379a0000000000000000000000000000000000000000000000000000000008152600401611081906128f3565b60405180910390fd5b611096600083836114d3565b6001600360008473ffffffffffffffffffffffffffffffffffffffff1673ffffffffffffffffffffffffffffffffffffffff16815260200190815260200160002060008282546110e691906127e5565b92505081905550816002600083815260200190815260200160002060006101000a81548173ffffffffffffffffffffffffffffffffffffffff021916908373ffffffffffffffffffffffffffffffffffffffff160217905550808273ffffffffffffffffffffffffffffffffffffffff16600073ffffffffffffffffffffffffffffffffffffffff167fddf252ad1be2c89b69c2b068fc378daa952ba7f163c4a11628f55a4df523b3ef60405160405180910390a46111a7600083836114d8565b5050565b6111b482611467565b6111f3576040517f08c379a00000000000000000000000000000000000000000000000000000000081526004016111ea90612985565b60405180910390fd5b8060066000848152602001908152602001600020908051906020019061121a929190611ba6565b505050565b8173ffffffffffffffffffffffffffffffffffffffff168373ffffffffffffffffffffffffffffffffffffffff16141561128e576040517f08c379a0000000000000000000000000000000000000000000000000000000008152600401611285906129f1565b60405180910390fd5b80600560008573ffffffffffffffffffffffffffffffffffffffff1673ffffffffffffffffffffffffffffffffffffffff16815260200190815260200160002060008473ffffffffffffffffffffffffffffffffffffffff1673ffffffffffffffffffffffffffffffffffffffff16815260200190815260200160002060006101000a81548160ff0219169083151502179055508173ffffffffffffffffffffffffffffffffffffffff168373ffffffffffffffffffffffffffffffffffffffff167f17307eab39ab6107e8899845ad3d59bd9653f200f220920489ca2b5937696c318360405161137f9190611cfd565b60405180910390a3505050565b611397848484610d20565b6113a384848484611634565b6113e2576040517f08c379a00000000000000000000000000000000000000000000000000000000081526004016113d990612a83565b60405180910390fd5b50505050565b606060405180602001604052806000815250905090565b606061140a82610b7f565b60006114146113e8565b90506000815111611434576040518060200160405280600081525061145f565b8061143e846117bc565b60405160200161144f92919061263a565b6040516020818303038152906040525b915050919050565b60008073ffffffffffffffffffffffffffffffffffffffff166002600084815260200190815260200160002060009054906101000a900473ffffffffffffffffffffffffffffffffffffffff1673ffffffffffffffffffffffffffffffffffffffff1614159050919050565b505050565b505050565b6000739fe46736679d2d9a65f0992f2272de9f3c7fa6e073ffffffffffffffffffffffffffffffffffffffff16630902d94933846040518363ffffffff1660e01b815260040161152e929190612ab2565b602060405180830381865afa15801561154b573d6000803e3d6000fd5b505050506040513d601f19601f8201168201806040525081019061156f9190612af0565b9050919050565b60606115818261191d565b156115c1576040517f08c379a00000000000000000000000000000000000000000000000000000000081526004016115b890612b8f565b60405180910390fd5b6000604051806060016040528060318152602001612e8c60319139905060006116013373ffffffffffffffffffffffffffffffffffffffff166020611947565b90506000828260405160200161161892919061263a565b6040516020818303038152906040529050809350505050919050565b60006116558473ffffffffffffffffffffffffffffffffffffffff16611b83565b156117af578373ffffffffffffffffffffffffffffffffffffffff1663150b7a0261167e610bca565b8786866040518563ffffffff1660e01b81526004016116a09493929190612c04565b6020604051808303816000875af19250505080156116dc57506040513d601f19601f820116820180604052508101906116d99190612c65565b60015b61175f573d806000811461170c576040519150601f19603f3d011682016040523d82523d6000602084013e611711565b606091505b50600081511415611757576040517f08c379a000000000000000000000000000000000000000000000000000000000815260040161174e90612a83565b60405180910390fd5b805181602001fd5b63150b7a0260e01b7bffffffffffffffffffffffffffffffffffffffffffffffffffffffff1916817bffffffffffffffffffffffffffffffffffffffffffffffffffffffff1916149150506117b4565b600190505b949350505050565b60606000821415611804576040518060400160405280600181526020017f30000000000000000000000000000000000000000000000000000000000000008152509050611918565b600082905060005b6000821461183657808061181f90612c92565b915050600a8261182f9190612d0a565b915061180c565b60008167ffffffffffffffff81111561185257611851612098565b5b6040519080825280601f01601f1916602001820160405280156118845781602001600182028036833780820191505090505b5090505b600085146119115760018261189d91906127b1565b9150600a856118ac9190612d3b565b60306118b891906127e5565b60f81b8183815181106118ce576118cd612d6c565b5b60200101907effffffffffffffffffffffffffffffffffffffffffffffffffffffffffffff1916908160001a905350600a8561190a9190612d0a565b9450611888565b8093505050505b919050565b60006007600083815260200190815260200160002060009054906101000a900460ff169050919050565b60606000600283600261195a9190612d9b565b61196491906127e5565b67ffffffffffffffff81111561197d5761197c612098565b5b6040519080825280601f01601f1916602001820160405280156119af5781602001600182028036833780820191505090505b5090507f3000000000000000000000000000000000000000000000000000000000000000816000815181106119e7576119e6612d6c565b5b60200101907effffffffffffffffffffffffffffffffffffffffffffffffffffffffffffff1916908160001a9053507f780000000000000000000000000000000000000000000000000000000000000081600181518110611a4b57611a4a612d6c565b5b60200101907effffffffffffffffffffffffffffffffffffffffffffffffffffffffffffff1916908160001a90535060006001846002611a8b9190612d9b565b611a9591906127e5565b90505b6001811115611b35577f3031323334353637383961626364656600000000000000000000000000000000600f861660108110611ad757611ad6612d6c565b5b1a60f81b828281518110611aee57611aed612d6c565b5b60200101907effffffffffffffffffffffffffffffffffffffffffffffffffffffffffffff1916908160001a905350600485901c945080611b2e90612df5565b9050611a98565b5060008414611b79576040517f08c379a0000000000000000000000000000000000000000000000000000000008152600401611b7090612e6b565b60405180910390fd5b8091505092915050565b6000808273ffffffffffffffffffffffffffffffffffffffff163b119050919050565b828054611bb290612318565b90600052602060002090601f016020900481019282611bd45760008555611c1b565b82601f10611bed57805160ff1916838001178555611c1b565b82800160010185558215611c1b579182015b82811115611c1a578251825591602001919060010190611bff565b5b509050611c289190611c2c565b5090565b5b80821115611c45576000816000905550600101611c2d565b5090565b6000604051905090565b600080fd5b600080fd5b60007fffffffff0000000000000000000000000000000000000000000000000000000082169050919050565b611c9281611c5d565b8114611c9d57600080fd5b50565b600081359050611caf81611c89565b92915050565b600060208284031215611ccb57611cca611c53565b5b6000611cd984828501611ca0565b91505092915050565b60008115159050919050565b611cf781611ce2565b82525050565b6000602082019050611d126000830184611cee565b92915050565b600081519050919050565b600082825260208201905092915050565b60005b83811015611d52578082015181840152602081019050611d37565b83811115611d61576000848401525b50505050565b6000601f19601f8301169050919050565b6000611d8382611d18565b611d8d8185611d23565b9350611d9d818560208601611d34565b611da681611d67565b840191505092915050565b60006020820190508181036000830152611dcb8184611d78565b905092915050565b6000819050919050565b611de681611dd3565b8114611df157600080fd5b50565b600081359050611e0381611ddd565b92915050565b600060208284031215611e1f57611e1e611c53565b5b6000611e2d84828501611df4565b91505092915050565b600073ffffffffffffffffffffffffffffffffffffffff82169050919050565b6000611e6182611e36565b9050919050565b611e7181611e56565b82525050565b6000602082019050611e8c6000830184611e68565b92915050565b611e9b81611e56565b8114611ea657600080fd5b50565b600081359050611eb881611e92565b92915050565b60008060408385031215611ed557611ed4611c53565b5b6000611ee385828601611ea9565b9250506020611ef485828601611df4565b9150509250929050565b600080600060608486031215611f1757611f16611c53565b5b6000611f2586828701611ea9565b9350506020611f3686828701611ea9565b9250506040611f4786828701611df4565b9150509250925092565b600061ffff82169050919050565b611f6881611f51565b8114611f7357600080fd5b50565b600081359050611f8581611f5f565b92915050565b60008060408385031215611fa257611fa1611c53565b5b6000611fb085828601611ea9565b9250506020611fc185828601611f76565b9150509250929050565b611fd481611dd3565b82525050565b6000602082019050611fef6000830184611fcb565b92915050565b60006020828403121561200b5761200a611c53565b5b600061201984828501611ea9565b91505092915050565b61202b81611ce2565b811461203657600080fd5b50565b60008135905061204881612022565b92915050565b6000806040838503121561206557612064611c53565b5b600061207385828601611ea9565b925050602061208485828601612039565b9150509250929050565b600080fd5b600080fd5b7f4e487b7100000000000000000000000000000000000000000000000000000000600052604160045260246000fd5b6120d082611d67565b810181811067ffffffffffffffff821117156120ef576120ee612098565b5b80604052505050565b6000612102611c49565b905061210e82826120c7565b919050565b600067ffffffffffffffff82111561212e5761212d612098565b5b61213782611d67565b9050602081019050919050565b82818337600083830152505050565b600061216661216184612113565b6120f8565b90508281526020810184848401111561218257612181612093565b5b61218d848285612144565b509392505050565b600082601f8301126121aa576121a961208e565b5b81356121ba848260208601612153565b91505092915050565b600080600080608085870312156121dd576121dc611c53565b5b60006121eb87828801611ea9565b94505060206121fc87828801611ea9565b935050604061220d87828801611df4565b925050606085013567ffffffffffffffff81111561222e5761222d611c58565b5b61223a87828801612195565b91505092959194509250565b6000819050919050565b61225981612246565b811461226457600080fd5b50565b60008135905061227681612250565b92915050565b60006020828403121561229257612291611c53565b5b60006122a084828501612267565b91505092915050565b600080604083850312156122c0576122bf611c53565b5b60006122ce85828601611ea9565b92505060206122df85828601611ea9565b9150509250929050565b7f4e487b7100000000000000000000000000000000000000000000000000000000600052602260045260246000fd5b6000600282049050600182168061233057607f821691505b60208210811415612344576123436122e9565b5b50919050565b7f4552433732313a20617070726f76616c20746f2063757272656e74206f776e6560008201527f7200000000000000000000000000000000000000000000000000000000000000602082015250565b60006123a6602183611d23565b91506123b18261234a565b604082019050919050565b600060208201905081810360008301526123d581612399565b9050919050565b7f4552433732313a20617070726f76652063616c6c6572206973206e6f7420746f60008201527f6b656e206f776e6572206e6f7220617070726f76656420666f7220616c6c0000602082015250565b6000612438603e83611d23565b9150612443826123dc565b604082019050919050565b600060208201905081810360008301526124678161242b565b9050919050565b7f4552433732313a2063616c6c6572206973206e6f7420746f6b656e206f776e6560008201527f72206e6f7220617070726f766564000000000000000000000000000000000000602082015250565b60006124ca602e83611d23565b91506124d58261246e565b604082019050919050565b600060208201905081810360008301526124f9816124bd565b9050919050565b7f4552433732313a20696e76616c696420746f6b656e2049440000000000000000600082015250565b6000612536601883611d23565b915061254182612500565b602082019050919050565b6000602082019050818103600083015261256581612529565b9050919050565b7f4552433732313a2061646472657373207a65726f206973206e6f74206120766160008201527f6c6964206f776e65720000000000000000000000000000000000000000000000602082015250565b60006125c8602983611d23565b91506125d38261256c565b604082019050919050565b600060208201905081810360008301526125f7816125bb565b9050919050565b600081905092915050565b600061261482611d18565b61261e81856125fe565b935061262e818560208601611d34565b80840191505092915050565b60006126468285612609565b91506126528284612609565b91508190509392505050565b7f4552433732313a207472616e736665722066726f6d20696e636f72726563742060008201527f6f776e6572000000000000000000000000000000000000000000000000000000602082015250565b60006126ba602583611d23565b91506126c58261265e565b604082019050919050565b600060208201905081810360008301526126e9816126ad565b9050919050565b7f4552433732313a207472616e7366657220746f20746865207a65726f2061646460008201527f7265737300000000000000000000000000000000000000000000000000000000602082015250565b600061274c602483611d23565b9150612757826126f0565b604082019050919050565b6000602082019050818103600083015261277b8161273f565b9050919050565b7f4e487b7100000000000000000000000000000000000000000000000000000000600052601160045260246000fd5b60006127bc82611dd3565b91506127c783611dd3565b9250828210156127da576127d9612782565b5b828203905092915050565b60006127f082611dd3565b91506127fb83611dd3565b9250827fffffffffffffffffffffffffffffffffffffffffffffffffffffffffffffffff038211156128305761282f612782565b5b828201905092915050565b7f4552433732313a206d696e7420746f20746865207a65726f2061646472657373600082015250565b6000612871602083611d23565b915061287c8261283b565b602082019050919050565b600060208201905081810360008301526128a081612864565b9050919050565b7f4552433732313a20746f6b656e20616c7265616479206d696e74656400000000600082015250565b60006128dd601c83611d23565b91506128e8826128a7565b602082019050919050565b6000602082019050818103600083015261290c816128d0565b9050919050565b7f45524337323155524953746f726167653a2055524920736574206f66206e6f6e60008201527f6578697374656e7420746f6b656e000000000000000000000000000000000000602082015250565b600061296f602e83611d23565b915061297a82612913565b604082019050919050565b6000602082019050818103600083015261299e81612962565b9050919050565b7f4552433732313a20617070726f766520746f2063616c6c657200000000000000600082015250565b60006129db601983611d23565b91506129e6826129a5565b602082019050919050565b60006020820190508181036000830152612a0a816129ce565b9050919050565b7f4552433732313a207472616e7366657220746f206e6f6e20455243373231526560008201527f63656976657220696d706c656d656e7465720000000000000000000000000000602082015250565b6000612a6d603283611d23565b9150612a7882612a11565b604082019050919050565b60006020820190508181036000830152612a9c81612a60565b9050919050565b612aac81611f51565b82525050565b6000604082019050612ac76000830185611e68565b612ad46020830184612aa3565b9392505050565b600081519050612aea81612250565b92915050565b600060208284031215612b0657612b05611c53565b5b6000612b1484828501612adb565b91505092915050565b7f5061726b696e672073706f7420636f2d6f7264696e617465732061726520616c60008201527f7265616479206d696e746564206173206120746f6b656e000000000000000000602082015250565b6000612b79603783611d23565b9150612b8482612b1d565b604082019050919050565b60006020820190508181036000830152612ba881612b6c565b9050919050565b600081519050919050565b600082825260208201905092915050565b6000612bd682612baf565b612be08185612bba565b9350612bf0818560208601611d34565b612bf981611d67565b840191505092915050565b6000608082019050612c196000830187611e68565b612c266020830186611e68565b612c336040830185611fcb565b8181036060830152612c458184612bcb565b905095945050505050565b600081519050612c5f81611c89565b92915050565b600060208284031215612c7b57612c7a611c53565b5b6000612c8984828501612c50565b91505092915050565b6000612c9d82611dd3565b91507fffffffffffffffffffffffffffffffffffffffffffffffffffffffffffffffff821415612cd057612ccf612782565b5b600182019050919050565b7f4e487b7100000000000000000000000000000000000000000000000000000000600052601260045260246000fd5b6000612d1582611dd3565b9150612d2083611dd3565b925082612d3057612d2f612cdb565b5b828204905092915050565b6000612d4682611dd3565b9150612d5183611dd3565b925082612d6157612d60612cdb565b5b828206905092915050565b7f4e487b7100000000000000000000000000000000000000000000000000000000600052603260045260246000fd5b6000612da682611dd3565b9150612db183611dd3565b9250817fffffffffffffffffffffffffffffffffffffffffffffffffffffffffffffffff0483118215151615612dea57612de9612782565b5b828202905092915050565b6000612e0082611dd3565b91506000821415612e1457612e13612782565b5b600182039050919050565b7f537472696e67733a20686578206c656e67746820696e73756666696369656e74600082015250565b6000612e55602083611d23565b9150612e6082612e1f565b602082019050919050565b60006020820190508181036000830152612e8481612e48565b905091905056fe646174613a746578742f706c61696e3b636861727365743d5554462d382c7061726b696e6753706f744c61744c6f6e673aa2646970667358221220bf93549887e1d4add44f7bde9c5d90b559673e486b36fe5f193bfeabbb0ea39564736f6c634300080c0033",
  "devdoc": {
    "kind": "dev",
    "methods": {
      "approve(address,uint256)": {
        "details": "See {IERC721-approve}."
      },
      "balanceOf(address)": {
        "details": "See {IERC721-balanceOf}."
      },
      "getApproved(uint256)": {
        "details": "See {IERC721-getApproved}."
      },
      "isApprovedForAll(address,address)": {
        "details": "See {IERC721-isApprovedForAll}."
      },
      "name()": {
        "details": "See {IERC721Metadata-name}."
      },
      "ownerOf(uint256)": {
        "details": "See {IERC721-ownerOf}."
      },
      "safeTransferFrom(address,address,uint256)": {
        "details": "See {IERC721-safeTransferFrom}."
      },
      "safeTransferFrom(address,address,uint256,bytes)": {
        "details": "See {IERC721-safeTransferFrom}."
      },
      "setApprovalForAll(address,bool)": {
        "details": "See {IERC721-setApprovalForAll}."
      },
      "supportsInterface(bytes4)": {
        "details": "See {IERC165-supportsInterface}."
      },
      "symbol()": {
        "details": "See {IERC721Metadata-symbol}."
      },
      "tokenURI(uint256)": {
        "details": "See {IERC721Metadata-tokenURI}."
      },
      "transferFrom(address,address,uint256)": {
        "details": "See {IERC721-transferFrom}."
      }
    },
    "version": 1
  },
  "userdoc": {
    "kind": "user",
    "methods": {},
    "version": 1
  },
  "storageLayout": {
    "storage": [
      {
        "astId": 3125,
        "contract": "contracts/ParkingSpotToken.sol:ParkingSpotToken",
        "label": "_name",
        "offset": 0,
        "slot": "0",
        "type": "t_string_storage"
      },
      {
        "astId": 3127,
        "contract": "contracts/ParkingSpotToken.sol:ParkingSpotToken",
        "label": "_symbol",
        "offset": 0,
        "slot": "1",
        "type": "t_string_storage"
      },
      {
        "astId": 3131,
        "contract": "contracts/ParkingSpotToken.sol:ParkingSpotToken",
        "label": "_owners",
        "offset": 0,
        "slot": "2",
        "type": "t_mapping(t_uint256,t_address)"
      },
      {
        "astId": 3135,
        "contract": "contracts/ParkingSpotToken.sol:ParkingSpotToken",
        "label": "_balances",
        "offset": 0,
        "slot": "3",
        "type": "t_mapping(t_address,t_uint256)"
      },
      {
        "astId": 3139,
        "contract": "contracts/ParkingSpotToken.sol:ParkingSpotToken",
        "label": "_tokenApprovals",
        "offset": 0,
        "slot": "4",
        "type": "t_mapping(t_uint256,t_address)"
      },
      {
        "astId": 3145,
        "contract": "contracts/ParkingSpotToken.sol:ParkingSpotToken",
        "label": "_operatorApprovals",
        "offset": 0,
        "slot": "5",
        "type": "t_mapping(t_address,t_mapping(t_address,t_bool))"
      },
      {
        "astId": 4113,
        "contract": "contracts/ParkingSpotToken.sol:ParkingSpotToken",
        "label": "_tokenURIs",
        "offset": 0,
        "slot": "6",
        "type": "t_mapping(t_uint256,t_string_storage)"
      },
      {
        "astId": 7716,
        "contract": "contracts/ParkingSpotToken.sol:ParkingSpotToken",
        "label": "spotTokenised",
        "offset": 0,
        "slot": "7",
        "type": "t_mapping(t_bytes32,t_bool)"
      },
      {
        "astId": 7723,
        "contract": "contracts/ParkingSpotToken.sol:ParkingSpotToken",
        "label": "_tokenIds",
        "offset": 0,
        "slot": "8",
        "type": "t_struct(Counter)4575_storage"
      }
    ],
    "types": {
      "t_address": {
        "encoding": "inplace",
        "label": "address",
        "numberOfBytes": "20"
      },
      "t_bool": {
        "encoding": "inplace",
        "label": "bool",
        "numberOfBytes": "1"
      },
      "t_bytes32": {
        "encoding": "inplace",
        "label": "bytes32",
        "numberOfBytes": "32"
      },
      "t_mapping(t_address,t_bool)": {
        "encoding": "mapping",
        "key": "t_address",
        "label": "mapping(address => bool)",
        "numberOfBytes": "32",
        "value": "t_bool"
      },
      "t_mapping(t_address,t_mapping(t_address,t_bool))": {
        "encoding": "mapping",
        "key": "t_address",
        "label": "mapping(address => mapping(address => bool))",
        "numberOfBytes": "32",
        "value": "t_mapping(t_address,t_bool)"
      },
      "t_mapping(t_address,t_uint256)": {
        "encoding": "mapping",
        "key": "t_address",
        "label": "mapping(address => uint256)",
        "numberOfBytes": "32",
        "value": "t_uint256"
      },
      "t_mapping(t_bytes32,t_bool)": {
        "encoding": "mapping",
        "key": "t_bytes32",
        "label": "mapping(bytes32 => bool)",
        "numberOfBytes": "32",
        "value": "t_bool"
      },
      "t_mapping(t_uint256,t_address)": {
        "encoding": "mapping",
        "key": "t_uint256",
        "label": "mapping(uint256 => address)",
        "numberOfBytes": "32",
        "value": "t_address"
      },
      "t_mapping(t_uint256,t_string_storage)": {
        "encoding": "mapping",
        "key": "t_uint256",
        "label": "mapping(uint256 => string)",
        "numberOfBytes": "32",
        "value": "t_string_storage"
      },
      "t_string_storage": {
        "encoding": "bytes",
        "label": "string",
        "numberOfBytes": "32"
      },
      "t_struct(Counter)4575_storage": {
        "encoding": "inplace",
        "label": "struct Counters.Counter",
        "members": [
          {
            "astId": 4574,
            "contract": "contracts/ParkingSpotToken.sol:ParkingSpotToken",
            "label": "_value",
            "offset": 0,
            "slot": "0",
            "type": "t_uint256"
          }
        ],
        "numberOfBytes": "32"
      },
      "t_uint256": {
        "encoding": "inplace",
        "label": "uint256",
        "numberOfBytes": "32"
      }
    }
  }
}