{
  "address": "0xDc64a140Aa3E981100a9becA4E685f962f0cF6C9",
  "abi": [
    {
      "inputs": [],
      "stateMutability": "nonpayable",
      "type": "constructor"
    },
    {
      "anonymous": false,
      "inputs": [
        {
          "indexed": true,
          "internalType": "address",
          "name": "owner",
          "type": "address"
        },
        {
          "indexed": true,
          "internalType": "address",
          "name": "approved",
          "type": "address"
        },
        {
          "indexed": true,
          "internalType": "uint256",
          "name": "tokenId",
          "type": "uint256"
        }
      ],
      "name": "Approval",
      "type": "event"
    },
    {
      "anonymous": false,
      "inputs": [
        {
          "indexed": true,
          "internalType": "address",
          "name": "owner",
          "type": "address"
        },
        {
          "indexed": true,
          "internalType": "address",
          "name": "operator",
          "type": "address"
        },
        {
          "indexed": false,
          "internalType": "bool",
          "name": "approved",
          "type": "bool"
        }
      ],
      "name": "ApprovalForAll",
      "type": "event"
    },
    {
      "anonymous": false,
      "inputs": [
        {
          "indexed": true,
          "internalType": "address",
          "name": "from",
          "type": "address"
        },
        {
          "indexed": true,
          "internalType": "address",
          "name": "to",
          "type": "address"
        },
        {
          "indexed": true,
          "internalType": "uint256",
          "name": "tokenId",
          "type": "uint256"
        }
      ],
      "name": "Transfer",
      "type": "event"
    },
    {
      "inputs": [
        {
          "internalType": "uint256",
          "name": "",
          "type": "uint256"
        }
      ],
      "name": "_parkingSpotOwners",
      "outputs": [
        {
          "internalType": "address",
          "name": "",
          "type": "address"
        }
      ],
      "stateMutability": "view",
      "type": "function"
    },
    {
      "inputs": [
        {
          "internalType": "address",
          "name": "to",
          "type": "address"
        },
        {
          "internalType": "uint256",
          "name": "tokenId",
          "type": "uint256"
        }
      ],
      "name": "approve",
      "outputs": [],
      "stateMutability": "nonpayable",
      "type": "function"
    },
    {
      "inputs": [
        {
          "internalType": "address",
          "name": "owner",
          "type": "address"
        }
      ],
      "name": "balanceOf",
      "outputs": [
        {
          "internalType": "uint256",
          "name": "",
          "type": "uint256"
        }
      ],
      "stateMutability": "view",
      "type": "function"
    },
    {
      "inputs": [
        {
          "internalType": "uint256",
          "name": "tokenId",
          "type": "uint256"
        }
      ],
      "name": "getApproved",
      "outputs": [
        {
          "internalType": "address",
          "name": "",
          "type": "address"
        }
      ],
      "stateMutability": "view",
      "type": "function"
    },
    {
      "inputs": [
        {
          "internalType": "address",
          "name": "owner",
          "type": "address"
        },
        {
          "internalType": "address",
          "name": "operator",
          "type": "address"
        }
      ],
      "name": "isApprovedForAll",
      "outputs": [
        {
          "internalType": "bool",
          "name": "",
          "type": "bool"
        }
      ],
      "stateMutability": "view",
      "type": "function"
    },
    {
      "inputs": [
        {
          "internalType": "uint256",
          "name": "tokenId",
          "type": "uint256"
        },
        {
          "internalType": "address",
          "name": "operator",
          "type": "address"
        }
      ],
      "name": "isApprovedForRequestContract",
      "outputs": [
        {
          "internalType": "bool",
          "name": "",
          "type": "bool"
        }
      ],
      "stateMutability": "view",
      "type": "function"
    },
    {
      "inputs": [
        {
          "internalType": "address",
          "name": "_user",
          "type": "address"
        },
        {
          "internalType": "uint16",
          "name": "_index",
          "type": "uint16"
        }
      ],
      "name": "mintParkingSpot",
      "outputs": [
        {
          "internalType": "uint256",
          "name": "",
          "type": "uint256"
        }
      ],
      "stateMutability": "nonpayable",
      "type": "function"
    },
    {
      "inputs": [],
      "name": "name",
      "outputs": [
        {
          "internalType": "string",
          "name": "",
          "type": "string"
        }
      ],
      "stateMutability": "view",
      "type": "function"
    },
    {
      "inputs": [
        {
          "internalType": "uint256",
          "name": "tokenId",
          "type": "uint256"
        }
      ],
      "name": "ownerOf",
      "outputs": [
        {
          "internalType": "address",
          "name": "",
          "type": "address"
        }
      ],
      "stateMutability": "view",
      "type": "function"
    },
    {
      "inputs": [
        {
          "internalType": "uint256",
          "name": "",
          "type": "uint256"
        }
      ],
      "name": "paymentAddress",
      "outputs": [
        {
          "internalType": "address",
          "name": "",
          "type": "address"
        }
      ],
      "stateMutability": "view",
      "type": "function"
    },
    {
      "inputs": [
        {
          "internalType": "address",
          "name": "from",
          "type": "address"
        },
        {
          "internalType": "address",
          "name": "to",
          "type": "address"
        },
        {
          "internalType": "uint256",
          "name": "tokenId",
          "type": "uint256"
        }
      ],
      "name": "safeTransferFrom",
      "outputs": [],
      "stateMutability": "nonpayable",
      "type": "function"
    },
    {
      "inputs": [
        {
          "internalType": "address",
          "name": "from",
          "type": "address"
        },
        {
          "internalType": "address",
          "name": "to",
          "type": "address"
        },
        {
          "internalType": "uint256",
          "name": "tokenId",
          "type": "uint256"
        },
        {
          "internalType": "bytes",
          "name": "data",
          "type": "bytes"
        }
      ],
      "name": "safeTransferFrom",
      "outputs": [],
      "stateMutability": "nonpayable",
      "type": "function"
    },
    {
      "inputs": [
        {
          "internalType": "address",
          "name": "operator",
          "type": "address"
        },
        {
          "internalType": "bool",
          "name": "approved",
          "type": "bool"
        }
      ],
      "name": "setApprovalForAll",
      "outputs": [],
      "stateMutability": "nonpayable",
      "type": "function"
    },
    {
      "inputs": [
        {
          "internalType": "uint256",
          "name": "tokenId",
          "type": "uint256"
        },
        {
          "internalType": "address",
          "name": "operator",
          "type": "address"
        },
        {
          "internalType": "bool",
          "name": "approved",
          "type": "bool"
        }
      ],
      "name": "setApprovalForRequestContract",
      "outputs": [],
      "stateMutability": "nonpayable",
      "type": "function"
    },
    {
      "inputs": [
        {
          "internalType": "address",
          "name": "_paymentAddr",
          "type": "address"
        },
        {
          "internalType": "uint256",
          "name": "_tokenId",
          "type": "uint256"
        }
      ],
      "name": "setPaymentAddress",
      "outputs": [],
      "stateMutability": "nonpayable",
      "type": "function"
    },
    {
      "inputs": [
        {
          "internalType": "bytes32",
          "name": "",
          "type": "bytes32"
        }
      ],
      "name": "spotTokenised",
      "outputs": [
        {
          "internalType": "bool",
          "name": "",
          "type": "bool"
        }
      ],
      "stateMutability": "view",
      "type": "function"
    },
    {
      "inputs": [
        {
          "internalType": "bytes4",
          "name": "interfaceId",
          "type": "bytes4"
        }
      ],
      "name": "supportsInterface",
      "outputs": [
        {
          "internalType": "bool",
          "name": "",
          "type": "bool"
        }
      ],
      "stateMutability": "view",
      "type": "function"
    },
    {
      "inputs": [],
      "name": "symbol",
      "outputs": [
        {
          "internalType": "string",
          "name": "",
          "type": "string"
        }
      ],
      "stateMutability": "view",
      "type": "function"
    },
    {
      "inputs": [
        {
          "internalType": "uint256",
          "name": "tokenId",
          "type": "uint256"
        }
      ],
      "name": "tokenURI",
      "outputs": [
        {
          "internalType": "string",
          "name": "",
          "type": "string"
        }
      ],
      "stateMutability": "view",
      "type": "function"
    },
    {
      "inputs": [
        {
          "internalType": "address",
          "name": "from",
          "type": "address"
        },
        {
          "internalType": "address",
          "name": "to",
          "type": "address"
        },
        {
          "internalType": "uint256",
          "name": "tokenId",
          "type": "uint256"
        }
      ],
      "name": "transferFrom",
      "outputs": [],
      "stateMutability": "nonpayable",
      "type": "function"
    }
  ],
  "transactionHash": "0x7c0d93ec0c234200799ad5582356b49875502c19bf94c91bd4b78f5a5d992d22",
  "args": [],
  "numDeployments": 1,
  "solcInputHash": "18d0363503c07c6c125b4aa955ecff6d",
  "bytecode": "0x60806040523480156200001157600080fd5b506040518060400160405280601081526020017f5061726b696e6753706f74546f6b656e000000000000000000000000000000008152506040518060400160405280600381526020017f5053540000000000000000000000000000000000000000000000000000000000815250816000908051906020019062000096929190620000b8565b508060019080519060200190620000af929190620000b8565b505050620001cd565b828054620000c69062000197565b90600052602060002090601f016020900481019282620000ea576000855562000136565b82601f106200010557805160ff191683800117855562000136565b8280016001018555821562000136579182015b828111156200013557825182559160200191906001019062000118565b5b50905062000145919062000149565b5090565b5b80821115620001645760008160009055506001016200014a565b5090565b7f4e487b7100000000000000000000000000000000000000000000000000000000600052602260045260246000fd5b60006002820490506001821680620001b057607f821691505b60208210811415620001c757620001c662000168565b5b50919050565b61369880620001dd6000396000f3fe608060405234801561001057600080fd5b506004361061012c5760003560e01c806370a08231116100ad578063b88d4fde11610071578063b88d4fde14610365578063c55fd06b14610381578063c87b56dd146103b1578063cc6b64a4146103e1578063e985e9c5146104115761012c565b806370a082311461029b57806371053abf146102cb5780637ac485e7146102fb57806395d89b411461032b578063a22cb465146103495761012c565b806323b872dd116100f457806323b872dd146101e75780632d67219e1461020357806333a92ccd1461023357806342842e0e1461024f5780636352211e1461026b5761012c565b806301ffc9a71461013157806306fdde0314610161578063081812fc1461017f578063095ea7b3146101af5780631128f7f1146101cb575b600080fd5b61014b60048036038101906101469190612258565b610441565b60405161015891906122a0565b60405180910390f35b610169610523565b6040516101769190612354565b60405180910390f35b610199600480360381019061019491906123ac565b6105b5565b6040516101a6919061241a565b60405180910390f35b6101c960048036038101906101c49190612461565b6105fb565b005b6101e560048036038101906101e09190612461565b610713565b005b61020160048036038101906101fc91906124a1565b61080a565b005b61021d6004803603810190610218919061252e565b61086a565b60405161022a919061257d565b60405180910390f35b61024d600480360381019061024891906125c4565b61088d565b005b610269600480360381019061026491906124a1565b61089e565b005b610285600480360381019061028091906123ac565b6108be565b604051610292919061241a565b60405180910390f35b6102b560048036038101906102b09190612617565b610970565b6040516102c2919061257d565b60405180910390f35b6102e560048036038101906102e091906123ac565b610a28565b6040516102f2919061241a565b60405180910390f35b61031560048036038101906103109190612644565b610a5b565b60405161032291906122a0565b60405180910390f35b610333610ac3565b6040516103409190612354565b60405180910390f35b610363600480360381019061035e9190612684565b610b55565b005b61037f600480360381019061037a91906127f9565b610b6b565b005b61039b600480360381019061039691906123ac565b610bcd565b6040516103a8919061241a565b60405180910390f35b6103cb60048036038101906103c691906123ac565b610c00565b6040516103d89190612354565b60405180910390f35b6103fb60048036038101906103f691906128b2565b610d13565b60405161040891906122a0565b60405180910390f35b61042b600480360381019061042691906128df565b610d33565b60405161043891906122a0565b60405180910390f35b60007f80ac58cd000000000000000000000000000000000000000000000000000000007bffffffffffffffffffffffffffffffffffffffffffffffffffffffff1916827bffffffffffffffffffffffffffffffffffffffffffffffffffffffff1916148061050c57507f5b5e139f000000000000000000000000000000000000000000000000000000007bffffffffffffffffffffffffffffffffffffffffffffffffffffffff1916827bffffffffffffffffffffffffffffffffffffffffffffffffffffffff1916145b8061051c575061051b82610dc7565b5b9050919050565b6060600080546105329061294e565b80601f016020809104026020016040519081016040528092919081815260200182805461055e9061294e565b80156105ab5780601f10610580576101008083540402835291602001916105ab565b820191906000526020600020905b81548152906001019060200180831161058e57829003601f168201915b5050505050905090565b60006105c082610e31565b6004600083815260200190815260200160002060009054906101000a900473ffffffffffffffffffffffffffffffffffffffff169050919050565b6000610606826108be565b90508073ffffffffffffffffffffffffffffffffffffffff168373ffffffffffffffffffffffffffffffffffffffff161415610677576040517f08c379a000000000000000000000000000000000000000000000000000000000815260040161066e906129f2565b60405180910390fd5b8073ffffffffffffffffffffffffffffffffffffffff16610696610e7c565b73ffffffffffffffffffffffffffffffffffffffff1614806106c557506106c4816106bf610e7c565b610d33565b5b610704576040517f08c379a00000000000000000000000000000000000000000000000000000000081526004016106fb90612a84565b60405180910390fd5b61070e8383610e84565b505050565b3373ffffffffffffffffffffffffffffffffffffffff166007600083815260200190815260200160002060009054906101000a900473ffffffffffffffffffffffffffffffffffffffff1673ffffffffffffffffffffffffffffffffffffffff16146107b4576040517f08c379a00000000000000000000000000000000000000000000000000000000081526004016107ab90612b16565b60405180910390fd5b81600a600083815260200190815260200160002060006101000a81548173ffffffffffffffffffffffffffffffffffffffff021916908373ffffffffffffffffffffffffffffffffffffffff1602179055505050565b61081b610815610e7c565b82610f3d565b61085a576040517f08c379a000000000000000000000000000000000000000000000000000000000815260040161085190612ba8565b60405180910390fd5b610865838383610fe3565b505050565b60008061087784846112d9565b9050610883848261131f565b8091505092915050565b61089933848484611375565b505050565b6108b983838360405180602001604052806000815250610b6b565b505050565b6000806002600084815260200190815260200160002060009054906101000a900473ffffffffffffffffffffffffffffffffffffffff169050600073ffffffffffffffffffffffffffffffffffffffff168173ffffffffffffffffffffffffffffffffffffffff161415610967576040517f08c379a000000000000000000000000000000000000000000000000000000000815260040161095e90612c14565b60405180910390fd5b80915050919050565b60008073ffffffffffffffffffffffffffffffffffffffff168273ffffffffffffffffffffffffffffffffffffffff1614156109e1576040517f08c379a00000000000000000000000000000000000000000000000000000000081526004016109d890612ca6565b60405180910390fd5b600360008373ffffffffffffffffffffffffffffffffffffffff1673ffffffffffffffffffffffffffffffffffffffff168152602001908152602001600020549050919050565b600a6020528060005260406000206000915054906101000a900473ffffffffffffffffffffffffffffffffffffffff1681565b60006006600084815260200190815260200160002060008373ffffffffffffffffffffffffffffffffffffffff1673ffffffffffffffffffffffffffffffffffffffff16815260200190815260200160002060009054906101000a900460ff16905092915050565b606060018054610ad29061294e565b80601f0160208091040260200160405190810160405280929190818152602001828054610afe9061294e565b8015610b4b5780601f10610b2057610100808354040283529160200191610b4b565b820191906000526020600020905b815481529060010190602001808311610b2e57829003601f168201915b5050505050905090565b610b67610b60610e7c565b838361142c565b5050565b610b7c610b76610e7c565b83610f3d565b610bbb576040517f08c379a0000000000000000000000000000000000000000000000000000000008152600401610bb290612ba8565b60405180910390fd5b610bc784848484611599565b50505050565b60076020528060005260406000206000915054906101000a900473ffffffffffffffffffffffffffffffffffffffff1681565b6060610c0b82610e31565b6000600860008481526020019081526020016000208054610c2b9061294e565b80601f0160208091040260200160405190810160405280929190818152602001828054610c579061294e565b8015610ca45780601f10610c7957610100808354040283529160200191610ca4565b820191906000526020600020905b815481529060010190602001808311610c8757829003601f168201915b505050505090506000610cb56115f5565b9050600081511415610ccb578192505050610d0e565b600082511115610d00578082604051602001610ce8929190612d02565b60405160208183030381529060405292505050610d0e565b610d098461160c565b925050505b919050565b60096020528060005260406000206000915054906101000a900460ff1681565b6000600560008473ffffffffffffffffffffffffffffffffffffffff1673ffffffffffffffffffffffffffffffffffffffff16815260200190815260200160002060008373ffffffffffffffffffffffffffffffffffffffff1673ffffffffffffffffffffffffffffffffffffffff16815260200190815260200160002060009054906101000a900460ff16905092915050565b60007f01ffc9a7000000000000000000000000000000000000000000000000000000007bffffffffffffffffffffffffffffffffffffffffffffffffffffffff1916827bffffffffffffffffffffffffffffffffffffffffffffffffffffffff1916149050919050565b610e3a81611674565b610e79576040517f08c379a0000000000000000000000000000000000000000000000000000000008152600401610e7090612c14565b60405180910390fd5b50565b600033905090565b816004600083815260200190815260200160002060006101000a81548173ffffffffffffffffffffffffffffffffffffffff021916908373ffffffffffffffffffffffffffffffffffffffff160217905550808273ffffffffffffffffffffffffffffffffffffffff16610ef7836108be565b73ffffffffffffffffffffffffffffffffffffffff167f8c5be1e5ebec7d5bd14f71427d1e84f3dd0314c0f7b2291e5b200ac8c7c3b92560405160405180910390a45050565b600080610f49836108be565b90508073ffffffffffffffffffffffffffffffffffffffff168473ffffffffffffffffffffffffffffffffffffffff161480610f8b5750610f8a8185610d33565b5b80610fc957508373ffffffffffffffffffffffffffffffffffffffff16610fb1846105b5565b73ffffffffffffffffffffffffffffffffffffffff16145b80610fda5750610fd98385610a5b565b5b91505092915050565b8273ffffffffffffffffffffffffffffffffffffffff16611003826108be565b73ffffffffffffffffffffffffffffffffffffffff1614611059576040517f08c379a000000000000000000000000000000000000000000000000000000000815260040161105090612d98565b60405180910390fd5b600073ffffffffffffffffffffffffffffffffffffffff168273ffffffffffffffffffffffffffffffffffffffff1614156110c9576040517f08c379a00000000000000000000000000000000000000000000000000000000081526004016110c090612e2a565b60405180910390fd5b6110d48383836116e0565b8273ffffffffffffffffffffffffffffffffffffffff166110f4826108be565b73ffffffffffffffffffffffffffffffffffffffff161461114a576040517f08c379a000000000000000000000000000000000000000000000000000000000815260040161114190612d98565b60405180910390fd5b6004600082815260200190815260200160002060006101000a81549073ffffffffffffffffffffffffffffffffffffffff02191690556001600360008573ffffffffffffffffffffffffffffffffffffffff1673ffffffffffffffffffffffffffffffffffffffff168152602001908152602001600020600082825403925050819055506001600360008473ffffffffffffffffffffffffffffffffffffffff1673ffffffffffffffffffffffffffffffffffffffff16815260200190815260200160002060008282540192505081905550816002600083815260200190815260200160002060006101000a81548173ffffffffffffffffffffffffffffffffffffffff021916908373ffffffffffffffffffffffffffffffffffffffff160217905550808273ffffffffffffffffffffffffffffffffffffffff168473ffffffffffffffffffffffffffffffffffffffff167fddf252ad1be2c89b69c2b068fc378daa952ba7f163c4a11628f55a4df523b3ef60405160405180910390a46112d48383836116e5565b505050565b60006112e5600b6116ea565b60006112f083611700565b905060006112fe600b611726565b905061130a8582611734565b61131481836119a0565b809250505092915050565b81600a600083815260200190815260200160002060006101000a81548173ffffffffffffffffffffffffffffffffffffffff021916908373ffffffffffffffffffffffffffffffffffffffff1602179055505050565b61137f8385611a14565b6113be576040517f08c379a00000000000000000000000000000000000000000000000000000000081526004016113b590612f08565b60405180910390fd5b806006600085815260200190815260200160002060008473ffffffffffffffffffffffffffffffffffffffff1673ffffffffffffffffffffffffffffffffffffffff16815260200190815260200160002060006101000a81548160ff02191690831515021790555050505050565b8173ffffffffffffffffffffffffffffffffffffffff168373ffffffffffffffffffffffffffffffffffffffff16141561149b576040517f08c379a000000000000000000000000000000000000000000000000000000000815260040161149290612f74565b60405180910390fd5b80600560008573ffffffffffffffffffffffffffffffffffffffff1673ffffffffffffffffffffffffffffffffffffffff16815260200190815260200160002060008473ffffffffffffffffffffffffffffffffffffffff1673ffffffffffffffffffffffffffffffffffffffff16815260200190815260200160002060006101000a81548160ff0219169083151502179055508173ffffffffffffffffffffffffffffffffffffffff168373ffffffffffffffffffffffffffffffffffffffff167f17307eab39ab6107e8899845ad3d59bd9653f200f220920489ca2b5937696c318360405161158c91906122a0565b60405180910390a3505050565b6115a4848484610fe3565b6115b084848484611a80565b6115ef576040517f08c379a00000000000000000000000000000000000000000000000000000000081526004016115e690613006565b60405180910390fd5b50505050565b606060405180602001604052806000815250905090565b606061161782610e31565b60006116216115f5565b90506000815111611641576040518060200160405280600081525061166c565b8061164b84611c08565b60405160200161165c929190612d02565b6040516020818303038152906040525b915050919050565b60008073ffffffffffffffffffffffffffffffffffffffff166002600084815260200190815260200160002060009054906101000a900473ffffffffffffffffffffffffffffffffffffffff1673ffffffffffffffffffffffffffffffffffffffff1614159050919050565b505050565b505050565b6001816000016000828254019250508190555050565b6060600061170d83611d69565b9050600061171a82611e02565b90508092505050919050565b600081600001549050919050565b600073ffffffffffffffffffffffffffffffffffffffff168273ffffffffffffffffffffffffffffffffffffffff1614156117a4576040517f08c379a000000000000000000000000000000000000000000000000000000000815260040161179b90613072565b60405180910390fd5b6117ad81611674565b156117ed576040517f08c379a00000000000000000000000000000000000000000000000000000000081526004016117e4906130de565b60405180910390fd5b6117f9600083836116e0565b61180281611674565b15611842576040517f08c379a0000000000000000000000000000000000000000000000000000000008152600401611839906130de565b60405180910390fd5b6001600360008473ffffffffffffffffffffffffffffffffffffffff1673ffffffffffffffffffffffffffffffffffffffff16815260200190815260200160002060008282540192505081905550816002600083815260200190815260200160002060006101000a81548173ffffffffffffffffffffffffffffffffffffffff021916908373ffffffffffffffffffffffffffffffffffffffff160217905550816007600083815260200190815260200160002060006101000a81548173ffffffffffffffffffffffffffffffffffffffff021916908373ffffffffffffffffffffffffffffffffffffffff160217905550808273ffffffffffffffffffffffffffffffffffffffff16600073ffffffffffffffffffffffffffffffffffffffff167fddf252ad1be2c89b69c2b068fc378daa952ba7f163c4a11628f55a4df523b3ef60405160405180910390a461199c600083836116e5565b5050565b6119a982611674565b6119e8576040517f08c379a00000000000000000000000000000000000000000000000000000000081526004016119df90613170565b60405180910390fd5b80600860008481526020019081526020016000209080519060200190611a0f929190612149565b505050565b60008173ffffffffffffffffffffffffffffffffffffffff166007600085815260200190815260200160002060009054906101000a900473ffffffffffffffffffffffffffffffffffffffff1673ffffffffffffffffffffffffffffffffffffffff1614905092915050565b6000611aa18473ffffffffffffffffffffffffffffffffffffffff16611ec0565b15611bfb578373ffffffffffffffffffffffffffffffffffffffff1663150b7a02611aca610e7c565b8786866040518563ffffffff1660e01b8152600401611aec94939291906131e5565b6020604051808303816000875af1925050508015611b2857506040513d601f19601f82011682018060405250810190611b259190613246565b60015b611bab573d8060008114611b58576040519150601f19603f3d011682016040523d82523d6000602084013e611b5d565b606091505b50600081511415611ba3576040517f08c379a0000000000000000000000000000000000000000000000000000000008152600401611b9a90613006565b60405180910390fd5b805181602001fd5b63150b7a0260e01b7bffffffffffffffffffffffffffffffffffffffffffffffffffffffff1916817bffffffffffffffffffffffffffffffffffffffffffffffffffffffff191614915050611c00565b600190505b949350505050565b60606000821415611c50576040518060400160405280600181526020017f30000000000000000000000000000000000000000000000000000000000000008152509050611d64565b600082905060005b60008214611c82578080611c6b906132a2565b915050600a82611c7b919061331a565b9150611c58565b60008167ffffffffffffffff811115611c9e57611c9d6126ce565b5b6040519080825280601f01601f191660200182016040528015611cd05781602001600182028036833780820191505090505b5090505b60008514611d5d57600182611ce9919061334b565b9150600a85611cf8919061337f565b6030611d0491906133b0565b60f81b818381518110611d1a57611d19613406565b5b60200101907effffffffffffffffffffffffffffffffffffffffffffffffffffffffffffff1916908160001a905350600a85611d56919061331a565b9450611cd4565b8093505050505b919050565b600073cf7ed3acca5a467e9e704c703e8d87f634fb0fc973ffffffffffffffffffffffffffffffffffffffff16630902d94933846040518363ffffffff1660e01b8152600401611dba929190613444565b602060405180830381865afa158015611dd7573d6000803e3d6000fd5b505050506040513d601f19601f82011682018060405250810190611dfb9190613482565b9050919050565b6060611e0d82611ee3565b15611e4d576040517f08c379a0000000000000000000000000000000000000000000000000000000008152600401611e4490613521565b60405180910390fd5b60006040518060600160405280603181526020016136326031913990506000611e8d3373ffffffffffffffffffffffffffffffffffffffff166020611f0d565b905060008282604051602001611ea4929190612d02565b6040516020818303038152906040529050809350505050919050565b6000808273ffffffffffffffffffffffffffffffffffffffff163b119050919050565b60006009600083815260200190815260200160002060009054906101000a900460ff169050919050565b606060006002836002611f209190613541565b611f2a91906133b0565b67ffffffffffffffff811115611f4357611f426126ce565b5b6040519080825280601f01601f191660200182016040528015611f755781602001600182028036833780820191505090505b5090507f300000000000000000000000000000000000000000000000000000000000000081600081518110611fad57611fac613406565b5b60200101907effffffffffffffffffffffffffffffffffffffffffffffffffffffffffffff1916908160001a9053507f78000000000000000000000000000000000000000000000000000000000000008160018151811061201157612010613406565b5b60200101907effffffffffffffffffffffffffffffffffffffffffffffffffffffffffffff1916908160001a905350600060018460026120519190613541565b61205b91906133b0565b90505b60018111156120fb577f3031323334353637383961626364656600000000000000000000000000000000600f86166010811061209d5761209c613406565b5b1a60f81b8282815181106120b4576120b3613406565b5b60200101907effffffffffffffffffffffffffffffffffffffffffffffffffffffffffffff1916908160001a905350600485901c9450806120f49061359b565b905061205e565b506000841461213f576040517f08c379a000000000000000000000000000000000000000000000000000000000815260040161213690613611565b60405180910390fd5b8091505092915050565b8280546121559061294e565b90600052602060002090601f01602090048101928261217757600085556121be565b82601f1061219057805160ff19168380011785556121be565b828001600101855582156121be579182015b828111156121bd5782518255916020019190600101906121a2565b5b5090506121cb91906121cf565b5090565b5b808211156121e85760008160009055506001016121d0565b5090565b6000604051905090565b600080fd5b600080fd5b60007fffffffff0000000000000000000000000000000000000000000000000000000082169050919050565b61223581612200565b811461224057600080fd5b50565b6000813590506122528161222c565b92915050565b60006020828403121561226e5761226d6121f6565b5b600061227c84828501612243565b91505092915050565b60008115159050919050565b61229a81612285565b82525050565b60006020820190506122b56000830184612291565b92915050565b600081519050919050565b600082825260208201905092915050565b60005b838110156122f55780820151818401526020810190506122da565b83811115612304576000848401525b50505050565b6000601f19601f8301169050919050565b6000612326826122bb565b61233081856122c6565b93506123408185602086016122d7565b6123498161230a565b840191505092915050565b6000602082019050818103600083015261236e818461231b565b905092915050565b6000819050919050565b61238981612376565b811461239457600080fd5b50565b6000813590506123a681612380565b92915050565b6000602082840312156123c2576123c16121f6565b5b60006123d084828501612397565b91505092915050565b600073ffffffffffffffffffffffffffffffffffffffff82169050919050565b6000612404826123d9565b9050919050565b612414816123f9565b82525050565b600060208201905061242f600083018461240b565b92915050565b61243e816123f9565b811461244957600080fd5b50565b60008135905061245b81612435565b92915050565b60008060408385031215612478576124776121f6565b5b60006124868582860161244c565b925050602061249785828601612397565b9150509250929050565b6000806000606084860312156124ba576124b96121f6565b5b60006124c88682870161244c565b93505060206124d98682870161244c565b92505060406124ea86828701612397565b9150509250925092565b600061ffff82169050919050565b61250b816124f4565b811461251657600080fd5b50565b60008135905061252881612502565b92915050565b60008060408385031215612545576125446121f6565b5b60006125538582860161244c565b925050602061256485828601612519565b9150509250929050565b61257781612376565b82525050565b6000602082019050612592600083018461256e565b92915050565b6125a181612285565b81146125ac57600080fd5b50565b6000813590506125be81612598565b92915050565b6000806000606084860312156125dd576125dc6121f6565b5b60006125eb86828701612397565b93505060206125fc8682870161244c565b925050604061260d868287016125af565b9150509250925092565b60006020828403121561262d5761262c6121f6565b5b600061263b8482850161244c565b91505092915050565b6000806040838503121561265b5761265a6121f6565b5b600061266985828601612397565b925050602061267a8582860161244c565b9150509250929050565b6000806040838503121561269b5761269a6121f6565b5b60006126a98582860161244c565b92505060206126ba858286016125af565b9150509250929050565b600080fd5b600080fd5b7f4e487b7100000000000000000000000000000000000000000000000000000000600052604160045260246000fd5b6127068261230a565b810181811067ffffffffffffffff82111715612725576127246126ce565b5b80604052505050565b60006127386121ec565b905061274482826126fd565b919050565b600067ffffffffffffffff821115612764576127636126ce565b5b61276d8261230a565b9050602081019050919050565b82818337600083830152505050565b600061279c61279784612749565b61272e565b9050828152602081018484840111156127b8576127b76126c9565b5b6127c384828561277a565b509392505050565b600082601f8301126127e0576127df6126c4565b5b81356127f0848260208601612789565b91505092915050565b60008060008060808587031215612813576128126121f6565b5b60006128218782880161244c565b94505060206128328782880161244c565b935050604061284387828801612397565b925050606085013567ffffffffffffffff811115612864576128636121fb565b5b612870878288016127cb565b91505092959194509250565b6000819050919050565b61288f8161287c565b811461289a57600080fd5b50565b6000813590506128ac81612886565b92915050565b6000602082840312156128c8576128c76121f6565b5b60006128d68482850161289d565b91505092915050565b600080604083850312156128f6576128f56121f6565b5b60006129048582860161244c565b92505060206129158582860161244c565b9150509250929050565b7f4e487b7100000000000000000000000000000000000000000000000000000000600052602260045260246000fd5b6000600282049050600182168061296657607f821691505b6020821081141561297a5761297961291f565b5b50919050565b7f4552433732313a20617070726f76616c20746f2063757272656e74206f776e6560008201527f7200000000000000000000000000000000000000000000000000000000000000602082015250565b60006129dc6021836122c6565b91506129e782612980565b604082019050919050565b60006020820190508181036000830152612a0b816129cf565b9050919050565b7f4552433732313a20617070726f76652063616c6c6572206973206e6f7420746f60008201527f6b656e206f776e6572206f7220617070726f76656420666f7220616c6c000000602082015250565b6000612a6e603d836122c6565b9150612a7982612a12565b604082019050919050565b60006020820190508181036000830152612a9d81612a61565b9050919050565b7f4f6e6c79207468652074727565207061726b696e672073706f74206f776e657260008201527f2063616e206368616e676520746865207061796d656e74206164647265737321602082015250565b6000612b006040836122c6565b9150612b0b82612aa4565b604082019050919050565b60006020820190508181036000830152612b2f81612af3565b9050919050565b7f4552433732313a2063616c6c6572206973206e6f7420746f6b656e206f776e6560008201527f72206f7220617070726f76656400000000000000000000000000000000000000602082015250565b6000612b92602d836122c6565b9150612b9d82612b36565b604082019050919050565b60006020820190508181036000830152612bc181612b85565b9050919050565b7f4552433732313a20696e76616c696420746f6b656e2049440000000000000000600082015250565b6000612bfe6018836122c6565b9150612c0982612bc8565b602082019050919050565b60006020820190508181036000830152612c2d81612bf1565b9050919050565b7f4552433732313a2061646472657373207a65726f206973206e6f74206120766160008201527f6c6964206f776e65720000000000000000000000000000000000000000000000602082015250565b6000612c906029836122c6565b9150612c9b82612c34565b604082019050919050565b60006020820190508181036000830152612cbf81612c83565b9050919050565b600081905092915050565b6000612cdc826122bb565b612ce68185612cc6565b9350612cf68185602086016122d7565b80840191505092915050565b6000612d0e8285612cd1565b9150612d1a8284612cd1565b91508190509392505050565b7f4552433732313a207472616e736665722066726f6d20696e636f72726563742060008201527f6f776e6572000000000000000000000000000000000000000000000000000000602082015250565b6000612d826025836122c6565b9150612d8d82612d26565b604082019050919050565b60006020820190508181036000830152612db181612d75565b9050919050565b7f4552433732313a207472616e7366657220746f20746865207a65726f2061646460008201527f7265737300000000000000000000000000000000000000000000000000000000602082015250565b6000612e146024836122c6565b9150612e1f82612db8565b604082019050919050565b60006020820190508181036000830152612e4381612e07565b9050919050565b7f4f6e6c79207468652074727565206f776e6572206f6620746865207061726b6960008201527f6e6720746f6b656e2063616e206368616e676520617070726f76616c2073746160208201527f74757320666f7220746865207061726b696e6720526571756573747320636f6e60408201527f74726163742e2000000000000000000000000000000000000000000000000000606082015250565b6000612ef26067836122c6565b9150612efd82612e4a565b608082019050919050565b60006020820190508181036000830152612f2181612ee5565b9050919050565b7f4552433732313a20617070726f766520746f2063616c6c657200000000000000600082015250565b6000612f5e6019836122c6565b9150612f6982612f28565b602082019050919050565b60006020820190508181036000830152612f8d81612f51565b9050919050565b7f4552433732313a207472616e7366657220746f206e6f6e20455243373231526560008201527f63656976657220696d706c656d656e7465720000000000000000000000000000602082015250565b6000612ff06032836122c6565b9150612ffb82612f94565b604082019050919050565b6000602082019050818103600083015261301f81612fe3565b9050919050565b7f4552433732313a206d696e7420746f20746865207a65726f2061646472657373600082015250565b600061305c6020836122c6565b915061306782613026565b602082019050919050565b6000602082019050818103600083015261308b8161304f565b9050919050565b7f4552433732313a20746f6b656e20616c7265616479206d696e74656400000000600082015250565b60006130c8601c836122c6565b91506130d382613092565b602082019050919050565b600060208201905081810360008301526130f7816130bb565b9050919050565b7f45524337323155524953746f726167653a2055524920736574206f66206e6f6e60008201527f6578697374656e7420746f6b656e000000000000000000000000000000000000602082015250565b600061315a602e836122c6565b9150613165826130fe565b604082019050919050565b600060208201905081810360008301526131898161314d565b9050919050565b600081519050919050565b600082825260208201905092915050565b60006131b782613190565b6131c1818561319b565b93506131d18185602086016122d7565b6131da8161230a565b840191505092915050565b60006080820190506131fa600083018761240b565b613207602083018661240b565b613214604083018561256e565b818103606083015261322681846131ac565b905095945050505050565b6000815190506132408161222c565b92915050565b60006020828403121561325c5761325b6121f6565b5b600061326a84828501613231565b91505092915050565b7f4e487b7100000000000000000000000000000000000000000000000000000000600052601160045260246000fd5b60006132ad82612376565b91507fffffffffffffffffffffffffffffffffffffffffffffffffffffffffffffffff8214156132e0576132df613273565b5b600182019050919050565b7f4e487b7100000000000000000000000000000000000000000000000000000000600052601260045260246000fd5b600061332582612376565b915061333083612376565b9250826133405761333f6132eb565b5b828204905092915050565b600061335682612376565b915061336183612376565b92508282101561337457613373613273565b5b828203905092915050565b600061338a82612376565b915061339583612376565b9250826133a5576133a46132eb565b5b828206905092915050565b60006133bb82612376565b91506133c683612376565b9250827fffffffffffffffffffffffffffffffffffffffffffffffffffffffffffffffff038211156133fb576133fa613273565b5b828201905092915050565b7f4e487b7100000000000000000000000000000000000000000000000000000000600052603260045260246000fd5b61343e816124f4565b82525050565b6000604082019050613459600083018561240b565b6134666020830184613435565b9392505050565b60008151905061347c81612886565b92915050565b600060208284031215613498576134976121f6565b5b60006134a68482850161346d565b91505092915050565b7f5061726b696e672073706f7420636f2d6f7264696e617465732061726520616c60008201527f7265616479206d696e746564206173206120746f6b656e000000000000000000602082015250565b600061350b6037836122c6565b9150613516826134af565b604082019050919050565b6000602082019050818103600083015261353a816134fe565b9050919050565b600061354c82612376565b915061355783612376565b9250817fffffffffffffffffffffffffffffffffffffffffffffffffffffffffffffffff04831182151516156135905761358f613273565b5b828202905092915050565b60006135a682612376565b915060008214156135ba576135b9613273565b5b600182039050919050565b7f537472696e67733a20686578206c656e67746820696e73756666696369656e74600082015250565b60006135fb6020836122c6565b9150613606826135c5565b602082019050919050565b6000602082019050818103600083015261362a816135ee565b905091905056fe646174613a746578742f706c61696e3b636861727365743d5554462d382c7061726b696e6753706f744c61744c6f6e673aa2646970667358221220b65900c1144e4d639b4048780f00d9b6fa8a20bac57eb404813aca40b8f3fac464736f6c634300080c0033",
  "devdoc": {
    "kind": "dev",
    "methods": {
      "approve(address,uint256)": {
        "details": "See {IERC721-approve}."
      },
      "balanceOf(address)": {
        "details": "See {IERC721-balanceOf}."
      },
      "getApproved(uint256)": {
        "details": "See {IERC721-getApproved}."
      },
      "isApprovedForAll(address,address)": {
        "details": "See {IERC721-isApprovedForAll}."
      },
      "name()": {
        "details": "See {IERC721Metadata-name}."
      },
      "ownerOf(uint256)": {
        "details": "See {IERC721-ownerOf}."
      },
      "safeTransferFrom(address,address,uint256)": {
        "details": "See {IERC721-safeTransferFrom}."
      },
      "safeTransferFrom(address,address,uint256,bytes)": {
        "details": "See {IERC721-safeTransferFrom}."
      },
      "setApprovalForAll(address,bool)": {
        "details": "See {IERC721-setApprovalForAll}."
      },
      "supportsInterface(bytes4)": {
        "details": "See {IERC165-supportsInterface}."
      },
      "symbol()": {
        "details": "See {IERC721Metadata-symbol}."
      },
      "tokenURI(uint256)": {
        "details": "See {IERC721Metadata-tokenURI}."
      },
      "transferFrom(address,address,uint256)": {
        "details": "See {IERC721-transferFrom}."
      }
    },
    "version": 1
  },
  "userdoc": {
    "kind": "user",
    "methods": {},
    "version": 1
  },
  "storageLayout": {
    "storage": [
      {
        "astId": 2422,
        "contract": "contracts/ParkingSpotToken.sol:ParkingSpotToken",
        "label": "_name",
        "offset": 0,
        "slot": "0",
        "type": "t_string_storage"
      },
      {
        "astId": 2424,
        "contract": "contracts/ParkingSpotToken.sol:ParkingSpotToken",
        "label": "_symbol",
        "offset": 0,
        "slot": "1",
        "type": "t_string_storage"
      },
      {
        "astId": 2428,
        "contract": "contracts/ParkingSpotToken.sol:ParkingSpotToken",
        "label": "_owners",
        "offset": 0,
        "slot": "2",
        "type": "t_mapping(t_uint256,t_address)"
      },
      {
        "astId": 2432,
        "contract": "contracts/ParkingSpotToken.sol:ParkingSpotToken",
        "label": "_balances",
        "offset": 0,
        "slot": "3",
        "type": "t_mapping(t_address,t_uint256)"
      },
      {
        "astId": 2436,
        "contract": "contracts/ParkingSpotToken.sol:ParkingSpotToken",
        "label": "_tokenApprovals",
        "offset": 0,
        "slot": "4",
        "type": "t_mapping(t_uint256,t_address)"
      },
      {
        "astId": 2442,
        "contract": "contracts/ParkingSpotToken.sol:ParkingSpotToken",
        "label": "_operatorApprovals",
        "offset": 0,
        "slot": "5",
        "type": "t_mapping(t_address,t_mapping(t_address,t_bool))"
      },
      {
        "astId": 2448,
        "contract": "contracts/ParkingSpotToken.sol:ParkingSpotToken",
        "label": "_approvedForRequestContract",
        "offset": 0,
        "slot": "6",
        "type": "t_mapping(t_uint256,t_mapping(t_address,t_bool))"
      },
      {
        "astId": 2452,
        "contract": "contracts/ParkingSpotToken.sol:ParkingSpotToken",
        "label": "_parkingSpotOwners",
        "offset": 0,
        "slot": "7",
        "type": "t_mapping(t_uint256,t_address)"
      },
      {
        "astId": 3392,
        "contract": "contracts/ParkingSpotToken.sol:ParkingSpotToken",
        "label": "_tokenURIs",
        "offset": 0,
        "slot": "8",
        "type": "t_mapping(t_uint256,t_string_storage)"
      },
      {
        "astId": 3832,
        "contract": "contracts/ParkingSpotToken.sol:ParkingSpotToken",
        "label": "spotTokenised",
        "offset": 0,
        "slot": "9",
        "type": "t_mapping(t_bytes32,t_bool)"
      },
      {
        "astId": 3836,
        "contract": "contracts/ParkingSpotToken.sol:ParkingSpotToken",
        "label": "paymentAddress",
        "offset": 0,
        "slot": "10",
        "type": "t_mapping(t_uint256,t_address)"
      },
      {
        "astId": 3843,
        "contract": "contracts/ParkingSpotToken.sol:ParkingSpotToken",
        "label": "_tokenIds",
        "offset": 0,
        "slot": "11",
        "type": "t_struct(Counter)51_storage"
      }
    ],
    "types": {
      "t_address": {
        "encoding": "inplace",
        "label": "address",
        "numberOfBytes": "20"
      },
      "t_bool": {
        "encoding": "inplace",
        "label": "bool",
        "numberOfBytes": "1"
      },
      "t_bytes32": {
        "encoding": "inplace",
        "label": "bytes32",
        "numberOfBytes": "32"
      },
      "t_mapping(t_address,t_bool)": {
        "encoding": "mapping",
        "key": "t_address",
        "label": "mapping(address => bool)",
        "numberOfBytes": "32",
        "value": "t_bool"
      },
      "t_mapping(t_address,t_mapping(t_address,t_bool))": {
        "encoding": "mapping",
        "key": "t_address",
        "label": "mapping(address => mapping(address => bool))",
        "numberOfBytes": "32",
        "value": "t_mapping(t_address,t_bool)"
      },
      "t_mapping(t_address,t_uint256)": {
        "encoding": "mapping",
        "key": "t_address",
        "label": "mapping(address => uint256)",
        "numberOfBytes": "32",
        "value": "t_uint256"
      },
      "t_mapping(t_bytes32,t_bool)": {
        "encoding": "mapping",
        "key": "t_bytes32",
        "label": "mapping(bytes32 => bool)",
        "numberOfBytes": "32",
        "value": "t_bool"
      },
      "t_mapping(t_uint256,t_address)": {
        "encoding": "mapping",
        "key": "t_uint256",
        "label": "mapping(uint256 => address)",
        "numberOfBytes": "32",
        "value": "t_address"
      },
      "t_mapping(t_uint256,t_mapping(t_address,t_bool))": {
        "encoding": "mapping",
        "key": "t_uint256",
        "label": "mapping(uint256 => mapping(address => bool))",
        "numberOfBytes": "32",
        "value": "t_mapping(t_address,t_bool)"
      },
      "t_mapping(t_uint256,t_string_storage)": {
        "encoding": "mapping",
        "key": "t_uint256",
        "label": "mapping(uint256 => string)",
        "numberOfBytes": "32",
        "value": "t_string_storage"
      },
      "t_string_storage": {
        "encoding": "bytes",
        "label": "string",
        "numberOfBytes": "32"
      },
      "t_struct(Counter)51_storage": {
        "encoding": "inplace",
        "label": "struct Counters.Counter",
        "members": [
          {
            "astId": 50,
            "contract": "contracts/ParkingSpotToken.sol:ParkingSpotToken",
            "label": "_value",
            "offset": 0,
            "slot": "0",
            "type": "t_uint256"
          }
        ],
        "numberOfBytes": "32"
      },
      "t_uint256": {
        "encoding": "inplace",
        "label": "uint256",
        "numberOfBytes": "32"
      }
    }
  }
}