{
  "address": "0xCf7Ed3AccA5a467e9e704C703E8D87F634fB0Fc9",
  "abi": [
    {
      "inputs": [],
      "stateMutability": "nonpayable",
      "type": "constructor"
    },
    {
      "anonymous": false,
      "inputs": [
        {
          "indexed": true,
          "internalType": "address",
          "name": "owner",
          "type": "address"
        },
        {
          "indexed": true,
          "internalType": "address",
          "name": "approved",
          "type": "address"
        },
        {
          "indexed": true,
          "internalType": "uint256",
          "name": "tokenId",
          "type": "uint256"
        }
      ],
      "name": "Approval",
      "type": "event"
    },
    {
      "anonymous": false,
      "inputs": [
        {
          "indexed": true,
          "internalType": "address",
          "name": "owner",
          "type": "address"
        },
        {
          "indexed": true,
          "internalType": "address",
          "name": "operator",
          "type": "address"
        },
        {
          "indexed": false,
          "internalType": "bool",
          "name": "approved",
          "type": "bool"
        }
      ],
      "name": "ApprovalForAll",
      "type": "event"
    },
    {
      "anonymous": false,
      "inputs": [
        {
          "indexed": true,
          "internalType": "address",
          "name": "from",
          "type": "address"
        },
        {
          "indexed": true,
          "internalType": "address",
          "name": "to",
          "type": "address"
        },
        {
          "indexed": true,
          "internalType": "uint256",
          "name": "tokenId",
          "type": "uint256"
        }
      ],
      "name": "Transfer",
      "type": "event"
    },
    {
      "inputs": [
        {
          "internalType": "uint256",
          "name": "",
          "type": "uint256"
        }
      ],
      "name": "_parkingSpotOwners",
      "outputs": [
        {
          "internalType": "address",
          "name": "",
          "type": "address"
        }
      ],
      "stateMutability": "view",
      "type": "function"
    },
    {
      "inputs": [
        {
          "internalType": "address",
          "name": "to",
          "type": "address"
        },
        {
          "internalType": "uint256",
          "name": "tokenId",
          "type": "uint256"
        }
      ],
      "name": "approve",
      "outputs": [],
      "stateMutability": "nonpayable",
      "type": "function"
    },
    {
      "inputs": [
        {
          "internalType": "address",
          "name": "owner",
          "type": "address"
        }
      ],
      "name": "balanceOf",
      "outputs": [
        {
          "internalType": "uint256",
          "name": "",
          "type": "uint256"
        }
      ],
      "stateMutability": "view",
      "type": "function"
    },
    {
      "inputs": [
        {
          "internalType": "uint256",
          "name": "tokenId",
          "type": "uint256"
        }
      ],
      "name": "getApproved",
      "outputs": [
        {
          "internalType": "address",
          "name": "",
          "type": "address"
        }
      ],
      "stateMutability": "view",
      "type": "function"
    },
    {
      "inputs": [
        {
          "internalType": "address",
          "name": "owner",
          "type": "address"
        },
        {
          "internalType": "address",
          "name": "operator",
          "type": "address"
        }
      ],
      "name": "isApprovedForAll",
      "outputs": [
        {
          "internalType": "bool",
          "name": "",
          "type": "bool"
        }
      ],
      "stateMutability": "view",
      "type": "function"
    },
    {
      "inputs": [
        {
          "internalType": "uint256",
          "name": "tokenId",
          "type": "uint256"
        },
        {
          "internalType": "address",
          "name": "operator",
          "type": "address"
        }
      ],
      "name": "isApprovedForRequestContract",
      "outputs": [
        {
          "internalType": "bool",
          "name": "",
          "type": "bool"
        }
      ],
      "stateMutability": "view",
      "type": "function"
    },
    {
      "inputs": [
        {
          "internalType": "address",
          "name": "user",
          "type": "address"
        },
        {
          "internalType": "uint16",
          "name": "_index",
          "type": "uint16"
        }
      ],
      "name": "mintParkingSpot",
      "outputs": [
        {
          "internalType": "uint256",
          "name": "",
          "type": "uint256"
        }
      ],
      "stateMutability": "nonpayable",
      "type": "function"
    },
    {
      "inputs": [],
      "name": "name",
      "outputs": [
        {
          "internalType": "string",
          "name": "",
          "type": "string"
        }
      ],
      "stateMutability": "view",
      "type": "function"
    },
    {
      "inputs": [
        {
          "internalType": "uint256",
          "name": "tokenId",
          "type": "uint256"
        }
      ],
      "name": "ownerOf",
      "outputs": [
        {
          "internalType": "address",
          "name": "",
          "type": "address"
        }
      ],
      "stateMutability": "view",
      "type": "function"
    },
    {
      "inputs": [
        {
          "internalType": "address",
          "name": "from",
          "type": "address"
        },
        {
          "internalType": "address",
          "name": "to",
          "type": "address"
        },
        {
          "internalType": "uint256",
          "name": "tokenId",
          "type": "uint256"
        }
      ],
      "name": "safeTransferFrom",
      "outputs": [],
      "stateMutability": "nonpayable",
      "type": "function"
    },
    {
      "inputs": [
        {
          "internalType": "address",
          "name": "from",
          "type": "address"
        },
        {
          "internalType": "address",
          "name": "to",
          "type": "address"
        },
        {
          "internalType": "uint256",
          "name": "tokenId",
          "type": "uint256"
        },
        {
          "internalType": "bytes",
          "name": "data",
          "type": "bytes"
        }
      ],
      "name": "safeTransferFrom",
      "outputs": [],
      "stateMutability": "nonpayable",
      "type": "function"
    },
    {
      "inputs": [
        {
          "internalType": "address",
          "name": "operator",
          "type": "address"
        },
        {
          "internalType": "bool",
          "name": "approved",
          "type": "bool"
        }
      ],
      "name": "setApprovalForAll",
      "outputs": [],
      "stateMutability": "nonpayable",
      "type": "function"
    },
    {
      "inputs": [
        {
          "internalType": "uint256",
          "name": "tokenId",
          "type": "uint256"
        },
        {
          "internalType": "address",
          "name": "operator",
          "type": "address"
        },
        {
          "internalType": "bool",
          "name": "approved",
          "type": "bool"
        }
      ],
      "name": "setApprovalForRequestContract",
      "outputs": [],
      "stateMutability": "nonpayable",
      "type": "function"
    },
    {
      "inputs": [
        {
          "internalType": "bytes32",
          "name": "",
          "type": "bytes32"
        }
      ],
      "name": "spotTokenised",
      "outputs": [
        {
          "internalType": "bool",
          "name": "",
          "type": "bool"
        }
      ],
      "stateMutability": "view",
      "type": "function"
    },
    {
      "inputs": [
        {
          "internalType": "bytes4",
          "name": "interfaceId",
          "type": "bytes4"
        }
      ],
      "name": "supportsInterface",
      "outputs": [
        {
          "internalType": "bool",
          "name": "",
          "type": "bool"
        }
      ],
      "stateMutability": "view",
      "type": "function"
    },
    {
      "inputs": [],
      "name": "symbol",
      "outputs": [
        {
          "internalType": "string",
          "name": "",
          "type": "string"
        }
      ],
      "stateMutability": "view",
      "type": "function"
    },
    {
      "inputs": [
        {
          "internalType": "uint256",
          "name": "tokenId",
          "type": "uint256"
        }
      ],
      "name": "tokenURI",
      "outputs": [
        {
          "internalType": "string",
          "name": "",
          "type": "string"
        }
      ],
      "stateMutability": "view",
      "type": "function"
    },
    {
      "inputs": [
        {
          "internalType": "address",
          "name": "from",
          "type": "address"
        },
        {
          "internalType": "address",
          "name": "to",
          "type": "address"
        },
        {
          "internalType": "uint256",
          "name": "tokenId",
          "type": "uint256"
        }
      ],
      "name": "transferFrom",
      "outputs": [],
      "stateMutability": "nonpayable",
      "type": "function"
    }
  ],
  "transactionHash": "0xa00f6db090ed2fa5e1dabbf13563c92bf7293bb7a0fb5d3ec77e1826a389dcd9",
  "args": [],
  "numDeployments": 1,
  "solcInputHash": "4a0ac90c94295af46183ead8bddf886b",
  "bytecode": "0x60806040523480156200001157600080fd5b506040518060400160405280601081526020017f5061726b696e6753706f74546f6b656e000000000000000000000000000000008152506040518060400160405280600381526020017f5053540000000000000000000000000000000000000000000000000000000000815250816000908051906020019062000096929190620000b8565b508060019080519060200190620000af929190620000b8565b505050620001cd565b828054620000c69062000197565b90600052602060002090601f016020900481019282620000ea576000855562000136565b82601f106200010557805160ff191683800117855562000136565b8280016001018555821562000136579182015b828111156200013557825182559160200191906001019062000118565b5b50905062000145919062000149565b5090565b5b80821115620001645760008160009055506001016200014a565b5090565b7f4e487b7100000000000000000000000000000000000000000000000000000000600052602260045260246000fd5b60006002820490506001821680620001b057607f821691505b60208210811415620001c757620001c662000168565b5b50919050565b61340180620001dd6000396000f3fe608060405234801561001057600080fd5b50600436106101165760003560e01c806370a08231116100a2578063b88d4fde11610071578063b88d4fde14610303578063c55fd06b1461031f578063c87b56dd1461034f578063cc6b64a41461037f578063e985e9c5146103af57610116565b806370a08231146102695780637ac485e71461029957806395d89b41146102c9578063a22cb465146102e757610116565b806323b872dd116100e957806323b872dd146101b55780632d67219e146101d157806333a92ccd1461020157806342842e0e1461021d5780636352211e1461023957610116565b806301ffc9a71461011b57806306fdde031461014b578063081812fc14610169578063095ea7b314610199575b600080fd5b61013560048036038101906101309190612053565b6103df565b604051610142919061209b565b60405180910390f35b6101536104c1565b604051610160919061214f565b60405180910390f35b610183600480360381019061017e91906121a7565b610553565b6040516101909190612215565b60405180910390f35b6101b360048036038101906101ae919061225c565b610599565b005b6101cf60048036038101906101ca919061229c565b6106b1565b005b6101eb60048036038101906101e69190612329565b610711565b6040516101f89190612378565b60405180910390f35b61021b600480360381019061021691906123bf565b610757565b005b6102376004803603810190610232919061229c565b610768565b005b610253600480360381019061024e91906121a7565b610788565b6040516102609190612215565b60405180910390f35b610283600480360381019061027e9190612412565b61083a565b6040516102909190612378565b60405180910390f35b6102b360048036038101906102ae919061243f565b6108f2565b6040516102c0919061209b565b60405180910390f35b6102d161095a565b6040516102de919061214f565b60405180910390f35b61030160048036038101906102fc919061247f565b6109ec565b005b61031d600480360381019061031891906125f4565b610a02565b005b610339600480360381019061033491906121a7565b610a64565b6040516103469190612215565b60405180910390f35b610369600480360381019061036491906121a7565b610a97565b604051610376919061214f565b60405180910390f35b610399600480360381019061039491906126ad565b610baa565b6040516103a6919061209b565b60405180910390f35b6103c960048036038101906103c491906126da565b610bca565b6040516103d6919061209b565b60405180910390f35b60007f80ac58cd000000000000000000000000000000000000000000000000000000007bffffffffffffffffffffffffffffffffffffffffffffffffffffffff1916827bffffffffffffffffffffffffffffffffffffffffffffffffffffffff191614806104aa57507f5b5e139f000000000000000000000000000000000000000000000000000000007bffffffffffffffffffffffffffffffffffffffffffffffffffffffff1916827bffffffffffffffffffffffffffffffffffffffffffffffffffffffff1916145b806104ba57506104b982610c5e565b5b9050919050565b6060600080546104d090612749565b80601f01602080910402602001604051908101604052809291908181526020018280546104fc90612749565b80156105495780601f1061051e57610100808354040283529160200191610549565b820191906000526020600020905b81548152906001019060200180831161052c57829003601f168201915b5050505050905090565b600061055e82610cc8565b6004600083815260200190815260200160002060009054906101000a900473ffffffffffffffffffffffffffffffffffffffff169050919050565b60006105a482610788565b90508073ffffffffffffffffffffffffffffffffffffffff168373ffffffffffffffffffffffffffffffffffffffff161415610615576040517f08c379a000000000000000000000000000000000000000000000000000000000815260040161060c906127ed565b60405180910390fd5b8073ffffffffffffffffffffffffffffffffffffffff16610634610d13565b73ffffffffffffffffffffffffffffffffffffffff16148061066357506106628161065d610d13565b610bca565b5b6106a2576040517f08c379a00000000000000000000000000000000000000000000000000000000081526004016106999061287f565b60405180910390fd5b6106ac8383610d1b565b505050565b6106c26106bc610d13565b82610dd4565b610701576040517f08c379a00000000000000000000000000000000000000000000000000000000081526004016106f890612911565b60405180910390fd5b61070c838383610e7a565b505050565b600061071d600a611170565b600061072883611186565b90506000610736600a6111ac565b905061074285826111ba565b61074c8183611426565b809250505092915050565b6107633384848461149a565b505050565b61078383838360405180602001604052806000815250610a02565b505050565b6000806002600084815260200190815260200160002060009054906101000a900473ffffffffffffffffffffffffffffffffffffffff169050600073ffffffffffffffffffffffffffffffffffffffff168173ffffffffffffffffffffffffffffffffffffffff161415610831576040517f08c379a00000000000000000000000000000000000000000000000000000000081526004016108289061297d565b60405180910390fd5b80915050919050565b60008073ffffffffffffffffffffffffffffffffffffffff168273ffffffffffffffffffffffffffffffffffffffff1614156108ab576040517f08c379a00000000000000000000000000000000000000000000000000000000081526004016108a290612a0f565b60405180910390fd5b600360008373ffffffffffffffffffffffffffffffffffffffff1673ffffffffffffffffffffffffffffffffffffffff168152602001908152602001600020549050919050565b60006006600084815260200190815260200160002060008373ffffffffffffffffffffffffffffffffffffffff1673ffffffffffffffffffffffffffffffffffffffff16815260200190815260200160002060009054906101000a900460ff16905092915050565b60606001805461096990612749565b80601f016020809104026020016040519081016040528092919081815260200182805461099590612749565b80156109e25780601f106109b7576101008083540402835291602001916109e2565b820191906000526020600020905b8154815290600101906020018083116109c557829003601f168201915b5050505050905090565b6109fe6109f7610d13565b8383611551565b5050565b610a13610a0d610d13565b83610dd4565b610a52576040517f08c379a0000000000000000000000000000000000000000000000000000000008152600401610a4990612911565b60405180910390fd5b610a5e848484846116be565b50505050565b60076020528060005260406000206000915054906101000a900473ffffffffffffffffffffffffffffffffffffffff1681565b6060610aa282610cc8565b6000600860008481526020019081526020016000208054610ac290612749565b80601f0160208091040260200160405190810160405280929190818152602001828054610aee90612749565b8015610b3b5780601f10610b1057610100808354040283529160200191610b3b565b820191906000526020600020905b815481529060010190602001808311610b1e57829003601f168201915b505050505090506000610b4c61171a565b9050600081511415610b62578192505050610ba5565b600082511115610b97578082604051602001610b7f929190612a6b565b60405160208183030381529060405292505050610ba5565b610ba084611731565b925050505b919050565b60096020528060005260406000206000915054906101000a900460ff1681565b6000600560008473ffffffffffffffffffffffffffffffffffffffff1673ffffffffffffffffffffffffffffffffffffffff16815260200190815260200160002060008373ffffffffffffffffffffffffffffffffffffffff1673ffffffffffffffffffffffffffffffffffffffff16815260200190815260200160002060009054906101000a900460ff16905092915050565b60007f01ffc9a7000000000000000000000000000000000000000000000000000000007bffffffffffffffffffffffffffffffffffffffffffffffffffffffff1916827bffffffffffffffffffffffffffffffffffffffffffffffffffffffff1916149050919050565b610cd181611799565b610d10576040517f08c379a0000000000000000000000000000000000000000000000000000000008152600401610d079061297d565b60405180910390fd5b50565b600033905090565b816004600083815260200190815260200160002060006101000a81548173ffffffffffffffffffffffffffffffffffffffff021916908373ffffffffffffffffffffffffffffffffffffffff160217905550808273ffffffffffffffffffffffffffffffffffffffff16610d8e83610788565b73ffffffffffffffffffffffffffffffffffffffff167f8c5be1e5ebec7d5bd14f71427d1e84f3dd0314c0f7b2291e5b200ac8c7c3b92560405160405180910390a45050565b600080610de083610788565b90508073ffffffffffffffffffffffffffffffffffffffff168473ffffffffffffffffffffffffffffffffffffffff161480610e225750610e218185610bca565b5b80610e6057508373ffffffffffffffffffffffffffffffffffffffff16610e4884610553565b73ffffffffffffffffffffffffffffffffffffffff16145b80610e715750610e7083856108f2565b5b91505092915050565b8273ffffffffffffffffffffffffffffffffffffffff16610e9a82610788565b73ffffffffffffffffffffffffffffffffffffffff1614610ef0576040517f08c379a0000000000000000000000000000000000000000000000000000000008152600401610ee790612b01565b60405180910390fd5b600073ffffffffffffffffffffffffffffffffffffffff168273ffffffffffffffffffffffffffffffffffffffff161415610f60576040517f08c379a0000000000000000000000000000000000000000000000000000000008152600401610f5790612b93565b60405180910390fd5b610f6b838383611805565b8273ffffffffffffffffffffffffffffffffffffffff16610f8b82610788565b73ffffffffffffffffffffffffffffffffffffffff1614610fe1576040517f08c379a0000000000000000000000000000000000000000000000000000000008152600401610fd890612b01565b60405180910390fd5b6004600082815260200190815260200160002060006101000a81549073ffffffffffffffffffffffffffffffffffffffff02191690556001600360008573ffffffffffffffffffffffffffffffffffffffff1673ffffffffffffffffffffffffffffffffffffffff168152602001908152602001600020600082825403925050819055506001600360008473ffffffffffffffffffffffffffffffffffffffff1673ffffffffffffffffffffffffffffffffffffffff16815260200190815260200160002060008282540192505081905550816002600083815260200190815260200160002060006101000a81548173ffffffffffffffffffffffffffffffffffffffff021916908373ffffffffffffffffffffffffffffffffffffffff160217905550808273ffffffffffffffffffffffffffffffffffffffff168473ffffffffffffffffffffffffffffffffffffffff167fddf252ad1be2c89b69c2b068fc378daa952ba7f163c4a11628f55a4df523b3ef60405160405180910390a461116b83838361180a565b505050565b6001816000016000828254019250508190555050565b606060006111938361180f565b905060006111a0826118a8565b90508092505050919050565b600081600001549050919050565b600073ffffffffffffffffffffffffffffffffffffffff168273ffffffffffffffffffffffffffffffffffffffff16141561122a576040517f08c379a000000000000000000000000000000000000000000000000000000000815260040161122190612bff565b60405180910390fd5b61123381611799565b15611273576040517f08c379a000000000000000000000000000000000000000000000000000000000815260040161126a90612c6b565b60405180910390fd5b61127f60008383611805565b61128881611799565b156112c8576040517f08c379a00000000000000000000000000000000000000000000000000000000081526004016112bf90612c6b565b60405180910390fd5b6001600360008473ffffffffffffffffffffffffffffffffffffffff1673ffffffffffffffffffffffffffffffffffffffff16815260200190815260200160002060008282540192505081905550816002600083815260200190815260200160002060006101000a81548173ffffffffffffffffffffffffffffffffffffffff021916908373ffffffffffffffffffffffffffffffffffffffff160217905550816007600083815260200190815260200160002060006101000a81548173ffffffffffffffffffffffffffffffffffffffff021916908373ffffffffffffffffffffffffffffffffffffffff160217905550808273ffffffffffffffffffffffffffffffffffffffff16600073ffffffffffffffffffffffffffffffffffffffff167fddf252ad1be2c89b69c2b068fc378daa952ba7f163c4a11628f55a4df523b3ef60405160405180910390a46114226000838361180a565b5050565b61142f82611799565b61146e576040517f08c379a000000000000000000000000000000000000000000000000000000000815260040161146590612cfd565b60405180910390fd5b80600860008481526020019081526020016000209080519060200190611495929190611f44565b505050565b6114a48385611966565b6114e3576040517f08c379a00000000000000000000000000000000000000000000000000000000081526004016114da90612ddb565b60405180910390fd5b806006600085815260200190815260200160002060008473ffffffffffffffffffffffffffffffffffffffff1673ffffffffffffffffffffffffffffffffffffffff16815260200190815260200160002060006101000a81548160ff02191690831515021790555050505050565b8173ffffffffffffffffffffffffffffffffffffffff168373ffffffffffffffffffffffffffffffffffffffff1614156115c0576040517f08c379a00000000000000000000000000000000000000000000000000000000081526004016115b790612e47565b60405180910390fd5b80600560008573ffffffffffffffffffffffffffffffffffffffff1673ffffffffffffffffffffffffffffffffffffffff16815260200190815260200160002060008473ffffffffffffffffffffffffffffffffffffffff1673ffffffffffffffffffffffffffffffffffffffff16815260200190815260200160002060006101000a81548160ff0219169083151502179055508173ffffffffffffffffffffffffffffffffffffffff168373ffffffffffffffffffffffffffffffffffffffff167f17307eab39ab6107e8899845ad3d59bd9653f200f220920489ca2b5937696c31836040516116b1919061209b565b60405180910390a3505050565b6116c9848484610e7a565b6116d5848484846119d2565b611714576040517f08c379a000000000000000000000000000000000000000000000000000000000815260040161170b90612ed9565b60405180910390fd5b50505050565b606060405180602001604052806000815250905090565b606061173c82610cc8565b600061174661171a565b905060008151116117665760405180602001604052806000815250611791565b8061177084611b5a565b604051602001611781929190612a6b565b6040516020818303038152906040525b915050919050565b60008073ffffffffffffffffffffffffffffffffffffffff166002600084815260200190815260200160002060009054906101000a900473ffffffffffffffffffffffffffffffffffffffff1673ffffffffffffffffffffffffffffffffffffffff1614159050919050565b505050565b505050565b6000739fe46736679d2d9a65f0992f2272de9f3c7fa6e073ffffffffffffffffffffffffffffffffffffffff16630902d94933846040518363ffffffff1660e01b8152600401611860929190612f08565b602060405180830381865afa15801561187d573d6000803e3d6000fd5b505050506040513d601f19601f820116820180604052508101906118a19190612f46565b9050919050565b60606118b382611cbb565b156118f3576040517f08c379a00000000000000000000000000000000000000000000000000000000081526004016118ea90612fe5565b60405180910390fd5b600060405180606001604052806031815260200161339b60319139905060006119333373ffffffffffffffffffffffffffffffffffffffff166020611ce5565b90506000828260405160200161194a929190612a6b565b6040516020818303038152906040529050809350505050919050565b60008173ffffffffffffffffffffffffffffffffffffffff166007600085815260200190815260200160002060009054906101000a900473ffffffffffffffffffffffffffffffffffffffff1673ffffffffffffffffffffffffffffffffffffffff1614905092915050565b60006119f38473ffffffffffffffffffffffffffffffffffffffff16611f21565b15611b4d578373ffffffffffffffffffffffffffffffffffffffff1663150b7a02611a1c610d13565b8786866040518563ffffffff1660e01b8152600401611a3e949392919061305a565b6020604051808303816000875af1925050508015611a7a57506040513d601f19601f82011682018060405250810190611a7791906130bb565b60015b611afd573d8060008114611aaa576040519150601f19603f3d011682016040523d82523d6000602084013e611aaf565b606091505b50600081511415611af5576040517f08c379a0000000000000000000000000000000000000000000000000000000008152600401611aec90612ed9565b60405180910390fd5b805181602001fd5b63150b7a0260e01b7bffffffffffffffffffffffffffffffffffffffffffffffffffffffff1916817bffffffffffffffffffffffffffffffffffffffffffffffffffffffff191614915050611b52565b600190505b949350505050565b60606000821415611ba2576040518060400160405280600181526020017f30000000000000000000000000000000000000000000000000000000000000008152509050611cb6565b600082905060005b60008214611bd4578080611bbd90613117565b915050600a82611bcd919061318f565b9150611baa565b60008167ffffffffffffffff811115611bf057611bef6124c9565b5b6040519080825280601f01601f191660200182016040528015611c225781602001600182028036833780820191505090505b5090505b60008514611caf57600182611c3b91906131c0565b9150600a85611c4a91906131f4565b6030611c569190613225565b60f81b818381518110611c6c57611c6b61327b565b5b60200101907effffffffffffffffffffffffffffffffffffffffffffffffffffffffffffff1916908160001a905350600a85611ca8919061318f565b9450611c26565b8093505050505b919050565b60006009600083815260200190815260200160002060009054906101000a900460ff169050919050565b606060006002836002611cf891906132aa565b611d029190613225565b67ffffffffffffffff811115611d1b57611d1a6124c9565b5b6040519080825280601f01601f191660200182016040528015611d4d5781602001600182028036833780820191505090505b5090507f300000000000000000000000000000000000000000000000000000000000000081600081518110611d8557611d8461327b565b5b60200101907effffffffffffffffffffffffffffffffffffffffffffffffffffffffffffff1916908160001a9053507f780000000000000000000000000000000000000000000000000000000000000081600181518110611de957611de861327b565b5b60200101907effffffffffffffffffffffffffffffffffffffffffffffffffffffffffffff1916908160001a90535060006001846002611e2991906132aa565b611e339190613225565b90505b6001811115611ed3577f3031323334353637383961626364656600000000000000000000000000000000600f861660108110611e7557611e7461327b565b5b1a60f81b828281518110611e8c57611e8b61327b565b5b60200101907effffffffffffffffffffffffffffffffffffffffffffffffffffffffffffff1916908160001a905350600485901c945080611ecc90613304565b9050611e36565b5060008414611f17576040517f08c379a0000000000000000000000000000000000000000000000000000000008152600401611f0e9061337a565b60405180910390fd5b8091505092915050565b6000808273ffffffffffffffffffffffffffffffffffffffff163b119050919050565b828054611f5090612749565b90600052602060002090601f016020900481019282611f725760008555611fb9565b82601f10611f8b57805160ff1916838001178555611fb9565b82800160010185558215611fb9579182015b82811115611fb8578251825591602001919060010190611f9d565b5b509050611fc69190611fca565b5090565b5b80821115611fe3576000816000905550600101611fcb565b5090565b6000604051905090565b600080fd5b600080fd5b60007fffffffff0000000000000000000000000000000000000000000000000000000082169050919050565b61203081611ffb565b811461203b57600080fd5b50565b60008135905061204d81612027565b92915050565b60006020828403121561206957612068611ff1565b5b60006120778482850161203e565b91505092915050565b60008115159050919050565b61209581612080565b82525050565b60006020820190506120b0600083018461208c565b92915050565b600081519050919050565b600082825260208201905092915050565b60005b838110156120f05780820151818401526020810190506120d5565b838111156120ff576000848401525b50505050565b6000601f19601f8301169050919050565b6000612121826120b6565b61212b81856120c1565b935061213b8185602086016120d2565b61214481612105565b840191505092915050565b600060208201905081810360008301526121698184612116565b905092915050565b6000819050919050565b61218481612171565b811461218f57600080fd5b50565b6000813590506121a18161217b565b92915050565b6000602082840312156121bd576121bc611ff1565b5b60006121cb84828501612192565b91505092915050565b600073ffffffffffffffffffffffffffffffffffffffff82169050919050565b60006121ff826121d4565b9050919050565b61220f816121f4565b82525050565b600060208201905061222a6000830184612206565b92915050565b612239816121f4565b811461224457600080fd5b50565b60008135905061225681612230565b92915050565b6000806040838503121561227357612272611ff1565b5b600061228185828601612247565b925050602061229285828601612192565b9150509250929050565b6000806000606084860312156122b5576122b4611ff1565b5b60006122c386828701612247565b93505060206122d486828701612247565b92505060406122e586828701612192565b9150509250925092565b600061ffff82169050919050565b612306816122ef565b811461231157600080fd5b50565b600081359050612323816122fd565b92915050565b600080604083850312156123405761233f611ff1565b5b600061234e85828601612247565b925050602061235f85828601612314565b9150509250929050565b61237281612171565b82525050565b600060208201905061238d6000830184612369565b92915050565b61239c81612080565b81146123a757600080fd5b50565b6000813590506123b981612393565b92915050565b6000806000606084860312156123d8576123d7611ff1565b5b60006123e686828701612192565b93505060206123f786828701612247565b9250506040612408868287016123aa565b9150509250925092565b60006020828403121561242857612427611ff1565b5b600061243684828501612247565b91505092915050565b6000806040838503121561245657612455611ff1565b5b600061246485828601612192565b925050602061247585828601612247565b9150509250929050565b6000806040838503121561249657612495611ff1565b5b60006124a485828601612247565b92505060206124b5858286016123aa565b9150509250929050565b600080fd5b600080fd5b7f4e487b7100000000000000000000000000000000000000000000000000000000600052604160045260246000fd5b61250182612105565b810181811067ffffffffffffffff821117156125205761251f6124c9565b5b80604052505050565b6000612533611fe7565b905061253f82826124f8565b919050565b600067ffffffffffffffff82111561255f5761255e6124c9565b5b61256882612105565b9050602081019050919050565b82818337600083830152505050565b600061259761259284612544565b612529565b9050828152602081018484840111156125b3576125b26124c4565b5b6125be848285612575565b509392505050565b600082601f8301126125db576125da6124bf565b5b81356125eb848260208601612584565b91505092915050565b6000806000806080858703121561260e5761260d611ff1565b5b600061261c87828801612247565b945050602061262d87828801612247565b935050604061263e87828801612192565b925050606085013567ffffffffffffffff81111561265f5761265e611ff6565b5b61266b878288016125c6565b91505092959194509250565b6000819050919050565b61268a81612677565b811461269557600080fd5b50565b6000813590506126a781612681565b92915050565b6000602082840312156126c3576126c2611ff1565b5b60006126d184828501612698565b91505092915050565b600080604083850312156126f1576126f0611ff1565b5b60006126ff85828601612247565b925050602061271085828601612247565b9150509250929050565b7f4e487b7100000000000000000000000000000000000000000000000000000000600052602260045260246000fd5b6000600282049050600182168061276157607f821691505b602082108114156127755761277461271a565b5b50919050565b7f4552433732313a20617070726f76616c20746f2063757272656e74206f776e6560008201527f7200000000000000000000000000000000000000000000000000000000000000602082015250565b60006127d76021836120c1565b91506127e28261277b565b604082019050919050565b60006020820190508181036000830152612806816127ca565b9050919050565b7f4552433732313a20617070726f76652063616c6c6572206973206e6f7420746f60008201527f6b656e206f776e6572206f7220617070726f76656420666f7220616c6c000000602082015250565b6000612869603d836120c1565b91506128748261280d565b604082019050919050565b600060208201905081810360008301526128988161285c565b9050919050565b7f4552433732313a2063616c6c6572206973206e6f7420746f6b656e206f776e6560008201527f72206f7220617070726f76656400000000000000000000000000000000000000602082015250565b60006128fb602d836120c1565b91506129068261289f565b604082019050919050565b6000602082019050818103600083015261292a816128ee565b9050919050565b7f4552433732313a20696e76616c696420746f6b656e2049440000000000000000600082015250565b60006129676018836120c1565b915061297282612931565b602082019050919050565b600060208201905081810360008301526129968161295a565b9050919050565b7f4552433732313a2061646472657373207a65726f206973206e6f74206120766160008201527f6c6964206f776e65720000000000000000000000000000000000000000000000602082015250565b60006129f96029836120c1565b9150612a048261299d565b604082019050919050565b60006020820190508181036000830152612a28816129ec565b9050919050565b600081905092915050565b6000612a45826120b6565b612a4f8185612a2f565b9350612a5f8185602086016120d2565b80840191505092915050565b6000612a778285612a3a565b9150612a838284612a3a565b91508190509392505050565b7f4552433732313a207472616e736665722066726f6d20696e636f72726563742060008201527f6f776e6572000000000000000000000000000000000000000000000000000000602082015250565b6000612aeb6025836120c1565b9150612af682612a8f565b604082019050919050565b60006020820190508181036000830152612b1a81612ade565b9050919050565b7f4552433732313a207472616e7366657220746f20746865207a65726f2061646460008201527f7265737300000000000000000000000000000000000000000000000000000000602082015250565b6000612b7d6024836120c1565b9150612b8882612b21565b604082019050919050565b60006020820190508181036000830152612bac81612b70565b9050919050565b7f4552433732313a206d696e7420746f20746865207a65726f2061646472657373600082015250565b6000612be96020836120c1565b9150612bf482612bb3565b602082019050919050565b60006020820190508181036000830152612c1881612bdc565b9050919050565b7f4552433732313a20746f6b656e20616c7265616479206d696e74656400000000600082015250565b6000612c55601c836120c1565b9150612c6082612c1f565b602082019050919050565b60006020820190508181036000830152612c8481612c48565b9050919050565b7f45524337323155524953746f726167653a2055524920736574206f66206e6f6e60008201527f6578697374656e7420746f6b656e000000000000000000000000000000000000602082015250565b6000612ce7602e836120c1565b9150612cf282612c8b565b604082019050919050565b60006020820190508181036000830152612d1681612cda565b9050919050565b7f4f6e6c79207468652074727565206f776e6572206f6620746865207061726b6960008201527f6e6720746f6b656e2063616e206368616e676520617070726f76616c2073746160208201527f74757320666f7220746865207061726b696e6720526571756573747320636f6e60408201527f74726163742e2000000000000000000000000000000000000000000000000000606082015250565b6000612dc56067836120c1565b9150612dd082612d1d565b608082019050919050565b60006020820190508181036000830152612df481612db8565b9050919050565b7f4552433732313a20617070726f766520746f2063616c6c657200000000000000600082015250565b6000612e316019836120c1565b9150612e3c82612dfb565b602082019050919050565b60006020820190508181036000830152612e6081612e24565b9050919050565b7f4552433732313a207472616e7366657220746f206e6f6e20455243373231526560008201527f63656976657220696d706c656d656e7465720000000000000000000000000000602082015250565b6000612ec36032836120c1565b9150612ece82612e67565b604082019050919050565b60006020820190508181036000830152612ef281612eb6565b9050919050565b612f02816122ef565b82525050565b6000604082019050612f1d6000830185612206565b612f2a6020830184612ef9565b9392505050565b600081519050612f4081612681565b92915050565b600060208284031215612f5c57612f5b611ff1565b5b6000612f6a84828501612f31565b91505092915050565b7f5061726b696e672073706f7420636f2d6f7264696e617465732061726520616c60008201527f7265616479206d696e746564206173206120746f6b656e000000000000000000602082015250565b6000612fcf6037836120c1565b9150612fda82612f73565b604082019050919050565b60006020820190508181036000830152612ffe81612fc2565b9050919050565b600081519050919050565b600082825260208201905092915050565b600061302c82613005565b6130368185613010565b93506130468185602086016120d2565b61304f81612105565b840191505092915050565b600060808201905061306f6000830187612206565b61307c6020830186612206565b6130896040830185612369565b818103606083015261309b8184613021565b905095945050505050565b6000815190506130b581612027565b92915050565b6000602082840312156130d1576130d0611ff1565b5b60006130df848285016130a6565b91505092915050565b7f4e487b7100000000000000000000000000000000000000000000000000000000600052601160045260246000fd5b600061312282612171565b91507fffffffffffffffffffffffffffffffffffffffffffffffffffffffffffffffff821415613155576131546130e8565b5b600182019050919050565b7f4e487b7100000000000000000000000000000000000000000000000000000000600052601260045260246000fd5b600061319a82612171565b91506131a583612171565b9250826131b5576131b4613160565b5b828204905092915050565b60006131cb82612171565b91506131d683612171565b9250828210156131e9576131e86130e8565b5b828203905092915050565b60006131ff82612171565b915061320a83612171565b92508261321a57613219613160565b5b828206905092915050565b600061323082612171565b915061323b83612171565b9250827fffffffffffffffffffffffffffffffffffffffffffffffffffffffffffffffff038211156132705761326f6130e8565b5b828201905092915050565b7f4e487b7100000000000000000000000000000000000000000000000000000000600052603260045260246000fd5b60006132b582612171565b91506132c083612171565b9250817fffffffffffffffffffffffffffffffffffffffffffffffffffffffffffffffff04831182151516156132f9576132f86130e8565b5b828202905092915050565b600061330f82612171565b91506000821415613323576133226130e8565b5b600182039050919050565b7f537472696e67733a20686578206c656e67746820696e73756666696369656e74600082015250565b60006133646020836120c1565b915061336f8261332e565b602082019050919050565b6000602082019050818103600083015261339381613357565b905091905056fe646174613a746578742f706c61696e3b636861727365743d5554462d382c7061726b696e6753706f744c61744c6f6e673aa26469706673582212202dd4ac5e8662ace1c3c48a0eefb39cb7467be7a30ea12f7d64228ad43d7b52c964736f6c634300080c0033",
  "devdoc": {
    "kind": "dev",
    "methods": {
      "approve(address,uint256)": {
        "details": "See {IERC721-approve}."
      },
      "balanceOf(address)": {
        "details": "See {IERC721-balanceOf}."
      },
      "getApproved(uint256)": {
        "details": "See {IERC721-getApproved}."
      },
      "isApprovedForAll(address,address)": {
        "details": "See {IERC721-isApprovedForAll}."
      },
      "name()": {
        "details": "See {IERC721Metadata-name}."
      },
      "ownerOf(uint256)": {
        "details": "See {IERC721-ownerOf}."
      },
      "safeTransferFrom(address,address,uint256)": {
        "details": "See {IERC721-safeTransferFrom}."
      },
      "safeTransferFrom(address,address,uint256,bytes)": {
        "details": "See {IERC721-safeTransferFrom}."
      },
      "setApprovalForAll(address,bool)": {
        "details": "See {IERC721-setApprovalForAll}."
      },
      "supportsInterface(bytes4)": {
        "details": "See {IERC165-supportsInterface}."
      },
      "symbol()": {
        "details": "See {IERC721Metadata-symbol}."
      },
      "tokenURI(uint256)": {
        "details": "See {IERC721Metadata-tokenURI}."
      },
      "transferFrom(address,address,uint256)": {
        "details": "See {IERC721-transferFrom}."
      }
    },
    "version": 1
  },
  "userdoc": {
    "kind": "user",
    "methods": {},
    "version": 1
  },
  "storageLayout": {
    "storage": [
      {
        "astId": 7208,
        "contract": "contracts/ParkingSpotToken.sol:ParkingSpotToken",
        "label": "_name",
        "offset": 0,
        "slot": "0",
        "type": "t_string_storage"
      },
      {
        "astId": 7210,
        "contract": "contracts/ParkingSpotToken.sol:ParkingSpotToken",
        "label": "_symbol",
        "offset": 0,
        "slot": "1",
        "type": "t_string_storage"
      },
      {
        "astId": 7214,
        "contract": "contracts/ParkingSpotToken.sol:ParkingSpotToken",
        "label": "_owners",
        "offset": 0,
        "slot": "2",
        "type": "t_mapping(t_uint256,t_address)"
      },
      {
        "astId": 7218,
        "contract": "contracts/ParkingSpotToken.sol:ParkingSpotToken",
        "label": "_balances",
        "offset": 0,
        "slot": "3",
        "type": "t_mapping(t_address,t_uint256)"
      },
      {
        "astId": 7222,
        "contract": "contracts/ParkingSpotToken.sol:ParkingSpotToken",
        "label": "_tokenApprovals",
        "offset": 0,
        "slot": "4",
        "type": "t_mapping(t_uint256,t_address)"
      },
      {
        "astId": 7228,
        "contract": "contracts/ParkingSpotToken.sol:ParkingSpotToken",
        "label": "_operatorApprovals",
        "offset": 0,
        "slot": "5",
        "type": "t_mapping(t_address,t_mapping(t_address,t_bool))"
      },
      {
        "astId": 7234,
        "contract": "contracts/ParkingSpotToken.sol:ParkingSpotToken",
        "label": "_approvedForRequestContract",
        "offset": 0,
        "slot": "6",
        "type": "t_mapping(t_uint256,t_mapping(t_address,t_bool))"
      },
      {
        "astId": 7238,
        "contract": "contracts/ParkingSpotToken.sol:ParkingSpotToken",
        "label": "_parkingSpotOwners",
        "offset": 0,
        "slot": "7",
        "type": "t_mapping(t_uint256,t_address)"
      },
      {
        "astId": 8178,
        "contract": "contracts/ParkingSpotToken.sol:ParkingSpotToken",
        "label": "_tokenURIs",
        "offset": 0,
        "slot": "8",
        "type": "t_mapping(t_uint256,t_string_storage)"
      },
      {
        "astId": 8860,
        "contract": "contracts/ParkingSpotToken.sol:ParkingSpotToken",
        "label": "spotTokenised",
        "offset": 0,
        "slot": "9",
        "type": "t_mapping(t_bytes32,t_bool)"
      },
      {
        "astId": 8867,
        "contract": "contracts/ParkingSpotToken.sol:ParkingSpotToken",
        "label": "_tokenIds",
        "offset": 0,
        "slot": "10",
        "type": "t_struct(Counter)4575_storage"
      }
    ],
    "types": {
      "t_address": {
        "encoding": "inplace",
        "label": "address",
        "numberOfBytes": "20"
      },
      "t_bool": {
        "encoding": "inplace",
        "label": "bool",
        "numberOfBytes": "1"
      },
      "t_bytes32": {
        "encoding": "inplace",
        "label": "bytes32",
        "numberOfBytes": "32"
      },
      "t_mapping(t_address,t_bool)": {
        "encoding": "mapping",
        "key": "t_address",
        "label": "mapping(address => bool)",
        "numberOfBytes": "32",
        "value": "t_bool"
      },
      "t_mapping(t_address,t_mapping(t_address,t_bool))": {
        "encoding": "mapping",
        "key": "t_address",
        "label": "mapping(address => mapping(address => bool))",
        "numberOfBytes": "32",
        "value": "t_mapping(t_address,t_bool)"
      },
      "t_mapping(t_address,t_uint256)": {
        "encoding": "mapping",
        "key": "t_address",
        "label": "mapping(address => uint256)",
        "numberOfBytes": "32",
        "value": "t_uint256"
      },
      "t_mapping(t_bytes32,t_bool)": {
        "encoding": "mapping",
        "key": "t_bytes32",
        "label": "mapping(bytes32 => bool)",
        "numberOfBytes": "32",
        "value": "t_bool"
      },
      "t_mapping(t_uint256,t_address)": {
        "encoding": "mapping",
        "key": "t_uint256",
        "label": "mapping(uint256 => address)",
        "numberOfBytes": "32",
        "value": "t_address"
      },
      "t_mapping(t_uint256,t_mapping(t_address,t_bool))": {
        "encoding": "mapping",
        "key": "t_uint256",
        "label": "mapping(uint256 => mapping(address => bool))",
        "numberOfBytes": "32",
        "value": "t_mapping(t_address,t_bool)"
      },
      "t_mapping(t_uint256,t_string_storage)": {
        "encoding": "mapping",
        "key": "t_uint256",
        "label": "mapping(uint256 => string)",
        "numberOfBytes": "32",
        "value": "t_string_storage"
      },
      "t_string_storage": {
        "encoding": "bytes",
        "label": "string",
        "numberOfBytes": "32"
      },
      "t_struct(Counter)4575_storage": {
        "encoding": "inplace",
        "label": "struct Counters.Counter",
        "members": [
          {
            "astId": 4574,
            "contract": "contracts/ParkingSpotToken.sol:ParkingSpotToken",
            "label": "_value",
            "offset": 0,
            "slot": "0",
            "type": "t_uint256"
          }
        ],
        "numberOfBytes": "32"
      },
      "t_uint256": {
        "encoding": "inplace",
        "label": "uint256",
        "numberOfBytes": "32"
      }
    }
  }
}