{
  "address": "0xDc64a140Aa3E981100a9becA4E685f962f0cF6C9",
  "abi": [
    {
      "inputs": [],
      "stateMutability": "nonpayable",
      "type": "constructor"
    },
    {
      "anonymous": false,
      "inputs": [
        {
          "indexed": true,
          "internalType": "address",
          "name": "owner",
          "type": "address"
        },
        {
          "indexed": true,
          "internalType": "address",
          "name": "approved",
          "type": "address"
        },
        {
          "indexed": true,
          "internalType": "uint256",
          "name": "tokenId",
          "type": "uint256"
        }
      ],
      "name": "Approval",
      "type": "event"
    },
    {
      "anonymous": false,
      "inputs": [
        {
          "indexed": true,
          "internalType": "address",
          "name": "owner",
          "type": "address"
        },
        {
          "indexed": true,
          "internalType": "address",
          "name": "operator",
          "type": "address"
        },
        {
          "indexed": false,
          "internalType": "bool",
          "name": "approved",
          "type": "bool"
        }
      ],
      "name": "ApprovalForAll",
      "type": "event"
    },
    {
      "anonymous": false,
      "inputs": [
        {
          "indexed": false,
          "internalType": "address",
          "name": "owner",
          "type": "address"
        },
        {
          "indexed": false,
          "internalType": "uint256",
          "name": "tokenId",
          "type": "uint256"
        }
      ],
      "name": "ParkingSpotMinted",
      "type": "event"
    },
    {
      "anonymous": false,
      "inputs": [
        {
          "indexed": true,
          "internalType": "address",
          "name": "from",
          "type": "address"
        },
        {
          "indexed": true,
          "internalType": "address",
          "name": "to",
          "type": "address"
        },
        {
          "indexed": true,
          "internalType": "uint256",
          "name": "tokenId",
          "type": "uint256"
        }
      ],
      "name": "Transfer",
      "type": "event"
    },
    {
      "inputs": [
        {
          "internalType": "uint256",
          "name": "",
          "type": "uint256"
        }
      ],
      "name": "_parkingSpotOwners",
      "outputs": [
        {
          "internalType": "address",
          "name": "",
          "type": "address"
        }
      ],
      "stateMutability": "view",
      "type": "function"
    },
    {
      "inputs": [
        {
          "internalType": "address",
          "name": "to",
          "type": "address"
        },
        {
          "internalType": "uint256",
          "name": "tokenId",
          "type": "uint256"
        }
      ],
      "name": "approve",
      "outputs": [],
      "stateMutability": "nonpayable",
      "type": "function"
    },
    {
      "inputs": [
        {
          "internalType": "address",
          "name": "owner",
          "type": "address"
        }
      ],
      "name": "balanceOf",
      "outputs": [
        {
          "internalType": "uint256",
          "name": "",
          "type": "uint256"
        }
      ],
      "stateMutability": "view",
      "type": "function"
    },
    {
      "inputs": [
        {
          "internalType": "uint256",
          "name": "tokenId",
          "type": "uint256"
        }
      ],
      "name": "getApproved",
      "outputs": [
        {
          "internalType": "address",
          "name": "",
          "type": "address"
        }
      ],
      "stateMutability": "view",
      "type": "function"
    },
    {
      "inputs": [
        {
          "internalType": "address",
          "name": "owner",
          "type": "address"
        },
        {
          "internalType": "address",
          "name": "operator",
          "type": "address"
        }
      ],
      "name": "isApprovedForAll",
      "outputs": [
        {
          "internalType": "bool",
          "name": "",
          "type": "bool"
        }
      ],
      "stateMutability": "view",
      "type": "function"
    },
    {
      "inputs": [
        {
          "internalType": "uint256",
          "name": "tokenId",
          "type": "uint256"
        },
        {
          "internalType": "address",
          "name": "operator",
          "type": "address"
        }
      ],
      "name": "isApprovedForRequestContract",
      "outputs": [
        {
          "internalType": "bool",
          "name": "",
          "type": "bool"
        }
      ],
      "stateMutability": "view",
      "type": "function"
    },
    {
      "inputs": [
        {
          "internalType": "address",
          "name": "_user",
          "type": "address"
        },
        {
          "internalType": "uint16",
          "name": "_index",
          "type": "uint16"
        }
      ],
      "name": "mintParkingSpot",
      "outputs": [
        {
          "internalType": "uint256",
          "name": "",
          "type": "uint256"
        }
      ],
      "stateMutability": "nonpayable",
      "type": "function"
    },
    {
      "inputs": [],
      "name": "name",
      "outputs": [
        {
          "internalType": "string",
          "name": "",
          "type": "string"
        }
      ],
      "stateMutability": "view",
      "type": "function"
    },
    {
      "inputs": [
        {
          "internalType": "uint256",
          "name": "tokenId",
          "type": "uint256"
        }
      ],
      "name": "ownerOf",
      "outputs": [
        {
          "internalType": "address",
          "name": "",
          "type": "address"
        }
      ],
      "stateMutability": "view",
      "type": "function"
    },
    {
      "inputs": [
        {
          "internalType": "uint256",
          "name": "",
          "type": "uint256"
        }
      ],
      "name": "paymentAddress",
      "outputs": [
        {
          "internalType": "address",
          "name": "",
          "type": "address"
        }
      ],
      "stateMutability": "view",
      "type": "function"
    },
    {
      "inputs": [
        {
          "internalType": "address",
          "name": "from",
          "type": "address"
        },
        {
          "internalType": "address",
          "name": "to",
          "type": "address"
        },
        {
          "internalType": "uint256",
          "name": "tokenId",
          "type": "uint256"
        }
      ],
      "name": "safeTransferFrom",
      "outputs": [],
      "stateMutability": "nonpayable",
      "type": "function"
    },
    {
      "inputs": [
        {
          "internalType": "address",
          "name": "from",
          "type": "address"
        },
        {
          "internalType": "address",
          "name": "to",
          "type": "address"
        },
        {
          "internalType": "uint256",
          "name": "tokenId",
          "type": "uint256"
        },
        {
          "internalType": "bytes",
          "name": "data",
          "type": "bytes"
        }
      ],
      "name": "safeTransferFrom",
      "outputs": [],
      "stateMutability": "nonpayable",
      "type": "function"
    },
    {
      "inputs": [
        {
          "internalType": "address",
          "name": "operator",
          "type": "address"
        },
        {
          "internalType": "bool",
          "name": "approved",
          "type": "bool"
        }
      ],
      "name": "setApprovalForAll",
      "outputs": [],
      "stateMutability": "nonpayable",
      "type": "function"
    },
    {
      "inputs": [
        {
          "internalType": "uint256",
          "name": "tokenId",
          "type": "uint256"
        },
        {
          "internalType": "address",
          "name": "operator",
          "type": "address"
        },
        {
          "internalType": "bool",
          "name": "approved",
          "type": "bool"
        }
      ],
      "name": "setApprovalForRequestContract",
      "outputs": [],
      "stateMutability": "nonpayable",
      "type": "function"
    },
    {
      "inputs": [
        {
          "internalType": "address",
          "name": "_paymentAddr",
          "type": "address"
        },
        {
          "internalType": "uint256",
          "name": "_tokenId",
          "type": "uint256"
        }
      ],
      "name": "setPaymentAddress",
      "outputs": [],
      "stateMutability": "nonpayable",
      "type": "function"
    },
    {
      "inputs": [
        {
          "internalType": "bytes32",
          "name": "",
          "type": "bytes32"
        }
      ],
      "name": "spotTokenised",
      "outputs": [
        {
          "internalType": "bool",
          "name": "",
          "type": "bool"
        }
      ],
      "stateMutability": "view",
      "type": "function"
    },
    {
      "inputs": [
        {
          "internalType": "bytes4",
          "name": "interfaceId",
          "type": "bytes4"
        }
      ],
      "name": "supportsInterface",
      "outputs": [
        {
          "internalType": "bool",
          "name": "",
          "type": "bool"
        }
      ],
      "stateMutability": "view",
      "type": "function"
    },
    {
      "inputs": [],
      "name": "symbol",
      "outputs": [
        {
          "internalType": "string",
          "name": "",
          "type": "string"
        }
      ],
      "stateMutability": "view",
      "type": "function"
    },
    {
      "inputs": [
        {
          "internalType": "uint256",
          "name": "tokenId",
          "type": "uint256"
        }
      ],
      "name": "tokenURI",
      "outputs": [
        {
          "internalType": "string",
          "name": "",
          "type": "string"
        }
      ],
      "stateMutability": "view",
      "type": "function"
    },
    {
      "inputs": [
        {
          "internalType": "address",
          "name": "from",
          "type": "address"
        },
        {
          "internalType": "address",
          "name": "to",
          "type": "address"
        },
        {
          "internalType": "uint256",
          "name": "tokenId",
          "type": "uint256"
        }
      ],
      "name": "transferFrom",
      "outputs": [],
      "stateMutability": "nonpayable",
      "type": "function"
    }
  ],
  "transactionHash": "0x8127586c8ce3f78bbf436c950e825784a54a4020539093a232fece0dce039609",
  "args": [],
  "numDeployments": 1,
  "solcInputHash": "e24f100b127b27305d41242d8d398a7d",
  "bytecode": "0x60806040523480156200001157600080fd5b506040518060400160405280601081526020017f5061726b696e6753706f74546f6b656e000000000000000000000000000000008152506040518060400160405280600381526020017f5053540000000000000000000000000000000000000000000000000000000000815250816000908051906020019062000096929190620000b8565b508060019080519060200190620000af929190620000b8565b505050620001cd565b828054620000c69062000197565b90600052602060002090601f016020900481019282620000ea576000855562000136565b82601f106200010557805160ff191683800117855562000136565b8280016001018555821562000136579182015b828111156200013557825182559160200191906001019062000118565b5b50905062000145919062000149565b5090565b5b80821115620001645760008160009055506001016200014a565b5090565b7f4e487b7100000000000000000000000000000000000000000000000000000000600052602260045260246000fd5b60006002820490506001821680620001b057607f821691505b60208210811415620001c757620001c662000168565b5b50919050565b6136fa80620001dd6000396000f3fe608060405234801561001057600080fd5b506004361061012c5760003560e01c806370a08231116100ad578063b88d4fde11610071578063b88d4fde14610365578063c55fd06b14610381578063c87b56dd146103b1578063cc6b64a4146103e1578063e985e9c5146104115761012c565b806370a082311461029b57806371053abf146102cb5780637ac485e7146102fb57806395d89b411461032b578063a22cb465146103495761012c565b806323b872dd116100f457806323b872dd146101e75780632d67219e1461020357806333a92ccd1461023357806342842e0e1461024f5780636352211e1461026b5761012c565b806301ffc9a71461013157806306fdde0314610161578063081812fc1461017f578063095ea7b3146101af5780631128f7f1146101cb575b600080fd5b61014b60048036038101906101469190612291565b610441565b60405161015891906122d9565b60405180910390f35b610169610523565b604051610176919061238d565b60405180910390f35b610199600480360381019061019491906123e5565b6105b5565b6040516101a69190612453565b60405180910390f35b6101c960048036038101906101c4919061249a565b6105fb565b005b6101e560048036038101906101e0919061249a565b610713565b005b61020160048036038101906101fc91906124da565b61080a565b005b61021d60048036038101906102189190612567565b61086a565b60405161022a91906125b6565b60405180910390f35b61024d600480360381019061024891906125fd565b6108c6565b005b610269600480360381019061026491906124da565b6108d7565b005b610285600480360381019061028091906123e5565b6108f7565b6040516102929190612453565b60405180910390f35b6102b560048036038101906102b09190612650565b6109a9565b6040516102c291906125b6565b60405180910390f35b6102e560048036038101906102e091906123e5565b610a61565b6040516102f29190612453565b60405180910390f35b6103156004803603810190610310919061267d565b610a94565b60405161032291906122d9565b60405180910390f35b610333610afc565b604051610340919061238d565b60405180910390f35b610363600480360381019061035e91906126bd565b610b8e565b005b61037f600480360381019061037a9190612832565b610ba4565b005b61039b600480360381019061039691906123e5565b610c06565b6040516103a89190612453565b60405180910390f35b6103cb60048036038101906103c691906123e5565b610c39565b6040516103d8919061238d565b60405180910390f35b6103fb60048036038101906103f691906128eb565b610d4c565b60405161040891906122d9565b60405180910390f35b61042b60048036038101906104269190612918565b610d6c565b60405161043891906122d9565b60405180910390f35b60007f80ac58cd000000000000000000000000000000000000000000000000000000007bffffffffffffffffffffffffffffffffffffffffffffffffffffffff1916827bffffffffffffffffffffffffffffffffffffffffffffffffffffffff1916148061050c57507f5b5e139f000000000000000000000000000000000000000000000000000000007bffffffffffffffffffffffffffffffffffffffffffffffffffffffff1916827bffffffffffffffffffffffffffffffffffffffffffffffffffffffff1916145b8061051c575061051b82610e00565b5b9050919050565b60606000805461053290612987565b80601f016020809104026020016040519081016040528092919081815260200182805461055e90612987565b80156105ab5780601f10610580576101008083540402835291602001916105ab565b820191906000526020600020905b81548152906001019060200180831161058e57829003601f168201915b5050505050905090565b60006105c082610e6a565b6004600083815260200190815260200160002060009054906101000a900473ffffffffffffffffffffffffffffffffffffffff169050919050565b6000610606826108f7565b90508073ffffffffffffffffffffffffffffffffffffffff168373ffffffffffffffffffffffffffffffffffffffff161415610677576040517f08c379a000000000000000000000000000000000000000000000000000000000815260040161066e90612a2b565b60405180910390fd5b8073ffffffffffffffffffffffffffffffffffffffff16610696610eb5565b73ffffffffffffffffffffffffffffffffffffffff1614806106c557506106c4816106bf610eb5565b610d6c565b5b610704576040517f08c379a00000000000000000000000000000000000000000000000000000000081526004016106fb90612abd565b60405180910390fd5b61070e8383610ebd565b505050565b3373ffffffffffffffffffffffffffffffffffffffff166007600083815260200190815260200160002060009054906101000a900473ffffffffffffffffffffffffffffffffffffffff1673ffffffffffffffffffffffffffffffffffffffff16146107b4576040517f08c379a00000000000000000000000000000000000000000000000000000000081526004016107ab90612b4f565b60405180910390fd5b81600a600083815260200190815260200160002060006101000a81548173ffffffffffffffffffffffffffffffffffffffff021916908373ffffffffffffffffffffffffffffffffffffffff1602179055505050565b61081b610815610eb5565b82610f76565b61085a576040517f08c379a000000000000000000000000000000000000000000000000000000000815260040161085190612be1565b60405180910390fd5b61086583838361101c565b505050565b6000806108778484611312565b90506108838482611358565b7f609e63090c40dce82eb4d4604b3362792a7e33ac20fc1b23e765940e6a0fd4e784826040516108b4929190612c01565b60405180910390a18091505092915050565b6108d2338484846113ae565b505050565b6108f283838360405180602001604052806000815250610ba4565b505050565b6000806002600084815260200190815260200160002060009054906101000a900473ffffffffffffffffffffffffffffffffffffffff169050600073ffffffffffffffffffffffffffffffffffffffff168173ffffffffffffffffffffffffffffffffffffffff1614156109a0576040517f08c379a000000000000000000000000000000000000000000000000000000000815260040161099790612c76565b60405180910390fd5b80915050919050565b60008073ffffffffffffffffffffffffffffffffffffffff168273ffffffffffffffffffffffffffffffffffffffff161415610a1a576040517f08c379a0000000000000000000000000000000000000000000000000000000008152600401610a1190612d08565b60405180910390fd5b600360008373ffffffffffffffffffffffffffffffffffffffff1673ffffffffffffffffffffffffffffffffffffffff168152602001908152602001600020549050919050565b600a6020528060005260406000206000915054906101000a900473ffffffffffffffffffffffffffffffffffffffff1681565b60006006600084815260200190815260200160002060008373ffffffffffffffffffffffffffffffffffffffff1673ffffffffffffffffffffffffffffffffffffffff16815260200190815260200160002060009054906101000a900460ff16905092915050565b606060018054610b0b90612987565b80601f0160208091040260200160405190810160405280929190818152602001828054610b3790612987565b8015610b845780601f10610b5957610100808354040283529160200191610b84565b820191906000526020600020905b815481529060010190602001808311610b6757829003601f168201915b5050505050905090565b610ba0610b99610eb5565b8383611465565b5050565b610bb5610baf610eb5565b83610f76565b610bf4576040517f08c379a0000000000000000000000000000000000000000000000000000000008152600401610beb90612be1565b60405180910390fd5b610c00848484846115d2565b50505050565b60076020528060005260406000206000915054906101000a900473ffffffffffffffffffffffffffffffffffffffff1681565b6060610c4482610e6a565b6000600860008481526020019081526020016000208054610c6490612987565b80601f0160208091040260200160405190810160405280929190818152602001828054610c9090612987565b8015610cdd5780601f10610cb257610100808354040283529160200191610cdd565b820191906000526020600020905b815481529060010190602001808311610cc057829003601f168201915b505050505090506000610cee61162e565b9050600081511415610d04578192505050610d47565b600082511115610d39578082604051602001610d21929190612d64565b60405160208183030381529060405292505050610d47565b610d4284611645565b925050505b919050565b60096020528060005260406000206000915054906101000a900460ff1681565b6000600560008473ffffffffffffffffffffffffffffffffffffffff1673ffffffffffffffffffffffffffffffffffffffff16815260200190815260200160002060008373ffffffffffffffffffffffffffffffffffffffff1673ffffffffffffffffffffffffffffffffffffffff16815260200190815260200160002060009054906101000a900460ff16905092915050565b60007f01ffc9a7000000000000000000000000000000000000000000000000000000007bffffffffffffffffffffffffffffffffffffffffffffffffffffffff1916827bffffffffffffffffffffffffffffffffffffffffffffffffffffffff1916149050919050565b610e73816116ad565b610eb2576040517f08c379a0000000000000000000000000000000000000000000000000000000008152600401610ea990612c76565b60405180910390fd5b50565b600033905090565b816004600083815260200190815260200160002060006101000a81548173ffffffffffffffffffffffffffffffffffffffff021916908373ffffffffffffffffffffffffffffffffffffffff160217905550808273ffffffffffffffffffffffffffffffffffffffff16610f30836108f7565b73ffffffffffffffffffffffffffffffffffffffff167f8c5be1e5ebec7d5bd14f71427d1e84f3dd0314c0f7b2291e5b200ac8c7c3b92560405160405180910390a45050565b600080610f82836108f7565b90508073ffffffffffffffffffffffffffffffffffffffff168473ffffffffffffffffffffffffffffffffffffffff161480610fc45750610fc38185610d6c565b5b8061100257508373ffffffffffffffffffffffffffffffffffffffff16610fea846105b5565b73ffffffffffffffffffffffffffffffffffffffff16145b8061101357506110128385610a94565b5b91505092915050565b8273ffffffffffffffffffffffffffffffffffffffff1661103c826108f7565b73ffffffffffffffffffffffffffffffffffffffff1614611092576040517f08c379a000000000000000000000000000000000000000000000000000000000815260040161108990612dfa565b60405180910390fd5b600073ffffffffffffffffffffffffffffffffffffffff168273ffffffffffffffffffffffffffffffffffffffff161415611102576040517f08c379a00000000000000000000000000000000000000000000000000000000081526004016110f990612e8c565b60405180910390fd5b61110d838383611719565b8273ffffffffffffffffffffffffffffffffffffffff1661112d826108f7565b73ffffffffffffffffffffffffffffffffffffffff1614611183576040517f08c379a000000000000000000000000000000000000000000000000000000000815260040161117a90612dfa565b60405180910390fd5b6004600082815260200190815260200160002060006101000a81549073ffffffffffffffffffffffffffffffffffffffff02191690556001600360008573ffffffffffffffffffffffffffffffffffffffff1673ffffffffffffffffffffffffffffffffffffffff168152602001908152602001600020600082825403925050819055506001600360008473ffffffffffffffffffffffffffffffffffffffff1673ffffffffffffffffffffffffffffffffffffffff16815260200190815260200160002060008282540192505081905550816002600083815260200190815260200160002060006101000a81548173ffffffffffffffffffffffffffffffffffffffff021916908373ffffffffffffffffffffffffffffffffffffffff160217905550808273ffffffffffffffffffffffffffffffffffffffff168473ffffffffffffffffffffffffffffffffffffffff167fddf252ad1be2c89b69c2b068fc378daa952ba7f163c4a11628f55a4df523b3ef60405160405180910390a461130d83838361171e565b505050565b600061131e600b611723565b600061132983611739565b90506000611337600b61175f565b9050611343858261176d565b61134d81836119d9565b809250505092915050565b81600a600083815260200190815260200160002060006101000a81548173ffffffffffffffffffffffffffffffffffffffff021916908373ffffffffffffffffffffffffffffffffffffffff1602179055505050565b6113b88385611a4d565b6113f7576040517f08c379a00000000000000000000000000000000000000000000000000000000081526004016113ee90612f6a565b60405180910390fd5b806006600085815260200190815260200160002060008473ffffffffffffffffffffffffffffffffffffffff1673ffffffffffffffffffffffffffffffffffffffff16815260200190815260200160002060006101000a81548160ff02191690831515021790555050505050565b8173ffffffffffffffffffffffffffffffffffffffff168373ffffffffffffffffffffffffffffffffffffffff1614156114d4576040517f08c379a00000000000000000000000000000000000000000000000000000000081526004016114cb90612fd6565b60405180910390fd5b80600560008573ffffffffffffffffffffffffffffffffffffffff1673ffffffffffffffffffffffffffffffffffffffff16815260200190815260200160002060008473ffffffffffffffffffffffffffffffffffffffff1673ffffffffffffffffffffffffffffffffffffffff16815260200190815260200160002060006101000a81548160ff0219169083151502179055508173ffffffffffffffffffffffffffffffffffffffff168373ffffffffffffffffffffffffffffffffffffffff167f17307eab39ab6107e8899845ad3d59bd9653f200f220920489ca2b5937696c31836040516115c591906122d9565b60405180910390a3505050565b6115dd84848461101c565b6115e984848484611ab9565b611628576040517f08c379a000000000000000000000000000000000000000000000000000000000815260040161161f90613068565b60405180910390fd5b50505050565b606060405180602001604052806000815250905090565b606061165082610e6a565b600061165a61162e565b9050600081511161167a57604051806020016040528060008152506116a5565b8061168484611c41565b604051602001611695929190612d64565b6040516020818303038152906040525b915050919050565b60008073ffffffffffffffffffffffffffffffffffffffff166002600084815260200190815260200160002060009054906101000a900473ffffffffffffffffffffffffffffffffffffffff1673ffffffffffffffffffffffffffffffffffffffff1614159050919050565b505050565b505050565b6001816000016000828254019250508190555050565b6060600061174683611da2565b9050600061175382611e3b565b90508092505050919050565b600081600001549050919050565b600073ffffffffffffffffffffffffffffffffffffffff168273ffffffffffffffffffffffffffffffffffffffff1614156117dd576040517f08c379a00000000000000000000000000000000000000000000000000000000081526004016117d4906130d4565b60405180910390fd5b6117e6816116ad565b15611826576040517f08c379a000000000000000000000000000000000000000000000000000000000815260040161181d90613140565b60405180910390fd5b61183260008383611719565b61183b816116ad565b1561187b576040517f08c379a000000000000000000000000000000000000000000000000000000000815260040161187290613140565b60405180910390fd5b6001600360008473ffffffffffffffffffffffffffffffffffffffff1673ffffffffffffffffffffffffffffffffffffffff16815260200190815260200160002060008282540192505081905550816002600083815260200190815260200160002060006101000a81548173ffffffffffffffffffffffffffffffffffffffff021916908373ffffffffffffffffffffffffffffffffffffffff160217905550816007600083815260200190815260200160002060006101000a81548173ffffffffffffffffffffffffffffffffffffffff021916908373ffffffffffffffffffffffffffffffffffffffff160217905550808273ffffffffffffffffffffffffffffffffffffffff16600073ffffffffffffffffffffffffffffffffffffffff167fddf252ad1be2c89b69c2b068fc378daa952ba7f163c4a11628f55a4df523b3ef60405160405180910390a46119d56000838361171e565b5050565b6119e2826116ad565b611a21576040517f08c379a0000000000000000000000000000000000000000000000000000000008152600401611a18906131d2565b60405180910390fd5b80600860008481526020019081526020016000209080519060200190611a48929190612182565b505050565b60008173ffffffffffffffffffffffffffffffffffffffff166007600085815260200190815260200160002060009054906101000a900473ffffffffffffffffffffffffffffffffffffffff1673ffffffffffffffffffffffffffffffffffffffff1614905092915050565b6000611ada8473ffffffffffffffffffffffffffffffffffffffff16611ef9565b15611c34578373ffffffffffffffffffffffffffffffffffffffff1663150b7a02611b03610eb5565b8786866040518563ffffffff1660e01b8152600401611b259493929190613247565b6020604051808303816000875af1925050508015611b6157506040513d601f19601f82011682018060405250810190611b5e91906132a8565b60015b611be4573d8060008114611b91576040519150601f19603f3d011682016040523d82523d6000602084013e611b96565b606091505b50600081511415611bdc576040517f08c379a0000000000000000000000000000000000000000000000000000000008152600401611bd390613068565b60405180910390fd5b805181602001fd5b63150b7a0260e01b7bffffffffffffffffffffffffffffffffffffffffffffffffffffffff1916817bffffffffffffffffffffffffffffffffffffffffffffffffffffffff191614915050611c39565b600190505b949350505050565b60606000821415611c89576040518060400160405280600181526020017f30000000000000000000000000000000000000000000000000000000000000008152509050611d9d565b600082905060005b60008214611cbb578080611ca490613304565b915050600a82611cb4919061337c565b9150611c91565b60008167ffffffffffffffff811115611cd757611cd6612707565b5b6040519080825280601f01601f191660200182016040528015611d095781602001600182028036833780820191505090505b5090505b60008514611d9657600182611d2291906133ad565b9150600a85611d3191906133e1565b6030611d3d9190613412565b60f81b818381518110611d5357611d52613468565b5b60200101907effffffffffffffffffffffffffffffffffffffffffffffffffffffffffffff1916908160001a905350600a85611d8f919061337c565b9450611d0d565b8093505050505b919050565b600073cf7ed3acca5a467e9e704c703e8d87f634fb0fc973ffffffffffffffffffffffffffffffffffffffff16630902d94933846040518363ffffffff1660e01b8152600401611df39291906134a6565b602060405180830381865afa158015611e10573d6000803e3d6000fd5b505050506040513d601f19601f82011682018060405250810190611e3491906134e4565b9050919050565b6060611e4682611f1c565b15611e86576040517f08c379a0000000000000000000000000000000000000000000000000000000008152600401611e7d90613583565b60405180910390fd5b60006040518060600160405280603181526020016136946031913990506000611ec63373ffffffffffffffffffffffffffffffffffffffff166020611f46565b905060008282604051602001611edd929190612d64565b6040516020818303038152906040529050809350505050919050565b6000808273ffffffffffffffffffffffffffffffffffffffff163b119050919050565b60006009600083815260200190815260200160002060009054906101000a900460ff169050919050565b606060006002836002611f5991906135a3565b611f639190613412565b67ffffffffffffffff811115611f7c57611f7b612707565b5b6040519080825280601f01601f191660200182016040528015611fae5781602001600182028036833780820191505090505b5090507f300000000000000000000000000000000000000000000000000000000000000081600081518110611fe657611fe5613468565b5b60200101907effffffffffffffffffffffffffffffffffffffffffffffffffffffffffffff1916908160001a9053507f78000000000000000000000000000000000000000000000000000000000000008160018151811061204a57612049613468565b5b60200101907effffffffffffffffffffffffffffffffffffffffffffffffffffffffffffff1916908160001a9053506000600184600261208a91906135a3565b6120949190613412565b90505b6001811115612134577f3031323334353637383961626364656600000000000000000000000000000000600f8616601081106120d6576120d5613468565b5b1a60f81b8282815181106120ed576120ec613468565b5b60200101907effffffffffffffffffffffffffffffffffffffffffffffffffffffffffffff1916908160001a905350600485901c94508061212d906135fd565b9050612097565b5060008414612178576040517f08c379a000000000000000000000000000000000000000000000000000000000815260040161216f90613673565b60405180910390fd5b8091505092915050565b82805461218e90612987565b90600052602060002090601f0160209004810192826121b057600085556121f7565b82601f106121c957805160ff19168380011785556121f7565b828001600101855582156121f7579182015b828111156121f65782518255916020019190600101906121db565b5b5090506122049190612208565b5090565b5b80821115612221576000816000905550600101612209565b5090565b6000604051905090565b600080fd5b600080fd5b60007fffffffff0000000000000000000000000000000000000000000000000000000082169050919050565b61226e81612239565b811461227957600080fd5b50565b60008135905061228b81612265565b92915050565b6000602082840312156122a7576122a661222f565b5b60006122b58482850161227c565b91505092915050565b60008115159050919050565b6122d3816122be565b82525050565b60006020820190506122ee60008301846122ca565b92915050565b600081519050919050565b600082825260208201905092915050565b60005b8381101561232e578082015181840152602081019050612313565b8381111561233d576000848401525b50505050565b6000601f19601f8301169050919050565b600061235f826122f4565b61236981856122ff565b9350612379818560208601612310565b61238281612343565b840191505092915050565b600060208201905081810360008301526123a78184612354565b905092915050565b6000819050919050565b6123c2816123af565b81146123cd57600080fd5b50565b6000813590506123df816123b9565b92915050565b6000602082840312156123fb576123fa61222f565b5b6000612409848285016123d0565b91505092915050565b600073ffffffffffffffffffffffffffffffffffffffff82169050919050565b600061243d82612412565b9050919050565b61244d81612432565b82525050565b60006020820190506124686000830184612444565b92915050565b61247781612432565b811461248257600080fd5b50565b6000813590506124948161246e565b92915050565b600080604083850312156124b1576124b061222f565b5b60006124bf85828601612485565b92505060206124d0858286016123d0565b9150509250929050565b6000806000606084860312156124f3576124f261222f565b5b600061250186828701612485565b935050602061251286828701612485565b9250506040612523868287016123d0565b9150509250925092565b600061ffff82169050919050565b6125448161252d565b811461254f57600080fd5b50565b6000813590506125618161253b565b92915050565b6000806040838503121561257e5761257d61222f565b5b600061258c85828601612485565b925050602061259d85828601612552565b9150509250929050565b6125b0816123af565b82525050565b60006020820190506125cb60008301846125a7565b92915050565b6125da816122be565b81146125e557600080fd5b50565b6000813590506125f7816125d1565b92915050565b6000806000606084860312156126165761261561222f565b5b6000612624868287016123d0565b935050602061263586828701612485565b9250506040612646868287016125e8565b9150509250925092565b6000602082840312156126665761266561222f565b5b600061267484828501612485565b91505092915050565b600080604083850312156126945761269361222f565b5b60006126a2858286016123d0565b92505060206126b385828601612485565b9150509250929050565b600080604083850312156126d4576126d361222f565b5b60006126e285828601612485565b92505060206126f3858286016125e8565b9150509250929050565b600080fd5b600080fd5b7f4e487b7100000000000000000000000000000000000000000000000000000000600052604160045260246000fd5b61273f82612343565b810181811067ffffffffffffffff8211171561275e5761275d612707565b5b80604052505050565b6000612771612225565b905061277d8282612736565b919050565b600067ffffffffffffffff82111561279d5761279c612707565b5b6127a682612343565b9050602081019050919050565b82818337600083830152505050565b60006127d56127d084612782565b612767565b9050828152602081018484840111156127f1576127f0612702565b5b6127fc8482856127b3565b509392505050565b600082601f830112612819576128186126fd565b5b81356128298482602086016127c2565b91505092915050565b6000806000806080858703121561284c5761284b61222f565b5b600061285a87828801612485565b945050602061286b87828801612485565b935050604061287c878288016123d0565b925050606085013567ffffffffffffffff81111561289d5761289c612234565b5b6128a987828801612804565b91505092959194509250565b6000819050919050565b6128c8816128b5565b81146128d357600080fd5b50565b6000813590506128e5816128bf565b92915050565b6000602082840312156129015761290061222f565b5b600061290f848285016128d6565b91505092915050565b6000806040838503121561292f5761292e61222f565b5b600061293d85828601612485565b925050602061294e85828601612485565b9150509250929050565b7f4e487b7100000000000000000000000000000000000000000000000000000000600052602260045260246000fd5b6000600282049050600182168061299f57607f821691505b602082108114156129b3576129b2612958565b5b50919050565b7f4552433732313a20617070726f76616c20746f2063757272656e74206f776e6560008201527f7200000000000000000000000000000000000000000000000000000000000000602082015250565b6000612a156021836122ff565b9150612a20826129b9565b604082019050919050565b60006020820190508181036000830152612a4481612a08565b9050919050565b7f4552433732313a20617070726f76652063616c6c6572206973206e6f7420746f60008201527f6b656e206f776e6572206f7220617070726f76656420666f7220616c6c000000602082015250565b6000612aa7603d836122ff565b9150612ab282612a4b565b604082019050919050565b60006020820190508181036000830152612ad681612a9a565b9050919050565b7f4f6e6c79207468652074727565207061726b696e672073706f74206f776e657260008201527f2063616e206368616e676520746865207061796d656e74206164647265737321602082015250565b6000612b396040836122ff565b9150612b4482612add565b604082019050919050565b60006020820190508181036000830152612b6881612b2c565b9050919050565b7f4552433732313a2063616c6c6572206973206e6f7420746f6b656e206f776e6560008201527f72206f7220617070726f76656400000000000000000000000000000000000000602082015250565b6000612bcb602d836122ff565b9150612bd682612b6f565b604082019050919050565b60006020820190508181036000830152612bfa81612bbe565b9050919050565b6000604082019050612c166000830185612444565b612c2360208301846125a7565b9392505050565b7f4552433732313a20696e76616c696420746f6b656e2049440000000000000000600082015250565b6000612c606018836122ff565b9150612c6b82612c2a565b602082019050919050565b60006020820190508181036000830152612c8f81612c53565b9050919050565b7f4552433732313a2061646472657373207a65726f206973206e6f74206120766160008201527f6c6964206f776e65720000000000000000000000000000000000000000000000602082015250565b6000612cf26029836122ff565b9150612cfd82612c96565b604082019050919050565b60006020820190508181036000830152612d2181612ce5565b9050919050565b600081905092915050565b6000612d3e826122f4565b612d488185612d28565b9350612d58818560208601612310565b80840191505092915050565b6000612d708285612d33565b9150612d7c8284612d33565b91508190509392505050565b7f4552433732313a207472616e736665722066726f6d20696e636f72726563742060008201527f6f776e6572000000000000000000000000000000000000000000000000000000602082015250565b6000612de46025836122ff565b9150612def82612d88565b604082019050919050565b60006020820190508181036000830152612e1381612dd7565b9050919050565b7f4552433732313a207472616e7366657220746f20746865207a65726f2061646460008201527f7265737300000000000000000000000000000000000000000000000000000000602082015250565b6000612e766024836122ff565b9150612e8182612e1a565b604082019050919050565b60006020820190508181036000830152612ea581612e69565b9050919050565b7f4f6e6c79207468652074727565206f776e6572206f6620746865207061726b6960008201527f6e6720746f6b656e2063616e206368616e676520617070726f76616c2073746160208201527f74757320666f7220746865207061726b696e6720526571756573747320636f6e60408201527f74726163742e2000000000000000000000000000000000000000000000000000606082015250565b6000612f546067836122ff565b9150612f5f82612eac565b608082019050919050565b60006020820190508181036000830152612f8381612f47565b9050919050565b7f4552433732313a20617070726f766520746f2063616c6c657200000000000000600082015250565b6000612fc06019836122ff565b9150612fcb82612f8a565b602082019050919050565b60006020820190508181036000830152612fef81612fb3565b9050919050565b7f4552433732313a207472616e7366657220746f206e6f6e20455243373231526560008201527f63656976657220696d706c656d656e7465720000000000000000000000000000602082015250565b60006130526032836122ff565b915061305d82612ff6565b604082019050919050565b6000602082019050818103600083015261308181613045565b9050919050565b7f4552433732313a206d696e7420746f20746865207a65726f2061646472657373600082015250565b60006130be6020836122ff565b91506130c982613088565b602082019050919050565b600060208201905081810360008301526130ed816130b1565b9050919050565b7f4552433732313a20746f6b656e20616c7265616479206d696e74656400000000600082015250565b600061312a601c836122ff565b9150613135826130f4565b602082019050919050565b600060208201905081810360008301526131598161311d565b9050919050565b7f45524337323155524953746f726167653a2055524920736574206f66206e6f6e60008201527f6578697374656e7420746f6b656e000000000000000000000000000000000000602082015250565b60006131bc602e836122ff565b91506131c782613160565b604082019050919050565b600060208201905081810360008301526131eb816131af565b9050919050565b600081519050919050565b600082825260208201905092915050565b6000613219826131f2565b61322381856131fd565b9350613233818560208601612310565b61323c81612343565b840191505092915050565b600060808201905061325c6000830187612444565b6132696020830186612444565b61327660408301856125a7565b8181036060830152613288818461320e565b905095945050505050565b6000815190506132a281612265565b92915050565b6000602082840312156132be576132bd61222f565b5b60006132cc84828501613293565b91505092915050565b7f4e487b7100000000000000000000000000000000000000000000000000000000600052601160045260246000fd5b600061330f826123af565b91507fffffffffffffffffffffffffffffffffffffffffffffffffffffffffffffffff821415613342576133416132d5565b5b600182019050919050565b7f4e487b7100000000000000000000000000000000000000000000000000000000600052601260045260246000fd5b6000613387826123af565b9150613392836123af565b9250826133a2576133a161334d565b5b828204905092915050565b60006133b8826123af565b91506133c3836123af565b9250828210156133d6576133d56132d5565b5b828203905092915050565b60006133ec826123af565b91506133f7836123af565b9250826134075761340661334d565b5b828206905092915050565b600061341d826123af565b9150613428836123af565b9250827fffffffffffffffffffffffffffffffffffffffffffffffffffffffffffffffff0382111561345d5761345c6132d5565b5b828201905092915050565b7f4e487b7100000000000000000000000000000000000000000000000000000000600052603260045260246000fd5b6134a08161252d565b82525050565b60006040820190506134bb6000830185612444565b6134c86020830184613497565b9392505050565b6000815190506134de816128bf565b92915050565b6000602082840312156134fa576134f961222f565b5b6000613508848285016134cf565b91505092915050565b7f5061726b696e672073706f7420636f2d6f7264696e617465732061726520616c60008201527f7265616479206d696e746564206173206120746f6b656e000000000000000000602082015250565b600061356d6037836122ff565b915061357882613511565b604082019050919050565b6000602082019050818103600083015261359c81613560565b9050919050565b60006135ae826123af565b91506135b9836123af565b9250817fffffffffffffffffffffffffffffffffffffffffffffffffffffffffffffffff04831182151516156135f2576135f16132d5565b5b828202905092915050565b6000613608826123af565b9150600082141561361c5761361b6132d5565b5b600182039050919050565b7f537472696e67733a20686578206c656e67746820696e73756666696369656e74600082015250565b600061365d6020836122ff565b915061366882613627565b602082019050919050565b6000602082019050818103600083015261368c81613650565b905091905056fe646174613a746578742f706c61696e3b636861727365743d5554462d382c7061726b696e6753706f744c61744c6f6e673aa26469706673582212209c0e7c91576140422f97b62a2f735b68599757b58c7171be0c41c128110321f564736f6c634300080c0033",
  "devdoc": {
    "kind": "dev",
    "methods": {
      "approve(address,uint256)": {
        "details": "See {IERC721-approve}."
      },
      "balanceOf(address)": {
        "details": "See {IERC721-balanceOf}."
      },
      "getApproved(uint256)": {
        "details": "See {IERC721-getApproved}."
      },
      "isApprovedForAll(address,address)": {
        "details": "See {IERC721-isApprovedForAll}."
      },
      "name()": {
        "details": "See {IERC721Metadata-name}."
      },
      "ownerOf(uint256)": {
        "details": "See {IERC721-ownerOf}."
      },
      "safeTransferFrom(address,address,uint256)": {
        "details": "See {IERC721-safeTransferFrom}."
      },
      "safeTransferFrom(address,address,uint256,bytes)": {
        "details": "See {IERC721-safeTransferFrom}."
      },
      "setApprovalForAll(address,bool)": {
        "details": "See {IERC721-setApprovalForAll}."
      },
      "supportsInterface(bytes4)": {
        "details": "See {IERC165-supportsInterface}."
      },
      "symbol()": {
        "details": "See {IERC721Metadata-symbol}."
      },
      "tokenURI(uint256)": {
        "details": "See {IERC721Metadata-tokenURI}."
      },
      "transferFrom(address,address,uint256)": {
        "details": "See {IERC721-transferFrom}."
      }
    },
    "version": 1
  },
  "userdoc": {
    "kind": "user",
    "methods": {},
    "version": 1
  },
  "storageLayout": {
    "storage": [
      {
        "astId": 7254,
        "contract": "contracts/ParkingSpotToken.sol:ParkingSpotToken",
        "label": "_name",
        "offset": 0,
        "slot": "0",
        "type": "t_string_storage"
      },
      {
        "astId": 7256,
        "contract": "contracts/ParkingSpotToken.sol:ParkingSpotToken",
        "label": "_symbol",
        "offset": 0,
        "slot": "1",
        "type": "t_string_storage"
      },
      {
        "astId": 7260,
        "contract": "contracts/ParkingSpotToken.sol:ParkingSpotToken",
        "label": "_owners",
        "offset": 0,
        "slot": "2",
        "type": "t_mapping(t_uint256,t_address)"
      },
      {
        "astId": 7264,
        "contract": "contracts/ParkingSpotToken.sol:ParkingSpotToken",
        "label": "_balances",
        "offset": 0,
        "slot": "3",
        "type": "t_mapping(t_address,t_uint256)"
      },
      {
        "astId": 7268,
        "contract": "contracts/ParkingSpotToken.sol:ParkingSpotToken",
        "label": "_tokenApprovals",
        "offset": 0,
        "slot": "4",
        "type": "t_mapping(t_uint256,t_address)"
      },
      {
        "astId": 7274,
        "contract": "contracts/ParkingSpotToken.sol:ParkingSpotToken",
        "label": "_operatorApprovals",
        "offset": 0,
        "slot": "5",
        "type": "t_mapping(t_address,t_mapping(t_address,t_bool))"
      },
      {
        "astId": 7280,
        "contract": "contracts/ParkingSpotToken.sol:ParkingSpotToken",
        "label": "_approvedForRequestContract",
        "offset": 0,
        "slot": "6",
        "type": "t_mapping(t_uint256,t_mapping(t_address,t_bool))"
      },
      {
        "astId": 7284,
        "contract": "contracts/ParkingSpotToken.sol:ParkingSpotToken",
        "label": "_parkingSpotOwners",
        "offset": 0,
        "slot": "7",
        "type": "t_mapping(t_uint256,t_address)"
      },
      {
        "astId": 8224,
        "contract": "contracts/ParkingSpotToken.sol:ParkingSpotToken",
        "label": "_tokenURIs",
        "offset": 0,
        "slot": "8",
        "type": "t_mapping(t_uint256,t_string_storage)"
      },
      {
        "astId": 9020,
        "contract": "contracts/ParkingSpotToken.sol:ParkingSpotToken",
        "label": "spotTokenised",
        "offset": 0,
        "slot": "9",
        "type": "t_mapping(t_bytes32,t_bool)"
      },
      {
        "astId": 9024,
        "contract": "contracts/ParkingSpotToken.sol:ParkingSpotToken",
        "label": "paymentAddress",
        "offset": 0,
        "slot": "10",
        "type": "t_mapping(t_uint256,t_address)"
      },
      {
        "astId": 9031,
        "contract": "contracts/ParkingSpotToken.sol:ParkingSpotToken",
        "label": "_tokenIds",
        "offset": 0,
        "slot": "11",
        "type": "t_struct(Counter)4621_storage"
      }
    ],
    "types": {
      "t_address": {
        "encoding": "inplace",
        "label": "address",
        "numberOfBytes": "20"
      },
      "t_bool": {
        "encoding": "inplace",
        "label": "bool",
        "numberOfBytes": "1"
      },
      "t_bytes32": {
        "encoding": "inplace",
        "label": "bytes32",
        "numberOfBytes": "32"
      },
      "t_mapping(t_address,t_bool)": {
        "encoding": "mapping",
        "key": "t_address",
        "label": "mapping(address => bool)",
        "numberOfBytes": "32",
        "value": "t_bool"
      },
      "t_mapping(t_address,t_mapping(t_address,t_bool))": {
        "encoding": "mapping",
        "key": "t_address",
        "label": "mapping(address => mapping(address => bool))",
        "numberOfBytes": "32",
        "value": "t_mapping(t_address,t_bool)"
      },
      "t_mapping(t_address,t_uint256)": {
        "encoding": "mapping",
        "key": "t_address",
        "label": "mapping(address => uint256)",
        "numberOfBytes": "32",
        "value": "t_uint256"
      },
      "t_mapping(t_bytes32,t_bool)": {
        "encoding": "mapping",
        "key": "t_bytes32",
        "label": "mapping(bytes32 => bool)",
        "numberOfBytes": "32",
        "value": "t_bool"
      },
      "t_mapping(t_uint256,t_address)": {
        "encoding": "mapping",
        "key": "t_uint256",
        "label": "mapping(uint256 => address)",
        "numberOfBytes": "32",
        "value": "t_address"
      },
      "t_mapping(t_uint256,t_mapping(t_address,t_bool))": {
        "encoding": "mapping",
        "key": "t_uint256",
        "label": "mapping(uint256 => mapping(address => bool))",
        "numberOfBytes": "32",
        "value": "t_mapping(t_address,t_bool)"
      },
      "t_mapping(t_uint256,t_string_storage)": {
        "encoding": "mapping",
        "key": "t_uint256",
        "label": "mapping(uint256 => string)",
        "numberOfBytes": "32",
        "value": "t_string_storage"
      },
      "t_string_storage": {
        "encoding": "bytes",
        "label": "string",
        "numberOfBytes": "32"
      },
      "t_struct(Counter)4621_storage": {
        "encoding": "inplace",
        "label": "struct Counters.Counter",
        "members": [
          {
            "astId": 4620,
            "contract": "contracts/ParkingSpotToken.sol:ParkingSpotToken",
            "label": "_value",
            "offset": 0,
            "slot": "0",
            "type": "t_uint256"
          }
        ],
        "numberOfBytes": "32"
      },
      "t_uint256": {
        "encoding": "inplace",
        "label": "uint256",
        "numberOfBytes": "32"
      }
    }
  }
}