{
  "address": "0xDc64a140Aa3E981100a9becA4E685f962f0cF6C9",
  "abi": [
    {
      "inputs": [],
      "stateMutability": "nonpayable",
      "type": "constructor"
    },
    {
      "anonymous": false,
      "inputs": [
        {
          "indexed": true,
          "internalType": "address",
          "name": "owner",
          "type": "address"
        },
        {
          "indexed": true,
          "internalType": "address",
          "name": "approved",
          "type": "address"
        },
        {
          "indexed": true,
          "internalType": "uint256",
          "name": "tokenId",
          "type": "uint256"
        }
      ],
      "name": "Approval",
      "type": "event"
    },
    {
      "anonymous": false,
      "inputs": [
        {
          "indexed": true,
          "internalType": "address",
          "name": "owner",
          "type": "address"
        },
        {
          "indexed": true,
          "internalType": "address",
          "name": "operator",
          "type": "address"
        },
        {
          "indexed": false,
          "internalType": "bool",
          "name": "approved",
          "type": "bool"
        }
      ],
      "name": "ApprovalForAll",
      "type": "event"
    },
    {
      "anonymous": false,
      "inputs": [
        {
          "indexed": false,
          "internalType": "address",
          "name": "owner",
          "type": "address"
        },
        {
          "indexed": false,
          "internalType": "uint256",
          "name": "tokenId",
          "type": "uint256"
        }
      ],
      "name": "ParkingSpotMinted",
      "type": "event"
    },
    {
      "anonymous": false,
      "inputs": [
        {
          "indexed": true,
          "internalType": "address",
          "name": "from",
          "type": "address"
        },
        {
          "indexed": true,
          "internalType": "address",
          "name": "to",
          "type": "address"
        },
        {
          "indexed": true,
          "internalType": "uint256",
          "name": "tokenId",
          "type": "uint256"
        }
      ],
      "name": "Transfer",
      "type": "event"
    },
    {
      "inputs": [
        {
          "internalType": "uint256",
          "name": "",
          "type": "uint256"
        }
      ],
      "name": "_parkingSpotOwners",
      "outputs": [
        {
          "internalType": "address",
          "name": "",
          "type": "address"
        }
      ],
      "stateMutability": "view",
      "type": "function"
    },
    {
      "inputs": [
        {
          "internalType": "address",
          "name": "to",
          "type": "address"
        },
        {
          "internalType": "uint256",
          "name": "tokenId",
          "type": "uint256"
        }
      ],
      "name": "approve",
      "outputs": [],
      "stateMutability": "nonpayable",
      "type": "function"
    },
    {
      "inputs": [
        {
          "internalType": "address",
          "name": "owner",
          "type": "address"
        }
      ],
      "name": "balanceOf",
      "outputs": [
        {
          "internalType": "uint256",
          "name": "",
          "type": "uint256"
        }
      ],
      "stateMutability": "view",
      "type": "function"
    },
    {
      "inputs": [
        {
          "internalType": "uint256",
          "name": "tokenId",
          "type": "uint256"
        }
      ],
      "name": "getApproved",
      "outputs": [
        {
          "internalType": "address",
          "name": "",
          "type": "address"
        }
      ],
      "stateMutability": "view",
      "type": "function"
    },
    {
      "inputs": [],
      "name": "getTokenCount",
      "outputs": [
        {
          "internalType": "uint256",
          "name": "",
          "type": "uint256"
        }
      ],
      "stateMutability": "nonpayable",
      "type": "function"
    },
    {
      "inputs": [
        {
          "internalType": "address",
          "name": "owner",
          "type": "address"
        },
        {
          "internalType": "address",
          "name": "operator",
          "type": "address"
        }
      ],
      "name": "isApprovedForAll",
      "outputs": [
        {
          "internalType": "bool",
          "name": "",
          "type": "bool"
        }
      ],
      "stateMutability": "view",
      "type": "function"
    },
    {
      "inputs": [
        {
          "internalType": "uint256",
          "name": "tokenId",
          "type": "uint256"
        },
        {
          "internalType": "address",
          "name": "operator",
          "type": "address"
        }
      ],
      "name": "isApprovedForRequestContract",
      "outputs": [
        {
          "internalType": "bool",
          "name": "",
          "type": "bool"
        }
      ],
      "stateMutability": "view",
      "type": "function"
    },
    {
      "inputs": [
        {
          "internalType": "address",
          "name": "_user",
          "type": "address"
        },
        {
          "internalType": "uint16",
          "name": "_index",
          "type": "uint16"
        }
      ],
      "name": "mintParkingSpot",
      "outputs": [
        {
          "internalType": "uint256",
          "name": "",
          "type": "uint256"
        }
      ],
      "stateMutability": "nonpayable",
      "type": "function"
    },
    {
      "inputs": [],
      "name": "name",
      "outputs": [
        {
          "internalType": "string",
          "name": "",
          "type": "string"
        }
      ],
      "stateMutability": "view",
      "type": "function"
    },
    {
      "inputs": [
        {
          "internalType": "uint256",
          "name": "tokenId",
          "type": "uint256"
        }
      ],
      "name": "ownerOf",
      "outputs": [
        {
          "internalType": "address",
          "name": "",
          "type": "address"
        }
      ],
      "stateMutability": "view",
      "type": "function"
    },
    {
      "inputs": [
        {
          "internalType": "uint256",
          "name": "",
          "type": "uint256"
        }
      ],
      "name": "paymentAddress",
      "outputs": [
        {
          "internalType": "address",
          "name": "",
          "type": "address"
        }
      ],
      "stateMutability": "view",
      "type": "function"
    },
    {
      "inputs": [
        {
          "internalType": "address",
          "name": "from",
          "type": "address"
        },
        {
          "internalType": "address",
          "name": "to",
          "type": "address"
        },
        {
          "internalType": "uint256",
          "name": "tokenId",
          "type": "uint256"
        }
      ],
      "name": "safeTransferFrom",
      "outputs": [],
      "stateMutability": "nonpayable",
      "type": "function"
    },
    {
      "inputs": [
        {
          "internalType": "address",
          "name": "from",
          "type": "address"
        },
        {
          "internalType": "address",
          "name": "to",
          "type": "address"
        },
        {
          "internalType": "uint256",
          "name": "tokenId",
          "type": "uint256"
        },
        {
          "internalType": "bytes",
          "name": "data",
          "type": "bytes"
        }
      ],
      "name": "safeTransferFrom",
      "outputs": [],
      "stateMutability": "nonpayable",
      "type": "function"
    },
    {
      "inputs": [
        {
          "internalType": "address",
          "name": "operator",
          "type": "address"
        },
        {
          "internalType": "bool",
          "name": "approved",
          "type": "bool"
        }
      ],
      "name": "setApprovalForAll",
      "outputs": [],
      "stateMutability": "nonpayable",
      "type": "function"
    },
    {
      "inputs": [
        {
          "internalType": "uint256",
          "name": "tokenId",
          "type": "uint256"
        },
        {
          "internalType": "address",
          "name": "operator",
          "type": "address"
        },
        {
          "internalType": "bool",
          "name": "approved",
          "type": "bool"
        }
      ],
      "name": "setApprovalForRequestContract",
      "outputs": [],
      "stateMutability": "nonpayable",
      "type": "function"
    },
    {
      "inputs": [
        {
          "internalType": "address",
          "name": "_paymentAddr",
          "type": "address"
        },
        {
          "internalType": "uint256",
          "name": "_tokenId",
          "type": "uint256"
        }
      ],
      "name": "setPaymentAddress",
      "outputs": [],
      "stateMutability": "nonpayable",
      "type": "function"
    },
    {
      "inputs": [
        {
          "internalType": "bytes32",
          "name": "",
          "type": "bytes32"
        }
      ],
      "name": "spotTokenised",
      "outputs": [
        {
          "internalType": "bool",
          "name": "",
          "type": "bool"
        }
      ],
      "stateMutability": "view",
      "type": "function"
    },
    {
      "inputs": [
        {
          "internalType": "bytes4",
          "name": "interfaceId",
          "type": "bytes4"
        }
      ],
      "name": "supportsInterface",
      "outputs": [
        {
          "internalType": "bool",
          "name": "",
          "type": "bool"
        }
      ],
      "stateMutability": "view",
      "type": "function"
    },
    {
      "inputs": [],
      "name": "symbol",
      "outputs": [
        {
          "internalType": "string",
          "name": "",
          "type": "string"
        }
      ],
      "stateMutability": "view",
      "type": "function"
    },
    {
      "inputs": [],
      "name": "tokenCount",
      "outputs": [
        {
          "internalType": "uint256",
          "name": "",
          "type": "uint256"
        }
      ],
      "stateMutability": "view",
      "type": "function"
    },
    {
      "inputs": [
        {
          "internalType": "uint256",
          "name": "tokenId",
          "type": "uint256"
        }
      ],
      "name": "tokenURI",
      "outputs": [
        {
          "internalType": "string",
          "name": "",
          "type": "string"
        }
      ],
      "stateMutability": "view",
      "type": "function"
    },
    {
      "inputs": [
        {
          "internalType": "address",
          "name": "from",
          "type": "address"
        },
        {
          "internalType": "address",
          "name": "to",
          "type": "address"
        },
        {
          "internalType": "uint256",
          "name": "tokenId",
          "type": "uint256"
        }
      ],
      "name": "transferFrom",
      "outputs": [],
      "stateMutability": "nonpayable",
      "type": "function"
    }
  ],
  "transactionHash": "0x09ed213ca042ae6bc483caaa4783a82f1372edff97b333a3153d6ea3e5ba8ff7",
  "args": [],
  "numDeployments": 1,
  "solcInputHash": "f48a761f191779d738171ad22828a90a",
  "bytecode": "0x60806040523480156200001157600080fd5b506040518060400160405280601081526020017f5061726b696e6753706f74546f6b656e000000000000000000000000000000008152506040518060400160405280600381526020017f5053540000000000000000000000000000000000000000000000000000000000815250816000908051906020019062000096929190620000b8565b508060019080519060200190620000af929190620000b8565b505050620001cd565b828054620000c69062000197565b90600052602060002090601f016020900481019282620000ea576000855562000136565b82601f106200010557805160ff191683800117855562000136565b8280016001018555821562000136579182015b828111156200013557825182559160200191906001019062000118565b5b50905062000145919062000149565b5090565b5b80821115620001645760008160009055506001016200014a565b5090565b7f4e487b7100000000000000000000000000000000000000000000000000000000600052602260045260246000fd5b60006002820490506001821680620001b057607f821691505b60208210811415620001c757620001c662000168565b5b50919050565b61376c80620001dd6000396000f3fe608060405234801561001057600080fd5b50600436106101425760003560e01c806371053abf116100b8578063a22cb4651161007c578063a22cb4651461039b578063b88d4fde146103b7578063c55fd06b146103d3578063c87b56dd14610403578063cc6b64a414610433578063e985e9c51461046357610142565b806371053abf146102e157806378a89567146103115780637ac485e71461032f57806395d89b411461035f5780639f181b5e1461037d57610142565b806323b872dd1161010a57806323b872dd146101fd5780632d67219e1461021957806333a92ccd1461024957806342842e0e146102655780636352211e1461028157806370a08231146102b157610142565b806301ffc9a71461014757806306fdde0314610177578063081812fc14610195578063095ea7b3146101c55780631128f7f1146101e1575b600080fd5b610161600480360381019061015c9190612303565b610493565b60405161016e919061234b565b60405180910390f35b61017f610575565b60405161018c91906123ff565b60405180910390f35b6101af60048036038101906101aa9190612457565b610607565b6040516101bc91906124c5565b60405180910390f35b6101df60048036038101906101da919061250c565b61064d565b005b6101fb60048036038101906101f6919061250c565b610765565b005b6102176004803603810190610212919061254c565b61085c565b005b610233600480360381019061022e91906125d9565b6108bc565b6040516102409190612628565b60405180910390f35b610263600480360381019061025e919061266f565b610918565b005b61027f600480360381019061027a919061254c565b610929565b005b61029b60048036038101906102969190612457565b610949565b6040516102a891906124c5565b60405180910390f35b6102cb60048036038101906102c691906126c2565b6109fb565b6040516102d89190612628565b60405180910390f35b6102fb60048036038101906102f69190612457565b610ab3565b60405161030891906124c5565b60405180910390f35b610319610ae6565b6040516103269190612628565b60405180910390f35b610349600480360381019061034491906126ef565b610af0565b604051610356919061234b565b60405180910390f35b610367610b58565b60405161037491906123ff565b60405180910390f35b610385610bea565b6040516103929190612628565b60405180910390f35b6103b560048036038101906103b0919061272f565b610bf0565b005b6103d160048036038101906103cc91906128a4565b610c06565b005b6103ed60048036038101906103e89190612457565b610c68565b6040516103fa91906124c5565b60405180910390f35b61041d60048036038101906104189190612457565b610c9b565b60405161042a91906123ff565b60405180910390f35b61044d6004803603810190610448919061295d565b610dae565b60405161045a919061234b565b60405180910390f35b61047d6004803603810190610478919061298a565b610dce565b60405161048a919061234b565b60405180910390f35b60007f80ac58cd000000000000000000000000000000000000000000000000000000007bffffffffffffffffffffffffffffffffffffffffffffffffffffffff1916827bffffffffffffffffffffffffffffffffffffffffffffffffffffffff1916148061055e57507f5b5e139f000000000000000000000000000000000000000000000000000000007bffffffffffffffffffffffffffffffffffffffffffffffffffffffff1916827bffffffffffffffffffffffffffffffffffffffffffffffffffffffff1916145b8061056e575061056d82610e62565b5b9050919050565b606060008054610584906129f9565b80601f01602080910402602001604051908101604052809291908181526020018280546105b0906129f9565b80156105fd5780601f106105d2576101008083540402835291602001916105fd565b820191906000526020600020905b8154815290600101906020018083116105e057829003601f168201915b5050505050905090565b600061061282610ecc565b6004600083815260200190815260200160002060009054906101000a900473ffffffffffffffffffffffffffffffffffffffff169050919050565b600061065882610949565b90508073ffffffffffffffffffffffffffffffffffffffff168373ffffffffffffffffffffffffffffffffffffffff1614156106c9576040517f08c379a00000000000000000000000000000000000000000000000000000000081526004016106c090612a9d565b60405180910390fd5b8073ffffffffffffffffffffffffffffffffffffffff166106e8610f17565b73ffffffffffffffffffffffffffffffffffffffff161480610717575061071681610711610f17565b610dce565b5b610756576040517f08c379a000000000000000000000000000000000000000000000000000000000815260040161074d90612b2f565b60405180910390fd5b6107608383610f1f565b505050565b3373ffffffffffffffffffffffffffffffffffffffff166007600083815260200190815260200160002060009054906101000a900473ffffffffffffffffffffffffffffffffffffffff1673ffffffffffffffffffffffffffffffffffffffff1614610806576040517f08c379a00000000000000000000000000000000000000000000000000000000081526004016107fd90612bc1565b60405180910390fd5b81600a600083815260200190815260200160002060006101000a81548173ffffffffffffffffffffffffffffffffffffffff021916908373ffffffffffffffffffffffffffffffffffffffff1602179055505050565b61086d610867610f17565b82610fd8565b6108ac576040517f08c379a00000000000000000000000000000000000000000000000000000000081526004016108a390612c53565b60405180910390fd5b6108b783838361107e565b505050565b6000806108c98484611374565b90506108d584826113ca565b7f609e63090c40dce82eb4d4604b3362792a7e33ac20fc1b23e765940e6a0fd4e78482604051610906929190612c73565b60405180910390a18091505092915050565b61092433848484611420565b505050565b61094483838360405180602001604052806000815250610c06565b505050565b6000806002600084815260200190815260200160002060009054906101000a900473ffffffffffffffffffffffffffffffffffffffff169050600073ffffffffffffffffffffffffffffffffffffffff168173ffffffffffffffffffffffffffffffffffffffff1614156109f2576040517f08c379a00000000000000000000000000000000000000000000000000000000081526004016109e990612ce8565b60405180910390fd5b80915050919050565b60008073ffffffffffffffffffffffffffffffffffffffff168273ffffffffffffffffffffffffffffffffffffffff161415610a6c576040517f08c379a0000000000000000000000000000000000000000000000000000000008152600401610a6390612d7a565b60405180910390fd5b600360008373ffffffffffffffffffffffffffffffffffffffff1673ffffffffffffffffffffffffffffffffffffffff168152602001908152602001600020549050919050565b600a6020528060005260406000206000915054906101000a900473ffffffffffffffffffffffffffffffffffffffff1681565b6000600c54905090565b60006006600084815260200190815260200160002060008373ffffffffffffffffffffffffffffffffffffffff1673ffffffffffffffffffffffffffffffffffffffff16815260200190815260200160002060009054906101000a900460ff16905092915050565b606060018054610b67906129f9565b80601f0160208091040260200160405190810160405280929190818152602001828054610b93906129f9565b8015610be05780601f10610bb557610100808354040283529160200191610be0565b820191906000526020600020905b815481529060010190602001808311610bc357829003601f168201915b5050505050905090565b600c5481565b610c02610bfb610f17565b83836114d7565b5050565b610c17610c11610f17565b83610fd8565b610c56576040517f08c379a0000000000000000000000000000000000000000000000000000000008152600401610c4d90612c53565b60405180910390fd5b610c6284848484611644565b50505050565b60076020528060005260406000206000915054906101000a900473ffffffffffffffffffffffffffffffffffffffff1681565b6060610ca682610ecc565b6000600860008481526020019081526020016000208054610cc6906129f9565b80601f0160208091040260200160405190810160405280929190818152602001828054610cf2906129f9565b8015610d3f5780601f10610d1457610100808354040283529160200191610d3f565b820191906000526020600020905b815481529060010190602001808311610d2257829003601f168201915b505050505090506000610d506116a0565b9050600081511415610d66578192505050610da9565b600082511115610d9b578082604051602001610d83929190612dd6565b60405160208183030381529060405292505050610da9565b610da4846116b7565b925050505b919050565b60096020528060005260406000206000915054906101000a900460ff1681565b6000600560008473ffffffffffffffffffffffffffffffffffffffff1673ffffffffffffffffffffffffffffffffffffffff16815260200190815260200160002060008373ffffffffffffffffffffffffffffffffffffffff1673ffffffffffffffffffffffffffffffffffffffff16815260200190815260200160002060009054906101000a900460ff16905092915050565b60007f01ffc9a7000000000000000000000000000000000000000000000000000000007bffffffffffffffffffffffffffffffffffffffffffffffffffffffff1916827bffffffffffffffffffffffffffffffffffffffffffffffffffffffff1916149050919050565b610ed58161171f565b610f14576040517f08c379a0000000000000000000000000000000000000000000000000000000008152600401610f0b90612ce8565b60405180910390fd5b50565b600033905090565b816004600083815260200190815260200160002060006101000a81548173ffffffffffffffffffffffffffffffffffffffff021916908373ffffffffffffffffffffffffffffffffffffffff160217905550808273ffffffffffffffffffffffffffffffffffffffff16610f9283610949565b73ffffffffffffffffffffffffffffffffffffffff167f8c5be1e5ebec7d5bd14f71427d1e84f3dd0314c0f7b2291e5b200ac8c7c3b92560405160405180910390a45050565b600080610fe483610949565b90508073ffffffffffffffffffffffffffffffffffffffff168473ffffffffffffffffffffffffffffffffffffffff16148061102657506110258185610dce565b5b8061106457508373ffffffffffffffffffffffffffffffffffffffff1661104c84610607565b73ffffffffffffffffffffffffffffffffffffffff16145b8061107557506110748385610af0565b5b91505092915050565b8273ffffffffffffffffffffffffffffffffffffffff1661109e82610949565b73ffffffffffffffffffffffffffffffffffffffff16146110f4576040517f08c379a00000000000000000000000000000000000000000000000000000000081526004016110eb90612e6c565b60405180910390fd5b600073ffffffffffffffffffffffffffffffffffffffff168273ffffffffffffffffffffffffffffffffffffffff161415611164576040517f08c379a000000000000000000000000000000000000000000000000000000000815260040161115b90612efe565b60405180910390fd5b61116f83838361178b565b8273ffffffffffffffffffffffffffffffffffffffff1661118f82610949565b73ffffffffffffffffffffffffffffffffffffffff16146111e5576040517f08c379a00000000000000000000000000000000000000000000000000000000081526004016111dc90612e6c565b60405180910390fd5b6004600082815260200190815260200160002060006101000a81549073ffffffffffffffffffffffffffffffffffffffff02191690556001600360008573ffffffffffffffffffffffffffffffffffffffff1673ffffffffffffffffffffffffffffffffffffffff168152602001908152602001600020600082825403925050819055506001600360008473ffffffffffffffffffffffffffffffffffffffff1673ffffffffffffffffffffffffffffffffffffffff16815260200190815260200160002060008282540192505081905550816002600083815260200190815260200160002060006101000a81548173ffffffffffffffffffffffffffffffffffffffff021916908373ffffffffffffffffffffffffffffffffffffffff160217905550808273ffffffffffffffffffffffffffffffffffffffff168473ffffffffffffffffffffffffffffffffffffffff167fddf252ad1be2c89b69c2b068fc378daa952ba7f163c4a11628f55a4df523b3ef60405160405180910390a461136f838383611790565b505050565b6000611380600b611795565b600061138b836117ab565b90506000611399600b6117d1565b90506113a5600b6117d1565b600c819055506113b585826117df565b6113bf8183611a4b565b809250505092915050565b81600a600083815260200190815260200160002060006101000a81548173ffffffffffffffffffffffffffffffffffffffff021916908373ffffffffffffffffffffffffffffffffffffffff1602179055505050565b61142a8385611abf565b611469576040517f08c379a000000000000000000000000000000000000000000000000000000000815260040161146090612fdc565b60405180910390fd5b806006600085815260200190815260200160002060008473ffffffffffffffffffffffffffffffffffffffff1673ffffffffffffffffffffffffffffffffffffffff16815260200190815260200160002060006101000a81548160ff02191690831515021790555050505050565b8173ffffffffffffffffffffffffffffffffffffffff168373ffffffffffffffffffffffffffffffffffffffff161415611546576040517f08c379a000000000000000000000000000000000000000000000000000000000815260040161153d90613048565b60405180910390fd5b80600560008573ffffffffffffffffffffffffffffffffffffffff1673ffffffffffffffffffffffffffffffffffffffff16815260200190815260200160002060008473ffffffffffffffffffffffffffffffffffffffff1673ffffffffffffffffffffffffffffffffffffffff16815260200190815260200160002060006101000a81548160ff0219169083151502179055508173ffffffffffffffffffffffffffffffffffffffff168373ffffffffffffffffffffffffffffffffffffffff167f17307eab39ab6107e8899845ad3d59bd9653f200f220920489ca2b5937696c3183604051611637919061234b565b60405180910390a3505050565b61164f84848461107e565b61165b84848484611b2b565b61169a576040517f08c379a0000000000000000000000000000000000000000000000000000000008152600401611691906130da565b60405180910390fd5b50505050565b606060405180602001604052806000815250905090565b60606116c282610ecc565b60006116cc6116a0565b905060008151116116ec5760405180602001604052806000815250611717565b806116f684611cb3565b604051602001611707929190612dd6565b6040516020818303038152906040525b915050919050565b60008073ffffffffffffffffffffffffffffffffffffffff166002600084815260200190815260200160002060009054906101000a900473ffffffffffffffffffffffffffffffffffffffff1673ffffffffffffffffffffffffffffffffffffffff1614159050919050565b505050565b505050565b6001816000016000828254019250508190555050565b606060006117b883611e14565b905060006117c582611ead565b90508092505050919050565b600081600001549050919050565b600073ffffffffffffffffffffffffffffffffffffffff168273ffffffffffffffffffffffffffffffffffffffff16141561184f576040517f08c379a000000000000000000000000000000000000000000000000000000000815260040161184690613146565b60405180910390fd5b6118588161171f565b15611898576040517f08c379a000000000000000000000000000000000000000000000000000000000815260040161188f906131b2565b60405180910390fd5b6118a46000838361178b565b6118ad8161171f565b156118ed576040517f08c379a00000000000000000000000000000000000000000000000000000000081526004016118e4906131b2565b60405180910390fd5b6001600360008473ffffffffffffffffffffffffffffffffffffffff1673ffffffffffffffffffffffffffffffffffffffff16815260200190815260200160002060008282540192505081905550816002600083815260200190815260200160002060006101000a81548173ffffffffffffffffffffffffffffffffffffffff021916908373ffffffffffffffffffffffffffffffffffffffff160217905550816007600083815260200190815260200160002060006101000a81548173ffffffffffffffffffffffffffffffffffffffff021916908373ffffffffffffffffffffffffffffffffffffffff160217905550808273ffffffffffffffffffffffffffffffffffffffff16600073ffffffffffffffffffffffffffffffffffffffff167fddf252ad1be2c89b69c2b068fc378daa952ba7f163c4a11628f55a4df523b3ef60405160405180910390a4611a4760008383611790565b5050565b611a548261171f565b611a93576040517f08c379a0000000000000000000000000000000000000000000000000000000008152600401611a8a90613244565b60405180910390fd5b80600860008481526020019081526020016000209080519060200190611aba9291906121f4565b505050565b60008173ffffffffffffffffffffffffffffffffffffffff166007600085815260200190815260200160002060009054906101000a900473ffffffffffffffffffffffffffffffffffffffff1673ffffffffffffffffffffffffffffffffffffffff1614905092915050565b6000611b4c8473ffffffffffffffffffffffffffffffffffffffff16611f6b565b15611ca6578373ffffffffffffffffffffffffffffffffffffffff1663150b7a02611b75610f17565b8786866040518563ffffffff1660e01b8152600401611b9794939291906132b9565b6020604051808303816000875af1925050508015611bd357506040513d601f19601f82011682018060405250810190611bd0919061331a565b60015b611c56573d8060008114611c03576040519150601f19603f3d011682016040523d82523d6000602084013e611c08565b606091505b50600081511415611c4e576040517f08c379a0000000000000000000000000000000000000000000000000000000008152600401611c45906130da565b60405180910390fd5b805181602001fd5b63150b7a0260e01b7bffffffffffffffffffffffffffffffffffffffffffffffffffffffff1916817bffffffffffffffffffffffffffffffffffffffffffffffffffffffff191614915050611cab565b600190505b949350505050565b60606000821415611cfb576040518060400160405280600181526020017f30000000000000000000000000000000000000000000000000000000000000008152509050611e0f565b600082905060005b60008214611d2d578080611d1690613376565b915050600a82611d2691906133ee565b9150611d03565b60008167ffffffffffffffff811115611d4957611d48612779565b5b6040519080825280601f01601f191660200182016040528015611d7b5781602001600182028036833780820191505090505b5090505b60008514611e0857600182611d94919061341f565b9150600a85611da39190613453565b6030611daf9190613484565b60f81b818381518110611dc557611dc46134da565b5b60200101907effffffffffffffffffffffffffffffffffffffffffffffffffffffffffffff1916908160001a905350600a85611e0191906133ee565b9450611d7f565b8093505050505b919050565b600073cf7ed3acca5a467e9e704c703e8d87f634fb0fc973ffffffffffffffffffffffffffffffffffffffff16630902d94933846040518363ffffffff1660e01b8152600401611e65929190613518565b602060405180830381865afa158015611e82573d6000803e3d6000fd5b505050506040513d601f19601f82011682018060405250810190611ea69190613556565b9050919050565b6060611eb882611f8e565b15611ef8576040517f08c379a0000000000000000000000000000000000000000000000000000000008152600401611eef906135f5565b60405180910390fd5b60006040518060600160405280603181526020016137066031913990506000611f383373ffffffffffffffffffffffffffffffffffffffff166020611fb8565b905060008282604051602001611f4f929190612dd6565b6040516020818303038152906040529050809350505050919050565b6000808273ffffffffffffffffffffffffffffffffffffffff163b119050919050565b60006009600083815260200190815260200160002060009054906101000a900460ff169050919050565b606060006002836002611fcb9190613615565b611fd59190613484565b67ffffffffffffffff811115611fee57611fed612779565b5b6040519080825280601f01601f1916602001820160405280156120205781602001600182028036833780820191505090505b5090507f300000000000000000000000000000000000000000000000000000000000000081600081518110612058576120576134da565b5b60200101907effffffffffffffffffffffffffffffffffffffffffffffffffffffffffffff1916908160001a9053507f7800000000000000000000000000000000000000000000000000000000000000816001815181106120bc576120bb6134da565b5b60200101907effffffffffffffffffffffffffffffffffffffffffffffffffffffffffffff1916908160001a905350600060018460026120fc9190613615565b6121069190613484565b90505b60018111156121a6577f3031323334353637383961626364656600000000000000000000000000000000600f861660108110612148576121476134da565b5b1a60f81b82828151811061215f5761215e6134da565b5b60200101907effffffffffffffffffffffffffffffffffffffffffffffffffffffffffffff1916908160001a905350600485901c94508061219f9061366f565b9050612109565b50600084146121ea576040517f08c379a00000000000000000000000000000000000000000000000000000000081526004016121e1906136e5565b60405180910390fd5b8091505092915050565b828054612200906129f9565b90600052602060002090601f0160209004810192826122225760008555612269565b82601f1061223b57805160ff1916838001178555612269565b82800160010185558215612269579182015b8281111561226857825182559160200191906001019061224d565b5b509050612276919061227a565b5090565b5b8082111561229357600081600090555060010161227b565b5090565b6000604051905090565b600080fd5b600080fd5b60007fffffffff0000000000000000000000000000000000000000000000000000000082169050919050565b6122e0816122ab565b81146122eb57600080fd5b50565b6000813590506122fd816122d7565b92915050565b600060208284031215612319576123186122a1565b5b6000612327848285016122ee565b91505092915050565b60008115159050919050565b61234581612330565b82525050565b6000602082019050612360600083018461233c565b92915050565b600081519050919050565b600082825260208201905092915050565b60005b838110156123a0578082015181840152602081019050612385565b838111156123af576000848401525b50505050565b6000601f19601f8301169050919050565b60006123d182612366565b6123db8185612371565b93506123eb818560208601612382565b6123f4816123b5565b840191505092915050565b6000602082019050818103600083015261241981846123c6565b905092915050565b6000819050919050565b61243481612421565b811461243f57600080fd5b50565b6000813590506124518161242b565b92915050565b60006020828403121561246d5761246c6122a1565b5b600061247b84828501612442565b91505092915050565b600073ffffffffffffffffffffffffffffffffffffffff82169050919050565b60006124af82612484565b9050919050565b6124bf816124a4565b82525050565b60006020820190506124da60008301846124b6565b92915050565b6124e9816124a4565b81146124f457600080fd5b50565b600081359050612506816124e0565b92915050565b60008060408385031215612523576125226122a1565b5b6000612531858286016124f7565b925050602061254285828601612442565b9150509250929050565b600080600060608486031215612565576125646122a1565b5b6000612573868287016124f7565b9350506020612584868287016124f7565b925050604061259586828701612442565b9150509250925092565b600061ffff82169050919050565b6125b68161259f565b81146125c157600080fd5b50565b6000813590506125d3816125ad565b92915050565b600080604083850312156125f0576125ef6122a1565b5b60006125fe858286016124f7565b925050602061260f858286016125c4565b9150509250929050565b61262281612421565b82525050565b600060208201905061263d6000830184612619565b92915050565b61264c81612330565b811461265757600080fd5b50565b60008135905061266981612643565b92915050565b600080600060608486031215612688576126876122a1565b5b600061269686828701612442565b93505060206126a7868287016124f7565b92505060406126b88682870161265a565b9150509250925092565b6000602082840312156126d8576126d76122a1565b5b60006126e6848285016124f7565b91505092915050565b60008060408385031215612706576127056122a1565b5b600061271485828601612442565b9250506020612725858286016124f7565b9150509250929050565b60008060408385031215612746576127456122a1565b5b6000612754858286016124f7565b92505060206127658582860161265a565b9150509250929050565b600080fd5b600080fd5b7f4e487b7100000000000000000000000000000000000000000000000000000000600052604160045260246000fd5b6127b1826123b5565b810181811067ffffffffffffffff821117156127d0576127cf612779565b5b80604052505050565b60006127e3612297565b90506127ef82826127a8565b919050565b600067ffffffffffffffff82111561280f5761280e612779565b5b612818826123b5565b9050602081019050919050565b82818337600083830152505050565b6000612847612842846127f4565b6127d9565b90508281526020810184848401111561286357612862612774565b5b61286e848285612825565b509392505050565b600082601f83011261288b5761288a61276f565b5b813561289b848260208601612834565b91505092915050565b600080600080608085870312156128be576128bd6122a1565b5b60006128cc878288016124f7565b94505060206128dd878288016124f7565b93505060406128ee87828801612442565b925050606085013567ffffffffffffffff81111561290f5761290e6122a6565b5b61291b87828801612876565b91505092959194509250565b6000819050919050565b61293a81612927565b811461294557600080fd5b50565b60008135905061295781612931565b92915050565b600060208284031215612973576129726122a1565b5b600061298184828501612948565b91505092915050565b600080604083850312156129a1576129a06122a1565b5b60006129af858286016124f7565b92505060206129c0858286016124f7565b9150509250929050565b7f4e487b7100000000000000000000000000000000000000000000000000000000600052602260045260246000fd5b60006002820490506001821680612a1157607f821691505b60208210811415612a2557612a246129ca565b5b50919050565b7f4552433732313a20617070726f76616c20746f2063757272656e74206f776e6560008201527f7200000000000000000000000000000000000000000000000000000000000000602082015250565b6000612a87602183612371565b9150612a9282612a2b565b604082019050919050565b60006020820190508181036000830152612ab681612a7a565b9050919050565b7f4552433732313a20617070726f76652063616c6c6572206973206e6f7420746f60008201527f6b656e206f776e6572206f7220617070726f76656420666f7220616c6c000000602082015250565b6000612b19603d83612371565b9150612b2482612abd565b604082019050919050565b60006020820190508181036000830152612b4881612b0c565b9050919050565b7f4f6e6c79207468652074727565207061726b696e672073706f74206f776e657260008201527f2063616e206368616e676520746865207061796d656e74206164647265737321602082015250565b6000612bab604083612371565b9150612bb682612b4f565b604082019050919050565b60006020820190508181036000830152612bda81612b9e565b9050919050565b7f4552433732313a2063616c6c6572206973206e6f7420746f6b656e206f776e6560008201527f72206f7220617070726f76656400000000000000000000000000000000000000602082015250565b6000612c3d602d83612371565b9150612c4882612be1565b604082019050919050565b60006020820190508181036000830152612c6c81612c30565b9050919050565b6000604082019050612c8860008301856124b6565b612c956020830184612619565b9392505050565b7f4552433732313a20696e76616c696420746f6b656e2049440000000000000000600082015250565b6000612cd2601883612371565b9150612cdd82612c9c565b602082019050919050565b60006020820190508181036000830152612d0181612cc5565b9050919050565b7f4552433732313a2061646472657373207a65726f206973206e6f74206120766160008201527f6c6964206f776e65720000000000000000000000000000000000000000000000602082015250565b6000612d64602983612371565b9150612d6f82612d08565b604082019050919050565b60006020820190508181036000830152612d9381612d57565b9050919050565b600081905092915050565b6000612db082612366565b612dba8185612d9a565b9350612dca818560208601612382565b80840191505092915050565b6000612de28285612da5565b9150612dee8284612da5565b91508190509392505050565b7f4552433732313a207472616e736665722066726f6d20696e636f72726563742060008201527f6f776e6572000000000000000000000000000000000000000000000000000000602082015250565b6000612e56602583612371565b9150612e6182612dfa565b604082019050919050565b60006020820190508181036000830152612e8581612e49565b9050919050565b7f4552433732313a207472616e7366657220746f20746865207a65726f2061646460008201527f7265737300000000000000000000000000000000000000000000000000000000602082015250565b6000612ee8602483612371565b9150612ef382612e8c565b604082019050919050565b60006020820190508181036000830152612f1781612edb565b9050919050565b7f4f6e6c79207468652074727565206f776e6572206f6620746865207061726b6960008201527f6e6720746f6b656e2063616e206368616e676520617070726f76616c2073746160208201527f74757320666f7220746865207061726b696e6720526571756573747320636f6e60408201527f74726163742e2000000000000000000000000000000000000000000000000000606082015250565b6000612fc6606783612371565b9150612fd182612f1e565b608082019050919050565b60006020820190508181036000830152612ff581612fb9565b9050919050565b7f4552433732313a20617070726f766520746f2063616c6c657200000000000000600082015250565b6000613032601983612371565b915061303d82612ffc565b602082019050919050565b6000602082019050818103600083015261306181613025565b9050919050565b7f4552433732313a207472616e7366657220746f206e6f6e20455243373231526560008201527f63656976657220696d706c656d656e7465720000000000000000000000000000602082015250565b60006130c4603283612371565b91506130cf82613068565b604082019050919050565b600060208201905081810360008301526130f3816130b7565b9050919050565b7f4552433732313a206d696e7420746f20746865207a65726f2061646472657373600082015250565b6000613130602083612371565b915061313b826130fa565b602082019050919050565b6000602082019050818103600083015261315f81613123565b9050919050565b7f4552433732313a20746f6b656e20616c7265616479206d696e74656400000000600082015250565b600061319c601c83612371565b91506131a782613166565b602082019050919050565b600060208201905081810360008301526131cb8161318f565b9050919050565b7f45524337323155524953746f726167653a2055524920736574206f66206e6f6e60008201527f6578697374656e7420746f6b656e000000000000000000000000000000000000602082015250565b600061322e602e83612371565b9150613239826131d2565b604082019050919050565b6000602082019050818103600083015261325d81613221565b9050919050565b600081519050919050565b600082825260208201905092915050565b600061328b82613264565b613295818561326f565b93506132a5818560208601612382565b6132ae816123b5565b840191505092915050565b60006080820190506132ce60008301876124b6565b6132db60208301866124b6565b6132e86040830185612619565b81810360608301526132fa8184613280565b905095945050505050565b600081519050613314816122d7565b92915050565b6000602082840312156133305761332f6122a1565b5b600061333e84828501613305565b91505092915050565b7f4e487b7100000000000000000000000000000000000000000000000000000000600052601160045260246000fd5b600061338182612421565b91507fffffffffffffffffffffffffffffffffffffffffffffffffffffffffffffffff8214156133b4576133b3613347565b5b600182019050919050565b7f4e487b7100000000000000000000000000000000000000000000000000000000600052601260045260246000fd5b60006133f982612421565b915061340483612421565b925082613414576134136133bf565b5b828204905092915050565b600061342a82612421565b915061343583612421565b92508282101561344857613447613347565b5b828203905092915050565b600061345e82612421565b915061346983612421565b925082613479576134786133bf565b5b828206905092915050565b600061348f82612421565b915061349a83612421565b9250827fffffffffffffffffffffffffffffffffffffffffffffffffffffffffffffffff038211156134cf576134ce613347565b5b828201905092915050565b7f4e487b7100000000000000000000000000000000000000000000000000000000600052603260045260246000fd5b6135128161259f565b82525050565b600060408201905061352d60008301856124b6565b61353a6020830184613509565b9392505050565b60008151905061355081612931565b92915050565b60006020828403121561356c5761356b6122a1565b5b600061357a84828501613541565b91505092915050565b7f5061726b696e672073706f7420636f2d6f7264696e617465732061726520616c60008201527f7265616479206d696e746564206173206120746f6b656e000000000000000000602082015250565b60006135df603783612371565b91506135ea82613583565b604082019050919050565b6000602082019050818103600083015261360e816135d2565b9050919050565b600061362082612421565b915061362b83612421565b9250817fffffffffffffffffffffffffffffffffffffffffffffffffffffffffffffffff048311821515161561366457613663613347565b5b828202905092915050565b600061367a82612421565b9150600082141561368e5761368d613347565b5b600182039050919050565b7f537472696e67733a20686578206c656e67746820696e73756666696369656e74600082015250565b60006136cf602083612371565b91506136da82613699565b602082019050919050565b600060208201905081810360008301526136fe816136c2565b905091905056fe646174613a746578742f706c61696e3b636861727365743d5554462d382c7061726b696e6753706f744c61744c6f6e673aa264697066735822122012298e096782f7d8e88413e5d20b2a7042a7a5599691e1141df3e581f56cd0b564736f6c634300080c0033",
  "devdoc": {
    "kind": "dev",
    "methods": {
      "approve(address,uint256)": {
        "details": "See {IERC721-approve}."
      },
      "balanceOf(address)": {
        "details": "See {IERC721-balanceOf}."
      },
      "getApproved(uint256)": {
        "details": "See {IERC721-getApproved}."
      },
      "isApprovedForAll(address,address)": {
        "details": "See {IERC721-isApprovedForAll}."
      },
      "name()": {
        "details": "See {IERC721Metadata-name}."
      },
      "ownerOf(uint256)": {
        "details": "See {IERC721-ownerOf}."
      },
      "safeTransferFrom(address,address,uint256)": {
        "details": "See {IERC721-safeTransferFrom}."
      },
      "safeTransferFrom(address,address,uint256,bytes)": {
        "details": "See {IERC721-safeTransferFrom}."
      },
      "setApprovalForAll(address,bool)": {
        "details": "See {IERC721-setApprovalForAll}."
      },
      "supportsInterface(bytes4)": {
        "details": "See {IERC165-supportsInterface}."
      },
      "symbol()": {
        "details": "See {IERC721Metadata-symbol}."
      },
      "tokenURI(uint256)": {
        "details": "See {IERC721Metadata-tokenURI}."
      },
      "transferFrom(address,address,uint256)": {
        "details": "See {IERC721-transferFrom}."
      }
    },
    "version": 1
  },
  "userdoc": {
    "kind": "user",
    "methods": {},
    "version": 1
  },
  "storageLayout": {
    "storage": [
      {
        "astId": 7254,
        "contract": "contracts/ParkingSpotToken.sol:ParkingSpotToken",
        "label": "_name",
        "offset": 0,
        "slot": "0",
        "type": "t_string_storage"
      },
      {
        "astId": 7256,
        "contract": "contracts/ParkingSpotToken.sol:ParkingSpotToken",
        "label": "_symbol",
        "offset": 0,
        "slot": "1",
        "type": "t_string_storage"
      },
      {
        "astId": 7260,
        "contract": "contracts/ParkingSpotToken.sol:ParkingSpotToken",
        "label": "_owners",
        "offset": 0,
        "slot": "2",
        "type": "t_mapping(t_uint256,t_address)"
      },
      {
        "astId": 7264,
        "contract": "contracts/ParkingSpotToken.sol:ParkingSpotToken",
        "label": "_balances",
        "offset": 0,
        "slot": "3",
        "type": "t_mapping(t_address,t_uint256)"
      },
      {
        "astId": 7268,
        "contract": "contracts/ParkingSpotToken.sol:ParkingSpotToken",
        "label": "_tokenApprovals",
        "offset": 0,
        "slot": "4",
        "type": "t_mapping(t_uint256,t_address)"
      },
      {
        "astId": 7274,
        "contract": "contracts/ParkingSpotToken.sol:ParkingSpotToken",
        "label": "_operatorApprovals",
        "offset": 0,
        "slot": "5",
        "type": "t_mapping(t_address,t_mapping(t_address,t_bool))"
      },
      {
        "astId": 7280,
        "contract": "contracts/ParkingSpotToken.sol:ParkingSpotToken",
        "label": "_approvedForRequestContract",
        "offset": 0,
        "slot": "6",
        "type": "t_mapping(t_uint256,t_mapping(t_address,t_bool))"
      },
      {
        "astId": 7284,
        "contract": "contracts/ParkingSpotToken.sol:ParkingSpotToken",
        "label": "_parkingSpotOwners",
        "offset": 0,
        "slot": "7",
        "type": "t_mapping(t_uint256,t_address)"
      },
      {
        "astId": 8224,
        "contract": "contracts/ParkingSpotToken.sol:ParkingSpotToken",
        "label": "_tokenURIs",
        "offset": 0,
        "slot": "8",
        "type": "t_mapping(t_uint256,t_string_storage)"
      },
      {
        "astId": 9020,
        "contract": "contracts/ParkingSpotToken.sol:ParkingSpotToken",
        "label": "spotTokenised",
        "offset": 0,
        "slot": "9",
        "type": "t_mapping(t_bytes32,t_bool)"
      },
      {
        "astId": 9024,
        "contract": "contracts/ParkingSpotToken.sol:ParkingSpotToken",
        "label": "paymentAddress",
        "offset": 0,
        "slot": "10",
        "type": "t_mapping(t_uint256,t_address)"
      },
      {
        "astId": 9031,
        "contract": "contracts/ParkingSpotToken.sol:ParkingSpotToken",
        "label": "_tokenIds",
        "offset": 0,
        "slot": "11",
        "type": "t_struct(Counter)4621_storage"
      },
      {
        "astId": 9033,
        "contract": "contracts/ParkingSpotToken.sol:ParkingSpotToken",
        "label": "tokenCount",
        "offset": 0,
        "slot": "12",
        "type": "t_uint256"
      }
    ],
    "types": {
      "t_address": {
        "encoding": "inplace",
        "label": "address",
        "numberOfBytes": "20"
      },
      "t_bool": {
        "encoding": "inplace",
        "label": "bool",
        "numberOfBytes": "1"
      },
      "t_bytes32": {
        "encoding": "inplace",
        "label": "bytes32",
        "numberOfBytes": "32"
      },
      "t_mapping(t_address,t_bool)": {
        "encoding": "mapping",
        "key": "t_address",
        "label": "mapping(address => bool)",
        "numberOfBytes": "32",
        "value": "t_bool"
      },
      "t_mapping(t_address,t_mapping(t_address,t_bool))": {
        "encoding": "mapping",
        "key": "t_address",
        "label": "mapping(address => mapping(address => bool))",
        "numberOfBytes": "32",
        "value": "t_mapping(t_address,t_bool)"
      },
      "t_mapping(t_address,t_uint256)": {
        "encoding": "mapping",
        "key": "t_address",
        "label": "mapping(address => uint256)",
        "numberOfBytes": "32",
        "value": "t_uint256"
      },
      "t_mapping(t_bytes32,t_bool)": {
        "encoding": "mapping",
        "key": "t_bytes32",
        "label": "mapping(bytes32 => bool)",
        "numberOfBytes": "32",
        "value": "t_bool"
      },
      "t_mapping(t_uint256,t_address)": {
        "encoding": "mapping",
        "key": "t_uint256",
        "label": "mapping(uint256 => address)",
        "numberOfBytes": "32",
        "value": "t_address"
      },
      "t_mapping(t_uint256,t_mapping(t_address,t_bool))": {
        "encoding": "mapping",
        "key": "t_uint256",
        "label": "mapping(uint256 => mapping(address => bool))",
        "numberOfBytes": "32",
        "value": "t_mapping(t_address,t_bool)"
      },
      "t_mapping(t_uint256,t_string_storage)": {
        "encoding": "mapping",
        "key": "t_uint256",
        "label": "mapping(uint256 => string)",
        "numberOfBytes": "32",
        "value": "t_string_storage"
      },
      "t_string_storage": {
        "encoding": "bytes",
        "label": "string",
        "numberOfBytes": "32"
      },
      "t_struct(Counter)4621_storage": {
        "encoding": "inplace",
        "label": "struct Counters.Counter",
        "members": [
          {
            "astId": 4620,
            "contract": "contracts/ParkingSpotToken.sol:ParkingSpotToken",
            "label": "_value",
            "offset": 0,
            "slot": "0",
            "type": "t_uint256"
          }
        ],
        "numberOfBytes": "32"
      },
      "t_uint256": {
        "encoding": "inplace",
        "label": "uint256",
        "numberOfBytes": "32"
      }
    }
  }
}