{
  "address": "0xDc64a140Aa3E981100a9becA4E685f962f0cF6C9",
  "abi": [
    {
      "inputs": [
        {
          "internalType": "uint256",
          "name": "_parking_spot_id",
          "type": "uint256"
        }
      ],
      "name": "checkParkingSpotTimezone",
      "outputs": [
        {
          "internalType": "uint8",
          "name": "",
          "type": "uint8"
        }
      ],
      "stateMutability": "view",
      "type": "function"
    },
    {
      "inputs": [
        {
          "internalType": "uint256",
          "name": "_parking_spot_id",
          "type": "uint256"
        }
      ],
      "name": "checkSpotAvailability",
      "outputs": [
        {
          "internalType": "bool",
          "name": "",
          "type": "bool"
        }
      ],
      "stateMutability": "view",
      "type": "function"
    },
    {
      "inputs": [
        {
          "internalType": "uint256",
          "name": "_parking_spot_id",
          "type": "uint256"
        }
      ],
      "name": "checkSpotPermittedParkingEndTime",
      "outputs": [
        {
          "internalType": "uint8",
          "name": "",
          "type": "uint8"
        },
        {
          "internalType": "uint8",
          "name": "",
          "type": "uint8"
        }
      ],
      "stateMutability": "view",
      "type": "function"
    },
    {
      "inputs": [
        {
          "internalType": "uint256",
          "name": "_parking_spot_id",
          "type": "uint256"
        }
      ],
      "name": "checkSpotPermittedParkingStartTime",
      "outputs": [
        {
          "internalType": "uint8",
          "name": "",
          "type": "uint8"
        },
        {
          "internalType": "uint8",
          "name": "",
          "type": "uint8"
        }
      ],
      "stateMutability": "view",
      "type": "function"
    },
    {
      "inputs": [
        {
          "internalType": "uint256",
          "name": "",
          "type": "uint256"
        }
      ],
      "name": "parkingSpotTimeZone",
      "outputs": [
        {
          "internalType": "uint8",
          "name": "",
          "type": "uint8"
        }
      ],
      "stateMutability": "view",
      "type": "function"
    },
    {
      "inputs": [
        {
          "internalType": "uint256",
          "name": "",
          "type": "uint256"
        }
      ],
      "name": "permittedParkingTime",
      "outputs": [
        {
          "internalType": "uint8",
          "name": "startHour",
          "type": "uint8"
        },
        {
          "internalType": "uint8",
          "name": "startMinute",
          "type": "uint8"
        },
        {
          "internalType": "uint8",
          "name": "endHour",
          "type": "uint8"
        },
        {
          "internalType": "uint8",
          "name": "endMinute",
          "type": "uint8"
        }
      ],
      "stateMutability": "view",
      "type": "function"
    },
    {
      "inputs": [
        {
          "internalType": "uint256",
          "name": "_parking_spot_id",
          "type": "uint256"
        },
        {
          "internalType": "uint8",
          "name": "_timezone",
          "type": "uint8"
        }
      ],
      "name": "setParkingSpotTimezone",
      "outputs": [],
      "stateMutability": "nonpayable",
      "type": "function"
    },
    {
      "inputs": [
        {
          "internalType": "address",
          "name": "_requestParkingSpotTokenAddress",
          "type": "address"
        }
      ],
      "name": "setRequestParkingSpotTokenAddress",
      "outputs": [],
      "stateMutability": "nonpayable",
      "type": "function"
    },
    {
      "inputs": [
        {
          "internalType": "uint256",
          "name": "_parking_spot_id",
          "type": "uint256"
        },
        {
          "internalType": "bool",
          "name": "_availability",
          "type": "bool"
        }
      ],
      "name": "setSpotAvailability",
      "outputs": [],
      "stateMutability": "nonpayable",
      "type": "function"
    },
    {
      "inputs": [
        {
          "internalType": "uint256",
          "name": "_tokenId",
          "type": "uint256"
        },
        {
          "internalType": "bool",
          "name": "_inUse",
          "type": "bool"
        }
      ],
      "name": "setSpotInUse",
      "outputs": [],
      "stateMutability": "nonpayable",
      "type": "function"
    },
    {
      "inputs": [
        {
          "internalType": "uint256",
          "name": "_parking_spot_id",
          "type": "uint256"
        },
        {
          "internalType": "uint8",
          "name": "_start_hour",
          "type": "uint8"
        },
        {
          "internalType": "uint8",
          "name": "_start_minute",
          "type": "uint8"
        },
        {
          "internalType": "uint8",
          "name": "_end_hour",
          "type": "uint8"
        },
        {
          "internalType": "uint8",
          "name": "_end_minute",
          "type": "uint8"
        }
      ],
      "name": "setSpotPermittedParkingTime",
      "outputs": [],
      "stateMutability": "nonpayable",
      "type": "function"
    },
    {
      "inputs": [
        {
          "internalType": "uint256",
          "name": "",
          "type": "uint256"
        }
      ],
      "name": "spotInUse",
      "outputs": [
        {
          "internalType": "bool",
          "name": "",
          "type": "bool"
        }
      ],
      "stateMutability": "view",
      "type": "function"
    },
    {
      "inputs": [
        {
          "internalType": "uint256",
          "name": "",
          "type": "uint256"
        }
      ],
      "name": "spot_available",
      "outputs": [
        {
          "internalType": "bool",
          "name": "",
          "type": "bool"
        }
      ],
      "stateMutability": "view",
      "type": "function"
    }
  ],
  "transactionHash": "0xaeb9c45a6f7644d5de4cd3543ea7b31da7dd5c772ac498d5547b7af190f9374c",
  "args": [],
  "numDeployments": 1,
  "solcInputHash": "4a0ac90c94295af46183ead8bddf886b",
  "bytecode": "0x608060405234801561001057600080fd5b506110e1806100206000396000f3fe608060405234801561001057600080fd5b50600436106100cf5760003560e01c806384fed32a1161008c578063a53308dc11610066578063a53308dc14610221578063ccc5ffe914610254578063e91926f114610285578063f89c26d0146102b5576100cf565b806384fed32a146101b9578063931b87e6146101d557806394b08aa7146101f1576100cf565b80631a1089c2146100d45780631c8b4c2b1461010557806332cb2364146101215780633ee036871461013d57806354e3e36e146101595780635fe2004714610189575b600080fd5b6100ee60048036038101906100e9919061094a565b6102e5565b6040516100fc929190610993565b60405180910390f35b61011f600480360381019061011a9190610a1a565b61032d565b005b61013b60048036038101906101369190610a7f565b610371565b005b61015760048036038101906101529190610a7f565b610413565b005b610173600480360381019061016e919061094a565b610442565b6040516101809190610ace565b60405180910390f35b6101a3600480360381019061019e919061094a565b610462565b6040516101b09190610ae9565b60405180910390f35b6101d360048036038101906101ce9190610b30565b61048c565b005b6101ef60048036038101906101ea9190610bab565b6106be565b005b61020b6004803603810190610206919061094a565b610735565b6040516102189190610ae9565b60405180910390f35b61023b6004803603810190610236919061094a565b610755565b60405161024b9493929190610beb565b60405180910390f35b61026e6004803603810190610269919061094a565b6107b9565b60405161027c929190610993565b60405180910390f35b61029f600480360381019061029a919061094a565b610801565b6040516102ac9190610ace565b60405180910390f35b6102cf60048036038101906102ca919061094a565b61082a565b6040516102dc9190610ace565b60405180910390f35b60008060006001600085815260200190815260200160002090508060000160029054906101000a900460ff168160000160039054906101000a900460ff169250925050915091565b80600460006101000a81548173ffffffffffffffffffffffffffffffffffffffff021916908373ffffffffffffffffffffffffffffffffffffffff16021790555050565b61037a8261084a565b6103b9576040517f08c379a00000000000000000000000000000000000000000000000000000000081526004016103b090610cb3565b60405180910390fd5b8060008084815260200190815260200160002060006101000a81548160ff02191690831515021790555060006003600084815260200190815260200160002060006101000a81548160ff0219169083151502179055505050565b806003600084815260200190815260200160002060006101000a81548160ff0219169083151502179055505050565b60036020528060005260406000206000915054906101000a900460ff1681565b60006002600083815260200190815260200160002060009054906101000a900460ff169050919050565b60178460ff1611156104d3576040517f08c379a00000000000000000000000000000000000000000000000000000000081526004016104ca90610d45565b60405180910390fd5b603b8360ff16111561051a576040517f08c379a000000000000000000000000000000000000000000000000000000000815260040161051190610dd7565b60405180910390fd5b60178260ff161115610561576040517f08c379a000000000000000000000000000000000000000000000000000000000815260040161055890610e69565b60405180910390fd5b603b8160ff1611156105a8576040517f08c379a000000000000000000000000000000000000000000000000000000000815260040161059f90610efb565b60405180910390fd5b6105b18561084a565b6105f0576040517f08c379a00000000000000000000000000000000000000000000000000000000081526004016105e790610f8d565b60405180910390fd5b60405180608001604052808560ff1681526020018460ff1681526020018360ff1681526020018260ff168152506001600087815260200190815260200160002060008201518160000160006101000a81548160ff021916908360ff16021790555060208201518160000160016101000a81548160ff021916908360ff16021790555060408201518160000160026101000a81548160ff021916908360ff16021790555060608201518160000160036101000a81548160ff021916908360ff1602179055509050505050505050565b60178160ff161115610705576040517f08c379a00000000000000000000000000000000000000000000000000000000081526004016106fc9061101f565b60405180910390fd5b806002600084815260200190815260200160002060006101000a81548160ff021916908360ff1602179055505050565b60026020528060005260406000206000915054906101000a900460ff1681565b60016020528060005260406000206000915090508060000160009054906101000a900460ff16908060000160019054906101000a900460ff16908060000160029054906101000a900460ff16908060000160039054906101000a900460ff16905084565b60008060006001600085815260200190815260200160002090508060000160009054906101000a900460ff168160000160019054906101000a900460ff169250925050915091565b600080600083815260200190815260200160002060009054906101000a900460ff169050919050565b60006020528060005260406000206000915054906101000a900460ff1681565b60003373ffffffffffffffffffffffffffffffffffffffff1673cf7ed3acca5a467e9e704c703e8d87f634fb0fc973ffffffffffffffffffffffffffffffffffffffff16636352211e846040518263ffffffff1660e01b81526004016108b0919061104e565b602060405180830381865afa1580156108cd573d6000803e3d6000fd5b505050506040513d601f19601f820116820180604052508101906108f1919061107e565b73ffffffffffffffffffffffffffffffffffffffff16149050919050565b600080fd5b6000819050919050565b61092781610914565b811461093257600080fd5b50565b6000813590506109448161091e565b92915050565b6000602082840312156109605761095f61090f565b5b600061096e84828501610935565b91505092915050565b600060ff82169050919050565b61098d81610977565b82525050565b60006040820190506109a86000830185610984565b6109b56020830184610984565b9392505050565b600073ffffffffffffffffffffffffffffffffffffffff82169050919050565b60006109e7826109bc565b9050919050565b6109f7816109dc565b8114610a0257600080fd5b50565b600081359050610a14816109ee565b92915050565b600060208284031215610a3057610a2f61090f565b5b6000610a3e84828501610a05565b91505092915050565b60008115159050919050565b610a5c81610a47565b8114610a6757600080fd5b50565b600081359050610a7981610a53565b92915050565b60008060408385031215610a9657610a9561090f565b5b6000610aa485828601610935565b9250506020610ab585828601610a6a565b9150509250929050565b610ac881610a47565b82525050565b6000602082019050610ae36000830184610abf565b92915050565b6000602082019050610afe6000830184610984565b92915050565b610b0d81610977565b8114610b1857600080fd5b50565b600081359050610b2a81610b04565b92915050565b600080600080600060a08688031215610b4c57610b4b61090f565b5b6000610b5a88828901610935565b9550506020610b6b88828901610b1b565b9450506040610b7c88828901610b1b565b9350506060610b8d88828901610b1b565b9250506080610b9e88828901610b1b565b9150509295509295909350565b60008060408385031215610bc257610bc161090f565b5b6000610bd085828601610935565b9250506020610be185828601610b1b565b9150509250929050565b6000608082019050610c006000830187610984565b610c0d6020830186610984565b610c1a6040830185610984565b610c276060830184610984565b95945050505050565b600082825260208201905092915050565b7f4e6f7420617070726f76656420746f20757064617465207061726b696e67207360008201527f706f7420417661696c6162696c69747900000000000000000000000000000000602082015250565b6000610c9d603083610c30565b9150610ca882610c41565b604082019050919050565b60006020820190508181036000830152610ccc81610c90565b9050919050565b7f537461727420686f7572206d757374206265206265747765656e203020616e6460008201527f2032330000000000000000000000000000000000000000000000000000000000602082015250565b6000610d2f602383610c30565b9150610d3a82610cd3565b604082019050919050565b60006020820190508181036000830152610d5e81610d22565b9050919050565b7f5374617274206d696e757465206d757374206265206265747765656e2030206160008201527f6e64203539000000000000000000000000000000000000000000000000000000602082015250565b6000610dc1602583610c30565b9150610dcc82610d65565b604082019050919050565b60006020820190508181036000830152610df081610db4565b9050919050565b7f456e6420686f7572206d757374206265206265747765656e203020616e64203260008201527f3300000000000000000000000000000000000000000000000000000000000000602082015250565b6000610e53602183610c30565b9150610e5e82610df7565b604082019050919050565b60006020820190508181036000830152610e8281610e46565b9050919050565b7f456e64206d696e757465206d757374206265206265747765656e203020616e6460008201527f2035390000000000000000000000000000000000000000000000000000000000602082015250565b6000610ee5602383610c30565b9150610ef082610e89565b604082019050919050565b60006020820190508181036000830152610f1481610ed8565b9050919050565b7f4e6f7420617070726f76656420746f20757064617465207061726b696e67207360008201527f706f7420617661696c6162696c6974792074696d657300000000000000000000602082015250565b6000610f77603683610c30565b9150610f8282610f1b565b604082019050919050565b60006020820190508181036000830152610fa681610f6a565b9050919050565b7f54696d657a6f6e65206d757374206265206265747765656e203020616e64203260008201527f3300000000000000000000000000000000000000000000000000000000000000602082015250565b6000611009602183610c30565b915061101482610fad565b604082019050919050565b6000602082019050818103600083015261103881610ffc565b9050919050565b61104881610914565b82525050565b6000602082019050611063600083018461103f565b92915050565b600081519050611078816109ee565b92915050565b6000602082840312156110945761109361090f565b5b60006110a284828501611069565b9150509291505056fea264697066735822122015044397264b0e00b9acea20cfafd7bb10068ee8c5e5f5c8e1390a032f63b29064736f6c634300080c0033",
  "devdoc": {
    "kind": "dev",
    "methods": {},
    "version": 1
  },
  "userdoc": {
    "kind": "user",
    "methods": {},
    "version": 1
  },
  "storageLayout": {
    "storage": [
      {
        "astId": 8593,
        "contract": "contracts/ParkingSpotAttributes.sol:ParkingSpotAttributes",
        "label": "spot_available",
        "offset": 0,
        "slot": "0",
        "type": "t_mapping(t_uint256,t_bool)"
      },
      {
        "astId": 8598,
        "contract": "contracts/ParkingSpotAttributes.sol:ParkingSpotAttributes",
        "label": "permittedParkingTime",
        "offset": 0,
        "slot": "1",
        "type": "t_mapping(t_uint256,t_struct(availabilityTimes)8589_storage)"
      },
      {
        "astId": 8602,
        "contract": "contracts/ParkingSpotAttributes.sol:ParkingSpotAttributes",
        "label": "parkingSpotTimeZone",
        "offset": 0,
        "slot": "2",
        "type": "t_mapping(t_uint256,t_uint8)"
      },
      {
        "astId": 8606,
        "contract": "contracts/ParkingSpotAttributes.sol:ParkingSpotAttributes",
        "label": "spotInUse",
        "offset": 0,
        "slot": "3",
        "type": "t_mapping(t_uint256,t_bool)"
      },
      {
        "astId": 8608,
        "contract": "contracts/ParkingSpotAttributes.sol:ParkingSpotAttributes",
        "label": "requestParkingSpotTokenAddress",
        "offset": 0,
        "slot": "4",
        "type": "t_address"
      }
    ],
    "types": {
      "t_address": {
        "encoding": "inplace",
        "label": "address",
        "numberOfBytes": "20"
      },
      "t_bool": {
        "encoding": "inplace",
        "label": "bool",
        "numberOfBytes": "1"
      },
      "t_mapping(t_uint256,t_bool)": {
        "encoding": "mapping",
        "key": "t_uint256",
        "label": "mapping(uint256 => bool)",
        "numberOfBytes": "32",
        "value": "t_bool"
      },
      "t_mapping(t_uint256,t_struct(availabilityTimes)8589_storage)": {
        "encoding": "mapping",
        "key": "t_uint256",
        "label": "mapping(uint256 => struct ParkingSpotAttributes.availabilityTimes)",
        "numberOfBytes": "32",
        "value": "t_struct(availabilityTimes)8589_storage"
      },
      "t_mapping(t_uint256,t_uint8)": {
        "encoding": "mapping",
        "key": "t_uint256",
        "label": "mapping(uint256 => uint8)",
        "numberOfBytes": "32",
        "value": "t_uint8"
      },
      "t_struct(availabilityTimes)8589_storage": {
        "encoding": "inplace",
        "label": "struct ParkingSpotAttributes.availabilityTimes",
        "members": [
          {
            "astId": 8582,
            "contract": "contracts/ParkingSpotAttributes.sol:ParkingSpotAttributes",
            "label": "startHour",
            "offset": 0,
            "slot": "0",
            "type": "t_uint8"
          },
          {
            "astId": 8584,
            "contract": "contracts/ParkingSpotAttributes.sol:ParkingSpotAttributes",
            "label": "startMinute",
            "offset": 1,
            "slot": "0",
            "type": "t_uint8"
          },
          {
            "astId": 8586,
            "contract": "contracts/ParkingSpotAttributes.sol:ParkingSpotAttributes",
            "label": "endHour",
            "offset": 2,
            "slot": "0",
            "type": "t_uint8"
          },
          {
            "astId": 8588,
            "contract": "contracts/ParkingSpotAttributes.sol:ParkingSpotAttributes",
            "label": "endMinute",
            "offset": 3,
            "slot": "0",
            "type": "t_uint8"
          }
        ],
        "numberOfBytes": "32"
      },
      "t_uint256": {
        "encoding": "inplace",
        "label": "uint256",
        "numberOfBytes": "32"
      },
      "t_uint8": {
        "encoding": "inplace",
        "label": "uint8",
        "numberOfBytes": "1"
      }
    }
  }
}