{
  "address": "0xDc64a140Aa3E981100a9becA4E685f962f0cF6C9",
  "abi": [
    {
      "inputs": [
        {
          "internalType": "uint256",
          "name": "_parking_spot_id",
          "type": "uint256"
        }
      ],
      "name": "checkSpotAvailability",
      "outputs": [
        {
          "internalType": "bool",
          "name": "",
          "type": "bool"
        }
      ],
      "stateMutability": "view",
      "type": "function"
    },
    {
      "inputs": [
        {
          "internalType": "uint256",
          "name": "_parking_spot_id",
          "type": "uint256"
        }
      ],
      "name": "checkSpotPermittedParkingEndTime",
      "outputs": [
        {
          "internalType": "uint8",
          "name": "",
          "type": "uint8"
        },
        {
          "internalType": "uint8",
          "name": "",
          "type": "uint8"
        }
      ],
      "stateMutability": "view",
      "type": "function"
    },
    {
      "inputs": [
        {
          "internalType": "uint256",
          "name": "_parking_spot_id",
          "type": "uint256"
        }
      ],
      "name": "checkSpotPermittedParkingStartTime",
      "outputs": [
        {
          "internalType": "uint8",
          "name": "",
          "type": "uint8"
        },
        {
          "internalType": "uint8",
          "name": "",
          "type": "uint8"
        }
      ],
      "stateMutability": "view",
      "type": "function"
    },
    {
      "inputs": [
        {
          "internalType": "uint256",
          "name": "",
          "type": "uint256"
        }
      ],
      "name": "permittedParkingTime",
      "outputs": [
        {
          "internalType": "uint8",
          "name": "startHour",
          "type": "uint8"
        },
        {
          "internalType": "uint8",
          "name": "startMinute",
          "type": "uint8"
        },
        {
          "internalType": "uint8",
          "name": "endHour",
          "type": "uint8"
        },
        {
          "internalType": "uint8",
          "name": "endMinute",
          "type": "uint8"
        }
      ],
      "stateMutability": "view",
      "type": "function"
    },
    {
      "inputs": [
        {
          "internalType": "uint256",
          "name": "_parking_spot_id",
          "type": "uint256"
        },
        {
          "internalType": "bool",
          "name": "_availability",
          "type": "bool"
        }
      ],
      "name": "setSpotAvailability",
      "outputs": [],
      "stateMutability": "nonpayable",
      "type": "function"
    },
    {
      "inputs": [
        {
          "internalType": "uint256",
          "name": "_parking_spot_id",
          "type": "uint256"
        },
        {
          "internalType": "uint8",
          "name": "_start_hour",
          "type": "uint8"
        },
        {
          "internalType": "uint8",
          "name": "_start_minute",
          "type": "uint8"
        },
        {
          "internalType": "uint8",
          "name": "_end_hour",
          "type": "uint8"
        },
        {
          "internalType": "uint8",
          "name": "_end_minute",
          "type": "uint8"
        }
      ],
      "name": "setSpotPermittedParkingTime",
      "outputs": [],
      "stateMutability": "nonpayable",
      "type": "function"
    },
    {
      "inputs": [
        {
          "internalType": "uint256",
          "name": "",
          "type": "uint256"
        }
      ],
      "name": "spot_available",
      "outputs": [
        {
          "internalType": "bool",
          "name": "",
          "type": "bool"
        }
      ],
      "stateMutability": "view",
      "type": "function"
    }
  ],
  "transactionHash": "0xdcc40c990e3bc2b8936df2a6602c2d37417576273c2c508f5bb027ed4bfd6161",
  "args": [],
  "numDeployments": 1,
  "solcInputHash": "cf6bd938d1ff699c5b3c6d9a7dbaf3bb",
  "bytecode": "0x608060405234801561001057600080fd5b50610998806100206000396000f3fe608060405234801561001057600080fd5b506004361061007d5760003560e01c8063a53308dc1161005b578063a53308dc146100eb578063ccc5ffe91461011e578063e91926f11461014f578063f89c26d01461017f5761007d565b80631a1089c21461008257806332cb2364146100b357806384fed32a146100cf575b600080fd5b61009c60048036038101906100979190610578565b6101af565b6040516100aa9291906105c1565b60405180910390f35b6100cd60048036038101906100c89190610622565b6101f7565b005b6100e960048036038101906100e4919061068e565b61026d565b005b61010560048036038101906101009190610578565b610383565b6040516101159493929190610709565b60405180910390f35b61013860048036038101906101339190610578565b6103e7565b6040516101469291906105c1565b60405180910390f35b61016960048036038101906101649190610578565b61042f565b604051610176919061075d565b60405180910390f35b61019960048036038101906101949190610578565b610458565b6040516101a6919061075d565b60405180910390f35b60008060006001600085815260200190815260200160002090508060000160029054906101000a900460ff168160000160039054906101000a900460ff169250925050915091565b61020082610478565b61023f576040517f08c379a0000000000000000000000000000000000000000000000000000000008152600401610236906107fb565b60405180910390fd5b8060008084815260200190815260200160002060006101000a81548160ff0219169083151502179055505050565b61027685610478565b6102b5576040517f08c379a00000000000000000000000000000000000000000000000000000000081526004016102ac9061088d565b60405180910390fd5b60405180608001604052808560ff1681526020018460ff1681526020018360ff1681526020018260ff168152506001600087815260200190815260200160002060008201518160000160006101000a81548160ff021916908360ff16021790555060208201518160000160016101000a81548160ff021916908360ff16021790555060408201518160000160026101000a81548160ff021916908360ff16021790555060608201518160000160036101000a81548160ff021916908360ff1602179055509050505050505050565b60016020528060005260406000206000915090508060000160009054906101000a900460ff16908060000160019054906101000a900460ff16908060000160029054906101000a900460ff16908060000160039054906101000a900460ff16905084565b60008060006001600085815260200190815260200160002090508060000160009054906101000a900460ff168160000160019054906101000a900460ff169250925050915091565b600080600083815260200190815260200160002060009054906101000a900460ff169050919050565b60006020528060005260406000206000915054906101000a900460ff1681565b60003373ffffffffffffffffffffffffffffffffffffffff1673cf7ed3acca5a467e9e704c703e8d87f634fb0fc973ffffffffffffffffffffffffffffffffffffffff16636352211e846040518263ffffffff1660e01b81526004016104de91906108bc565b602060405180830381865afa1580156104fb573d6000803e3d6000fd5b505050506040513d601f19601f8201168201806040525081019061051f9190610935565b73ffffffffffffffffffffffffffffffffffffffff16149050919050565b600080fd5b6000819050919050565b61055581610542565b811461056057600080fd5b50565b6000813590506105728161054c565b92915050565b60006020828403121561058e5761058d61053d565b5b600061059c84828501610563565b91505092915050565b600060ff82169050919050565b6105bb816105a5565b82525050565b60006040820190506105d660008301856105b2565b6105e360208301846105b2565b9392505050565b60008115159050919050565b6105ff816105ea565b811461060a57600080fd5b50565b60008135905061061c816105f6565b92915050565b600080604083850312156106395761063861053d565b5b600061064785828601610563565b92505060206106588582860161060d565b9150509250929050565b61066b816105a5565b811461067657600080fd5b50565b60008135905061068881610662565b92915050565b600080600080600060a086880312156106aa576106a961053d565b5b60006106b888828901610563565b95505060206106c988828901610679565b94505060406106da88828901610679565b93505060606106eb88828901610679565b92505060806106fc88828901610679565b9150509295509295909350565b600060808201905061071e60008301876105b2565b61072b60208301866105b2565b61073860408301856105b2565b61074560608301846105b2565b95945050505050565b610757816105ea565b82525050565b6000602082019050610772600083018461074e565b92915050565b600082825260208201905092915050565b7f4e6f7420617070726f76656420746f20757064617465207061726b696e67207360008201527f706f7420417661696c6162696c69747900000000000000000000000000000000602082015250565b60006107e5603083610778565b91506107f082610789565b604082019050919050565b60006020820190508181036000830152610814816107d8565b9050919050565b7f4e6f7420617070726f76656420746f20757064617465207061726b696e67207360008201527f706f7420617661696c6162696c6974792074696d657300000000000000000000602082015250565b6000610877603683610778565b91506108828261081b565b604082019050919050565b600060208201905081810360008301526108a68161086a565b9050919050565b6108b681610542565b82525050565b60006020820190506108d160008301846108ad565b92915050565b600073ffffffffffffffffffffffffffffffffffffffff82169050919050565b6000610902826108d7565b9050919050565b610912816108f7565b811461091d57600080fd5b50565b60008151905061092f81610909565b92915050565b60006020828403121561094b5761094a61053d565b5b600061095984828501610920565b9150509291505056fea2646970667358221220f4cd400934dc674fbaab46f671cb387e289f4256aac3803c0851e0426ee321ba64736f6c634300080c0033",
  "devdoc": {
    "kind": "dev",
    "methods": {},
    "version": 1
  },
  "userdoc": {
    "kind": "user",
    "methods": {},
    "version": 1
  },
  "storageLayout": {
    "storage": [
      {
        "astId": 7485,
        "contract": "contracts/ParkingSpotAttributes.sol:ParkingSpotAttributes",
        "label": "spot_available",
        "offset": 0,
        "slot": "0",
        "type": "t_mapping(t_uint256,t_bool)"
      },
      {
        "astId": 7490,
        "contract": "contracts/ParkingSpotAttributes.sol:ParkingSpotAttributes",
        "label": "permittedParkingTime",
        "offset": 0,
        "slot": "1",
        "type": "t_mapping(t_uint256,t_struct(availabilityTimes)7481_storage)"
      }
    ],
    "types": {
      "t_bool": {
        "encoding": "inplace",
        "label": "bool",
        "numberOfBytes": "1"
      },
      "t_mapping(t_uint256,t_bool)": {
        "encoding": "mapping",
        "key": "t_uint256",
        "label": "mapping(uint256 => bool)",
        "numberOfBytes": "32",
        "value": "t_bool"
      },
      "t_mapping(t_uint256,t_struct(availabilityTimes)7481_storage)": {
        "encoding": "mapping",
        "key": "t_uint256",
        "label": "mapping(uint256 => struct ParkingSpotAttributes.availabilityTimes)",
        "numberOfBytes": "32",
        "value": "t_struct(availabilityTimes)7481_storage"
      },
      "t_struct(availabilityTimes)7481_storage": {
        "encoding": "inplace",
        "label": "struct ParkingSpotAttributes.availabilityTimes",
        "members": [
          {
            "astId": 7474,
            "contract": "contracts/ParkingSpotAttributes.sol:ParkingSpotAttributes",
            "label": "startHour",
            "offset": 0,
            "slot": "0",
            "type": "t_uint8"
          },
          {
            "astId": 7476,
            "contract": "contracts/ParkingSpotAttributes.sol:ParkingSpotAttributes",
            "label": "startMinute",
            "offset": 1,
            "slot": "0",
            "type": "t_uint8"
          },
          {
            "astId": 7478,
            "contract": "contracts/ParkingSpotAttributes.sol:ParkingSpotAttributes",
            "label": "endHour",
            "offset": 2,
            "slot": "0",
            "type": "t_uint8"
          },
          {
            "astId": 7480,
            "contract": "contracts/ParkingSpotAttributes.sol:ParkingSpotAttributes",
            "label": "endMinute",
            "offset": 3,
            "slot": "0",
            "type": "t_uint8"
          }
        ],
        "numberOfBytes": "32"
      },
      "t_uint256": {
        "encoding": "inplace",
        "label": "uint256",
        "numberOfBytes": "32"
      },
      "t_uint8": {
        "encoding": "inplace",
        "label": "uint8",
        "numberOfBytes": "1"
      }
    }
  }
}