{
  "address": "0xCf7Ed3AccA5a467e9e704C703E8D87F634fB0Fc9",
  "abi": [
    {
      "inputs": [
        {
          "internalType": "address",
          "name": "_OffchainParkingDataResponseAddress",
          "type": "address"
        }
      ],
      "stateMutability": "nonpayable",
      "type": "constructor"
    },
    {
      "anonymous": false,
      "inputs": [
        {
          "indexed": true,
          "internalType": "address",
          "name": "owner",
          "type": "address"
        },
        {
          "indexed": true,
          "internalType": "address",
          "name": "approved",
          "type": "address"
        },
        {
          "indexed": true,
          "internalType": "uint256",
          "name": "tokenId",
          "type": "uint256"
        }
      ],
      "name": "Approval",
      "type": "event"
    },
    {
      "anonymous": false,
      "inputs": [
        {
          "indexed": true,
          "internalType": "address",
          "name": "owner",
          "type": "address"
        },
        {
          "indexed": true,
          "internalType": "address",
          "name": "operator",
          "type": "address"
        },
        {
          "indexed": false,
          "internalType": "bool",
          "name": "approved",
          "type": "bool"
        }
      ],
      "name": "ApprovalForAll",
      "type": "event"
    },
    {
      "anonymous": false,
      "inputs": [
        {
          "indexed": true,
          "internalType": "address",
          "name": "from",
          "type": "address"
        },
        {
          "indexed": true,
          "internalType": "address",
          "name": "to",
          "type": "address"
        },
        {
          "indexed": true,
          "internalType": "uint256",
          "name": "tokenId",
          "type": "uint256"
        }
      ],
      "name": "Transfer",
      "type": "event"
    },
    {
      "inputs": [
        {
          "internalType": "address",
          "name": "to",
          "type": "address"
        },
        {
          "internalType": "uint256",
          "name": "tokenId",
          "type": "uint256"
        }
      ],
      "name": "approve",
      "outputs": [],
      "stateMutability": "nonpayable",
      "type": "function"
    },
    {
      "inputs": [
        {
          "internalType": "address",
          "name": "owner",
          "type": "address"
        }
      ],
      "name": "balanceOf",
      "outputs": [
        {
          "internalType": "uint256",
          "name": "",
          "type": "uint256"
        }
      ],
      "stateMutability": "view",
      "type": "function"
    },
    {
      "inputs": [
        {
          "internalType": "uint256",
          "name": "tokenId",
          "type": "uint256"
        }
      ],
      "name": "getApproved",
      "outputs": [
        {
          "internalType": "address",
          "name": "",
          "type": "address"
        }
      ],
      "stateMutability": "view",
      "type": "function"
    },
    {
      "inputs": [
        {
          "internalType": "address",
          "name": "owner",
          "type": "address"
        },
        {
          "internalType": "address",
          "name": "operator",
          "type": "address"
        }
      ],
      "name": "isApprovedForAll",
      "outputs": [
        {
          "internalType": "bool",
          "name": "",
          "type": "bool"
        }
      ],
      "stateMutability": "view",
      "type": "function"
    },
    {
      "inputs": [
        {
          "internalType": "address",
          "name": "user",
          "type": "address"
        },
        {
          "internalType": "uint16",
          "name": "_index",
          "type": "uint16"
        }
      ],
      "name": "mintParkingSpot",
      "outputs": [
        {
          "internalType": "uint256",
          "name": "",
          "type": "uint256"
        }
      ],
      "stateMutability": "nonpayable",
      "type": "function"
    },
    {
      "inputs": [],
      "name": "name",
      "outputs": [
        {
          "internalType": "string",
          "name": "",
          "type": "string"
        }
      ],
      "stateMutability": "view",
      "type": "function"
    },
    {
      "inputs": [
        {
          "internalType": "uint256",
          "name": "tokenId",
          "type": "uint256"
        }
      ],
      "name": "ownerOf",
      "outputs": [
        {
          "internalType": "address",
          "name": "",
          "type": "address"
        }
      ],
      "stateMutability": "view",
      "type": "function"
    },
    {
      "inputs": [
        {
          "internalType": "uint16",
          "name": "_index",
          "type": "uint16"
        }
      ],
      "name": "prepareData",
      "outputs": [
        {
          "internalType": "string",
          "name": "",
          "type": "string"
        }
      ],
      "stateMutability": "nonpayable",
      "type": "function"
    },
    {
      "inputs": [
        {
          "internalType": "address",
          "name": "from",
          "type": "address"
        },
        {
          "internalType": "address",
          "name": "to",
          "type": "address"
        },
        {
          "internalType": "uint256",
          "name": "tokenId",
          "type": "uint256"
        }
      ],
      "name": "safeTransferFrom",
      "outputs": [],
      "stateMutability": "nonpayable",
      "type": "function"
    },
    {
      "inputs": [
        {
          "internalType": "address",
          "name": "from",
          "type": "address"
        },
        {
          "internalType": "address",
          "name": "to",
          "type": "address"
        },
        {
          "internalType": "uint256",
          "name": "tokenId",
          "type": "uint256"
        },
        {
          "internalType": "bytes",
          "name": "data",
          "type": "bytes"
        }
      ],
      "name": "safeTransferFrom",
      "outputs": [],
      "stateMutability": "nonpayable",
      "type": "function"
    },
    {
      "inputs": [
        {
          "internalType": "address",
          "name": "operator",
          "type": "address"
        },
        {
          "internalType": "bool",
          "name": "approved",
          "type": "bool"
        }
      ],
      "name": "setApprovalForAll",
      "outputs": [],
      "stateMutability": "nonpayable",
      "type": "function"
    },
    {
      "inputs": [
        {
          "internalType": "bytes32",
          "name": "",
          "type": "bytes32"
        }
      ],
      "name": "spotTokenised",
      "outputs": [
        {
          "internalType": "bool",
          "name": "",
          "type": "bool"
        }
      ],
      "stateMutability": "view",
      "type": "function"
    },
    {
      "inputs": [
        {
          "internalType": "bytes4",
          "name": "interfaceId",
          "type": "bytes4"
        }
      ],
      "name": "supportsInterface",
      "outputs": [
        {
          "internalType": "bool",
          "name": "",
          "type": "bool"
        }
      ],
      "stateMutability": "view",
      "type": "function"
    },
    {
      "inputs": [],
      "name": "symbol",
      "outputs": [
        {
          "internalType": "string",
          "name": "",
          "type": "string"
        }
      ],
      "stateMutability": "view",
      "type": "function"
    },
    {
      "inputs": [
        {
          "internalType": "uint256",
          "name": "tokenId",
          "type": "uint256"
        }
      ],
      "name": "tokenURI",
      "outputs": [
        {
          "internalType": "string",
          "name": "",
          "type": "string"
        }
      ],
      "stateMutability": "view",
      "type": "function"
    },
    {
      "inputs": [
        {
          "internalType": "address",
          "name": "from",
          "type": "address"
        },
        {
          "internalType": "address",
          "name": "to",
          "type": "address"
        },
        {
          "internalType": "uint256",
          "name": "tokenId",
          "type": "uint256"
        }
      ],
      "name": "transferFrom",
      "outputs": [],
      "stateMutability": "nonpayable",
      "type": "function"
    }
  ],
  "transactionHash": "0x7c5bff4fc88afb764064287ad6c9f1a0de6bb8720ab30ea99523aea0ed7f83a3",
  "args": [
    "0x9fE46736679d2D9a65F0992F2272dE9f3c7fa6e0"
  ],
  "numDeployments": 1,
  "solcInputHash": "58cf5698ee34bc9fbaa37165c70a6070",
  "bytecode": "0x60a0604052600860009054906101000a900473ffffffffffffffffffffffffffffffffffffffff1673ffffffffffffffffffffffffffffffffffffffff1660809073ffffffffffffffffffffffffffffffffffffffff168152503480156200006657600080fd5b50604051620032a7380380620032a783398181016040528101906200008c91906200028e565b6040518060400160405280601081526020017f5061726b696e6753706f74546f6b656e000000000000000000000000000000008152506040518060400160405280600381526020017f505354000000000000000000000000000000000000000000000000000000000081525081600090805190602001906200011092919062000174565b5080600190805190602001906200012992919062000174565b50505080600860006101000a81548173ffffffffffffffffffffffffffffffffffffffff021916908373ffffffffffffffffffffffffffffffffffffffff1602179055505062000325565b8280546200018290620002ef565b90600052602060002090601f016020900481019282620001a65760008555620001f2565b82601f10620001c157805160ff1916838001178555620001f2565b82800160010185558215620001f2579182015b82811115620001f1578251825591602001919060010190620001d4565b5b50905062000201919062000205565b5090565b5b808211156200022057600081600090555060010162000206565b5090565b600080fd5b600073ffffffffffffffffffffffffffffffffffffffff82169050919050565b6000620002568262000229565b9050919050565b620002688162000249565b81146200027457600080fd5b50565b60008151905062000288816200025d565b92915050565b600060208284031215620002a757620002a662000224565b5b6000620002b78482850162000277565b91505092915050565b7f4e487b7100000000000000000000000000000000000000000000000000000000600052602260045260246000fd5b600060028204905060018216806200030857607f821691505b602082108114156200031f576200031e620002c0565b5b50919050565b608051612f666200034160003960006114270152612f666000f3fe608060405234801561001057600080fd5b50600436106101005760003560e01c806370a0823111610097578063c7a348bc11610066578063c7a348bc146102bd578063c87b56dd146102ed578063cc6b64a41461031d578063e985e9c51461034d57610100565b806370a082311461023757806395d89b4114610267578063a22cb46514610285578063b88d4fde146102a157610100565b806323b872dd116100d357806323b872dd1461019f5780632d67219e146101bb57806342842e0e146101eb5780636352211e1461020757610100565b806301ffc9a71461010557806306fdde0314610135578063081812fc14610153578063095ea7b314610183575b600080fd5b61011f600480360381019061011a9190611cfc565b61037d565b60405161012c9190611d44565b60405180910390f35b61013d61045f565b60405161014a9190611df8565b60405180910390f35b61016d60048036038101906101689190611e50565b6104f1565b60405161017a9190611ebe565b60405180910390f35b61019d60048036038101906101989190611f05565b610537565b005b6101b960048036038101906101b49190611f45565b61064f565b005b6101d560048036038101906101d09190611fd2565b6106af565b6040516101e29190612021565b60405180910390f35b61020560048036038101906102009190611f45565b6106f5565b005b610221600480360381019061021c9190611e50565b610715565b60405161022e9190611ebe565b60405180910390f35b610251600480360381019061024c919061203c565b6107c7565b60405161025e9190612021565b60405180910390f35b61026f61087f565b60405161027c9190611df8565b60405180910390f35b61029f600480360381019061029a9190612095565b610911565b005b6102bb60048036038101906102b6919061220a565b610927565b005b6102d760048036038101906102d2919061228d565b610989565b6040516102e49190611df8565b60405180910390f35b61030760048036038101906103029190611e50565b6109af565b6040516103149190611df8565b60405180910390f35b610337600480360381019061033291906122f0565b610ac2565b6040516103449190611d44565b60405180910390f35b6103676004803603810190610362919061231d565b610ae2565b6040516103749190611d44565b60405180910390f35b60007f80ac58cd000000000000000000000000000000000000000000000000000000007bffffffffffffffffffffffffffffffffffffffffffffffffffffffff1916827bffffffffffffffffffffffffffffffffffffffffffffffffffffffff1916148061044857507f5b5e139f000000000000000000000000000000000000000000000000000000007bffffffffffffffffffffffffffffffffffffffffffffffffffffffff1916827bffffffffffffffffffffffffffffffffffffffffffffffffffffffff1916145b80610458575061045782610b76565b5b9050919050565b60606000805461046e9061238c565b80601f016020809104026020016040519081016040528092919081815260200182805461049a9061238c565b80156104e75780601f106104bc576101008083540402835291602001916104e7565b820191906000526020600020905b8154815290600101906020018083116104ca57829003601f168201915b5050505050905090565b60006104fc82610be0565b6004600083815260200190815260200160002060009054906101000a900473ffffffffffffffffffffffffffffffffffffffff169050919050565b600061054282610715565b90508073ffffffffffffffffffffffffffffffffffffffff168373ffffffffffffffffffffffffffffffffffffffff1614156105b3576040517f08c379a00000000000000000000000000000000000000000000000000000000081526004016105aa90612430565b60405180910390fd5b8073ffffffffffffffffffffffffffffffffffffffff166105d2610c2b565b73ffffffffffffffffffffffffffffffffffffffff1614806106015750610600816105fb610c2b565b610ae2565b5b610640576040517f08c379a0000000000000000000000000000000000000000000000000000000008152600401610637906124c2565b60405180910390fd5b61064a8383610c33565b505050565b61066061065a610c2b565b82610cec565b61069f576040517f08c379a000000000000000000000000000000000000000000000000000000000815260040161069690612554565b60405180910390fd5b6106aa838383610d81565b505050565b60006106bb6009610fe8565b60006106c683610989565b905060006106d46009610ffe565b90506106e0858261100c565b6106ea81836111e6565b809250505092915050565b61071083838360405180602001604052806000815250610927565b505050565b6000806002600084815260200190815260200160002060009054906101000a900473ffffffffffffffffffffffffffffffffffffffff169050600073ffffffffffffffffffffffffffffffffffffffff168173ffffffffffffffffffffffffffffffffffffffff1614156107be576040517f08c379a00000000000000000000000000000000000000000000000000000000081526004016107b5906125c0565b60405180910390fd5b80915050919050565b60008073ffffffffffffffffffffffffffffffffffffffff168273ffffffffffffffffffffffffffffffffffffffff161415610838576040517f08c379a000000000000000000000000000000000000000000000000000000000815260040161082f90612652565b60405180910390fd5b600360008373ffffffffffffffffffffffffffffffffffffffff1673ffffffffffffffffffffffffffffffffffffffff168152602001908152602001600020549050919050565b60606001805461088e9061238c565b80601f01602080910402602001604051908101604052809291908181526020018280546108ba9061238c565b80156109075780601f106108dc57610100808354040283529160200191610907565b820191906000526020600020905b8154815290600101906020018083116108ea57829003601f168201915b5050505050905090565b61092361091c610c2b565b838361125a565b5050565b610938610932610c2b565b83610cec565b610977576040517f08c379a000000000000000000000000000000000000000000000000000000000815260040161096e90612554565b60405180910390fd5b610983848484846113c7565b50505050565b6060600061099683611423565b905060006109a3826114c8565b90508092505050919050565b60606109ba82610be0565b60006006600084815260200190815260200160002080546109da9061238c565b80601f0160208091040260200160405190810160405280929190818152602001828054610a069061238c565b8015610a535780601f10610a2857610100808354040283529160200191610a53565b820191906000526020600020905b815481529060010190602001808311610a3657829003601f168201915b505050505090506000610a64611586565b9050600081511415610a7a578192505050610abd565b600082511115610aaf578082604051602001610a979291906126ae565b60405160208183030381529060405292505050610abd565b610ab88461159d565b925050505b919050565b60076020528060005260406000206000915054906101000a900460ff1681565b6000600560008473ffffffffffffffffffffffffffffffffffffffff1673ffffffffffffffffffffffffffffffffffffffff16815260200190815260200160002060008373ffffffffffffffffffffffffffffffffffffffff1673ffffffffffffffffffffffffffffffffffffffff16815260200190815260200160002060009054906101000a900460ff16905092915050565b60007f01ffc9a7000000000000000000000000000000000000000000000000000000007bffffffffffffffffffffffffffffffffffffffffffffffffffffffff1916827bffffffffffffffffffffffffffffffffffffffffffffffffffffffff1916149050919050565b610be981611605565b610c28576040517f08c379a0000000000000000000000000000000000000000000000000000000008152600401610c1f906125c0565b60405180910390fd5b50565b600033905090565b816004600083815260200190815260200160002060006101000a81548173ffffffffffffffffffffffffffffffffffffffff021916908373ffffffffffffffffffffffffffffffffffffffff160217905550808273ffffffffffffffffffffffffffffffffffffffff16610ca683610715565b73ffffffffffffffffffffffffffffffffffffffff167f8c5be1e5ebec7d5bd14f71427d1e84f3dd0314c0f7b2291e5b200ac8c7c3b92560405160405180910390a45050565b600080610cf883610715565b90508073ffffffffffffffffffffffffffffffffffffffff168473ffffffffffffffffffffffffffffffffffffffff161480610d3a5750610d398185610ae2565b5b80610d7857508373ffffffffffffffffffffffffffffffffffffffff16610d60846104f1565b73ffffffffffffffffffffffffffffffffffffffff16145b91505092915050565b8273ffffffffffffffffffffffffffffffffffffffff16610da182610715565b73ffffffffffffffffffffffffffffffffffffffff1614610df7576040517f08c379a0000000000000000000000000000000000000000000000000000000008152600401610dee90612744565b60405180910390fd5b600073ffffffffffffffffffffffffffffffffffffffff168273ffffffffffffffffffffffffffffffffffffffff161415610e67576040517f08c379a0000000000000000000000000000000000000000000000000000000008152600401610e5e906127d6565b60405180910390fd5b610e72838383611671565b610e7d600082610c33565b6001600360008573ffffffffffffffffffffffffffffffffffffffff1673ffffffffffffffffffffffffffffffffffffffff1681526020019081526020016000206000828254610ecd9190612825565b925050819055506001600360008473ffffffffffffffffffffffffffffffffffffffff1673ffffffffffffffffffffffffffffffffffffffff1681526020019081526020016000206000828254610f249190612859565b92505081905550816002600083815260200190815260200160002060006101000a81548173ffffffffffffffffffffffffffffffffffffffff021916908373ffffffffffffffffffffffffffffffffffffffff160217905550808273ffffffffffffffffffffffffffffffffffffffff168473ffffffffffffffffffffffffffffffffffffffff167fddf252ad1be2c89b69c2b068fc378daa952ba7f163c4a11628f55a4df523b3ef60405160405180910390a4610fe3838383611676565b505050565b6001816000016000828254019250508190555050565b600081600001549050919050565b600073ffffffffffffffffffffffffffffffffffffffff168273ffffffffffffffffffffffffffffffffffffffff16141561107c576040517f08c379a0000000000000000000000000000000000000000000000000000000008152600401611073906128fb565b60405180910390fd5b61108581611605565b156110c5576040517f08c379a00000000000000000000000000000000000000000000000000000000081526004016110bc90612967565b60405180910390fd5b6110d160008383611671565b6001600360008473ffffffffffffffffffffffffffffffffffffffff1673ffffffffffffffffffffffffffffffffffffffff16815260200190815260200160002060008282546111219190612859565b92505081905550816002600083815260200190815260200160002060006101000a81548173ffffffffffffffffffffffffffffffffffffffff021916908373ffffffffffffffffffffffffffffffffffffffff160217905550808273ffffffffffffffffffffffffffffffffffffffff16600073ffffffffffffffffffffffffffffffffffffffff167fddf252ad1be2c89b69c2b068fc378daa952ba7f163c4a11628f55a4df523b3ef60405160405180910390a46111e260008383611676565b5050565b6111ef82611605565b61122e576040517f08c379a0000000000000000000000000000000000000000000000000000000008152600401611225906129f9565b60405180910390fd5b80600660008481526020019081526020016000209080519060200190611255929190611bed565b505050565b8173ffffffffffffffffffffffffffffffffffffffff168373ffffffffffffffffffffffffffffffffffffffff1614156112c9576040517f08c379a00000000000000000000000000000000000000000000000000000000081526004016112c090612a65565b60405180910390fd5b80600560008573ffffffffffffffffffffffffffffffffffffffff1673ffffffffffffffffffffffffffffffffffffffff16815260200190815260200160002060008473ffffffffffffffffffffffffffffffffffffffff1673ffffffffffffffffffffffffffffffffffffffff16815260200190815260200160002060006101000a81548160ff0219169083151502179055508173ffffffffffffffffffffffffffffffffffffffff168373ffffffffffffffffffffffffffffffffffffffff167f17307eab39ab6107e8899845ad3d59bd9653f200f220920489ca2b5937696c31836040516113ba9190611d44565b60405180910390a3505050565b6113d2848484610d81565b6113de8484848461167b565b61141d576040517f08c379a000000000000000000000000000000000000000000000000000000000815260040161141490612af7565b60405180910390fd5b50505050565b60007f000000000000000000000000000000000000000000000000000000000000000073ffffffffffffffffffffffffffffffffffffffff16630902d94933846040518363ffffffff1660e01b8152600401611480929190612b26565b602060405180830381865afa15801561149d573d6000803e3d6000fd5b505050506040513d601f19601f820116820180604052508101906114c19190612b64565b9050919050565b60606114d382611803565b15611513576040517f08c379a000000000000000000000000000000000000000000000000000000000815260040161150a90612c03565b60405180910390fd5b6000604051806060016040528060318152602001612f0060319139905060006115533373ffffffffffffffffffffffffffffffffffffffff16602061182d565b90506000828260405160200161156a9291906126ae565b6040516020818303038152906040529050809350505050919050565b606060405180602001604052806000815250905090565b60606115a882610be0565b60006115b2611586565b905060008151116115d257604051806020016040528060008152506115fd565b806115dc84611a69565b6040516020016115ed9291906126ae565b6040516020818303038152906040525b915050919050565b60008073ffffffffffffffffffffffffffffffffffffffff166002600084815260200190815260200160002060009054906101000a900473ffffffffffffffffffffffffffffffffffffffff1673ffffffffffffffffffffffffffffffffffffffff1614159050919050565b505050565b505050565b600061169c8473ffffffffffffffffffffffffffffffffffffffff16611bca565b156117f6578373ffffffffffffffffffffffffffffffffffffffff1663150b7a026116c5610c2b565b8786866040518563ffffffff1660e01b81526004016116e79493929190612c78565b6020604051808303816000875af192505050801561172357506040513d601f19601f820116820180604052508101906117209190612cd9565b60015b6117a6573d8060008114611753576040519150601f19603f3d011682016040523d82523d6000602084013e611758565b606091505b5060008151141561179e576040517f08c379a000000000000000000000000000000000000000000000000000000000815260040161179590612af7565b60405180910390fd5b805181602001fd5b63150b7a0260e01b7bffffffffffffffffffffffffffffffffffffffffffffffffffffffff1916817bffffffffffffffffffffffffffffffffffffffffffffffffffffffff1916149150506117fb565b600190505b949350505050565b60006007600083815260200190815260200160002060009054906101000a900460ff169050919050565b6060600060028360026118409190612d06565b61184a9190612859565b67ffffffffffffffff811115611863576118626120df565b5b6040519080825280601f01601f1916602001820160405280156118955781602001600182028036833780820191505090505b5090507f3000000000000000000000000000000000000000000000000000000000000000816000815181106118cd576118cc612d60565b5b60200101907effffffffffffffffffffffffffffffffffffffffffffffffffffffffffffff1916908160001a9053507f78000000000000000000000000000000000000000000000000000000000000008160018151811061193157611930612d60565b5b60200101907effffffffffffffffffffffffffffffffffffffffffffffffffffffffffffff1916908160001a905350600060018460026119719190612d06565b61197b9190612859565b90505b6001811115611a1b577f3031323334353637383961626364656600000000000000000000000000000000600f8616601081106119bd576119bc612d60565b5b1a60f81b8282815181106119d4576119d3612d60565b5b60200101907effffffffffffffffffffffffffffffffffffffffffffffffffffffffffffff1916908160001a905350600485901c945080611a1490612d8f565b905061197e565b5060008414611a5f576040517f08c379a0000000000000000000000000000000000000000000000000000000008152600401611a5690612e05565b60405180910390fd5b8091505092915050565b60606000821415611ab1576040518060400160405280600181526020017f30000000000000000000000000000000000000000000000000000000000000008152509050611bc5565b600082905060005b60008214611ae3578080611acc90612e25565b915050600a82611adc9190612e9d565b9150611ab9565b60008167ffffffffffffffff811115611aff57611afe6120df565b5b6040519080825280601f01601f191660200182016040528015611b315781602001600182028036833780820191505090505b5090505b60008514611bbe57600182611b4a9190612825565b9150600a85611b599190612ece565b6030611b659190612859565b60f81b818381518110611b7b57611b7a612d60565b5b60200101907effffffffffffffffffffffffffffffffffffffffffffffffffffffffffffff1916908160001a905350600a85611bb79190612e9d565b9450611b35565b8093505050505b919050565b6000808273ffffffffffffffffffffffffffffffffffffffff163b119050919050565b828054611bf99061238c565b90600052602060002090601f016020900481019282611c1b5760008555611c62565b82601f10611c3457805160ff1916838001178555611c62565b82800160010185558215611c62579182015b82811115611c61578251825591602001919060010190611c46565b5b509050611c6f9190611c73565b5090565b5b80821115611c8c576000816000905550600101611c74565b5090565b6000604051905090565b600080fd5b600080fd5b60007fffffffff0000000000000000000000000000000000000000000000000000000082169050919050565b611cd981611ca4565b8114611ce457600080fd5b50565b600081359050611cf681611cd0565b92915050565b600060208284031215611d1257611d11611c9a565b5b6000611d2084828501611ce7565b91505092915050565b60008115159050919050565b611d3e81611d29565b82525050565b6000602082019050611d596000830184611d35565b92915050565b600081519050919050565b600082825260208201905092915050565b60005b83811015611d99578082015181840152602081019050611d7e565b83811115611da8576000848401525b50505050565b6000601f19601f8301169050919050565b6000611dca82611d5f565b611dd48185611d6a565b9350611de4818560208601611d7b565b611ded81611dae565b840191505092915050565b60006020820190508181036000830152611e128184611dbf565b905092915050565b6000819050919050565b611e2d81611e1a565b8114611e3857600080fd5b50565b600081359050611e4a81611e24565b92915050565b600060208284031215611e6657611e65611c9a565b5b6000611e7484828501611e3b565b91505092915050565b600073ffffffffffffffffffffffffffffffffffffffff82169050919050565b6000611ea882611e7d565b9050919050565b611eb881611e9d565b82525050565b6000602082019050611ed36000830184611eaf565b92915050565b611ee281611e9d565b8114611eed57600080fd5b50565b600081359050611eff81611ed9565b92915050565b60008060408385031215611f1c57611f1b611c9a565b5b6000611f2a85828601611ef0565b9250506020611f3b85828601611e3b565b9150509250929050565b600080600060608486031215611f5e57611f5d611c9a565b5b6000611f6c86828701611ef0565b9350506020611f7d86828701611ef0565b9250506040611f8e86828701611e3b565b9150509250925092565b600061ffff82169050919050565b611faf81611f98565b8114611fba57600080fd5b50565b600081359050611fcc81611fa6565b92915050565b60008060408385031215611fe957611fe8611c9a565b5b6000611ff785828601611ef0565b925050602061200885828601611fbd565b9150509250929050565b61201b81611e1a565b82525050565b60006020820190506120366000830184612012565b92915050565b60006020828403121561205257612051611c9a565b5b600061206084828501611ef0565b91505092915050565b61207281611d29565b811461207d57600080fd5b50565b60008135905061208f81612069565b92915050565b600080604083850312156120ac576120ab611c9a565b5b60006120ba85828601611ef0565b92505060206120cb85828601612080565b9150509250929050565b600080fd5b600080fd5b7f4e487b7100000000000000000000000000000000000000000000000000000000600052604160045260246000fd5b61211782611dae565b810181811067ffffffffffffffff82111715612136576121356120df565b5b80604052505050565b6000612149611c90565b9050612155828261210e565b919050565b600067ffffffffffffffff821115612175576121746120df565b5b61217e82611dae565b9050602081019050919050565b82818337600083830152505050565b60006121ad6121a88461215a565b61213f565b9050828152602081018484840111156121c9576121c86120da565b5b6121d484828561218b565b509392505050565b600082601f8301126121f1576121f06120d5565b5b813561220184826020860161219a565b91505092915050565b6000806000806080858703121561222457612223611c9a565b5b600061223287828801611ef0565b945050602061224387828801611ef0565b935050604061225487828801611e3b565b925050606085013567ffffffffffffffff81111561227557612274611c9f565b5b612281878288016121dc565b91505092959194509250565b6000602082840312156122a3576122a2611c9a565b5b60006122b184828501611fbd565b91505092915050565b6000819050919050565b6122cd816122ba565b81146122d857600080fd5b50565b6000813590506122ea816122c4565b92915050565b60006020828403121561230657612305611c9a565b5b6000612314848285016122db565b91505092915050565b6000806040838503121561233457612333611c9a565b5b600061234285828601611ef0565b925050602061235385828601611ef0565b9150509250929050565b7f4e487b7100000000000000000000000000000000000000000000000000000000600052602260045260246000fd5b600060028204905060018216806123a457607f821691505b602082108114156123b8576123b761235d565b5b50919050565b7f4552433732313a20617070726f76616c20746f2063757272656e74206f776e6560008201527f7200000000000000000000000000000000000000000000000000000000000000602082015250565b600061241a602183611d6a565b9150612425826123be565b604082019050919050565b600060208201905081810360008301526124498161240d565b9050919050565b7f4552433732313a20617070726f76652063616c6c6572206973206e6f7420746f60008201527f6b656e206f776e6572206e6f7220617070726f76656420666f7220616c6c0000602082015250565b60006124ac603e83611d6a565b91506124b782612450565b604082019050919050565b600060208201905081810360008301526124db8161249f565b9050919050565b7f4552433732313a2063616c6c6572206973206e6f7420746f6b656e206f776e6560008201527f72206e6f7220617070726f766564000000000000000000000000000000000000602082015250565b600061253e602e83611d6a565b9150612549826124e2565b604082019050919050565b6000602082019050818103600083015261256d81612531565b9050919050565b7f4552433732313a20696e76616c696420746f6b656e2049440000000000000000600082015250565b60006125aa601883611d6a565b91506125b582612574565b602082019050919050565b600060208201905081810360008301526125d98161259d565b9050919050565b7f4552433732313a2061646472657373207a65726f206973206e6f74206120766160008201527f6c6964206f776e65720000000000000000000000000000000000000000000000602082015250565b600061263c602983611d6a565b9150612647826125e0565b604082019050919050565b6000602082019050818103600083015261266b8161262f565b9050919050565b600081905092915050565b600061268882611d5f565b6126928185612672565b93506126a2818560208601611d7b565b80840191505092915050565b60006126ba828561267d565b91506126c6828461267d565b91508190509392505050565b7f4552433732313a207472616e736665722066726f6d20696e636f72726563742060008201527f6f776e6572000000000000000000000000000000000000000000000000000000602082015250565b600061272e602583611d6a565b9150612739826126d2565b604082019050919050565b6000602082019050818103600083015261275d81612721565b9050919050565b7f4552433732313a207472616e7366657220746f20746865207a65726f2061646460008201527f7265737300000000000000000000000000000000000000000000000000000000602082015250565b60006127c0602483611d6a565b91506127cb82612764565b604082019050919050565b600060208201905081810360008301526127ef816127b3565b9050919050565b7f4e487b7100000000000000000000000000000000000000000000000000000000600052601160045260246000fd5b600061283082611e1a565b915061283b83611e1a565b92508282101561284e5761284d6127f6565b5b828203905092915050565b600061286482611e1a565b915061286f83611e1a565b9250827fffffffffffffffffffffffffffffffffffffffffffffffffffffffffffffffff038211156128a4576128a36127f6565b5b828201905092915050565b7f4552433732313a206d696e7420746f20746865207a65726f2061646472657373600082015250565b60006128e5602083611d6a565b91506128f0826128af565b602082019050919050565b60006020820190508181036000830152612914816128d8565b9050919050565b7f4552433732313a20746f6b656e20616c7265616479206d696e74656400000000600082015250565b6000612951601c83611d6a565b915061295c8261291b565b602082019050919050565b6000602082019050818103600083015261298081612944565b9050919050565b7f45524337323155524953746f726167653a2055524920736574206f66206e6f6e60008201527f6578697374656e7420746f6b656e000000000000000000000000000000000000602082015250565b60006129e3602e83611d6a565b91506129ee82612987565b604082019050919050565b60006020820190508181036000830152612a12816129d6565b9050919050565b7f4552433732313a20617070726f766520746f2063616c6c657200000000000000600082015250565b6000612a4f601983611d6a565b9150612a5a82612a19565b602082019050919050565b60006020820190508181036000830152612a7e81612a42565b9050919050565b7f4552433732313a207472616e7366657220746f206e6f6e20455243373231526560008201527f63656976657220696d706c656d656e7465720000000000000000000000000000602082015250565b6000612ae1603283611d6a565b9150612aec82612a85565b604082019050919050565b60006020820190508181036000830152612b1081612ad4565b9050919050565b612b2081611f98565b82525050565b6000604082019050612b3b6000830185611eaf565b612b486020830184612b17565b9392505050565b600081519050612b5e816122c4565b92915050565b600060208284031215612b7a57612b79611c9a565b5b6000612b8884828501612b4f565b91505092915050565b7f5061726b696e672073706f7420636f2d6f7264696e617465732061726520616c60008201527f7265616479206d696e746564206173206120746f6b656e000000000000000000602082015250565b6000612bed603783611d6a565b9150612bf882612b91565b604082019050919050565b60006020820190508181036000830152612c1c81612be0565b9050919050565b600081519050919050565b600082825260208201905092915050565b6000612c4a82612c23565b612c548185612c2e565b9350612c64818560208601611d7b565b612c6d81611dae565b840191505092915050565b6000608082019050612c8d6000830187611eaf565b612c9a6020830186611eaf565b612ca76040830185612012565b8181036060830152612cb98184612c3f565b905095945050505050565b600081519050612cd381611cd0565b92915050565b600060208284031215612cef57612cee611c9a565b5b6000612cfd84828501612cc4565b91505092915050565b6000612d1182611e1a565b9150612d1c83611e1a565b9250817fffffffffffffffffffffffffffffffffffffffffffffffffffffffffffffffff0483118215151615612d5557612d546127f6565b5b828202905092915050565b7f4e487b7100000000000000000000000000000000000000000000000000000000600052603260045260246000fd5b6000612d9a82611e1a565b91506000821415612dae57612dad6127f6565b5b600182039050919050565b7f537472696e67733a20686578206c656e67746820696e73756666696369656e74600082015250565b6000612def602083611d6a565b9150612dfa82612db9565b602082019050919050565b60006020820190508181036000830152612e1e81612de2565b9050919050565b6000612e3082611e1a565b91507fffffffffffffffffffffffffffffffffffffffffffffffffffffffffffffffff821415612e6357612e626127f6565b5b600182019050919050565b7f4e487b7100000000000000000000000000000000000000000000000000000000600052601260045260246000fd5b6000612ea882611e1a565b9150612eb383611e1a565b925082612ec357612ec2612e6e565b5b828204905092915050565b6000612ed982611e1a565b9150612ee483611e1a565b925082612ef457612ef3612e6e565b5b82820690509291505056fe646174613a746578742f706c61696e3b636861727365743d5554462d382c7061726b696e6753706f744c61744c6f6e673aa264697066735822122001344d2b2a3e9376eac6378574c2372705cfeecb99d86f8f832560b7160692be64736f6c634300080c0033",
  "devdoc": {
    "kind": "dev",
    "methods": {
      "approve(address,uint256)": {
        "details": "See {IERC721-approve}."
      },
      "balanceOf(address)": {
        "details": "See {IERC721-balanceOf}."
      },
      "getApproved(uint256)": {
        "details": "See {IERC721-getApproved}."
      },
      "isApprovedForAll(address,address)": {
        "details": "See {IERC721-isApprovedForAll}."
      },
      "name()": {
        "details": "See {IERC721Metadata-name}."
      },
      "ownerOf(uint256)": {
        "details": "See {IERC721-ownerOf}."
      },
      "safeTransferFrom(address,address,uint256)": {
        "details": "See {IERC721-safeTransferFrom}."
      },
      "safeTransferFrom(address,address,uint256,bytes)": {
        "details": "See {IERC721-safeTransferFrom}."
      },
      "setApprovalForAll(address,bool)": {
        "details": "See {IERC721-setApprovalForAll}."
      },
      "supportsInterface(bytes4)": {
        "details": "See {IERC165-supportsInterface}."
      },
      "symbol()": {
        "details": "See {IERC721Metadata-symbol}."
      },
      "tokenURI(uint256)": {
        "details": "See {IERC721Metadata-tokenURI}."
      },
      "transferFrom(address,address,uint256)": {
        "details": "See {IERC721-transferFrom}."
      }
    },
    "version": 1
  },
  "userdoc": {
    "kind": "user",
    "methods": {},
    "version": 1
  },
  "storageLayout": {
    "storage": [
      {
        "astId": 3125,
        "contract": "contracts/ParkingSpotToken.sol:ParkingSpotToken",
        "label": "_name",
        "offset": 0,
        "slot": "0",
        "type": "t_string_storage"
      },
      {
        "astId": 3127,
        "contract": "contracts/ParkingSpotToken.sol:ParkingSpotToken",
        "label": "_symbol",
        "offset": 0,
        "slot": "1",
        "type": "t_string_storage"
      },
      {
        "astId": 3131,
        "contract": "contracts/ParkingSpotToken.sol:ParkingSpotToken",
        "label": "_owners",
        "offset": 0,
        "slot": "2",
        "type": "t_mapping(t_uint256,t_address)"
      },
      {
        "astId": 3135,
        "contract": "contracts/ParkingSpotToken.sol:ParkingSpotToken",
        "label": "_balances",
        "offset": 0,
        "slot": "3",
        "type": "t_mapping(t_address,t_uint256)"
      },
      {
        "astId": 3139,
        "contract": "contracts/ParkingSpotToken.sol:ParkingSpotToken",
        "label": "_tokenApprovals",
        "offset": 0,
        "slot": "4",
        "type": "t_mapping(t_uint256,t_address)"
      },
      {
        "astId": 3145,
        "contract": "contracts/ParkingSpotToken.sol:ParkingSpotToken",
        "label": "_operatorApprovals",
        "offset": 0,
        "slot": "5",
        "type": "t_mapping(t_address,t_mapping(t_address,t_bool))"
      },
      {
        "astId": 4113,
        "contract": "contracts/ParkingSpotToken.sol:ParkingSpotToken",
        "label": "_tokenURIs",
        "offset": 0,
        "slot": "6",
        "type": "t_mapping(t_uint256,t_string_storage)"
      },
      {
        "astId": 5330,
        "contract": "contracts/ParkingSpotToken.sol:ParkingSpotToken",
        "label": "spotTokenised",
        "offset": 0,
        "slot": "7",
        "type": "t_mapping(t_bytes32,t_bool)"
      },
      {
        "astId": 5332,
        "contract": "contracts/ParkingSpotToken.sol:ParkingSpotToken",
        "label": "OffchainParkingDataResponseAddress",
        "offset": 0,
        "slot": "8",
        "type": "t_address"
      },
      {
        "astId": 5339,
        "contract": "contracts/ParkingSpotToken.sol:ParkingSpotToken",
        "label": "_tokenIds",
        "offset": 0,
        "slot": "9",
        "type": "t_struct(Counter)4575_storage"
      }
    ],
    "types": {
      "t_address": {
        "encoding": "inplace",
        "label": "address",
        "numberOfBytes": "20"
      },
      "t_bool": {
        "encoding": "inplace",
        "label": "bool",
        "numberOfBytes": "1"
      },
      "t_bytes32": {
        "encoding": "inplace",
        "label": "bytes32",
        "numberOfBytes": "32"
      },
      "t_mapping(t_address,t_bool)": {
        "encoding": "mapping",
        "key": "t_address",
        "label": "mapping(address => bool)",
        "numberOfBytes": "32",
        "value": "t_bool"
      },
      "t_mapping(t_address,t_mapping(t_address,t_bool))": {
        "encoding": "mapping",
        "key": "t_address",
        "label": "mapping(address => mapping(address => bool))",
        "numberOfBytes": "32",
        "value": "t_mapping(t_address,t_bool)"
      },
      "t_mapping(t_address,t_uint256)": {
        "encoding": "mapping",
        "key": "t_address",
        "label": "mapping(address => uint256)",
        "numberOfBytes": "32",
        "value": "t_uint256"
      },
      "t_mapping(t_bytes32,t_bool)": {
        "encoding": "mapping",
        "key": "t_bytes32",
        "label": "mapping(bytes32 => bool)",
        "numberOfBytes": "32",
        "value": "t_bool"
      },
      "t_mapping(t_uint256,t_address)": {
        "encoding": "mapping",
        "key": "t_uint256",
        "label": "mapping(uint256 => address)",
        "numberOfBytes": "32",
        "value": "t_address"
      },
      "t_mapping(t_uint256,t_string_storage)": {
        "encoding": "mapping",
        "key": "t_uint256",
        "label": "mapping(uint256 => string)",
        "numberOfBytes": "32",
        "value": "t_string_storage"
      },
      "t_string_storage": {
        "encoding": "bytes",
        "label": "string",
        "numberOfBytes": "32"
      },
      "t_struct(Counter)4575_storage": {
        "encoding": "inplace",
        "label": "struct Counters.Counter",
        "members": [
          {
            "astId": 4574,
            "contract": "contracts/ParkingSpotToken.sol:ParkingSpotToken",
            "label": "_value",
            "offset": 0,
            "slot": "0",
            "type": "t_uint256"
          }
        ],
        "numberOfBytes": "32"
      },
      "t_uint256": {
        "encoding": "inplace",
        "label": "uint256",
        "numberOfBytes": "32"
      }
    }
  }
}