{
  "address": "0x5FC8d32690cc91D4c39d9d3abcBD16989F875707",
  "abi": [
    {
      "anonymous": false,
      "inputs": [
        {
          "indexed": false,
          "internalType": "uint256",
          "name": "tokenId",
          "type": "uint256"
        },
        {
          "indexed": false,
          "internalType": "bool",
          "name": "available",
          "type": "bool"
        }
      ],
      "name": "ParkingSpotAvailable",
      "type": "event"
    },
    {
      "anonymous": false,
      "inputs": [
        {
          "indexed": false,
          "internalType": "uint256",
          "name": "tokenId",
          "type": "uint256"
        },
        {
          "indexed": false,
          "internalType": "bool",
          "name": "inUse",
          "type": "bool"
        }
      ],
      "name": "ParkingSpotInUse",
      "type": "event"
    },
    {
      "anonymous": false,
      "inputs": [
        {
          "indexed": false,
          "internalType": "uint256",
          "name": "tokenId",
          "type": "uint256"
        },
        {
          "indexed": false,
          "internalType": "uint8",
          "name": "startHour",
          "type": "uint8"
        },
        {
          "indexed": false,
          "internalType": "uint8",
          "name": "startMinute",
          "type": "uint8"
        },
        {
          "indexed": false,
          "internalType": "uint8",
          "name": "endHour",
          "type": "uint8"
        },
        {
          "indexed": false,
          "internalType": "uint8",
          "name": "endMinute",
          "type": "uint8"
        }
      ],
      "name": "ParkingSpotPermittedTime",
      "type": "event"
    },
    {
      "anonymous": false,
      "inputs": [
        {
          "indexed": false,
          "internalType": "uint256",
          "name": "tokenId",
          "type": "uint256"
        },
        {
          "indexed": false,
          "internalType": "uint256",
          "name": "pricePerHour",
          "type": "uint256"
        }
      ],
      "name": "ParkingSpotPricePerHour",
      "type": "event"
    },
    {
      "inputs": [
        {
          "internalType": "uint256",
          "name": "_parking_spot_id",
          "type": "uint256"
        }
      ],
      "name": "checkParkingSpotTimezone",
      "outputs": [
        {
          "internalType": "uint8[2]",
          "name": "",
          "type": "uint8[2]"
        }
      ],
      "stateMutability": "view",
      "type": "function"
    },
    {
      "inputs": [
        {
          "internalType": "uint256",
          "name": "_parking_spot_id",
          "type": "uint256"
        }
      ],
      "name": "checkSpotAvailability",
      "outputs": [
        {
          "internalType": "bool",
          "name": "",
          "type": "bool"
        }
      ],
      "stateMutability": "view",
      "type": "function"
    },
    {
      "inputs": [
        {
          "internalType": "uint256",
          "name": "_parking_spot_id",
          "type": "uint256"
        }
      ],
      "name": "checkSpotPermittedParkingEndTime",
      "outputs": [
        {
          "internalType": "uint8",
          "name": "",
          "type": "uint8"
        },
        {
          "internalType": "uint8",
          "name": "",
          "type": "uint8"
        }
      ],
      "stateMutability": "view",
      "type": "function"
    },
    {
      "inputs": [
        {
          "internalType": "uint256",
          "name": "_parking_spot_id",
          "type": "uint256"
        }
      ],
      "name": "checkSpotPermittedParkingStartTime",
      "outputs": [
        {
          "internalType": "uint8",
          "name": "",
          "type": "uint8"
        },
        {
          "internalType": "uint8",
          "name": "",
          "type": "uint8"
        }
      ],
      "stateMutability": "view",
      "type": "function"
    },
    {
      "inputs": [
        {
          "internalType": "uint256",
          "name": "",
          "type": "uint256"
        },
        {
          "internalType": "uint256",
          "name": "",
          "type": "uint256"
        }
      ],
      "name": "parkingSpotTimeZone",
      "outputs": [
        {
          "internalType": "uint8",
          "name": "",
          "type": "uint8"
        }
      ],
      "stateMutability": "view",
      "type": "function"
    },
    {
      "inputs": [
        {
          "internalType": "uint256",
          "name": "",
          "type": "uint256"
        }
      ],
      "name": "permittedParkingTime",
      "outputs": [
        {
          "internalType": "uint8",
          "name": "startHour",
          "type": "uint8"
        },
        {
          "internalType": "uint8",
          "name": "startMinute",
          "type": "uint8"
        },
        {
          "internalType": "uint8",
          "name": "endHour",
          "type": "uint8"
        },
        {
          "internalType": "uint8",
          "name": "endMinute",
          "type": "uint8"
        }
      ],
      "stateMutability": "view",
      "type": "function"
    },
    {
      "inputs": [
        {
          "internalType": "uint256",
          "name": "",
          "type": "uint256"
        }
      ],
      "name": "pricePerHour",
      "outputs": [
        {
          "internalType": "uint256",
          "name": "",
          "type": "uint256"
        }
      ],
      "stateMutability": "view",
      "type": "function"
    },
    {
      "inputs": [
        {
          "internalType": "uint256",
          "name": "_parking_spot_id",
          "type": "uint256"
        },
        {
          "internalType": "uint8",
          "name": "_isNegative",
          "type": "uint8"
        },
        {
          "internalType": "uint8",
          "name": "_timezone",
          "type": "uint8"
        }
      ],
      "name": "setParkingSpotTimezone",
      "outputs": [],
      "stateMutability": "nonpayable",
      "type": "function"
    },
    {
      "inputs": [
        {
          "internalType": "uint256",
          "name": "_tokenId",
          "type": "uint256"
        },
        {
          "internalType": "uint256",
          "name": "_pricePerHour",
          "type": "uint256"
        }
      ],
      "name": "setPricePerHour",
      "outputs": [],
      "stateMutability": "nonpayable",
      "type": "function"
    },
    {
      "inputs": [
        {
          "internalType": "address",
          "name": "_requestParkingSpotTokenAddress",
          "type": "address"
        }
      ],
      "name": "setRequestParkingSpotTokenAddress",
      "outputs": [],
      "stateMutability": "nonpayable",
      "type": "function"
    },
    {
      "inputs": [
        {
          "internalType": "uint256",
          "name": "_parking_spot_id",
          "type": "uint256"
        },
        {
          "internalType": "bool",
          "name": "_availability",
          "type": "bool"
        }
      ],
      "name": "setSpotAvailability",
      "outputs": [],
      "stateMutability": "nonpayable",
      "type": "function"
    },
    {
      "inputs": [
        {
          "internalType": "uint256",
          "name": "_tokenId",
          "type": "uint256"
        },
        {
          "internalType": "bool",
          "name": "_inUse",
          "type": "bool"
        }
      ],
      "name": "setSpotInUse",
      "outputs": [],
      "stateMutability": "nonpayable",
      "type": "function"
    },
    {
      "inputs": [
        {
          "internalType": "uint256",
          "name": "_parking_spot_id",
          "type": "uint256"
        },
        {
          "internalType": "uint8",
          "name": "_start_hour",
          "type": "uint8"
        },
        {
          "internalType": "uint8",
          "name": "_start_minute",
          "type": "uint8"
        },
        {
          "internalType": "uint8",
          "name": "_end_hour",
          "type": "uint8"
        },
        {
          "internalType": "uint8",
          "name": "_end_minute",
          "type": "uint8"
        }
      ],
      "name": "setSpotPermittedParkingTime",
      "outputs": [],
      "stateMutability": "nonpayable",
      "type": "function"
    },
    {
      "inputs": [
        {
          "internalType": "uint256",
          "name": "",
          "type": "uint256"
        }
      ],
      "name": "spotInUse",
      "outputs": [
        {
          "internalType": "bool",
          "name": "",
          "type": "bool"
        }
      ],
      "stateMutability": "view",
      "type": "function"
    },
    {
      "inputs": [
        {
          "internalType": "uint256",
          "name": "",
          "type": "uint256"
        }
      ],
      "name": "spot_available",
      "outputs": [
        {
          "internalType": "bool",
          "name": "",
          "type": "bool"
        }
      ],
      "stateMutability": "view",
      "type": "function"
    }
  ],
  "transactionHash": "0x294d6c09054a5d713bf80124cf0a91dd509cc35ce77a18eb405b3b4088582d87",
  "args": [],
  "numDeployments": 1,
  "solcInputHash": "e24f100b127b27305d41242d8d398a7d",
  "bytecode": "0x608060405234801561001057600080fd5b5061159a806100206000396000f3fe608060405234801561001057600080fd5b50600436106100f55760003560e01c806367ed943811610097578063b0fb11de11610066578063b0fb11de14610296578063ccc5ffe9146102c6578063e91926f1146102f7578063f89c26d014610327576100f5565b806367ed9438146101fb578063828f74b11461021757806384fed32a14610247578063a53308dc14610263576100f5565b806332cb2364116100d357806332cb2364146101635780633ee036871461017f57806354e3e36e1461019b5780635fe20047146101cb576100f5565b806313ce43be146100fa5780631a1089c2146101165780631c8b4c2b14610147575b600080fd5b610114600480360381019061010f9190610c6b565b610357565b005b610130600480360381019061012b9190610cab565b6103ac565b60405161013e929190610cf4565b60405180910390f35b610161600480360381019061015c9190610d7b565b6103f4565b005b61017d60048036038101906101789190610de0565b610438565b005b61019960048036038101906101949190610de0565b610513565b005b6101b560048036038101906101b09190610cab565b61057b565b6040516101c29190610e2f565b60405180910390f35b6101e560048036038101906101e09190610cab565b61059b565b6040516101f29190610ef5565b60405180910390f35b61021560048036038101906102109190610f3c565b61061f565b005b610231600480360381019061022c9190610cab565b6106db565b60405161023e9190610f9e565b60405180910390f35b610261600480360381019061025c9190610fb9565b6106f3565b005b61027d60048036038101906102789190610cab565b610964565b60405161028d9493929190611034565b60405180910390f35b6102b060048036038101906102ab9190610c6b565b6109c8565b6040516102bd9190611079565b60405180910390f35b6102e060048036038101906102db9190610cab565b610a01565b6040516102ee929190610cf4565b60405180910390f35b610311600480360381019061030c9190610cab565b610a49565b60405161031e9190610e2f565b60405180910390f35b610341600480360381019061033c9190610cab565b610a72565b60405161034e9190610e2f565b60405180910390f35b8060046000848152602001908152602001600020819055507fc9d299536fe28f07f56405ebdd1001ace5b8f204d7192957268f78783cd19a7f82826040516103a0929190611094565b60405180910390a15050565b60008060006001600085815260200190815260200160002090508060000160029054906101000a900460ff168160000160039054906101000a900460ff169250925050915091565b80600560006101000a81548173ffffffffffffffffffffffffffffffffffffffff021916908373ffffffffffffffffffffffffffffffffffffffff16021790555050565b61044182610a92565b610480576040517f08c379a000000000000000000000000000000000000000000000000000000000815260040161047790611140565b60405180910390fd5b8060008084815260200190815260200160002060006101000a81548160ff02191690831515021790555060006003600084815260200190815260200160002060006101000a81548160ff0219169083151502179055507f7f12a953818ce2a4c28e20c2ac3bd92f650b9c596815c714de66103314822bab8282604051610507929190611160565b60405180910390a15050565b806003600084815260200190815260200160002060006101000a81548160ff0219169083151502179055507ff29ec9b4c643009497db9aef8925ee3d7a8a7d2b0bb92f2bc9b657a62a75ef16828260405161056f929190611160565b60405180910390a15050565b60036020528060005260406000206000915054906101000a900460ff1681565b6105a3610b57565b60026000838152602001908152602001600020600280602002604051908101604052809291908260028015610613576020028201916000905b82829054906101000a900460ff1660ff16815260200190600101906020826000010492830192600103820291508084116105dc5790505b50505050509050919050565b600e8160ff1611158015610636575060008260ff16145b806106545750600b8160ff1611158015610653575060018260ff16145b5b610693576040517f08c379a000000000000000000000000000000000000000000000000000000000815260040161068a906111d5565b60405180910390fd5b60405180604001604052808360ff1660ff1681526020018260ff1660ff16815250600260008581526020019081526020016000209060026106d5929190610b79565b50505050565b60046020528060005260406000206000915090505481565b60178460ff16111561073a576040517f08c379a000000000000000000000000000000000000000000000000000000000815260040161073190611267565b60405180910390fd5b603b8360ff161115610781576040517f08c379a0000000000000000000000000000000000000000000000000000000008152600401610778906112f9565b60405180910390fd5b60178260ff1611156107c8576040517f08c379a00000000000000000000000000000000000000000000000000000000081526004016107bf9061138b565b60405180910390fd5b603b8160ff16111561080f576040517f08c379a00000000000000000000000000000000000000000000000000000000081526004016108069061141d565b60405180910390fd5b61081885610a92565b610857576040517f08c379a000000000000000000000000000000000000000000000000000000000815260040161084e906114af565b60405180910390fd5b60405180608001604052808560ff1681526020018460ff1681526020018360ff1681526020018260ff168152506001600087815260200190815260200160002060008201518160000160006101000a81548160ff021916908360ff16021790555060208201518160000160016101000a81548160ff021916908360ff16021790555060408201518160000160026101000a81548160ff021916908360ff16021790555060608201518160000160036101000a81548160ff021916908360ff1602179055509050507f46a7d4d96df4e4689af0ad94525e121fd7a6f5866a909d90588d2a5fd86ae49385858585856040516109559594939291906114cf565b60405180910390a15050505050565b60016020528060005260406000206000915090508060000160009054906101000a900460ff16908060000160019054906101000a900460ff16908060000160029054906101000a900460ff16908060000160039054906101000a900460ff16905084565b600260205281600052604060002081600281106109e457600080fd5b60209182820401919006915091509054906101000a900460ff1681565b60008060006001600085815260200190815260200160002090508060000160009054906101000a900460ff168160000160019054906101000a900460ff169250925050915091565b600080600083815260200190815260200160002060009054906101000a900460ff169050919050565b60006020528060005260406000206000915054906101000a900460ff1681565b60003373ffffffffffffffffffffffffffffffffffffffff1673dc64a140aa3e981100a9beca4e685f962f0cf6c973ffffffffffffffffffffffffffffffffffffffff16636352211e846040518263ffffffff1660e01b8152600401610af89190610f9e565b602060405180830381865afa158015610b15573d6000803e3d6000fd5b505050506040513d601f19601f82011682018060405250810190610b399190611537565b73ffffffffffffffffffffffffffffffffffffffff16149050919050565b6040518060400160405280600290602082028036833780820191505090505090565b826002601f01602090048101928215610c025791602002820160005b83821115610bd357835183826101000a81548160ff021916908360ff1602179055509260200192600101602081600001049283019260010302610b95565b8015610c005782816101000a81549060ff0219169055600101602081600001049283019260010302610bd3565b505b509050610c0f9190610c13565b5090565b5b80821115610c2c576000816000905550600101610c14565b5090565b600080fd5b6000819050919050565b610c4881610c35565b8114610c5357600080fd5b50565b600081359050610c6581610c3f565b92915050565b60008060408385031215610c8257610c81610c30565b5b6000610c9085828601610c56565b9250506020610ca185828601610c56565b9150509250929050565b600060208284031215610cc157610cc0610c30565b5b6000610ccf84828501610c56565b91505092915050565b600060ff82169050919050565b610cee81610cd8565b82525050565b6000604082019050610d096000830185610ce5565b610d166020830184610ce5565b9392505050565b600073ffffffffffffffffffffffffffffffffffffffff82169050919050565b6000610d4882610d1d565b9050919050565b610d5881610d3d565b8114610d6357600080fd5b50565b600081359050610d7581610d4f565b92915050565b600060208284031215610d9157610d90610c30565b5b6000610d9f84828501610d66565b91505092915050565b60008115159050919050565b610dbd81610da8565b8114610dc857600080fd5b50565b600081359050610dda81610db4565b92915050565b60008060408385031215610df757610df6610c30565b5b6000610e0585828601610c56565b9250506020610e1685828601610dcb565b9150509250929050565b610e2981610da8565b82525050565b6000602082019050610e446000830184610e20565b92915050565b600060029050919050565b600081905092915050565b6000819050919050565b610e7381610cd8565b82525050565b6000610e858383610e6a565b60208301905092915050565b6000602082019050919050565b610ea781610e4a565b610eb18184610e55565b9250610ebc82610e60565b8060005b83811015610eed578151610ed48782610e79565b9650610edf83610e91565b925050600181019050610ec0565b505050505050565b6000604082019050610f0a6000830184610e9e565b92915050565b610f1981610cd8565b8114610f2457600080fd5b50565b600081359050610f3681610f10565b92915050565b600080600060608486031215610f5557610f54610c30565b5b6000610f6386828701610c56565b9350506020610f7486828701610f27565b9250506040610f8586828701610f27565b9150509250925092565b610f9881610c35565b82525050565b6000602082019050610fb36000830184610f8f565b92915050565b600080600080600060a08688031215610fd557610fd4610c30565b5b6000610fe388828901610c56565b9550506020610ff488828901610f27565b945050604061100588828901610f27565b935050606061101688828901610f27565b925050608061102788828901610f27565b9150509295509295909350565b60006080820190506110496000830187610ce5565b6110566020830186610ce5565b6110636040830185610ce5565b6110706060830184610ce5565b95945050505050565b600060208201905061108e6000830184610ce5565b92915050565b60006040820190506110a96000830185610f8f565b6110b66020830184610f8f565b9392505050565b600082825260208201905092915050565b7f4e6f7420617070726f76656420746f20757064617465207061726b696e67207360008201527f706f7420417661696c6162696c69747900000000000000000000000000000000602082015250565b600061112a6030836110bd565b9150611135826110ce565b604082019050919050565b600060208201905081810360008301526111598161111d565b9050919050565b60006040820190506111756000830185610f8f565b6111826020830184610e20565b9392505050565b7f506c6561736520696e70757420612076616c69642074696d657a6f6e65000000600082015250565b60006111bf601d836110bd565b91506111ca82611189565b602082019050919050565b600060208201905081810360008301526111ee816111b2565b9050919050565b7f537461727420686f7572206d757374206265206265747765656e203020616e6460008201527f2032330000000000000000000000000000000000000000000000000000000000602082015250565b60006112516023836110bd565b915061125c826111f5565b604082019050919050565b6000602082019050818103600083015261128081611244565b9050919050565b7f5374617274206d696e757465206d757374206265206265747765656e2030206160008201527f6e64203539000000000000000000000000000000000000000000000000000000602082015250565b60006112e36025836110bd565b91506112ee82611287565b604082019050919050565b60006020820190508181036000830152611312816112d6565b9050919050565b7f456e6420686f7572206d757374206265206265747765656e203020616e64203260008201527f3300000000000000000000000000000000000000000000000000000000000000602082015250565b60006113756021836110bd565b915061138082611319565b604082019050919050565b600060208201905081810360008301526113a481611368565b9050919050565b7f456e64206d696e757465206d757374206265206265747765656e203020616e6460008201527f2035390000000000000000000000000000000000000000000000000000000000602082015250565b60006114076023836110bd565b9150611412826113ab565b604082019050919050565b60006020820190508181036000830152611436816113fa565b9050919050565b7f4e6f7420617070726f76656420746f20757064617465207061726b696e67207360008201527f706f7420617661696c6162696c6974792074696d657300000000000000000000602082015250565b60006114996036836110bd565b91506114a48261143d565b604082019050919050565b600060208201905081810360008301526114c88161148c565b9050919050565b600060a0820190506114e46000830188610f8f565b6114f16020830187610ce5565b6114fe6040830186610ce5565b61150b6060830185610ce5565b6115186080830184610ce5565b9695505050505050565b60008151905061153181610d4f565b92915050565b60006020828403121561154d5761154c610c30565b5b600061155b84828501611522565b9150509291505056fea2646970667358221220016017802281123e84b77154b5a9b55ebf1fd741770e5b467177ab7b2c10d39c64736f6c634300080c0033",
  "devdoc": {
    "kind": "dev",
    "methods": {},
    "version": 1
  },
  "userdoc": {
    "kind": "user",
    "methods": {},
    "version": 1
  },
  "storageLayout": {
    "storage": [
      {
        "astId": 8686,
        "contract": "contracts/ParkingSpotAttributes.sol:ParkingSpotAttributes",
        "label": "spot_available",
        "offset": 0,
        "slot": "0",
        "type": "t_mapping(t_uint256,t_bool)"
      },
      {
        "astId": 8691,
        "contract": "contracts/ParkingSpotAttributes.sol:ParkingSpotAttributes",
        "label": "permittedParkingTime",
        "offset": 0,
        "slot": "1",
        "type": "t_mapping(t_uint256,t_struct(availabilityTimes)8682_storage)"
      },
      {
        "astId": 8697,
        "contract": "contracts/ParkingSpotAttributes.sol:ParkingSpotAttributes",
        "label": "parkingSpotTimeZone",
        "offset": 0,
        "slot": "2",
        "type": "t_mapping(t_uint256,t_array(t_uint8)2_storage)"
      },
      {
        "astId": 8701,
        "contract": "contracts/ParkingSpotAttributes.sol:ParkingSpotAttributes",
        "label": "spotInUse",
        "offset": 0,
        "slot": "3",
        "type": "t_mapping(t_uint256,t_bool)"
      },
      {
        "astId": 8705,
        "contract": "contracts/ParkingSpotAttributes.sol:ParkingSpotAttributes",
        "label": "pricePerHour",
        "offset": 0,
        "slot": "4",
        "type": "t_mapping(t_uint256,t_uint256)"
      },
      {
        "astId": 8707,
        "contract": "contracts/ParkingSpotAttributes.sol:ParkingSpotAttributes",
        "label": "requestParkingSpotTokenAddress",
        "offset": 0,
        "slot": "5",
        "type": "t_address"
      }
    ],
    "types": {
      "t_address": {
        "encoding": "inplace",
        "label": "address",
        "numberOfBytes": "20"
      },
      "t_array(t_uint8)2_storage": {
        "base": "t_uint8",
        "encoding": "inplace",
        "label": "uint8[2]",
        "numberOfBytes": "32"
      },
      "t_bool": {
        "encoding": "inplace",
        "label": "bool",
        "numberOfBytes": "1"
      },
      "t_mapping(t_uint256,t_array(t_uint8)2_storage)": {
        "encoding": "mapping",
        "key": "t_uint256",
        "label": "mapping(uint256 => uint8[2])",
        "numberOfBytes": "32",
        "value": "t_array(t_uint8)2_storage"
      },
      "t_mapping(t_uint256,t_bool)": {
        "encoding": "mapping",
        "key": "t_uint256",
        "label": "mapping(uint256 => bool)",
        "numberOfBytes": "32",
        "value": "t_bool"
      },
      "t_mapping(t_uint256,t_struct(availabilityTimes)8682_storage)": {
        "encoding": "mapping",
        "key": "t_uint256",
        "label": "mapping(uint256 => struct ParkingSpotAttributes.availabilityTimes)",
        "numberOfBytes": "32",
        "value": "t_struct(availabilityTimes)8682_storage"
      },
      "t_mapping(t_uint256,t_uint256)": {
        "encoding": "mapping",
        "key": "t_uint256",
        "label": "mapping(uint256 => uint256)",
        "numberOfBytes": "32",
        "value": "t_uint256"
      },
      "t_struct(availabilityTimes)8682_storage": {
        "encoding": "inplace",
        "label": "struct ParkingSpotAttributes.availabilityTimes",
        "members": [
          {
            "astId": 8675,
            "contract": "contracts/ParkingSpotAttributes.sol:ParkingSpotAttributes",
            "label": "startHour",
            "offset": 0,
            "slot": "0",
            "type": "t_uint8"
          },
          {
            "astId": 8677,
            "contract": "contracts/ParkingSpotAttributes.sol:ParkingSpotAttributes",
            "label": "startMinute",
            "offset": 1,
            "slot": "0",
            "type": "t_uint8"
          },
          {
            "astId": 8679,
            "contract": "contracts/ParkingSpotAttributes.sol:ParkingSpotAttributes",
            "label": "endHour",
            "offset": 2,
            "slot": "0",
            "type": "t_uint8"
          },
          {
            "astId": 8681,
            "contract": "contracts/ParkingSpotAttributes.sol:ParkingSpotAttributes",
            "label": "endMinute",
            "offset": 3,
            "slot": "0",
            "type": "t_uint8"
          }
        ],
        "numberOfBytes": "32"
      },
      "t_uint256": {
        "encoding": "inplace",
        "label": "uint256",
        "numberOfBytes": "32"
      },
      "t_uint8": {
        "encoding": "inplace",
        "label": "uint8",
        "numberOfBytes": "1"
      }
    }
  }
}