{
  "address": "0xDc64a140Aa3E981100a9becA4E685f962f0cF6C9",
  "abi": [
    {
      "inputs": [
        {
          "internalType": "uint256",
          "name": "_parking_spot_id",
          "type": "uint256"
        }
      ],
      "name": "checkParkingSpotTimezone",
      "outputs": [
        {
          "internalType": "uint8",
          "name": "",
          "type": "uint8"
        }
      ],
      "stateMutability": "view",
      "type": "function"
    },
    {
      "inputs": [
        {
          "internalType": "uint256",
          "name": "_parking_spot_id",
          "type": "uint256"
        }
      ],
      "name": "checkSpotAvailability",
      "outputs": [
        {
          "internalType": "bool",
          "name": "",
          "type": "bool"
        }
      ],
      "stateMutability": "view",
      "type": "function"
    },
    {
      "inputs": [
        {
          "internalType": "uint256",
          "name": "_parking_spot_id",
          "type": "uint256"
        }
      ],
      "name": "checkSpotPermittedParkingEndTime",
      "outputs": [
        {
          "internalType": "uint8",
          "name": "",
          "type": "uint8"
        },
        {
          "internalType": "uint8",
          "name": "",
          "type": "uint8"
        }
      ],
      "stateMutability": "view",
      "type": "function"
    },
    {
      "inputs": [
        {
          "internalType": "uint256",
          "name": "_parking_spot_id",
          "type": "uint256"
        }
      ],
      "name": "checkSpotPermittedParkingStartTime",
      "outputs": [
        {
          "internalType": "uint8",
          "name": "",
          "type": "uint8"
        },
        {
          "internalType": "uint8",
          "name": "",
          "type": "uint8"
        }
      ],
      "stateMutability": "view",
      "type": "function"
    },
    {
      "inputs": [
        {
          "internalType": "uint256",
          "name": "",
          "type": "uint256"
        }
      ],
      "name": "parkingSpotTimeZone",
      "outputs": [
        {
          "internalType": "uint8",
          "name": "",
          "type": "uint8"
        }
      ],
      "stateMutability": "view",
      "type": "function"
    },
    {
      "inputs": [
        {
          "internalType": "uint256",
          "name": "",
          "type": "uint256"
        }
      ],
      "name": "permittedParkingTime",
      "outputs": [
        {
          "internalType": "uint8",
          "name": "startHour",
          "type": "uint8"
        },
        {
          "internalType": "uint8",
          "name": "startMinute",
          "type": "uint8"
        },
        {
          "internalType": "uint8",
          "name": "endHour",
          "type": "uint8"
        },
        {
          "internalType": "uint8",
          "name": "endMinute",
          "type": "uint8"
        }
      ],
      "stateMutability": "view",
      "type": "function"
    },
    {
      "inputs": [
        {
          "internalType": "uint256",
          "name": "_parking_spot_id",
          "type": "uint256"
        },
        {
          "internalType": "uint8",
          "name": "_timezone",
          "type": "uint8"
        }
      ],
      "name": "setParkingSpotTimezone",
      "outputs": [],
      "stateMutability": "nonpayable",
      "type": "function"
    },
    {
      "inputs": [
        {
          "internalType": "uint256",
          "name": "_parking_spot_id",
          "type": "uint256"
        },
        {
          "internalType": "bool",
          "name": "_availability",
          "type": "bool"
        }
      ],
      "name": "setSpotAvailability",
      "outputs": [],
      "stateMutability": "nonpayable",
      "type": "function"
    },
    {
      "inputs": [
        {
          "internalType": "uint256",
          "name": "_parking_spot_id",
          "type": "uint256"
        },
        {
          "internalType": "uint8",
          "name": "_start_hour",
          "type": "uint8"
        },
        {
          "internalType": "uint8",
          "name": "_start_minute",
          "type": "uint8"
        },
        {
          "internalType": "uint8",
          "name": "_end_hour",
          "type": "uint8"
        },
        {
          "internalType": "uint8",
          "name": "_end_minute",
          "type": "uint8"
        }
      ],
      "name": "setSpotPermittedParkingTime",
      "outputs": [],
      "stateMutability": "nonpayable",
      "type": "function"
    },
    {
      "inputs": [
        {
          "internalType": "uint256",
          "name": "",
          "type": "uint256"
        }
      ],
      "name": "spot_available",
      "outputs": [
        {
          "internalType": "bool",
          "name": "",
          "type": "bool"
        }
      ],
      "stateMutability": "view",
      "type": "function"
    }
  ],
  "transactionHash": "0x3032f6583230bb6d395db41b2f4927ca272d5fee3f83f02bad7b436f6d26308a",
  "args": [],
  "numDeployments": 1,
  "solcInputHash": "60bb262414d4da0273f1fd7717239433",
  "bytecode": "0x608060405234801561001057600080fd5b50610f47806100206000396000f3fe608060405234801561001057600080fd5b506004361061009e5760003560e01c806394b08aa71161006657806394b08aa714610158578063a53308dc14610188578063ccc5ffe9146101bb578063e91926f1146101ec578063f89c26d01461021c5761009e565b80631a1089c2146100a357806332cb2364146100d45780635fe20047146100f057806384fed32a14610120578063931b87e61461013c575b600080fd5b6100bd60048036038101906100b891906107f2565b61024c565b6040516100cb92919061083b565b60405180910390f35b6100ee60048036038101906100e9919061089c565b610294565b005b61010a600480360381019061010591906107f2565b61030a565b60405161011791906108dc565b60405180910390f35b61013a60048036038101906101359190610923565b610334565b005b6101566004803603810190610151919061099e565b610566565b005b610172600480360381019061016d91906107f2565b6105dd565b60405161017f91906108dc565b60405180910390f35b6101a2600480360381019061019d91906107f2565b6105fd565b6040516101b294939291906109de565b60405180910390f35b6101d560048036038101906101d091906107f2565b610661565b6040516101e392919061083b565b60405180910390f35b610206600480360381019061020191906107f2565b6106a9565b6040516102139190610a32565b60405180910390f35b610236600480360381019061023191906107f2565b6106d2565b6040516102439190610a32565b60405180910390f35b60008060006001600085815260200190815260200160002090508060000160029054906101000a900460ff168160000160039054906101000a900460ff169250925050915091565b61029d826106f2565b6102dc576040517f08c379a00000000000000000000000000000000000000000000000000000000081526004016102d390610ad0565b60405180910390fd5b8060008084815260200190815260200160002060006101000a81548160ff0219169083151502179055505050565b60006002600083815260200190815260200160002060009054906101000a900460ff169050919050565b60178460ff16111561037b576040517f08c379a000000000000000000000000000000000000000000000000000000000815260040161037290610b62565b60405180910390fd5b603b8360ff1611156103c2576040517f08c379a00000000000000000000000000000000000000000000000000000000081526004016103b990610bf4565b60405180910390fd5b60178260ff161115610409576040517f08c379a000000000000000000000000000000000000000000000000000000000815260040161040090610c86565b60405180910390fd5b603b8160ff161115610450576040517f08c379a000000000000000000000000000000000000000000000000000000000815260040161044790610d18565b60405180910390fd5b610459856106f2565b610498576040517f08c379a000000000000000000000000000000000000000000000000000000000815260040161048f90610daa565b60405180910390fd5b60405180608001604052808560ff1681526020018460ff1681526020018360ff1681526020018260ff168152506001600087815260200190815260200160002060008201518160000160006101000a81548160ff021916908360ff16021790555060208201518160000160016101000a81548160ff021916908360ff16021790555060408201518160000160026101000a81548160ff021916908360ff16021790555060608201518160000160036101000a81548160ff021916908360ff1602179055509050505050505050565b60178160ff1611156105ad576040517f08c379a00000000000000000000000000000000000000000000000000000000081526004016105a490610e3c565b60405180910390fd5b806002600084815260200190815260200160002060006101000a81548160ff021916908360ff1602179055505050565b60026020528060005260406000206000915054906101000a900460ff1681565b60016020528060005260406000206000915090508060000160009054906101000a900460ff16908060000160019054906101000a900460ff16908060000160029054906101000a900460ff16908060000160039054906101000a900460ff16905084565b60008060006001600085815260200190815260200160002090508060000160009054906101000a900460ff168160000160019054906101000a900460ff169250925050915091565b600080600083815260200190815260200160002060009054906101000a900460ff169050919050565b60006020528060005260406000206000915054906101000a900460ff1681565b60003373ffffffffffffffffffffffffffffffffffffffff1673cf7ed3acca5a467e9e704c703e8d87f634fb0fc973ffffffffffffffffffffffffffffffffffffffff16636352211e846040518263ffffffff1660e01b81526004016107589190610e6b565b602060405180830381865afa158015610775573d6000803e3d6000fd5b505050506040513d601f19601f820116820180604052508101906107999190610ee4565b73ffffffffffffffffffffffffffffffffffffffff16149050919050565b600080fd5b6000819050919050565b6107cf816107bc565b81146107da57600080fd5b50565b6000813590506107ec816107c6565b92915050565b600060208284031215610808576108076107b7565b5b6000610816848285016107dd565b91505092915050565b600060ff82169050919050565b6108358161081f565b82525050565b6000604082019050610850600083018561082c565b61085d602083018461082c565b9392505050565b60008115159050919050565b61087981610864565b811461088457600080fd5b50565b60008135905061089681610870565b92915050565b600080604083850312156108b3576108b26107b7565b5b60006108c1858286016107dd565b92505060206108d285828601610887565b9150509250929050565b60006020820190506108f1600083018461082c565b92915050565b6109008161081f565b811461090b57600080fd5b50565b60008135905061091d816108f7565b92915050565b600080600080600060a0868803121561093f5761093e6107b7565b5b600061094d888289016107dd565b955050602061095e8882890161090e565b945050604061096f8882890161090e565b93505060606109808882890161090e565b92505060806109918882890161090e565b9150509295509295909350565b600080604083850312156109b5576109b46107b7565b5b60006109c3858286016107dd565b92505060206109d48582860161090e565b9150509250929050565b60006080820190506109f3600083018761082c565b610a00602083018661082c565b610a0d604083018561082c565b610a1a606083018461082c565b95945050505050565b610a2c81610864565b82525050565b6000602082019050610a476000830184610a23565b92915050565b600082825260208201905092915050565b7f4e6f7420617070726f76656420746f20757064617465207061726b696e67207360008201527f706f7420417661696c6162696c69747900000000000000000000000000000000602082015250565b6000610aba603083610a4d565b9150610ac582610a5e565b604082019050919050565b60006020820190508181036000830152610ae981610aad565b9050919050565b7f537461727420686f7572206d757374206265206265747765656e203020616e6460008201527f2032330000000000000000000000000000000000000000000000000000000000602082015250565b6000610b4c602383610a4d565b9150610b5782610af0565b604082019050919050565b60006020820190508181036000830152610b7b81610b3f565b9050919050565b7f5374617274206d696e757465206d757374206265206265747765656e2030206160008201527f6e64203539000000000000000000000000000000000000000000000000000000602082015250565b6000610bde602583610a4d565b9150610be982610b82565b604082019050919050565b60006020820190508181036000830152610c0d81610bd1565b9050919050565b7f456e6420686f7572206d757374206265206265747765656e203020616e64203260008201527f3300000000000000000000000000000000000000000000000000000000000000602082015250565b6000610c70602183610a4d565b9150610c7b82610c14565b604082019050919050565b60006020820190508181036000830152610c9f81610c63565b9050919050565b7f456e64206d696e757465206d757374206265206265747765656e203020616e6460008201527f2035390000000000000000000000000000000000000000000000000000000000602082015250565b6000610d02602383610a4d565b9150610d0d82610ca6565b604082019050919050565b60006020820190508181036000830152610d3181610cf5565b9050919050565b7f4e6f7420617070726f76656420746f20757064617465207061726b696e67207360008201527f706f7420617661696c6162696c6974792074696d657300000000000000000000602082015250565b6000610d94603683610a4d565b9150610d9f82610d38565b604082019050919050565b60006020820190508181036000830152610dc381610d87565b9050919050565b7f54696d657a6f6e65206d757374206265206265747765656e203020616e64203260008201527f3300000000000000000000000000000000000000000000000000000000000000602082015250565b6000610e26602183610a4d565b9150610e3182610dca565b604082019050919050565b60006020820190508181036000830152610e5581610e19565b9050919050565b610e65816107bc565b82525050565b6000602082019050610e806000830184610e5c565b92915050565b600073ffffffffffffffffffffffffffffffffffffffff82169050919050565b6000610eb182610e86565b9050919050565b610ec181610ea6565b8114610ecc57600080fd5b50565b600081519050610ede81610eb8565b92915050565b600060208284031215610efa57610ef96107b7565b5b6000610f0884828501610ecf565b9150509291505056fea2646970667358221220b61119eb15d4a193972be5b5926fb7fa7353db63473c981b380e80e7ea551dc164736f6c634300080c0033",
  "devdoc": {
    "kind": "dev",
    "methods": {},
    "version": 1
  },
  "userdoc": {
    "kind": "user",
    "methods": {},
    "version": 1
  },
  "storageLayout": {
    "storage": [
      {
        "astId": 7485,
        "contract": "contracts/ParkingSpotAttributes.sol:ParkingSpotAttributes",
        "label": "spot_available",
        "offset": 0,
        "slot": "0",
        "type": "t_mapping(t_uint256,t_bool)"
      },
      {
        "astId": 7490,
        "contract": "contracts/ParkingSpotAttributes.sol:ParkingSpotAttributes",
        "label": "permittedParkingTime",
        "offset": 0,
        "slot": "1",
        "type": "t_mapping(t_uint256,t_struct(availabilityTimes)7481_storage)"
      },
      {
        "astId": 7494,
        "contract": "contracts/ParkingSpotAttributes.sol:ParkingSpotAttributes",
        "label": "parkingSpotTimeZone",
        "offset": 0,
        "slot": "2",
        "type": "t_mapping(t_uint256,t_uint8)"
      }
    ],
    "types": {
      "t_bool": {
        "encoding": "inplace",
        "label": "bool",
        "numberOfBytes": "1"
      },
      "t_mapping(t_uint256,t_bool)": {
        "encoding": "mapping",
        "key": "t_uint256",
        "label": "mapping(uint256 => bool)",
        "numberOfBytes": "32",
        "value": "t_bool"
      },
      "t_mapping(t_uint256,t_struct(availabilityTimes)7481_storage)": {
        "encoding": "mapping",
        "key": "t_uint256",
        "label": "mapping(uint256 => struct ParkingSpotAttributes.availabilityTimes)",
        "numberOfBytes": "32",
        "value": "t_struct(availabilityTimes)7481_storage"
      },
      "t_mapping(t_uint256,t_uint8)": {
        "encoding": "mapping",
        "key": "t_uint256",
        "label": "mapping(uint256 => uint8)",
        "numberOfBytes": "32",
        "value": "t_uint8"
      },
      "t_struct(availabilityTimes)7481_storage": {
        "encoding": "inplace",
        "label": "struct ParkingSpotAttributes.availabilityTimes",
        "members": [
          {
            "astId": 7474,
            "contract": "contracts/ParkingSpotAttributes.sol:ParkingSpotAttributes",
            "label": "startHour",
            "offset": 0,
            "slot": "0",
            "type": "t_uint8"
          },
          {
            "astId": 7476,
            "contract": "contracts/ParkingSpotAttributes.sol:ParkingSpotAttributes",
            "label": "startMinute",
            "offset": 1,
            "slot": "0",
            "type": "t_uint8"
          },
          {
            "astId": 7478,
            "contract": "contracts/ParkingSpotAttributes.sol:ParkingSpotAttributes",
            "label": "endHour",
            "offset": 2,
            "slot": "0",
            "type": "t_uint8"
          },
          {
            "astId": 7480,
            "contract": "contracts/ParkingSpotAttributes.sol:ParkingSpotAttributes",
            "label": "endMinute",
            "offset": 3,
            "slot": "0",
            "type": "t_uint8"
          }
        ],
        "numberOfBytes": "32"
      },
      "t_uint256": {
        "encoding": "inplace",
        "label": "uint256",
        "numberOfBytes": "32"
      },
      "t_uint8": {
        "encoding": "inplace",
        "label": "uint8",
        "numberOfBytes": "1"
      }
    }
  }
}