{
  "address": "0x5FC8d32690cc91D4c39d9d3abcBD16989F875707",
  "abi": [
    {
      "inputs": [],
      "stateMutability": "payable",
      "type": "constructor"
    },
    {
      "inputs": [],
      "name": "deposit",
      "outputs": [],
      "stateMutability": "payable",
      "type": "function"
    },
    {
      "inputs": [
        {
          "internalType": "address",
          "name": "",
          "type": "address"
        }
      ],
      "name": "depositors",
      "outputs": [
        {
          "internalType": "uint256",
          "name": "",
          "type": "uint256"
        }
      ],
      "stateMutability": "view",
      "type": "function"
    },
    {
      "inputs": [],
      "name": "owner",
      "outputs": [
        {
          "internalType": "address payable",
          "name": "",
          "type": "address"
        }
      ],
      "stateMutability": "view",
      "type": "function"
    },
    {
      "inputs": [
        {
          "internalType": "uint256",
          "name": "_tokenId",
          "type": "uint256"
        }
      ],
      "name": "requestParkingSpotToken",
      "outputs": [],
      "stateMutability": "nonpayable",
      "type": "function"
    },
    {
      "inputs": [
        {
          "internalType": "uint256",
          "name": "_amount",
          "type": "uint256"
        }
      ],
      "name": "withdraw",
      "outputs": [],
      "stateMutability": "nonpayable",
      "type": "function"
    }
  ],
  "transactionHash": "0x0d21d2866be2a73dc68c8882270aa7fdbf8591ba6a27479d3fd6ac52d31b9966",
  "args": [],
  "numDeployments": 1,
  "solcInputHash": "c36220eafe149e3620a41e0bad9010a5",
  "bytecode": "0x60806040526040518060c001604052806000815260200160008152602001600081526020016000815260200160008152602001600081525060008082015181600001556020820151816001015560408201518160020155606082015181600301556080820151816004015560a08201518160050155505033600760006101000a81548173ffffffffffffffffffffffffffffffffffffffff021916908373ffffffffffffffffffffffffffffffffffffffff160217905550611727806100c66000396000f3fe60806040526004361061004a5760003560e01c80632e1a7d4d1461004f57806374c340b7146100785780638da5cb5b146100a1578063d0e30db0146100cc578063eed75f6d146100d6575b600080fd5b34801561005b57600080fd5b5061007660048036038101906100719190610d50565b610113565b005b34801561008457600080fd5b5061009f600480360381019061009a9190610d50565b61029b565b005b3480156100ad57600080fd5b506100b6610579565b6040516100c39190610dbe565b60405180910390f35b6100d461059f565b005b3480156100e257600080fd5b506100fd60048036038101906100f89190610e17565b6105f7565b60405161010a9190610e53565b60405180910390f35b600660003373ffffffffffffffffffffffffffffffffffffffff1673ffffffffffffffffffffffffffffffffffffffff16815260200190815260200160002054811115610195576040517f08c379a000000000000000000000000000000000000000000000000000000000815260040161018c90610ecb565b60405180910390fd5b80600660003373ffffffffffffffffffffffffffffffffffffffff1673ffffffffffffffffffffffffffffffffffffffff16815260200190815260200160002060008282546101e49190610f1a565b9250508190555060003373ffffffffffffffffffffffffffffffffffffffff168260405161021190610f7f565b60006040518083038185875af1925050503d806000811461024e576040519150601f19603f3d011682016040523d82523d6000602084013e610253565b606091505b5050905080610297576040517f08c379a000000000000000000000000000000000000000000000000000000000815260040161028e90610fe0565b60405180910390fd5b5050565b6000806102a78361060f565b915091506000429050670de0b6b3a7640000600660003373ffffffffffffffffffffffffffffffffffffffff1673ffffffffffffffffffffffffffffffffffffffff16815260200190815260200160002054101561033a576040517f08c379a00000000000000000000000000000000000000000000000000000000081526004016103319061104c565b60405180910390fd5b6001151573dc64a140aa3e981100a9beca4e685f962f0cf6c973ffffffffffffffffffffffffffffffffffffffff1663e91926f1866040518263ffffffff1660e01b815260040161038b9190610e53565b602060405180830381865afa1580156103a8573d6000803e3d6000fd5b505050506040513d601f19601f820116820180604052508101906103cc91906110a4565b15151461040e576040517f08c379a00000000000000000000000000000000000000000000000000000000081526004016104059061111d565b60405180910390fd5b824211801561041c57508142105b61045b576040517f08c379a0000000000000000000000000000000000000000000000000000000008152600401610452906111af565b60405180910390fd5b600073cf7ed3acca5a467e9e704c703e8d87f634fb0fc973ffffffffffffffffffffffffffffffffffffffff16636352211e866040518263ffffffff1660e01b81526004016104aa9190610e53565b6020604051808303816000875af11580156104c9573d6000803e3d6000fd5b505050506040513d601f19601f820116820180604052508101906104ed91906111e4565b905073cf7ed3acca5a467e9e704c703e8d87f634fb0fc973ffffffffffffffffffffffffffffffffffffffff166342842e0e8233886040518463ffffffff1660e01b815260040161054093929190611220565b600060405180830381600087803b15801561055a57600080fd5b505af115801561056e573d6000803e3d6000fd5b505050505050505050565b600760009054906101000a900473ffffffffffffffffffffffffffffffffffffffff1681565b34600660003373ffffffffffffffffffffffffffffffffffffffff1673ffffffffffffffffffffffffffffffffffffffff16815260200190815260200160002060008282546105ee9190611257565b92505081905550565b60066020528060005260406000206000915090505481565b60008061061a6107b4565b60008073dc64a140aa3e981100a9beca4e685f962f0cf6c973ffffffffffffffffffffffffffffffffffffffff1663ccc5ffe9866040518263ffffffff1660e01b815260040161066a9190610e53565b6040805180830381865afa158015610686573d6000803e3d6000fd5b505050506040513d601f19601f820116820180604052508101906106aa91906112e6565b9150915060008073dc64a140aa3e981100a9beca4e685f962f0cf6c973ffffffffffffffffffffffffffffffffffffffff16631a1089c2886040518263ffffffff1660e01b81526004016106fe9190610e53565b6040805180830381865afa15801561071a573d6000803e3d6000fd5b505050506040513d601f19601f8201168201806040525081019061073e91906112e6565b91509150600061076760008001546000600101546000600201548860ff168860ff166000610807565b9050600061078e60008001546000600101546000600201548760ff168760ff166000610807565b905061079b82828b610868565b8092508192505050818197509750505050505050915091565b6107bd42610990565b6000800160008060010160008060020160008060030160008060040160008060050160008c919050558b919050558a91905055899190505588919050558791905055505050505050565b600081603c846108179190611326565b610e10866108259190611326565b620151806108348b8b8b610a17565b61083e9190611326565b6108489190611257565b6108529190611257565b61085c9190611257565b90509695505050505050565b600080600073dc64a140aa3e981100a9beca4e685f962f0cf6c973ffffffffffffffffffffffffffffffffffffffff16635fe20047856040518263ffffffff1660e01b81526004016108ba9190610e53565b602060405180830381865afa1580156108d7573d6000803e3d6000fd5b505050506040513d601f19601f820116820180604052508101906108fb9190611380565b60000b9050600c81131561094657600c8161091691906113b7565b90507fffffffffffffffffffffffffffffffffffffffffffffffffffffffffffffffff81610944919061144b565b505b6000610e1082610956919061144b565b9050600081886109669190611562565b9050600082886109769190611562565b905081985080975088889550955050505050935093915050565b6000806000806000806109b062015180886109ab9190611625565b610b76565b809650819750829850505050600062015180886109cd9190611656565b9050610e10816109dd9190611625565b9350610e10816109ed9190611656565b9050603c816109fc9190611625565b9250603c81610a0b9190611656565b91505091939550919395565b60006107b2841015610a2857600080fd5b600084905060008490506000849050600062253d8c60046064600c600e87610a5091906113b7565b610a5a9190611687565b61132488610a689190611562565b610a729190611562565b610a7c9190611687565b6003610a88919061144b565b610a929190611687565b600c80600c600e88610aa491906113b7565b610aae9190611687565b610ab8919061144b565b600287610ac591906113b7565b610acf91906113b7565b61016f610adc919061144b565b610ae69190611687565b6004600c600e88610af791906113b7565b610b019190611687565b6112c089610b0f9190611562565b610b199190611562565b6105b5610b26919061144b565b610b309190611687565b617d4b86610b3e91906113b7565b610b489190611562565b610b529190611562565b610b5c91906113b7565b610b6691906113b7565b9050809450505050509392505050565b600080600080849050600062253d8c62010bd983610b949190611562565b610b9e9190611562565b9050600062023ab1826004610bb3919061144b565b610bbd9190611687565b9050600460038262023ab1610bd2919061144b565b610bdc9190611562565b610be69190611687565b82610bf191906113b7565b9150600062164b09600184610c069190611562565b610fa0610c13919061144b565b610c1d9190611687565b9050601f6004826105b5610c31919061144b565b610c3b9190611687565b84610c4691906113b7565b610c509190611562565b9250600061098f846050610c64919061144b565b610c6e9190611687565b9050600060508261098f610c82919061144b565b610c8c9190611687565b85610c9791906113b7565b9050600b82610ca69190611687565b945084600c610cb5919061144b565b600283610cc29190611562565b610ccc91906113b7565b91508483603186610cdd91906113b7565b6064610ce9919061144b565b610cf39190611562565b610cfd9190611562565b92508298508197508096505050505050509193909250565b600080fd5b6000819050919050565b610d2d81610d1a565b8114610d3857600080fd5b50565b600081359050610d4a81610d24565b92915050565b600060208284031215610d6657610d65610d15565b5b6000610d7484828501610d3b565b91505092915050565b600073ffffffffffffffffffffffffffffffffffffffff82169050919050565b6000610da882610d7d565b9050919050565b610db881610d9d565b82525050565b6000602082019050610dd36000830184610daf565b92915050565b6000610de482610d7d565b9050919050565b610df481610dd9565b8114610dff57600080fd5b50565b600081359050610e1181610deb565b92915050565b600060208284031215610e2d57610e2c610d15565b5b6000610e3b84828501610e02565b91505092915050565b610e4d81610d1a565b82525050565b6000602082019050610e686000830184610e44565b92915050565b600082825260208201905092915050565b7f4e6f7420656e6f75676820455448206465706f73697465640000000000000000600082015250565b6000610eb5601883610e6e565b9150610ec082610e7f565b602082019050919050565b60006020820190508181036000830152610ee481610ea8565b9050919050565b7f4e487b7100000000000000000000000000000000000000000000000000000000600052601160045260246000fd5b6000610f2582610d1a565b9150610f3083610d1a565b925082821015610f4357610f42610eeb565b5b828203905092915050565b600081905092915050565b50565b6000610f69600083610f4e565b9150610f7482610f59565b600082019050919050565b6000610f8a82610f5c565b9150819050919050565b7f4661696c656420746f2073656e64204574686572000000000000000000000000600082015250565b6000610fca601483610e6e565b9150610fd582610f94565b602082019050919050565b60006020820190508181036000830152610ff981610fbd565b9050919050565b7f4d757374206465706f736974206174206c656173742031204574680000000000600082015250565b6000611036601b83610e6e565b915061104182611000565b602082019050919050565b6000602082019050818103600083015261106581611029565b9050919050565b60008115159050919050565b6110818161106c565b811461108c57600080fd5b50565b60008151905061109e81611078565b92915050565b6000602082840312156110ba576110b9610d15565b5b60006110c88482850161108f565b91505092915050565b7f5061726b696e672073706f7420697320756e617661696c61626c652100000000600082015250565b6000611107601c83610e6e565b9150611112826110d1565b602082019050919050565b60006020820190508181036000830152611136816110fa565b9050919050565b7f5061726b696e672073706f7420756e617661696c61626c65206174207468697360008201527f2074696d65210000000000000000000000000000000000000000000000000000602082015250565b6000611199602683610e6e565b91506111a48261113d565b604082019050919050565b600060208201905081810360008301526111c88161118c565b9050919050565b6000815190506111de81610deb565b92915050565b6000602082840312156111fa576111f9610d15565b5b6000611208848285016111cf565b91505092915050565b61121a81610dd9565b82525050565b60006060820190506112356000830186611211565b6112426020830185611211565b61124f6040830184610e44565b949350505050565b600061126282610d1a565b915061126d83610d1a565b9250827fffffffffffffffffffffffffffffffffffffffffffffffffffffffffffffffff038211156112a2576112a1610eeb565b5b828201905092915050565b600060ff82169050919050565b6112c3816112ad565b81146112ce57600080fd5b50565b6000815190506112e0816112ba565b92915050565b600080604083850312156112fd576112fc610d15565b5b600061130b858286016112d1565b925050602061131c858286016112d1565b9150509250929050565b600061133182610d1a565b915061133c83610d1a565b9250817fffffffffffffffffffffffffffffffffffffffffffffffffffffffffffffffff048311821515161561137557611374610eeb565b5b828202905092915050565b60006020828403121561139657611395610d15565b5b60006113a4848285016112d1565b91505092915050565b6000819050919050565b60006113c2826113ad565b91506113cd836113ad565b9250827f80000000000000000000000000000000000000000000000000000000000000000182126000841215161561140857611407610eeb565b5b827f7fffffffffffffffffffffffffffffffffffffffffffffffffffffffffffffff0182136000841216156114405761143f610eeb565b5b828203905092915050565b6000611456826113ad565b9150611461836113ad565b9250827f7fffffffffffffffffffffffffffffffffffffffffffffffffffffffffffffff04821160008413600084131616156114a05761149f610eeb565b5b817f800000000000000000000000000000000000000000000000000000000000000005831260008412600084131616156114dd576114dc610eeb565b5b827f8000000000000000000000000000000000000000000000000000000000000000058212600084136000841216161561151a57611519610eeb565b5b827f7fffffffffffffffffffffffffffffffffffffffffffffffffffffffffffffff058212600084126000841216161561155757611556610eeb565b5b828202905092915050565b600061156d826113ad565b9150611578836113ad565b9250817f7fffffffffffffffffffffffffffffffffffffffffffffffffffffffffffffff038313600083121516156115b3576115b2610eeb565b5b817f80000000000000000000000000000000000000000000000000000000000000000383126000831216156115eb576115ea610eeb565b5b828201905092915050565b7f4e487b7100000000000000000000000000000000000000000000000000000000600052601260045260246000fd5b600061163082610d1a565b915061163b83610d1a565b92508261164b5761164a6115f6565b5b828204905092915050565b600061166182610d1a565b915061166c83610d1a565b92508261167c5761167b6115f6565b5b828206905092915050565b6000611692826113ad565b915061169d836113ad565b9250826116ad576116ac6115f6565b5b600160000383147f8000000000000000000000000000000000000000000000000000000000000000831416156116e6576116e5610eeb565b5b82820590509291505056fea2646970667358221220a3bb82dbdffc965036d68748a2b78c4e8b96452d262c03a032462a567835e6f964736f6c634300080c0033",
  "devdoc": {
    "kind": "dev",
    "methods": {},
    "version": 1
  },
  "userdoc": {
    "kind": "user",
    "methods": {},
    "version": 1
  },
  "storageLayout": {
    "storage": [
      {
        "astId": 2355,
        "contract": "contracts/RequestParkingSpotToken.sol:RequestParkingSpotToken",
        "label": "current",
        "offset": 0,
        "slot": "0",
        "type": "t_struct(DateTime)2344_storage"
      },
      {
        "astId": 2359,
        "contract": "contracts/RequestParkingSpotToken.sol:RequestParkingSpotToken",
        "label": "depositors",
        "offset": 0,
        "slot": "6",
        "type": "t_mapping(t_address,t_uint256)"
      },
      {
        "astId": 2373,
        "contract": "contracts/RequestParkingSpotToken.sol:RequestParkingSpotToken",
        "label": "owner",
        "offset": 0,
        "slot": "7",
        "type": "t_address_payable"
      }
    ],
    "types": {
      "t_address": {
        "encoding": "inplace",
        "label": "address",
        "numberOfBytes": "20"
      },
      "t_address_payable": {
        "encoding": "inplace",
        "label": "address payable",
        "numberOfBytes": "20"
      },
      "t_mapping(t_address,t_uint256)": {
        "encoding": "mapping",
        "key": "t_address",
        "label": "mapping(address => uint256)",
        "numberOfBytes": "32",
        "value": "t_uint256"
      },
      "t_struct(DateTime)2344_storage": {
        "encoding": "inplace",
        "label": "struct RequestParkingSpotToken.DateTime",
        "members": [
          {
            "astId": 2333,
            "contract": "contracts/RequestParkingSpotToken.sol:RequestParkingSpotToken",
            "label": "Year",
            "offset": 0,
            "slot": "0",
            "type": "t_uint256"
          },
          {
            "astId": 2335,
            "contract": "contracts/RequestParkingSpotToken.sol:RequestParkingSpotToken",
            "label": "Month",
            "offset": 0,
            "slot": "1",
            "type": "t_uint256"
          },
          {
            "astId": 2337,
            "contract": "contracts/RequestParkingSpotToken.sol:RequestParkingSpotToken",
            "label": "Day",
            "offset": 0,
            "slot": "2",
            "type": "t_uint256"
          },
          {
            "astId": 2339,
            "contract": "contracts/RequestParkingSpotToken.sol:RequestParkingSpotToken",
            "label": "Hour",
            "offset": 0,
            "slot": "3",
            "type": "t_uint256"
          },
          {
            "astId": 2341,
            "contract": "contracts/RequestParkingSpotToken.sol:RequestParkingSpotToken",
            "label": "Minute",
            "offset": 0,
            "slot": "4",
            "type": "t_uint256"
          },
          {
            "astId": 2343,
            "contract": "contracts/RequestParkingSpotToken.sol:RequestParkingSpotToken",
            "label": "Second",
            "offset": 0,
            "slot": "5",
            "type": "t_uint256"
          }
        ],
        "numberOfBytes": "192"
      },
      "t_uint256": {
        "encoding": "inplace",
        "label": "uint256",
        "numberOfBytes": "32"
      }
    }
  }
}