{
  "address": "0x0165878A594ca255338adfa4d48449f69242Eb8F",
  "abi": [
    {
      "inputs": [],
      "stateMutability": "payable",
      "type": "constructor"
    },
    {
      "anonymous": false,
      "inputs": [
        {
          "indexed": false,
          "internalType": "uint256",
          "name": "tokenId",
          "type": "uint256"
        },
        {
          "indexed": false,
          "internalType": "uint8",
          "name": "requestedStartHour",
          "type": "uint8"
        },
        {
          "indexed": false,
          "internalType": "uint8",
          "name": "requestedStartMinute",
          "type": "uint8"
        },
        {
          "indexed": false,
          "internalType": "uint8",
          "name": "requestedEndHour",
          "type": "uint8"
        },
        {
          "indexed": false,
          "internalType": "uint8",
          "name": "requestedEndMinute",
          "type": "uint8"
        }
      ],
      "name": "ActiveParkingSesion",
      "type": "event"
    },
    {
      "anonymous": false,
      "inputs": [
        {
          "indexed": false,
          "internalType": "uint256",
          "name": "tokenId",
          "type": "uint256"
        }
      ],
      "name": "EndActiveParkingSesion",
      "type": "event"
    },
    {
      "anonymous": false,
      "inputs": [
        {
          "indexed": false,
          "internalType": "uint256",
          "name": "tokenId",
          "type": "uint256"
        },
        {
          "indexed": false,
          "internalType": "uint256",
          "name": "cost",
          "type": "uint256"
        }
      ],
      "name": "EstimatedSessionCost",
      "type": "event"
    },
    {
      "anonymous": false,
      "inputs": [
        {
          "indexed": false,
          "internalType": "address",
          "name": "user",
          "type": "address"
        },
        {
          "indexed": false,
          "internalType": "uint256",
          "name": "amount",
          "type": "uint256"
        }
      ],
      "name": "EthDeposit",
      "type": "event"
    },
    {
      "anonymous": false,
      "inputs": [
        {
          "indexed": false,
          "internalType": "address",
          "name": "user",
          "type": "address"
        },
        {
          "indexed": false,
          "internalType": "uint256",
          "name": "amount",
          "type": "uint256"
        }
      ],
      "name": "EthWithdraw",
      "type": "event"
    },
    {
      "inputs": [
        {
          "internalType": "uint256",
          "name": "",
          "type": "uint256"
        }
      ],
      "name": "activeSessions",
      "outputs": [
        {
          "internalType": "uint256",
          "name": "",
          "type": "uint256"
        }
      ],
      "stateMutability": "view",
      "type": "function"
    },
    {
      "inputs": [
        {
          "internalType": "uint256",
          "name": "_tokenId",
          "type": "uint256"
        },
        {
          "internalType": "uint256",
          "name": "_startTimeUnix",
          "type": "uint256"
        },
        {
          "internalType": "uint256",
          "name": "_endTimeUnix",
          "type": "uint256"
        }
      ],
      "name": "calculateSessionCost",
      "outputs": [
        {
          "internalType": "uint256",
          "name": "",
          "type": "uint256"
        }
      ],
      "stateMutability": "nonpayable",
      "type": "function"
    },
    {
      "inputs": [],
      "name": "checkIfParkingSessionOver",
      "outputs": [],
      "stateMutability": "nonpayable",
      "type": "function"
    },
    {
      "inputs": [
        {
          "internalType": "uint256",
          "name": "",
          "type": "uint256"
        }
      ],
      "name": "currentParkingSpotOwner",
      "outputs": [
        {
          "internalType": "address",
          "name": "",
          "type": "address"
        }
      ],
      "stateMutability": "view",
      "type": "function"
    },
    {
      "inputs": [],
      "name": "deposit",
      "outputs": [],
      "stateMutability": "payable",
      "type": "function"
    },
    {
      "inputs": [
        {
          "internalType": "address",
          "name": "",
          "type": "address"
        }
      ],
      "name": "depositors",
      "outputs": [
        {
          "internalType": "uint256",
          "name": "",
          "type": "uint256"
        }
      ],
      "stateMutability": "view",
      "type": "function"
    },
    {
      "inputs": [],
      "name": "getLatestPrice",
      "outputs": [
        {
          "internalType": "int256",
          "name": "",
          "type": "int256"
        }
      ],
      "stateMutability": "view",
      "type": "function"
    },
    {
      "inputs": [
        {
          "internalType": "uint256",
          "name": "_tokenId",
          "type": "uint256"
        },
        {
          "internalType": "uint256",
          "name": "_index",
          "type": "uint256"
        }
      ],
      "name": "getReservedParkingTimes",
      "outputs": [
        {
          "internalType": "address",
          "name": "",
          "type": "address"
        },
        {
          "internalType": "uint256",
          "name": "",
          "type": "uint256"
        },
        {
          "internalType": "uint256",
          "name": "",
          "type": "uint256"
        }
      ],
      "stateMutability": "view",
      "type": "function"
    },
    {
      "inputs": [],
      "name": "owner",
      "outputs": [
        {
          "internalType": "address payable",
          "name": "",
          "type": "address"
        }
      ],
      "stateMutability": "view",
      "type": "function"
    },
    {
      "inputs": [
        {
          "internalType": "uint256",
          "name": "_index",
          "type": "uint256"
        }
      ],
      "name": "removeActiveSession",
      "outputs": [],
      "stateMutability": "nonpayable",
      "type": "function"
    },
    {
      "inputs": [
        {
          "internalType": "uint256",
          "name": "_tokenId",
          "type": "uint256"
        },
        {
          "internalType": "uint8",
          "name": "_requestedStartHour",
          "type": "uint8"
        },
        {
          "internalType": "uint8",
          "name": "_requestedStartMinute",
          "type": "uint8"
        },
        {
          "internalType": "uint8",
          "name": "_requestedEndHour",
          "type": "uint8"
        },
        {
          "internalType": "uint8",
          "name": "_requestedEndMinute",
          "type": "uint8"
        }
      ],
      "name": "requestParkingSpotToken",
      "outputs": [],
      "stateMutability": "nonpayable",
      "type": "function"
    },
    {
      "inputs": [
        {
          "internalType": "uint256",
          "name": "",
          "type": "uint256"
        },
        {
          "internalType": "uint256",
          "name": "",
          "type": "uint256"
        }
      ],
      "name": "requestedParkingTimes",
      "outputs": [
        {
          "internalType": "uint256",
          "name": "",
          "type": "uint256"
        }
      ],
      "stateMutability": "view",
      "type": "function"
    },
    {
      "inputs": [
        {
          "internalType": "uint256",
          "name": "_tokenId",
          "type": "uint256"
        },
        {
          "internalType": "uint8",
          "name": "_requestedStartHour",
          "type": "uint8"
        },
        {
          "internalType": "uint8",
          "name": "_requestedStartMinute",
          "type": "uint8"
        },
        {
          "internalType": "uint8",
          "name": "_requestedEndHour",
          "type": "uint8"
        },
        {
          "internalType": "uint8",
          "name": "_requestedEndMinute",
          "type": "uint8"
        }
      ],
      "name": "reserveParkingSpotToken",
      "outputs": [
        {
          "internalType": "bool",
          "name": "",
          "type": "bool"
        }
      ],
      "stateMutability": "nonpayable",
      "type": "function"
    },
    {
      "inputs": [
        {
          "internalType": "uint256",
          "name": "",
          "type": "uint256"
        },
        {
          "internalType": "uint256",
          "name": "",
          "type": "uint256"
        }
      ],
      "name": "reservedParkingTimes",
      "outputs": [
        {
          "internalType": "address",
          "name": "walletAddress",
          "type": "address"
        },
        {
          "internalType": "uint256",
          "name": "startTime",
          "type": "uint256"
        },
        {
          "internalType": "uint256",
          "name": "endTime",
          "type": "uint256"
        }
      ],
      "stateMutability": "view",
      "type": "function"
    },
    {
      "inputs": [
        {
          "internalType": "uint256",
          "name": "_tokenId",
          "type": "uint256"
        }
      ],
      "name": "returnParkingSpotToken",
      "outputs": [
        {
          "internalType": "bool",
          "name": "",
          "type": "bool"
        }
      ],
      "stateMutability": "nonpayable",
      "type": "function"
    },
    {
      "inputs": [
        {
          "internalType": "uint256",
          "name": "",
          "type": "uint256"
        }
      ],
      "name": "sessionCost",
      "outputs": [
        {
          "internalType": "uint256",
          "name": "",
          "type": "uint256"
        }
      ],
      "stateMutability": "view",
      "type": "function"
    },
    {
      "inputs": [
        {
          "internalType": "address",
          "name": "",
          "type": "address"
        }
      ],
      "name": "sessionInProgress",
      "outputs": [
        {
          "internalType": "bool",
          "name": "",
          "type": "bool"
        }
      ],
      "stateMutability": "view",
      "type": "function"
    },
    {
      "inputs": [
        {
          "internalType": "uint256",
          "name": "",
          "type": "uint256"
        },
        {
          "internalType": "uint256",
          "name": "",
          "type": "uint256"
        }
      ],
      "name": "tempReservedParkingTimes",
      "outputs": [
        {
          "internalType": "address",
          "name": "walletAddress",
          "type": "address"
        },
        {
          "internalType": "uint256",
          "name": "startTime",
          "type": "uint256"
        },
        {
          "internalType": "uint256",
          "name": "endTime",
          "type": "uint256"
        }
      ],
      "stateMutability": "view",
      "type": "function"
    },
    {
      "inputs": [],
      "name": "testLoop",
      "outputs": [
        {
          "internalType": "uint256",
          "name": "",
          "type": "uint256"
        }
      ],
      "stateMutability": "view",
      "type": "function"
    },
    {
      "inputs": [
        {
          "internalType": "uint256",
          "name": "_amount",
          "type": "uint256"
        }
      ],
      "name": "withdraw",
      "outputs": [],
      "stateMutability": "nonpayable",
      "type": "function"
    }
  ],
  "transactionHash": "0x7f73648dbbcb960a6117194a3845193ed8ca8ff01f07f36bba532e10bbfd68e3",
  "args": [],
  "numDeployments": 1,
  "solcInputHash": "b2c60459ed587eec4dc088dc64cf4e20",
  "bytecode": "0x60806040526040518060c001604052806000815260200160008152602001600081526020016000815260200160008152602001600081525060008082015181600001556020820151816001015560408201518160020155606082015181600301556080820151816004015560a08201518160050155505033601160006101000a81548173ffffffffffffffffffffffffffffffffffffffff021916908373ffffffffffffffffffffffffffffffffffffffff16021790555073e7f1725e7734ce288f8367e1bb143e90bb3f0512601060006101000a81548173ffffffffffffffffffffffffffffffffffffffff021916908373ffffffffffffffffffffffffffffffffffffffff160217905550614d7f8061011b6000396000f3fe60806040526004361061011f5760003560e01c80638cd443c5116100a0578063c6e5a41911610064578063c6e5a41914610439578063d0e30db014610476578063d218285514610480578063dde85429146104bd578063eed75f6d146104e65761011f565b80638cd443c5146103285780638da5cb5b146103675780638e15f473146103925780639e698c5f146103bd578063b919310c146103fa5761011f565b80632e1a7d4d116100e75780632e1a7d4d1461021b5780632f9b0ed01461024457806340eb2f051461026f5780636312c05d146102ac578063727bc20a146102e95761011f565b8063088c05eb14610124578063153a06d31461016157806323a85b02146101785780632b425ab3146101a15780632bebbe4d146101de575b600080fd5b34801561013057600080fd5b5061014b600480360381019061014691906136aa565b610523565b60405161015891906136f2565b60405180910390f35b34801561016d57600080fd5b50610176610543565b005b34801561018457600080fd5b5061019f600480360381019061019a919061377c565b6105ee565b005b3480156101ad57600080fd5b506101c860048036038101906101c391906137f7565b610e00565b6040516101d591906136f2565b60405180910390f35b3480156101ea57600080fd5b5061020560048036038101906102009190613824565b611200565b6040516102129190613873565b60405180910390f35b34801561022757600080fd5b50610242600480360381019061023d91906137f7565b611228565b005b34801561025057600080fd5b5061025961147c565b6040516102669190613873565b60405180910390f35b34801561027b57600080fd5b50610296600480360381019061029191906137f7565b611482565b6040516102a3919061389d565b60405180910390f35b3480156102b857600080fd5b506102d360048036038101906102ce91906138b8565b6114b5565b6040516102e09190613873565b60405180910390f35b3480156102f557600080fd5b50610310600480360381019061030b9190613824565b611612565b60405161031f9392919061390b565b60405180910390f35b34801561033457600080fd5b5061034f600480360381019061034a9190613824565b6116e9565b60405161035e9392919061390b565b60405180910390f35b34801561037357600080fd5b5061037c611750565b6040516103899190613963565b60405180910390f35b34801561039e57600080fd5b506103a7611776565b6040516103b49190613997565b60405180910390f35b3480156103c957600080fd5b506103e460048036038101906103df919061377c565b611817565b6040516103f191906136f2565b60405180910390f35b34801561040657600080fd5b50610421600480360381019061041c9190613824565b611d25565b6040516104309392919061390b565b60405180910390f35b34801561044557600080fd5b50610460600480360381019061045b91906137f7565b611d8c565b60405161046d9190613873565b60405180910390f35b61047e611db0565b005b34801561048c57600080fd5b506104a760048036038101906104a291906137f7565b611e41565b6040516104b49190613873565b60405180910390f35b3480156104c957600080fd5b506104e460048036038101906104df91906137f7565b611e59565b005b3480156104f257600080fd5b5061050d600480360381019061050891906136aa565b611f4b565b60405161051a9190613873565b60405180910390f35b60096020528060005260406000206000915054906101000a900460ff1681565b60005b600c805490508110156105eb57600060086000600c848154811061056d5761056c6139b2565b5b90600052602060002001548152602001908152602001600020600160028110610599576105986139b2565b5b01549050804211156105d7576105cc600c83815481106105bc576105bb6139b2565b5b9060005260206000200154610e00565b506105d682611e59565b5b5080806105e390613a10565b915050610546565b50565b60178460ff161115610635576040517f08c379a000000000000000000000000000000000000000000000000000000000815260040161062c90613adc565b60405180910390fd5b603b8360ff16111561067c576040517f08c379a000000000000000000000000000000000000000000000000000000000815260040161067390613b6e565b60405180910390fd5b60178260ff1611156106c3576040517f08c379a00000000000000000000000000000000000000000000000000000000081526004016106ba90613c00565b60405180910390fd5b603b8160ff16111561070a576040517f08c379a000000000000000000000000000000000000000000000000000000000815260040161070190613c92565b60405180910390fd5b60001515735fc8d32690cc91d4c39d9d3abcbd16989f87570773ffffffffffffffffffffffffffffffffffffffff166354e3e36e876040518263ffffffff1660e01b815260040161075b9190613873565b602060405180830381865afa158015610778573d6000803e3d6000fd5b505050506040513d601f19601f8201168201806040525081019061079c9190613cde565b1515146107de576040517f08c379a00000000000000000000000000000000000000000000000000000000081526004016107d590613d57565b60405180910390fd5b6000806107ea87611f63565b9150915060006108036107fd88886120cd565b89612102565b9050600061081a61081487876120cd565b8a612102565b9050662386f26fc10000600660003373ffffffffffffffffffffffffffffffffffffffff1673ffffffffffffffffffffffffffffffffffffffff1681526020019081526020016000205410156108a5576040517f08c379a000000000000000000000000000000000000000000000000000000000815260040161089c90613dc3565b60405180910390fd5b60006108b28a84846114b5565b905080600660003373ffffffffffffffffffffffffffffffffffffffff1673ffffffffffffffffffffffffffffffffffffffff168152602001908152602001600020541015610936576040517f08c379a000000000000000000000000000000000000000000000000000000000815260040161092d90613e7b565b60405180910390fd5b60011515735fc8d32690cc91d4c39d9d3abcbd16989f87570773ffffffffffffffffffffffffffffffffffffffff1663e91926f18c6040518263ffffffff1660e01b81526004016109879190613873565b602060405180830381865afa1580156109a4573d6000803e3d6000fd5b505050506040513d601f19601f820116820180604052508101906109c89190613cde565b151514610a0a576040517f08c379a0000000000000000000000000000000000000000000000000000000008152600401610a0190613ee7565b60405180910390fd5b8483118015610a1857508382105b610a57576040517f08c379a0000000000000000000000000000000000000000000000000000000008152600401610a4e90613f79565b60405180910390fd5b600073dc64a140aa3e981100a9beca4e685f962f0cf6c973ffffffffffffffffffffffffffffffffffffffff16636352211e8c6040518263ffffffff1660e01b8152600401610aa69190613873565b6020604051808303816000875af1158015610ac5573d6000803e3d6000fd5b505050506040513d601f19601f82011682018060405250810190610ae99190613fae565b905080600760008d815260200190815260200160002060006101000a81548173ffffffffffffffffffffffffffffffffffffffff021916908373ffffffffffffffffffffffffffffffffffffffff16021790555073dc64a140aa3e981100a9beca4e685f962f0cf6c973ffffffffffffffffffffffffffffffffffffffff166342842e0e82338e6040518463ffffffff1660e01b8152600401610b8e93929190613fdb565b600060405180830381600087803b158015610ba857600080fd5b505af1158015610bbc573d6000803e3d6000fd5b50505050735fc8d32690cc91d4c39d9d3abcbd16989f87570773ffffffffffffffffffffffffffffffffffffffff16633ee036878c60016040518363ffffffff1660e01b8152600401610c10929190614012565b600060405180830381600087803b158015610c2a57600080fd5b505af1158015610c3e573d6000803e3d6000fd5b50505050604051806040016040528085815260200184815250600860008d8152602001908152602001600020906002610c78929190613464565b50610c84336001612219565b81600a60008d815260200190815260200160002081905550600c8b9080600181540180825580915050600190039060005260206000200160009091909190915055610ccd6134a4565b33816000019073ffffffffffffffffffffffffffffffffffffffff16908173ffffffffffffffffffffffffffffffffffffffff16815250508481602001818152505083816040018181525050600d60008d815260200190815260200160002081908060018154018082558091505060019003906000526020600020906003020160009091909190915060008201518160000160006101000a81548173ffffffffffffffffffffffffffffffffffffffff021916908373ffffffffffffffffffffffffffffffffffffffff160217905550602082015181600101556040820151816002015550507f29566464b948eb793ccbbcc498430edbeb10ad3930c3918b23cddd4064a68b838c8c8c8c8c604051610dea95949392919061404a565b60405180910390a1505050505050505050505050565b60008060086000848152602001908152602001600020600160028110610e2957610e286139b2565b5b015490508042106111c057600073dc64a140aa3e981100a9beca4e685f962f0cf6c973ffffffffffffffffffffffffffffffffffffffff16636352211e856040518263ffffffff1660e01b8152600401610e839190613873565b6020604051808303816000875af1158015610ea2573d6000803e3d6000fd5b505050506040513d601f19601f82011682018060405250810190610ec69190613fae565b905073dc64a140aa3e981100a9beca4e685f962f0cf6c973ffffffffffffffffffffffffffffffffffffffff166342842e0e8273dc64a140aa3e981100a9beca4e685f962f0cf6c973ffffffffffffffffffffffffffffffffffffffff1663c55fd06b886040518263ffffffff1660e01b8152600401610f469190613873565b602060405180830381865afa158015610f63573d6000803e3d6000fd5b505050506040513d601f19601f82011682018060405250810190610f879190613fae565b876040518463ffffffff1660e01b8152600401610fa693929190613fdb565b600060405180830381600087803b158015610fc057600080fd5b505af1158015610fd4573d6000803e3d6000fd5b50505050735fc8d32690cc91d4c39d9d3abcbd16989f87570773ffffffffffffffffffffffffffffffffffffffff16633ee036878560006040518363ffffffff1660e01b8152600401611028929190614012565b600060405180830381600087803b15801561104257600080fd5b505af1158015611056573d6000803e3d6000fd5b50505050611065816000612219565b600a600085815260200190815260200160002054600660008373ffffffffffffffffffffffffffffffffffffffff1673ffffffffffffffffffffffffffffffffffffffff16815260200190815260200160002060008282546110c7919061409d565b9250508190555073dc64a140aa3e981100a9beca4e685f962f0cf6c973ffffffffffffffffffffffffffffffffffffffff166371053abf856040518263ffffffff1660e01b815260040161111b9190613873565b602060405180830381865afa158015611138573d6000803e3d6000fd5b505050506040513d601f19601f8201168201806040525081019061115c9190613fae565b73ffffffffffffffffffffffffffffffffffffffff166108fc600a6000878152602001908152602001600020549081150290604051600060405180830381858888f193505050501580156111b4573d6000803e3d6000fd5b506001925050506111fb565b6040517f08c379a00000000000000000000000000000000000000000000000000000000081526004016111f29061411d565b60405180910390fd5b919050565b6008602052816000526040600020816002811061121c57600080fd5b01600091509150505481565b600660003373ffffffffffffffffffffffffffffffffffffffff1673ffffffffffffffffffffffffffffffffffffffff168152602001908152602001600020548111156112aa576040517f08c379a00000000000000000000000000000000000000000000000000000000081526004016112a190614189565b60405180910390fd5b80600660003373ffffffffffffffffffffffffffffffffffffffff1673ffffffffffffffffffffffffffffffffffffffff16815260200190815260200160002060008282546112f9919061409d565b9250508190555060003373ffffffffffffffffffffffffffffffffffffffff1682604051611326906141da565b60006040518083038185875af1925050503d8060008114611363576040519150601f19603f3d011682016040523d82523d6000602084013e611368565b606091505b50509050806113ac576040517f08c379a00000000000000000000000000000000000000000000000000000000081526004016113a39061423b565b60405180910390fd5b60001515600960003373ffffffffffffffffffffffffffffffffffffffff1673ffffffffffffffffffffffffffffffffffffffff16815260200190815260200160002060009054906101000a900460ff1615151461143f576040517f08c379a00000000000000000000000000000000000000000000000000000000081526004016114369061433f565b60405180910390fd5b7f109ee141209f6239a23d90572cc3e0474bd55208d82e0b5ad378d8ee7d9223ea338360405161147092919061435f565b60405180910390a15050565b600f5481565b60076020528060005260406000206000915054906101000a900473ffffffffffffffffffffffffffffffffffffffff1681565b6000806305f5e100735fc8d32690cc91d4c39d9d3abcbd16989f87570773ffffffffffffffffffffffffffffffffffffffff1663828f74b1876040518263ffffffff1660e01b815260040161150a9190613873565b602060405180830381865afa158015611527573d6000803e3d6000fd5b505050506040513d601f19601f8201168201806040525081019061154b919061439d565b61155591906143ca565b90506000611561611776565b9050600082826115719190614453565b670de0b6b3a76400006115849190614453565b905060006064610e10836115989190614453565b6115a29190614453565b9050600087876115b2919061409d565b90507fcf373849aa984dfd76504d4f7b03864086718e62d57440024002847b16783a818983836115e291906143ca565b6040516115f0929190614484565b60405180910390a1818161160491906143ca565b955050505050509392505050565b6000806000600d6000868152602001908152602001600020848154811061163c5761163b6139b2565b5b906000526020600020906003020160000160009054906101000a900473ffffffffffffffffffffffffffffffffffffffff16600d60008781526020019081526020016000208581548110611693576116926139b2565b5b906000526020600020906003020160010154600d600088815260200190815260200160002086815481106116ca576116c96139b2565b5b9060005260206000209060030201600201549250925092509250925092565b600d602052816000526040600020818154811061170557600080fd5b9060005260206000209060030201600091509150508060000160009054906101000a900473ffffffffffffffffffffffffffffffffffffffff16908060010154908060020154905083565b601160009054906101000a900473ffffffffffffffffffffffffffffffffffffffff1681565b600080601060009054906101000a900473ffffffffffffffffffffffffffffffffffffffff1673ffffffffffffffffffffffffffffffffffffffff1663feaf968c6040518163ffffffff1660e01b815260040160a060405180830381865afa1580156117e6573d6000803e3d6000fd5b505050506040513d601f19601f8201168201806040525081019061180a919061451b565b5050509150508091505090565b600060178560ff161115611860576040517f08c379a000000000000000000000000000000000000000000000000000000000815260040161185790613adc565b60405180910390fd5b603b8460ff1611156118a7576040517f08c379a000000000000000000000000000000000000000000000000000000000815260040161189e90613b6e565b60405180910390fd5b60178360ff1611156118ee576040517f08c379a00000000000000000000000000000000000000000000000000000000081526004016118e590613c00565b60405180910390fd5b603b8260ff161115611935576040517f08c379a000000000000000000000000000000000000000000000000000000000815260040161192c90613c92565b60405180910390fd5b60008061194188611f63565b91509150600061195a61195489896120cd565b8a612102565b9050600061197161196b88886120cd565b8b612102565b905061197b6134a4565b6000600d60008d8152602001908152602001600020805490509050600060018211156119b1576001826119ae919061409d565b90505b6119d4604051806060016040528060228152602001614d28602291398383612274565b6000821415611ad35733836000019073ffffffffffffffffffffffffffffffffffffffff16908173ffffffffffffffffffffffffffffffffffffffff16815250508483602001818152505083836040018181525050600d60008e815260200190815260200160002083908060018154018082558091505060019003906000526020600020906003020160009091909190915060008201518160000160006101000a81548173ffffffffffffffffffffffffffffffffffffffff021916908373ffffffffffffffffffffffffffffffffffffffff160217905550602082015181600101556040820151816002015550506001975050505050505050611d1c565b6001821415611ca757600d60008e81526020019081526020016000208181548110611b0157611b006139b2565b5b906000526020600020906003020160020154851115611b3757611b268d338787612313565b506001975050505050505050611d1c565b84600d60008f8152602001908152602001600020600081548110611b5e57611b5d6139b2565b5b9060005260206000209060030201600201541015611c6c5733836000019073ffffffffffffffffffffffffffffffffffffffff16908173ffffffffffffffffffffffffffffffffffffffff16815250508483602001818152505083836040018181525050600d60008e815260200190815260200160002083908060018154018082558091505060019003906000526020600020906003020160009091909190915060008201518160000160006101000a81548173ffffffffffffffffffffffffffffffffffffffff021916908373ffffffffffffffffffffffffffffffffffffffff160217905550602082015181600101556040820151816002015550506001975050505050505050611d1c565b6040517f08c379a0000000000000000000000000000000000000000000000000000000008152600401611c9e90614608565b60405180910390fd5b600d60008e81526020019081526020016000208181548110611ccc57611ccb6139b2565b5b906000526020600020906003020160020154851115611d0257611cf18d338787612313565b506001975050505050505050611d1c565b611d0f8d33878786612410565b5060019750505050505050505b95945050505050565b600e6020528160005260406000208181548110611d4157600080fd5b9060005260206000209060030201600091509150508060000160009054906101000a900473ffffffffffffffffffffffffffffffffffffffff16908060010154908060020154905083565b600c8181548110611d9c57600080fd5b906000526020600020016000915090505481565b34600660003373ffffffffffffffffffffffffffffffffffffffff1673ffffffffffffffffffffffffffffffffffffffff1681526020019081526020016000206000828254611dff9190614628565b925050819055507f7c4b3a8770ca0dfa675823896daf246993d41e6c18b0e130407888511d56f53a3334604051611e3792919061435f565b60405180910390a1565b600a6020528060005260406000206000915090505481565b600c805490508110611ea0576040517f08c379a0000000000000000000000000000000000000000000000000000000008152600401611e97906146ca565b60405180910390fd5b60008190505b6001600c80549050611eb8919061409d565b811015611f1f57600c600182611ece9190614628565b81548110611edf57611ede6139b2565b5b9060005260206000200154600c8281548110611efe57611efd6139b2565b5b90600052602060002001819055508080611f1790613a10565b915050611ea6565b50600c805480611f3257611f316146ea565b5b6001900381819060005260206000200160009055905550565b60066020528060005260406000206000915090505481565b600080600080735fc8d32690cc91d4c39d9d3abcbd16989f87570773ffffffffffffffffffffffffffffffffffffffff1663ccc5ffe9866040518263ffffffff1660e01b8152600401611fb69190613873565b6040805180830381865afa158015611fd2573d6000803e3d6000fd5b505050506040513d601f19601f82011682018060405250810190611ff6919061472e565b91509150600080735fc8d32690cc91d4c39d9d3abcbd16989f87570773ffffffffffffffffffffffffffffffffffffffff16631a1089c2886040518263ffffffff1660e01b815260040161204a9190613873565b6040805180830381865afa158015612066573d6000803e3d6000fd5b505050506040513d601f19601f8201168201806040525081019061208a919061472e565b9150915060006120a361209d86866120cd565b89612102565b905060006120ba6120b485856120cd565b8a612102565b9050818197509750505050505050915091565b60006120d761264b565b6120fa60008001546000600101546000600201548660ff168660ff16600061269e565b905092915050565b600080735fc8d32690cc91d4c39d9d3abcbd16989f87570773ffffffffffffffffffffffffffffffffffffffff16635fe20047846040518263ffffffff1660e01b81526004016121529190613873565b6040805180830381865afa15801561216e573d6000803e3d6000fd5b505050506040513d601f19601f8201168201806040525081019061219291906148b5565b90506000610e10826001600281106121ad576121ac6139b2565b5b602002015160ff166121bf91906148f0565b61ffff16905060006001836000600281106121dd576121dc6139b2565b5b602002015160ff1614156121fe5781866121f7919061409d565b905061220d565b818661220a9190614628565b90505b80935050505092915050565b80600960008473ffffffffffffffffffffffffffffffffffffffff1673ffffffffffffffffffffffffffffffffffffffff16815260200190815260200160002060006101000a81548160ff0219169083151502179055505050565b61230e83838360405160240161228c939291906149a3565b6040516020818303038152906040527f969cdd03000000000000000000000000000000000000000000000000000000007bffffffffffffffffffffffffffffffffffffffffffffffffffffffff19166020820180517bffffffffffffffffffffffffffffffffffffffffffffffffffffffff83818316178352505050506126ff565b505050565b600061231d6134a4565b84816000019073ffffffffffffffffffffffffffffffffffffffff16908173ffffffffffffffffffffffffffffffffffffffff16815250508381602001818152505082816040018181525050600d600087815260200190815260200160002081908060018154018082558091505060019003906000526020600020906003020160009091909190915060008201518160000160006101000a81548173ffffffffffffffffffffffffffffffffffffffff021916908373ffffffffffffffffffffffffffffffffffffffff160217905550602082015181600101556040820151816002015550506001915050949350505050565b600080600090505b8281101561263c576000819050808061243090613a10565b915050600d60008981526020019081526020016000208281548110612458576124576139b2565b5b9060005260206000209060030201600201548611156125ee578381111561256e576124816134a4565b87816000019073ffffffffffffffffffffffffffffffffffffffff16908173ffffffffffffffffffffffffffffffffffffffff16815250508681602001818152505085816040018181525050600d60008a815260200190815260200160002081908060018154018082558091505060019003906000526020600020906003020160009091909190915060008201518160000160006101000a81548173ffffffffffffffffffffffffffffffffffffffff021916908373ffffffffffffffffffffffffffffffffffffffff16021790555060208201518160010155604082015181600201555050505061263c565b600d60008981526020019081526020016000208181548110612593576125926139b2565b5b9060005260206000209060030201600101548510156125e85760008214156125ce576125c28888888888612728565b50600192505050612642565b6125dc888888888887612bf0565b50600192505050612642565b50612629565b6040517f08c379a000000000000000000000000000000000000000000000000000000000815260040161262090614a2d565b60405180910390fd5b808061263490613a10565b915050612418565b60019150505b95945050505050565b612654426130df565b6000800160008060010160008060020160008060030160008060040160008060050160008c919050558b919050558a91905055899190505588919050558791905055505050505050565b600081603c846126ae91906143ca565b610e10866126bc91906143ca565b620151806126cb8b8b8b613166565b6126d591906143ca565b6126df9190614628565b6126e99190614628565b6126f39190614628565b90509695505050505050565b60008151905060006a636f6e736f6c652e6c6f679050602083016000808483855afa5050505050565b6000600e6000878152602001908152602001600020600061274991906134db565b6127516134a4565b600d6000888152602001908152602001600020600081548110612777576127766139b2565b5b906000526020600020906003020160000160009054906101000a900473ffffffffffffffffffffffffffffffffffffffff16816000019073ffffffffffffffffffffffffffffffffffffffff16908173ffffffffffffffffffffffffffffffffffffffff1681525050600d6000888152602001908152602001600020600081548110612806576128056139b2565b5b906000526020600020906003020160010154816020018181525050600d6000888152602001908152602001600020600081548110612847576128466139b2565b5b906000526020600020906003020160020154816040018181525050600e600088815260200190815260200160002081908060018154018082558091505060019003906000526020600020906003020160009091909190915060008201518160000160006101000a81548173ffffffffffffffffffffffffffffffffffffffff021916908373ffffffffffffffffffffffffffffffffffffffff1602179055506020820151816001015560408201518160020155505085816000019073ffffffffffffffffffffffffffffffffffffffff16908173ffffffffffffffffffffffffffffffffffffffff16815250508481602001818152505083816040018181525050600e600088815260200190815260200160002081908060018154018082558091505060019003906000526020600020906003020160009091909190915060008201518160000160006101000a81548173ffffffffffffffffffffffffffffffffffffffff021916908373ffffffffffffffffffffffffffffffffffffffff160217905550602082015181600101556040820151816002015550506000600190505b83811015612bac57600d60008981526020019081526020016000208181548110612a1657612a156139b2565b5b906000526020600020906003020160000160009054906101000a900473ffffffffffffffffffffffffffffffffffffffff16826000019073ffffffffffffffffffffffffffffffffffffffff16908173ffffffffffffffffffffffffffffffffffffffff1681525050600d60008981526020019081526020016000208181548110612aa457612aa36139b2565b5b906000526020600020906003020160010154826020018181525050600d60008981526020019081526020016000208181548110612ae457612ae36139b2565b5b906000526020600020906003020160020154826040018181525050600e600089815260200190815260200160002082908060018154018082558091505060019003906000526020600020906003020160009091909190915060008201518160000160006101000a81548173ffffffffffffffffffffffffffffffffffffffff021916908373ffffffffffffffffffffffffffffffffffffffff160217905550602082015181600101556040820151816002015550508080612ba490613a10565b9150506129e9565b50600e6000888152602001908152602001600020600d6000898152602001908152602001600020908054612be19291906134ff565b50600191505095945050505050565b6000600e60008881526020019081526020016000206000612c1191906134db565b612c196134a4565b60005b838111612dde57600d60008a81526020019081526020016000208181548110612c4857612c476139b2565b5b906000526020600020906003020160000160009054906101000a900473ffffffffffffffffffffffffffffffffffffffff16826000019073ffffffffffffffffffffffffffffffffffffffff16908173ffffffffffffffffffffffffffffffffffffffff1681525050600d60008a81526020019081526020016000208181548110612cd657612cd56139b2565b5b906000526020600020906003020160010154826020018181525050600d60008a81526020019081526020016000208181548110612d1657612d156139b2565b5b906000526020600020906003020160020154826040018181525050600e60008a815260200190815260200160002082908060018154018082558091505060019003906000526020600020906003020160009091909190915060008201518160000160006101000a81548173ffffffffffffffffffffffffffffffffffffffff021916908373ffffffffffffffffffffffffffffffffffffffff160217905550602082015181600101556040820151816002015550508080612dd690613a10565b915050612c1c565b5086816000019073ffffffffffffffffffffffffffffffffffffffff16908173ffffffffffffffffffffffffffffffffffffffff16815250508581602001818152505084816040018181525050600e600089815260200190815260200160002081908060018154018082558091505060019003906000526020600020906003020160009091909190915060008201518160000160006101000a81548173ffffffffffffffffffffffffffffffffffffffff021916908373ffffffffffffffffffffffffffffffffffffffff160217905550602082015181600101556040820151816002015550506000600184612ed49190614628565b90505b8481101561309a57600d60008a81526020019081526020016000208181548110612f0457612f036139b2565b5b906000526020600020906003020160000160009054906101000a900473ffffffffffffffffffffffffffffffffffffffff16826000019073ffffffffffffffffffffffffffffffffffffffff16908173ffffffffffffffffffffffffffffffffffffffff1681525050600d60008a81526020019081526020016000208181548110612f9257612f916139b2565b5b906000526020600020906003020160010154826020018181525050600d60008a81526020019081526020016000208181548110612fd257612fd16139b2565b5b906000526020600020906003020160020154826040018181525050600e60008a815260200190815260200160002082908060018154018082558091505060019003906000526020600020906003020160009091909190915060008201518160000160006101000a81548173ffffffffffffffffffffffffffffffffffffffff021916908373ffffffffffffffffffffffffffffffffffffffff16021790555060208201518160010155604082015181600201555050808061309290613a10565b915050612ed7565b600e60008a8152602001908152602001600020600d60008b81526020019081526020016000209080546130ce9291906134ff565b506001925050509695505050505050565b6000806000806000806130ff62015180886130fa9190614453565b6132c5565b8096508197508298505050506000620151808861311c9190614a4d565b9050610e108161312c9190614453565b9350610e108161313c9190614a4d565b9050603c8161314b9190614453565b9250603c8161315a9190614a4d565b91505091939550919395565b60006107b284101561317757600080fd5b600084905060008490506000849050600062253d8c60046064600c600e8761319f9190614a7e565b6131a99190614b12565b611324886131b79190614b7c565b6131c19190614b7c565b6131cb9190614b12565b60036131d79190614c10565b6131e19190614b12565b600c80600c600e886131f39190614a7e565b6131fd9190614b12565b6132079190614c10565b6002876132149190614a7e565b61321e9190614a7e565b61016f61322b9190614c10565b6132359190614b12565b6004600c600e886132469190614a7e565b6132509190614b12565b6112c08961325e9190614b7c565b6132689190614b7c565b6105b56132759190614c10565b61327f9190614b12565b617d4b8661328d9190614a7e565b6132979190614b7c565b6132a19190614b7c565b6132ab9190614a7e565b6132b59190614a7e565b9050809450505050509392505050565b600080600080849050600062253d8c62010bd9836132e39190614b7c565b6132ed9190614b7c565b9050600062023ab18260046133029190614c10565b61330c9190614b12565b9050600460038262023ab16133219190614c10565b61332b9190614b7c565b6133359190614b12565b826133409190614a7e565b9150600062164b096001846133559190614b7c565b610fa06133629190614c10565b61336c9190614b12565b9050601f6004826105b56133809190614c10565b61338a9190614b12565b846133959190614a7e565b61339f9190614b7c565b9250600061098f8460506133b39190614c10565b6133bd9190614b12565b9050600060508261098f6133d19190614c10565b6133db9190614b12565b856133e69190614a7e565b9050600b826133f59190614b12565b945084600c6134049190614c10565b6002836134119190614b7c565b61341b9190614a7e565b9150848360318661342c9190614a7e565b60646134389190614c10565b6134429190614b7c565b61344c9190614b7c565b92508298508197508096505050505050509193909250565b8260028101928215613493579160200282015b82811115613492578251825591602001919060010190613477565b5b5090506134a091906135d2565b5090565b6040518060600160405280600073ffffffffffffffffffffffffffffffffffffffff16815260200160008152602001600081525090565b50805460008255600302906000526020600020908101906134fc91906135ef565b50565b8280548282559060005260206000209060030281019282156135c15760005260206000209160030282015b828111156135c05782826000820160009054906101000a900473ffffffffffffffffffffffffffffffffffffffff168160000160006101000a81548173ffffffffffffffffffffffffffffffffffffffff021916908373ffffffffffffffffffffffffffffffffffffffff160217905550600182015481600101556002820154816002015550509160030191906003019061352a565b5b5090506135ce91906135ef565b5090565b5b808211156135eb5760008160009055506001016135d3565b5090565b5b8082111561363957600080820160006101000a81549073ffffffffffffffffffffffffffffffffffffffff021916905560018201600090556002820160009055506003016135f0565b5090565b6000604051905090565b600080fd5b600073ffffffffffffffffffffffffffffffffffffffff82169050919050565b60006136778261364c565b9050919050565b6136878161366c565b811461369257600080fd5b50565b6000813590506136a48161367e565b92915050565b6000602082840312156136c0576136bf613647565b5b60006136ce84828501613695565b91505092915050565b60008115159050919050565b6136ec816136d7565b82525050565b600060208201905061370760008301846136e3565b92915050565b6000819050919050565b6137208161370d565b811461372b57600080fd5b50565b60008135905061373d81613717565b92915050565b600060ff82169050919050565b61375981613743565b811461376457600080fd5b50565b60008135905061377681613750565b92915050565b600080600080600060a0868803121561379857613797613647565b5b60006137a68882890161372e565b95505060206137b788828901613767565b94505060406137c888828901613767565b93505060606137d988828901613767565b92505060806137ea88828901613767565b9150509295509295909350565b60006020828403121561380d5761380c613647565b5b600061381b8482850161372e565b91505092915050565b6000806040838503121561383b5761383a613647565b5b60006138498582860161372e565b925050602061385a8582860161372e565b9150509250929050565b61386d8161370d565b82525050565b60006020820190506138886000830184613864565b92915050565b6138978161366c565b82525050565b60006020820190506138b2600083018461388e565b92915050565b6000806000606084860312156138d1576138d0613647565b5b60006138df8682870161372e565b93505060206138f08682870161372e565b92505060406139018682870161372e565b9150509250925092565b6000606082019050613920600083018661388e565b61392d6020830185613864565b61393a6040830184613864565b949350505050565b600061394d8261364c565b9050919050565b61395d81613942565b82525050565b60006020820190506139786000830184613954565b92915050565b6000819050919050565b6139918161397e565b82525050565b60006020820190506139ac6000830184613988565b92915050565b7f4e487b7100000000000000000000000000000000000000000000000000000000600052603260045260246000fd5b7f4e487b7100000000000000000000000000000000000000000000000000000000600052601160045260246000fd5b6000613a1b8261370d565b91507fffffffffffffffffffffffffffffffffffffffffffffffffffffffffffffffff821415613a4e57613a4d6139e1565b5b600182019050919050565b600082825260208201905092915050565b7f537461727420686f7572206d757374206265206265747765656e203020616e6460008201527f2032330000000000000000000000000000000000000000000000000000000000602082015250565b6000613ac6602383613a59565b9150613ad182613a6a565b604082019050919050565b60006020820190508181036000830152613af581613ab9565b9050919050565b7f5374617274206d696e757465206d757374206265206265747765656e2030206160008201527f6e64203539000000000000000000000000000000000000000000000000000000602082015250565b6000613b58602583613a59565b9150613b6382613afc565b604082019050919050565b60006020820190508181036000830152613b8781613b4b565b9050919050565b7f456e6420686f7572206d757374206265206265747765656e203020616e64203260008201527f3300000000000000000000000000000000000000000000000000000000000000602082015250565b6000613bea602183613a59565b9150613bf582613b8e565b604082019050919050565b60006020820190508181036000830152613c1981613bdd565b9050919050565b7f456e64206d696e757465206d757374206265206265747765656e203020616e6460008201527f2035390000000000000000000000000000000000000000000000000000000000602082015250565b6000613c7c602383613a59565b9150613c8782613c20565b604082019050919050565b60006020820190508181036000830152613cab81613c6f565b9050919050565b613cbb816136d7565b8114613cc657600080fd5b50565b600081519050613cd881613cb2565b92915050565b600060208284031215613cf457613cf3613647565b5b6000613d0284828501613cc9565b91505092915050565b7f5061726b696e672073706f742063757272656e746c7920696e20757365210000600082015250565b6000613d41601e83613a59565b9150613d4c82613d0b565b602082019050919050565b60006020820190508181036000830152613d7081613d34565b9050919050565b7f4d757374206465706f736974206174206c6561737420302e3031204574680000600082015250565b6000613dad601e83613a59565b9150613db882613d77565b602082019050919050565b60006020820190508181036000830152613ddc81613da0565b9050919050565b7f596f7520646f6e2774206861766520656e6f75676820455448206465706f736960008201527f74656420746f2070617920666f7220796f75722072657175657374656420647560208201527f726174696f6e2100000000000000000000000000000000000000000000000000604082015250565b6000613e65604783613a59565b9150613e7082613de3565b606082019050919050565b60006020820190508181036000830152613e9481613e58565b9050919050565b7f5061726b696e672073706f7420697320756e617661696c61626c652100000000600082015250565b6000613ed1601c83613a59565b9150613edc82613e9b565b602082019050919050565b60006020820190508181036000830152613f0081613ec4565b9050919050565b7f5061726b696e672073706f7420756e617661696c61626c65206174207468697360008201527f2074696d65210000000000000000000000000000000000000000000000000000602082015250565b6000613f63602683613a59565b9150613f6e82613f07565b604082019050919050565b60006020820190508181036000830152613f9281613f56565b9050919050565b600081519050613fa88161367e565b92915050565b600060208284031215613fc457613fc3613647565b5b6000613fd284828501613f99565b91505092915050565b6000606082019050613ff0600083018661388e565b613ffd602083018561388e565b61400a6040830184613864565b949350505050565b60006040820190506140276000830185613864565b61403460208301846136e3565b9392505050565b61404481613743565b82525050565b600060a08201905061405f6000830188613864565b61406c602083018761403b565b614079604083018661403b565b614086606083018561403b565b614093608083018461403b565b9695505050505050565b60006140a88261370d565b91506140b38361370d565b9250828210156140c6576140c56139e1565b5b828203905092915050565b7f53657373696f6e206973206e6f74206f76657221000000000000000000000000600082015250565b6000614107601483613a59565b9150614112826140d1565b602082019050919050565b60006020820190508181036000830152614136816140fa565b9050919050565b7f4e6f7420656e6f75676820455448206465706f73697465640000000000000000600082015250565b6000614173601883613a59565b915061417e8261413d565b602082019050919050565b600060208201905081810360008301526141a281614166565b9050919050565b600081905092915050565b50565b60006141c46000836141a9565b91506141cf826141b4565b600082019050919050565b60006141e5826141b7565b9150819050919050565b7f4661696c656420746f2073656e64204574686572000000000000000000000000600082015250565b6000614225601483613a59565b9150614230826141ef565b602082019050919050565b6000602082019050818103600083015261425481614218565b9050919050565b7f596f752063616e6e6f7420776974686472617720455448207768696c6520706160008201527f726b696e672073657373696f6e20696e2070726f67726573732e20506c65617360208201527f65207761697420756e74696c207468652073657373696f6e20697320636f6d7060408201527f6c657465642c206f7220656e64207468652073657373696f6e206d616e75616c60608201527f6c79210000000000000000000000000000000000000000000000000000000000608082015250565b6000614329608383613a59565b91506143348261425b565b60a082019050919050565b600060208201905081810360008301526143588161431c565b9050919050565b6000604082019050614374600083018561388e565b6143816020830184613864565b9392505050565b60008151905061439781613717565b92915050565b6000602082840312156143b3576143b2613647565b5b60006143c184828501614388565b91505092915050565b60006143d58261370d565b91506143e08361370d565b9250817fffffffffffffffffffffffffffffffffffffffffffffffffffffffffffffffff0483118215151615614419576144186139e1565b5b828202905092915050565b7f4e487b7100000000000000000000000000000000000000000000000000000000600052601260045260246000fd5b600061445e8261370d565b91506144698361370d565b92508261447957614478614424565b5b828204905092915050565b60006040820190506144996000830185613864565b6144a66020830184613864565b9392505050565b600069ffffffffffffffffffff82169050919050565b6144cc816144ad565b81146144d757600080fd5b50565b6000815190506144e9816144c3565b92915050565b6144f88161397e565b811461450357600080fd5b50565b600081519050614515816144ef565b92915050565b600080600080600060a0868803121561453757614536613647565b5b6000614545888289016144da565b955050602061455688828901614506565b945050604061456788828901614388565b935050606061457888828901614388565b9250506080614589888289016144da565b9150509295509295909350565b7f54696d6520536c6f7420756e617661696c61626c652c20706c6561736520747260008201527f7920616761696e00000000000000000000000000000000000000000000000000602082015250565b60006145f2602783613a59565b91506145fd82614596565b604082019050919050565b60006020820190508181036000830152614621816145e5565b9050919050565b60006146338261370d565b915061463e8361370d565b9250827fffffffffffffffffffffffffffffffffffffffffffffffffffffffffffffffff03821115614673576146726139e1565b5b828201905092915050565b7f696e646578206f7574206f6620626f756e640000000000000000000000000000600082015250565b60006146b4601283613a59565b91506146bf8261467e565b602082019050919050565b600060208201905081810360008301526146e3816146a7565b9050919050565b7f4e487b7100000000000000000000000000000000000000000000000000000000600052603160045260246000fd5b60008151905061472881613750565b92915050565b6000806040838503121561474557614744613647565b5b600061475385828601614719565b925050602061476485828601614719565b9150509250929050565b600080fd5b6000601f19601f8301169050919050565b7f4e487b7100000000000000000000000000000000000000000000000000000000600052604160045260246000fd5b6147bc82614773565b810181811067ffffffffffffffff821117156147db576147da614784565b5b80604052505050565b60006147ee61363d565b90506147fa82826147b3565b919050565b600067ffffffffffffffff82111561481a57614819614784565b5b602082029050919050565b600080fd5b600061483d614838846147ff565b6147e4565b9050806020840283018581111561485757614856614825565b5b835b81811015614880578061486c8882614719565b845260208401935050602081019050614859565b5050509392505050565b600082601f83011261489f5761489e61476e565b5b60026148ac84828561482a565b91505092915050565b6000604082840312156148cb576148ca613647565b5b60006148d98482850161488a565b91505092915050565b600061ffff82169050919050565b60006148fb826148e2565b9150614906836148e2565b92508161ffff0483118215151615614921576149206139e1565b5b828202905092915050565b600081519050919050565b60005b8381101561495557808201518184015260208101905061493a565b83811115614964576000848401525b50505050565b60006149758261492c565b61497f8185613a59565b935061498f818560208601614937565b61499881614773565b840191505092915050565b600060608201905081810360008301526149bd818661496a565b90506149cc6020830185613864565b6149d96040830184613864565b949350505050565b7f496e76616c6964207061726b696e672074696d6520736c6f7400000000000000600082015250565b6000614a17601983613a59565b9150614a22826149e1565b602082019050919050565b60006020820190508181036000830152614a4681614a0a565b9050919050565b6000614a588261370d565b9150614a638361370d565b925082614a7357614a72614424565b5b828206905092915050565b6000614a898261397e565b9150614a948361397e565b9250827f800000000000000000000000000000000000000000000000000000000000000001821260008412151615614acf57614ace6139e1565b5b827f7fffffffffffffffffffffffffffffffffffffffffffffffffffffffffffffff018213600084121615614b0757614b066139e1565b5b828203905092915050565b6000614b1d8261397e565b9150614b288361397e565b925082614b3857614b37614424565b5b600160000383147f800000000000000000000000000000000000000000000000000000000000000083141615614b7157614b706139e1565b5b828205905092915050565b6000614b878261397e565b9150614b928361397e565b9250817f7fffffffffffffffffffffffffffffffffffffffffffffffffffffffffffffff03831360008312151615614bcd57614bcc6139e1565b5b817f8000000000000000000000000000000000000000000000000000000000000000038312600083121615614c0557614c046139e1565b5b828201905092915050565b6000614c1b8261397e565b9150614c268361397e565b9250827f7fffffffffffffffffffffffffffffffffffffffffffffffffffffffffffffff0482116000841360008413161615614c6557614c646139e1565b5b817f80000000000000000000000000000000000000000000000000000000000000000583126000841260008413161615614ca257614ca16139e1565b5b827f80000000000000000000000000000000000000000000000000000000000000000582126000841360008412161615614cdf57614cde6139e1565b5b827f7fffffffffffffffffffffffffffffffffffffffffffffffffffffffffffffff0582126000841260008412161615614d1c57614d1b6139e1565b5b82820290509291505056fe74696d65536c6f74734c656e6774683a2025692c206c617374496e6465783a202569a264697066735822122029cb141c73f6330303796fcd6fe17ea442cd940e298cb55d9f9bf09990c2c1bc64736f6c634300080c0033",
  "devdoc": {
    "kind": "dev",
    "methods": {},
    "version": 1
  },
  "userdoc": {
    "kind": "user",
    "methods": {},
    "version": 1
  },
  "storageLayout": {
    "storage": [
      {
        "astId": 2490,
        "contract": "contracts/RequestParkingSpotToken.sol:RequestParkingSpotToken",
        "label": "current",
        "offset": 0,
        "slot": "0",
        "type": "t_struct(DateTime)2472_storage"
      },
      {
        "astId": 2494,
        "contract": "contracts/RequestParkingSpotToken.sol:RequestParkingSpotToken",
        "label": "depositors",
        "offset": 0,
        "slot": "6",
        "type": "t_mapping(t_address,t_uint256)"
      },
      {
        "astId": 2498,
        "contract": "contracts/RequestParkingSpotToken.sol:RequestParkingSpotToken",
        "label": "currentParkingSpotOwner",
        "offset": 0,
        "slot": "7",
        "type": "t_mapping(t_uint256,t_address)"
      },
      {
        "astId": 2504,
        "contract": "contracts/RequestParkingSpotToken.sol:RequestParkingSpotToken",
        "label": "requestedParkingTimes",
        "offset": 0,
        "slot": "8",
        "type": "t_mapping(t_uint256,t_array(t_uint256)2_storage)"
      },
      {
        "astId": 2508,
        "contract": "contracts/RequestParkingSpotToken.sol:RequestParkingSpotToken",
        "label": "sessionInProgress",
        "offset": 0,
        "slot": "9",
        "type": "t_mapping(t_address,t_bool)"
      },
      {
        "astId": 2512,
        "contract": "contracts/RequestParkingSpotToken.sol:RequestParkingSpotToken",
        "label": "sessionCost",
        "offset": 0,
        "slot": "10",
        "type": "t_mapping(t_uint256,t_uint256)"
      },
      {
        "astId": 2517,
        "contract": "contracts/RequestParkingSpotToken.sol:RequestParkingSpotToken",
        "label": "availableSlots",
        "offset": 0,
        "slot": "11",
        "type": "t_mapping(t_uint256,t_struct(TimeSlots)2479_storage)"
      },
      {
        "astId": 2520,
        "contract": "contracts/RequestParkingSpotToken.sol:RequestParkingSpotToken",
        "label": "activeSessions",
        "offset": 0,
        "slot": "12",
        "type": "t_array(t_uint256)dyn_storage"
      },
      {
        "astId": 2526,
        "contract": "contracts/RequestParkingSpotToken.sol:RequestParkingSpotToken",
        "label": "reservedParkingTimes",
        "offset": 0,
        "slot": "13",
        "type": "t_mapping(t_uint256,t_array(t_struct(TimeSlots)2479_storage)dyn_storage)"
      },
      {
        "astId": 2532,
        "contract": "contracts/RequestParkingSpotToken.sol:RequestParkingSpotToken",
        "label": "tempReservedParkingTimes",
        "offset": 0,
        "slot": "14",
        "type": "t_mapping(t_uint256,t_array(t_struct(TimeSlots)2479_storage)dyn_storage)"
      },
      {
        "astId": 2534,
        "contract": "contracts/RequestParkingSpotToken.sol:RequestParkingSpotToken",
        "label": "testLoop",
        "offset": 0,
        "slot": "15",
        "type": "t_uint256"
      },
      {
        "astId": 2537,
        "contract": "contracts/RequestParkingSpotToken.sol:RequestParkingSpotToken",
        "label": "ethUSDpriceFeed",
        "offset": 0,
        "slot": "16",
        "type": "t_contract(AggregatorV3Interface)45"
      },
      {
        "astId": 2551,
        "contract": "contracts/RequestParkingSpotToken.sol:RequestParkingSpotToken",
        "label": "owner",
        "offset": 0,
        "slot": "17",
        "type": "t_address_payable"
      }
    ],
    "types": {
      "t_address": {
        "encoding": "inplace",
        "label": "address",
        "numberOfBytes": "20"
      },
      "t_address_payable": {
        "encoding": "inplace",
        "label": "address payable",
        "numberOfBytes": "20"
      },
      "t_array(t_struct(TimeSlots)2479_storage)dyn_storage": {
        "base": "t_struct(TimeSlots)2479_storage",
        "encoding": "dynamic_array",
        "label": "struct RequestParkingSpotToken.TimeSlots[]",
        "numberOfBytes": "32"
      },
      "t_array(t_uint256)2_storage": {
        "base": "t_uint256",
        "encoding": "inplace",
        "label": "uint256[2]",
        "numberOfBytes": "64"
      },
      "t_array(t_uint256)dyn_storage": {
        "base": "t_uint256",
        "encoding": "dynamic_array",
        "label": "uint256[]",
        "numberOfBytes": "32"
      },
      "t_bool": {
        "encoding": "inplace",
        "label": "bool",
        "numberOfBytes": "1"
      },
      "t_contract(AggregatorV3Interface)45": {
        "encoding": "inplace",
        "label": "contract AggregatorV3Interface",
        "numberOfBytes": "20"
      },
      "t_mapping(t_address,t_bool)": {
        "encoding": "mapping",
        "key": "t_address",
        "label": "mapping(address => bool)",
        "numberOfBytes": "32",
        "value": "t_bool"
      },
      "t_mapping(t_address,t_uint256)": {
        "encoding": "mapping",
        "key": "t_address",
        "label": "mapping(address => uint256)",
        "numberOfBytes": "32",
        "value": "t_uint256"
      },
      "t_mapping(t_uint256,t_address)": {
        "encoding": "mapping",
        "key": "t_uint256",
        "label": "mapping(uint256 => address)",
        "numberOfBytes": "32",
        "value": "t_address"
      },
      "t_mapping(t_uint256,t_array(t_struct(TimeSlots)2479_storage)dyn_storage)": {
        "encoding": "mapping",
        "key": "t_uint256",
        "label": "mapping(uint256 => struct RequestParkingSpotToken.TimeSlots[])",
        "numberOfBytes": "32",
        "value": "t_array(t_struct(TimeSlots)2479_storage)dyn_storage"
      },
      "t_mapping(t_uint256,t_array(t_uint256)2_storage)": {
        "encoding": "mapping",
        "key": "t_uint256",
        "label": "mapping(uint256 => uint256[2])",
        "numberOfBytes": "32",
        "value": "t_array(t_uint256)2_storage"
      },
      "t_mapping(t_uint256,t_struct(TimeSlots)2479_storage)": {
        "encoding": "mapping",
        "key": "t_uint256",
        "label": "mapping(uint256 => struct RequestParkingSpotToken.TimeSlots)",
        "numberOfBytes": "32",
        "value": "t_struct(TimeSlots)2479_storage"
      },
      "t_mapping(t_uint256,t_uint256)": {
        "encoding": "mapping",
        "key": "t_uint256",
        "label": "mapping(uint256 => uint256)",
        "numberOfBytes": "32",
        "value": "t_uint256"
      },
      "t_struct(DateTime)2472_storage": {
        "encoding": "inplace",
        "label": "struct RequestParkingSpotToken.DateTime",
        "members": [
          {
            "astId": 2461,
            "contract": "contracts/RequestParkingSpotToken.sol:RequestParkingSpotToken",
            "label": "Year",
            "offset": 0,
            "slot": "0",
            "type": "t_uint256"
          },
          {
            "astId": 2463,
            "contract": "contracts/RequestParkingSpotToken.sol:RequestParkingSpotToken",
            "label": "Month",
            "offset": 0,
            "slot": "1",
            "type": "t_uint256"
          },
          {
            "astId": 2465,
            "contract": "contracts/RequestParkingSpotToken.sol:RequestParkingSpotToken",
            "label": "Day",
            "offset": 0,
            "slot": "2",
            "type": "t_uint256"
          },
          {
            "astId": 2467,
            "contract": "contracts/RequestParkingSpotToken.sol:RequestParkingSpotToken",
            "label": "Hour",
            "offset": 0,
            "slot": "3",
            "type": "t_uint256"
          },
          {
            "astId": 2469,
            "contract": "contracts/RequestParkingSpotToken.sol:RequestParkingSpotToken",
            "label": "Minute",
            "offset": 0,
            "slot": "4",
            "type": "t_uint256"
          },
          {
            "astId": 2471,
            "contract": "contracts/RequestParkingSpotToken.sol:RequestParkingSpotToken",
            "label": "Second",
            "offset": 0,
            "slot": "5",
            "type": "t_uint256"
          }
        ],
        "numberOfBytes": "192"
      },
      "t_struct(TimeSlots)2479_storage": {
        "encoding": "inplace",
        "label": "struct RequestParkingSpotToken.TimeSlots",
        "members": [
          {
            "astId": 2474,
            "contract": "contracts/RequestParkingSpotToken.sol:RequestParkingSpotToken",
            "label": "walletAddress",
            "offset": 0,
            "slot": "0",
            "type": "t_address"
          },
          {
            "astId": 2476,
            "contract": "contracts/RequestParkingSpotToken.sol:RequestParkingSpotToken",
            "label": "startTime",
            "offset": 0,
            "slot": "1",
            "type": "t_uint256"
          },
          {
            "astId": 2478,
            "contract": "contracts/RequestParkingSpotToken.sol:RequestParkingSpotToken",
            "label": "endTime",
            "offset": 0,
            "slot": "2",
            "type": "t_uint256"
          }
        ],
        "numberOfBytes": "96"
      },
      "t_uint256": {
        "encoding": "inplace",
        "label": "uint256",
        "numberOfBytes": "32"
      }
    }
  }
}