{
  "address": "0x5FC8d32690cc91D4c39d9d3abcBD16989F875707",
  "abi": [
    {
      "inputs": [],
      "stateMutability": "payable",
      "type": "constructor"
    },
    {
      "inputs": [
        {
          "internalType": "uint256",
          "name": "_tokenId",
          "type": "uint256"
        }
      ],
      "name": "checkAndConvertAvailabilityTime",
      "outputs": [
        {
          "internalType": "uint256",
          "name": "",
          "type": "uint256"
        }
      ],
      "stateMutability": "nonpayable",
      "type": "function"
    },
    {
      "inputs": [],
      "name": "deposit",
      "outputs": [],
      "stateMutability": "payable",
      "type": "function"
    },
    {
      "inputs": [
        {
          "internalType": "address",
          "name": "",
          "type": "address"
        }
      ],
      "name": "depositors",
      "outputs": [
        {
          "internalType": "uint256",
          "name": "",
          "type": "uint256"
        }
      ],
      "stateMutability": "view",
      "type": "function"
    },
    {
      "inputs": [],
      "name": "owner",
      "outputs": [
        {
          "internalType": "address payable",
          "name": "",
          "type": "address"
        }
      ],
      "stateMutability": "view",
      "type": "function"
    },
    {
      "inputs": [],
      "name": "permittedStartTimeUnix",
      "outputs": [
        {
          "internalType": "uint256",
          "name": "",
          "type": "uint256"
        }
      ],
      "stateMutability": "view",
      "type": "function"
    },
    {
      "inputs": [
        {
          "internalType": "uint256",
          "name": "_tokenId",
          "type": "uint256"
        }
      ],
      "name": "requestParkingSpotToken",
      "outputs": [],
      "stateMutability": "nonpayable",
      "type": "function"
    },
    {
      "inputs": [
        {
          "internalType": "uint256",
          "name": "_amount",
          "type": "uint256"
        }
      ],
      "name": "withdraw",
      "outputs": [],
      "stateMutability": "nonpayable",
      "type": "function"
    }
  ],
  "transactionHash": "0x0c1e4361a672c640efb0ada7fa352a822e5abd4c2b6df87aeb4ac758f39fe91d",
  "args": [],
  "numDeployments": 1,
  "solcInputHash": "696b5414f34e56848ea121635d0e9aa0",
  "bytecode": "0x608060405233600260006101000a81548173ffffffffffffffffffffffffffffffffffffffff021916908373ffffffffffffffffffffffffffffffffffffffff16021790555061145c806100546000396000f3fe6080604052600436106100705760003560e01c80638da5cb5b1161004e5780638da5cb5b146100f2578063d0e30db01461011d578063eed75f6d14610127578063f61a4a0a1461016457610070565b80632e1a7d4d14610075578063368c64f01461009e57806374c340b7146100c9575b600080fd5b34801561008157600080fd5b5061009c60048036038101906100979190610b44565b6101a1565b005b3480156100aa57600080fd5b506100b3610329565b6040516100c09190610b80565b60405180910390f35b3480156100d557600080fd5b506100f060048036038101906100eb9190610b44565b61032f565b005b3480156100fe57600080fd5b506101076105a8565b6040516101149190610bdc565b60405180910390f35b6101256105ce565b005b34801561013357600080fd5b5061014e60048036038101906101499190610c35565b610626565b60405161015b9190610b80565b60405180910390f35b34801561017057600080fd5b5061018b60048036038101906101869190610b44565b61063e565b6040516101989190610b80565b60405180910390f35b600160003373ffffffffffffffffffffffffffffffffffffffff1673ffffffffffffffffffffffffffffffffffffffff16815260200190815260200160002054811115610223576040517f08c379a000000000000000000000000000000000000000000000000000000000815260040161021a90610cbf565b60405180910390fd5b80600160003373ffffffffffffffffffffffffffffffffffffffff1673ffffffffffffffffffffffffffffffffffffffff16815260200190815260200160002060008282546102729190610d0e565b9250508190555060003373ffffffffffffffffffffffffffffffffffffffff168260405161029f90610d73565b60006040518083038185875af1925050503d80600081146102dc576040519150601f19603f3d011682016040523d82523d6000602084013e6102e1565b606091505b5050905080610325576040517f08c379a000000000000000000000000000000000000000000000000000000000815260040161031c90610dd4565b60405180910390fd5b5050565b60005481565b670de0b6b3a7640000600160003373ffffffffffffffffffffffffffffffffffffffff1673ffffffffffffffffffffffffffffffffffffffff1681526020019081526020016000205410156103b9576040517f08c379a00000000000000000000000000000000000000000000000000000000081526004016103b090610e40565b60405180910390fd5b6001151573dc64a140aa3e981100a9beca4e685f962f0cf6c973ffffffffffffffffffffffffffffffffffffffff1663e91926f1836040518263ffffffff1660e01b815260040161040a9190610b80565b602060405180830381865afa158015610427573d6000803e3d6000fd5b505050506040513d601f19601f8201168201806040525081019061044b9190610e98565b15151461048d576040517f08c379a000000000000000000000000000000000000000000000000000000000815260040161048490610f11565b60405180910390fd5b600073cf7ed3acca5a467e9e704c703e8d87f634fb0fc973ffffffffffffffffffffffffffffffffffffffff16636352211e836040518263ffffffff1660e01b81526004016104dc9190610b80565b6020604051808303816000875af11580156104fb573d6000803e3d6000fd5b505050506040513d601f19601f8201168201806040525081019061051f9190610f46565b905073cf7ed3acca5a467e9e704c703e8d87f634fb0fc973ffffffffffffffffffffffffffffffffffffffff166342842e0e8233856040518463ffffffff1660e01b815260040161057293929190610f82565b600060405180830381600087803b15801561058c57600080fd5b505af11580156105a0573d6000803e3d6000fd5b505050505050565b600260009054906101000a900473ffffffffffffffffffffffffffffffffffffffff1681565b34600160003373ffffffffffffffffffffffffffffffffffffffff1673ffffffffffffffffffffffffffffffffffffffff168152602001908152602001600020600082825461061d9190610fb9565b92505081905550565b60016020528060005260406000206000915090505481565b60008042905060008060008060008061065687610723565b95509550955095509550955060008073dc64a140aa3e981100a9beca4e685f962f0cf6c973ffffffffffffffffffffffffffffffffffffffff1663ccc5ffe98c6040518263ffffffff1660e01b81526004016106b29190610b80565b6040805180830381865afa1580156106ce573d6000803e3d6000fd5b505050506040513d601f19601f820116820180604052508101906106f29190611048565b9150915061070a8888888560ff168560ff16886107aa565b6000819055506000549950505050505050505050919050565b600080600080600080610743620151808861073e91906110b7565b61080b565b8096508197508298505050506000620151808861076091906110e8565b9050610e108161077091906110b7565b9350610e108161078091906110e8565b9050603c8161078f91906110b7565b9250603c8161079e91906110e8565b91505091939550919395565b600081603c846107ba9190611119565b610e10866107c89190611119565b620151806107d78b8b8b6109aa565b6107e19190611119565b6107eb9190610fb9565b6107f59190610fb9565b6107ff9190610fb9565b90509695505050505050565b600080600080849050600062253d8c62010bd983610829919061117d565b610833919061117d565b9050600062023ab18260046108489190611211565b6108529190611328565b9050600460038262023ab16108679190611211565b610871919061117d565b61087b9190611328565b826108869190611392565b9150600062164b0960018461089b919061117d565b610fa06108a89190611211565b6108b29190611328565b9050601f6004826105b56108c69190611211565b6108d09190611328565b846108db9190611392565b6108e5919061117d565b9250600061098f8460506108f99190611211565b6109039190611328565b9050600060508261098f6109179190611211565b6109219190611328565b8561092c9190611392565b9050600b8261093b9190611328565b945084600c61094a9190611211565b600283610957919061117d565b6109619190611392565b915084836031866109729190611392565b606461097e9190611211565b610988919061117d565b610992919061117d565b92508298508197508096505050505050509193909250565b60006107b28410156109bb57600080fd5b600084905060008490506000849050600062253d8c60046064600c600e876109e39190611392565b6109ed9190611328565b611324886109fb919061117d565b610a05919061117d565b610a0f9190611328565b6003610a1b9190611211565b610a259190611328565b600c80600c600e88610a379190611392565b610a419190611328565b610a4b9190611211565b600287610a589190611392565b610a629190611392565b61016f610a6f9190611211565b610a799190611328565b6004600c600e88610a8a9190611392565b610a949190611328565b6112c089610aa2919061117d565b610aac919061117d565b6105b5610ab99190611211565b610ac39190611328565b617d4b86610ad19190611392565b610adb919061117d565b610ae5919061117d565b610aef9190611392565b610af99190611392565b9050809450505050509392505050565b600080fd5b6000819050919050565b610b2181610b0e565b8114610b2c57600080fd5b50565b600081359050610b3e81610b18565b92915050565b600060208284031215610b5a57610b59610b09565b5b6000610b6884828501610b2f565b91505092915050565b610b7a81610b0e565b82525050565b6000602082019050610b956000830184610b71565b92915050565b600073ffffffffffffffffffffffffffffffffffffffff82169050919050565b6000610bc682610b9b565b9050919050565b610bd681610bbb565b82525050565b6000602082019050610bf16000830184610bcd565b92915050565b6000610c0282610b9b565b9050919050565b610c1281610bf7565b8114610c1d57600080fd5b50565b600081359050610c2f81610c09565b92915050565b600060208284031215610c4b57610c4a610b09565b5b6000610c5984828501610c20565b91505092915050565b600082825260208201905092915050565b7f4e6f7420656e6f75676820455448206465706f73697465640000000000000000600082015250565b6000610ca9601883610c62565b9150610cb482610c73565b602082019050919050565b60006020820190508181036000830152610cd881610c9c565b9050919050565b7f4e487b7100000000000000000000000000000000000000000000000000000000600052601160045260246000fd5b6000610d1982610b0e565b9150610d2483610b0e565b925082821015610d3757610d36610cdf565b5b828203905092915050565b600081905092915050565b50565b6000610d5d600083610d42565b9150610d6882610d4d565b600082019050919050565b6000610d7e82610d50565b9150819050919050565b7f4661696c656420746f2073656e64204574686572000000000000000000000000600082015250565b6000610dbe601483610c62565b9150610dc982610d88565b602082019050919050565b60006020820190508181036000830152610ded81610db1565b9050919050565b7f4d757374206465706f736974206174206c656173742031204574680000000000600082015250565b6000610e2a601b83610c62565b9150610e3582610df4565b602082019050919050565b60006020820190508181036000830152610e5981610e1d565b9050919050565b60008115159050919050565b610e7581610e60565b8114610e8057600080fd5b50565b600081519050610e9281610e6c565b92915050565b600060208284031215610eae57610ead610b09565b5b6000610ebc84828501610e83565b91505092915050565b7f5061726b696e672073706f7420697320756e617661696c61626c652100000000600082015250565b6000610efb601c83610c62565b9150610f0682610ec5565b602082019050919050565b60006020820190508181036000830152610f2a81610eee565b9050919050565b600081519050610f4081610c09565b92915050565b600060208284031215610f5c57610f5b610b09565b5b6000610f6a84828501610f31565b91505092915050565b610f7c81610bf7565b82525050565b6000606082019050610f976000830186610f73565b610fa46020830185610f73565b610fb16040830184610b71565b949350505050565b6000610fc482610b0e565b9150610fcf83610b0e565b9250827fffffffffffffffffffffffffffffffffffffffffffffffffffffffffffffffff0382111561100457611003610cdf565b5b828201905092915050565b600060ff82169050919050565b6110258161100f565b811461103057600080fd5b50565b6000815190506110428161101c565b92915050565b6000806040838503121561105f5761105e610b09565b5b600061106d85828601611033565b925050602061107e85828601611033565b9150509250929050565b7f4e487b7100000000000000000000000000000000000000000000000000000000600052601260045260246000fd5b60006110c282610b0e565b91506110cd83610b0e565b9250826110dd576110dc611088565b5b828204905092915050565b60006110f382610b0e565b91506110fe83610b0e565b92508261110e5761110d611088565b5b828206905092915050565b600061112482610b0e565b915061112f83610b0e565b9250817fffffffffffffffffffffffffffffffffffffffffffffffffffffffffffffffff048311821515161561116857611167610cdf565b5b828202905092915050565b6000819050919050565b600061118882611173565b915061119383611173565b9250817f7fffffffffffffffffffffffffffffffffffffffffffffffffffffffffffffff038313600083121516156111ce576111cd610cdf565b5b817f800000000000000000000000000000000000000000000000000000000000000003831260008312161561120657611205610cdf565b5b828201905092915050565b600061121c82611173565b915061122783611173565b9250827f7fffffffffffffffffffffffffffffffffffffffffffffffffffffffffffffff048211600084136000841316161561126657611265610cdf565b5b817f800000000000000000000000000000000000000000000000000000000000000005831260008412600084131616156112a3576112a2610cdf565b5b827f800000000000000000000000000000000000000000000000000000000000000005821260008413600084121616156112e0576112df610cdf565b5b827f7fffffffffffffffffffffffffffffffffffffffffffffffffffffffffffffff058212600084126000841216161561131d5761131c610cdf565b5b828202905092915050565b600061133382611173565b915061133e83611173565b92508261134e5761134d611088565b5b600160000383147f80000000000000000000000000000000000000000000000000000000000000008314161561138757611386610cdf565b5b828205905092915050565b600061139d82611173565b91506113a883611173565b9250827f8000000000000000000000000000000000000000000000000000000000000000018212600084121516156113e3576113e2610cdf565b5b827f7fffffffffffffffffffffffffffffffffffffffffffffffffffffffffffffff01821360008412161561141b5761141a610cdf565b5b82820390509291505056fea2646970667358221220d50868d4dbb267cc15014a483383e8da380ae236d4a39eb7f6263fac173618ee64736f6c634300080c0033",
  "devdoc": {
    "kind": "dev",
    "methods": {},
    "version": 1
  },
  "userdoc": {
    "kind": "user",
    "methods": {},
    "version": 1
  },
  "storageLayout": {
    "storage": [
      {
        "astId": 2326,
        "contract": "contracts/RequestParkingSpotToken.sol:RequestParkingSpotToken",
        "label": "permittedStartTimeUnix",
        "offset": 0,
        "slot": "0",
        "type": "t_uint256"
      },
      {
        "astId": 2330,
        "contract": "contracts/RequestParkingSpotToken.sol:RequestParkingSpotToken",
        "label": "depositors",
        "offset": 0,
        "slot": "1",
        "type": "t_mapping(t_address,t_uint256)"
      },
      {
        "astId": 2344,
        "contract": "contracts/RequestParkingSpotToken.sol:RequestParkingSpotToken",
        "label": "owner",
        "offset": 0,
        "slot": "2",
        "type": "t_address_payable"
      }
    ],
    "types": {
      "t_address": {
        "encoding": "inplace",
        "label": "address",
        "numberOfBytes": "20"
      },
      "t_address_payable": {
        "encoding": "inplace",
        "label": "address payable",
        "numberOfBytes": "20"
      },
      "t_mapping(t_address,t_uint256)": {
        "encoding": "mapping",
        "key": "t_address",
        "label": "mapping(address => uint256)",
        "numberOfBytes": "32",
        "value": "t_uint256"
      },
      "t_uint256": {
        "encoding": "inplace",
        "label": "uint256",
        "numberOfBytes": "32"
      }
    }
  }
}