{
  "address": "0x5FC8d32690cc91D4c39d9d3abcBD16989F875707",
  "abi": [
    {
      "inputs": [],
      "stateMutability": "payable",
      "type": "constructor"
    },
    {
      "inputs": [],
      "name": "deposit",
      "outputs": [],
      "stateMutability": "payable",
      "type": "function"
    },
    {
      "inputs": [
        {
          "internalType": "address",
          "name": "",
          "type": "address"
        }
      ],
      "name": "depositors",
      "outputs": [
        {
          "internalType": "uint256",
          "name": "",
          "type": "uint256"
        }
      ],
      "stateMutability": "view",
      "type": "function"
    },
    {
      "inputs": [],
      "name": "getTime",
      "outputs": [],
      "stateMutability": "nonpayable",
      "type": "function"
    },
    {
      "inputs": [],
      "name": "owner",
      "outputs": [
        {
          "internalType": "address payable",
          "name": "",
          "type": "address"
        }
      ],
      "stateMutability": "view",
      "type": "function"
    },
    {
      "inputs": [
        {
          "internalType": "uint256",
          "name": "_tokenId",
          "type": "uint256"
        }
      ],
      "name": "requestParkingSpotToken",
      "outputs": [],
      "stateMutability": "nonpayable",
      "type": "function"
    },
    {
      "inputs": [],
      "name": "timeRn",
      "outputs": [
        {
          "internalType": "uint256",
          "name": "",
          "type": "uint256"
        }
      ],
      "stateMutability": "view",
      "type": "function"
    },
    {
      "inputs": [
        {
          "internalType": "uint256",
          "name": "_amount",
          "type": "uint256"
        }
      ],
      "name": "withdraw",
      "outputs": [],
      "stateMutability": "nonpayable",
      "type": "function"
    }
  ],
  "transactionHash": "0x65ccbf465043f11cff6ec178c2971b1d29b4c4fdc86953d935f7b1e82ae79658",
  "args": [],
  "numDeployments": 1,
  "solcInputHash": "5d24cf9f1d74bb91400be96ce0b2ea72",
  "bytecode": "0x608060405233600360006101000a81548173ffffffffffffffffffffffffffffffffffffffff021916908373ffffffffffffffffffffffffffffffffffffffff1602179055506115e0806100546000396000f3fe6080604052600436106100705760003560e01c80638da5cb5b1161004e5780638da5cb5b146100de578063af04950e14610109578063d0e30db014610134578063eed75f6d1461013e57610070565b80632e1a7d4d14610075578063557ed1ba1461009e57806374c340b7146100b5575b600080fd5b34801561008157600080fd5b5061009c60048036038101906100979190610c36565b61017b565b005b3480156100aa57600080fd5b506100b3610303565b005b3480156100c157600080fd5b506100dc60048036038101906100d79190610c36565b61030c565b005b3480156100ea57600080fd5b506100f36105df565b6040516101009190610ca4565b60405180910390f35b34801561011557600080fd5b5061011e610605565b60405161012b9190610cce565b60405180910390f35b61013c61060b565b005b34801561014a57600080fd5b5061016560048036038101906101609190610d27565b610663565b6040516101729190610cce565b60405180910390f35b600260003373ffffffffffffffffffffffffffffffffffffffff1673ffffffffffffffffffffffffffffffffffffffff168152602001908152602001600020548111156101fd576040517f08c379a00000000000000000000000000000000000000000000000000000000081526004016101f490610db1565b60405180910390fd5b80600260003373ffffffffffffffffffffffffffffffffffffffff1673ffffffffffffffffffffffffffffffffffffffff168152602001908152602001600020600082825461024c9190610e00565b9250508190555060003373ffffffffffffffffffffffffffffffffffffffff168260405161027990610e65565b60006040518083038185875af1925050503d80600081146102b6576040519150601f19603f3d011682016040523d82523d6000602084013e6102bb565b606091505b50509050806102ff576040517f08c379a00000000000000000000000000000000000000000000000000000000081526004016102f690610ec6565b60405180910390fd5b5050565b42600181905550565b6000806103188361067b565b915091506000429050670de0b6b3a7640000600260003373ffffffffffffffffffffffffffffffffffffffff1673ffffffffffffffffffffffffffffffffffffffff1681526020019081526020016000205410156103ab576040517f08c379a00000000000000000000000000000000000000000000000000000000081526004016103a290610f32565b60405180910390fd5b6001151573dc64a140aa3e981100a9beca4e685f962f0cf6c973ffffffffffffffffffffffffffffffffffffffff1663e91926f1866040518263ffffffff1660e01b81526004016103fc9190610cce565b602060405180830381865afa158015610419573d6000803e3d6000fd5b505050506040513d601f19601f8201168201806040525081019061043d9190610f8a565b15151461047f576040517f08c379a000000000000000000000000000000000000000000000000000000000815260040161047690611003565b60405180910390fd5b8242106104c1576040517f08c379a00000000000000000000000000000000000000000000000000000000081526004016104b890611095565b60405180910390fd5b600073cf7ed3acca5a467e9e704c703e8d87f634fb0fc973ffffffffffffffffffffffffffffffffffffffff16636352211e866040518263ffffffff1660e01b81526004016105109190610cce565b6020604051808303816000875af115801561052f573d6000803e3d6000fd5b505050506040513d601f19601f8201168201806040525081019061055391906110ca565b905073cf7ed3acca5a467e9e704c703e8d87f634fb0fc973ffffffffffffffffffffffffffffffffffffffff166342842e0e8233886040518463ffffffff1660e01b81526004016105a693929190611106565b600060405180830381600087803b1580156105c057600080fd5b505af11580156105d4573d6000803e3d6000fd5b505050505050505050565b600360009054906101000a900473ffffffffffffffffffffffffffffffffffffffff1681565b60015481565b34600260003373ffffffffffffffffffffffffffffffffffffffff1673ffffffffffffffffffffffffffffffffffffffff168152602001908152602001600020600082825461065a919061113d565b92505081905550565b60026020528060005260406000206000915090505481565b600080600042905060008060008060008061069587610815565b95509550955095509550955060008073dc64a140aa3e981100a9beca4e685f962f0cf6c973ffffffffffffffffffffffffffffffffffffffff1663ccc5ffe98d6040518263ffffffff1660e01b81526004016106f19190610cce565b6040805180830381865afa15801561070d573d6000803e3d6000fd5b505050506040513d601f19601f8201168201806040525081019061073191906111cc565b9150915060008073dc64a140aa3e981100a9beca4e685f962f0cf6c973ffffffffffffffffffffffffffffffffffffffff16631a1089c28f6040518263ffffffff1660e01b81526004016107859190610cce565b6040805180830381865afa1580156107a1573d6000803e3d6000fd5b505050506040513d601f19601f820116820180604052508101906107c591906111cc565b9150915060006107e18b8b8b8860ff168860ff1660005461089c565b905060006107fb8c8c8c8760ff168760ff1660005461089c565b905081819e509e5050505050505050505050505050915091565b6000806000806000806108356201518088610830919061123b565b6108fd565b80965081975082985050505060006201518088610852919061126c565b9050610e1081610862919061123b565b9350610e1081610872919061126c565b9050603c81610881919061123b565b9250603c81610890919061126c565b91505091939550919395565b600081603c846108ac919061129d565b610e10866108ba919061129d565b620151806108c98b8b8b610a9c565b6108d3919061129d565b6108dd919061113d565b6108e7919061113d565b6108f1919061113d565b90509695505050505050565b600080600080849050600062253d8c62010bd98361091b9190611301565b6109259190611301565b9050600062023ab182600461093a9190611395565b61094491906114ac565b9050600460038262023ab16109599190611395565b6109639190611301565b61096d91906114ac565b826109789190611516565b9150600062164b0960018461098d9190611301565b610fa061099a9190611395565b6109a491906114ac565b9050601f6004826105b56109b89190611395565b6109c291906114ac565b846109cd9190611516565b6109d79190611301565b9250600061098f8460506109eb9190611395565b6109f591906114ac565b9050600060508261098f610a099190611395565b610a1391906114ac565b85610a1e9190611516565b9050600b82610a2d91906114ac565b945084600c610a3c9190611395565b600283610a499190611301565b610a539190611516565b91508483603186610a649190611516565b6064610a709190611395565b610a7a9190611301565b610a849190611301565b92508298508197508096505050505050509193909250565b60006107b2841015610aad57600080fd5b600084905060008490506000849050600062253d8c60046064600c600e87610ad59190611516565b610adf91906114ac565b61132488610aed9190611301565b610af79190611301565b610b0191906114ac565b6003610b0d9190611395565b610b1791906114ac565b600c80600c600e88610b299190611516565b610b3391906114ac565b610b3d9190611395565b600287610b4a9190611516565b610b549190611516565b61016f610b619190611395565b610b6b91906114ac565b6004600c600e88610b7c9190611516565b610b8691906114ac565b6112c089610b949190611301565b610b9e9190611301565b6105b5610bab9190611395565b610bb591906114ac565b617d4b86610bc39190611516565b610bcd9190611301565b610bd79190611301565b610be19190611516565b610beb9190611516565b9050809450505050509392505050565b600080fd5b6000819050919050565b610c1381610c00565b8114610c1e57600080fd5b50565b600081359050610c3081610c0a565b92915050565b600060208284031215610c4c57610c4b610bfb565b5b6000610c5a84828501610c21565b91505092915050565b600073ffffffffffffffffffffffffffffffffffffffff82169050919050565b6000610c8e82610c63565b9050919050565b610c9e81610c83565b82525050565b6000602082019050610cb96000830184610c95565b92915050565b610cc881610c00565b82525050565b6000602082019050610ce36000830184610cbf565b92915050565b6000610cf482610c63565b9050919050565b610d0481610ce9565b8114610d0f57600080fd5b50565b600081359050610d2181610cfb565b92915050565b600060208284031215610d3d57610d3c610bfb565b5b6000610d4b84828501610d12565b91505092915050565b600082825260208201905092915050565b7f4e6f7420656e6f75676820455448206465706f73697465640000000000000000600082015250565b6000610d9b601883610d54565b9150610da682610d65565b602082019050919050565b60006020820190508181036000830152610dca81610d8e565b9050919050565b7f4e487b7100000000000000000000000000000000000000000000000000000000600052601160045260246000fd5b6000610e0b82610c00565b9150610e1683610c00565b925082821015610e2957610e28610dd1565b5b828203905092915050565b600081905092915050565b50565b6000610e4f600083610e34565b9150610e5a82610e3f565b600082019050919050565b6000610e7082610e42565b9150819050919050565b7f4661696c656420746f2073656e64204574686572000000000000000000000000600082015250565b6000610eb0601483610d54565b9150610ebb82610e7a565b602082019050919050565b60006020820190508181036000830152610edf81610ea3565b9050919050565b7f4d757374206465706f736974206174206c656173742031204574680000000000600082015250565b6000610f1c601b83610d54565b9150610f2782610ee6565b602082019050919050565b60006020820190508181036000830152610f4b81610f0f565b9050919050565b60008115159050919050565b610f6781610f52565b8114610f7257600080fd5b50565b600081519050610f8481610f5e565b92915050565b600060208284031215610fa057610f9f610bfb565b5b6000610fae84828501610f75565b91505092915050565b7f5061726b696e672073706f7420697320756e617661696c61626c652100000000600082015250565b6000610fed601c83610d54565b9150610ff882610fb7565b602082019050919050565b6000602082019050818103600083015261101c81610fe0565b9050919050565b7f5061726b696e672073706f7420756e617661696c61626c65206174207468697360008201527f2074696d65210000000000000000000000000000000000000000000000000000602082015250565b600061107f602683610d54565b915061108a82611023565b604082019050919050565b600060208201905081810360008301526110ae81611072565b9050919050565b6000815190506110c481610cfb565b92915050565b6000602082840312156110e0576110df610bfb565b5b60006110ee848285016110b5565b91505092915050565b61110081610ce9565b82525050565b600060608201905061111b60008301866110f7565b61112860208301856110f7565b6111356040830184610cbf565b949350505050565b600061114882610c00565b915061115383610c00565b9250827fffffffffffffffffffffffffffffffffffffffffffffffffffffffffffffffff0382111561118857611187610dd1565b5b828201905092915050565b600060ff82169050919050565b6111a981611193565b81146111b457600080fd5b50565b6000815190506111c6816111a0565b92915050565b600080604083850312156111e3576111e2610bfb565b5b60006111f1858286016111b7565b9250506020611202858286016111b7565b9150509250929050565b7f4e487b7100000000000000000000000000000000000000000000000000000000600052601260045260246000fd5b600061124682610c00565b915061125183610c00565b9250826112615761126061120c565b5b828204905092915050565b600061127782610c00565b915061128283610c00565b9250826112925761129161120c565b5b828206905092915050565b60006112a882610c00565b91506112b383610c00565b9250817fffffffffffffffffffffffffffffffffffffffffffffffffffffffffffffffff04831182151516156112ec576112eb610dd1565b5b828202905092915050565b6000819050919050565b600061130c826112f7565b9150611317836112f7565b9250817f7fffffffffffffffffffffffffffffffffffffffffffffffffffffffffffffff0383136000831215161561135257611351610dd1565b5b817f800000000000000000000000000000000000000000000000000000000000000003831260008312161561138a57611389610dd1565b5b828201905092915050565b60006113a0826112f7565b91506113ab836112f7565b9250827f7fffffffffffffffffffffffffffffffffffffffffffffffffffffffffffffff04821160008413600084131616156113ea576113e9610dd1565b5b817f8000000000000000000000000000000000000000000000000000000000000000058312600084126000841316161561142757611426610dd1565b5b827f8000000000000000000000000000000000000000000000000000000000000000058212600084136000841216161561146457611463610dd1565b5b827f7fffffffffffffffffffffffffffffffffffffffffffffffffffffffffffffff05821260008412600084121616156114a1576114a0610dd1565b5b828202905092915050565b60006114b7826112f7565b91506114c2836112f7565b9250826114d2576114d161120c565b5b600160000383147f80000000000000000000000000000000000000000000000000000000000000008314161561150b5761150a610dd1565b5b828205905092915050565b6000611521826112f7565b915061152c836112f7565b9250827f80000000000000000000000000000000000000000000000000000000000000000182126000841215161561156757611566610dd1565b5b827f7fffffffffffffffffffffffffffffffffffffffffffffffffffffffffffffff01821360008412161561159f5761159e610dd1565b5b82820390509291505056fea264697066735822122092b8a91d8f926608328b0a47ba5a77a4641b9980d9dbb0264268a78ec620b10764736f6c634300080c0033",
  "devdoc": {
    "kind": "dev",
    "methods": {},
    "version": 1
  },
  "userdoc": {
    "kind": "user",
    "methods": {},
    "version": 1
  },
  "storageLayout": {
    "storage": [
      {
        "astId": 2326,
        "contract": "contracts/RequestParkingSpotToken.sol:RequestParkingSpotToken",
        "label": "zero",
        "offset": 0,
        "slot": "0",
        "type": "t_uint256"
      },
      {
        "astId": 2328,
        "contract": "contracts/RequestParkingSpotToken.sol:RequestParkingSpotToken",
        "label": "timeRn",
        "offset": 0,
        "slot": "1",
        "type": "t_uint256"
      },
      {
        "astId": 2332,
        "contract": "contracts/RequestParkingSpotToken.sol:RequestParkingSpotToken",
        "label": "depositors",
        "offset": 0,
        "slot": "2",
        "type": "t_mapping(t_address,t_uint256)"
      },
      {
        "astId": 2346,
        "contract": "contracts/RequestParkingSpotToken.sol:RequestParkingSpotToken",
        "label": "owner",
        "offset": 0,
        "slot": "3",
        "type": "t_address_payable"
      }
    ],
    "types": {
      "t_address": {
        "encoding": "inplace",
        "label": "address",
        "numberOfBytes": "20"
      },
      "t_address_payable": {
        "encoding": "inplace",
        "label": "address payable",
        "numberOfBytes": "20"
      },
      "t_mapping(t_address,t_uint256)": {
        "encoding": "mapping",
        "key": "t_address",
        "label": "mapping(address => uint256)",
        "numberOfBytes": "32",
        "value": "t_uint256"
      },
      "t_uint256": {
        "encoding": "inplace",
        "label": "uint256",
        "numberOfBytes": "32"
      }
    }
  }
}