{
  "address": "0xc20fBE2c2A13a282Fac3a6d62Cf1fD1c3b620AB2",
  "abi": [
    {
      "inputs": [
        {
          "internalType": "address",
          "name": "_oracle",
          "type": "address"
        },
        {
          "internalType": "bytes32",
          "name": "_jobId",
          "type": "bytes32"
        },
        {
          "internalType": "uint256",
          "name": "_fee",
          "type": "uint256"
        },
        {
          "internalType": "address",
          "name": "_link",
          "type": "address"
        }
      ],
      "stateMutability": "nonpayable",
      "type": "constructor"
    },
    {
      "anonymous": false,
      "inputs": [
        {
          "indexed": true,
          "internalType": "bytes32",
          "name": "id",
          "type": "bytes32"
        }
      ],
      "name": "ChainlinkCancelled",
      "type": "event"
    },
    {
      "anonymous": false,
      "inputs": [
        {
          "indexed": true,
          "internalType": "bytes32",
          "name": "id",
          "type": "bytes32"
        }
      ],
      "name": "ChainlinkFulfilled",
      "type": "event"
    },
    {
      "anonymous": false,
      "inputs": [
        {
          "indexed": true,
          "internalType": "bytes32",
          "name": "id",
          "type": "bytes32"
        }
      ],
      "name": "ChainlinkRequested",
      "type": "event"
    },
    {
      "anonymous": false,
      "inputs": [
        {
          "indexed": true,
          "internalType": "address",
          "name": "from",
          "type": "address"
        },
        {
          "indexed": true,
          "internalType": "address",
          "name": "to",
          "type": "address"
        }
      ],
      "name": "OwnershipTransferRequested",
      "type": "event"
    },
    {
      "anonymous": false,
      "inputs": [
        {
          "indexed": true,
          "internalType": "address",
          "name": "from",
          "type": "address"
        },
        {
          "indexed": true,
          "internalType": "address",
          "name": "to",
          "type": "address"
        }
      ],
      "name": "OwnershipTransferred",
      "type": "event"
    },
    {
      "anonymous": false,
      "inputs": [
        {
          "indexed": true,
          "internalType": "bytes32",
          "name": "requestId",
          "type": "bytes32"
        },
        {
          "indexed": true,
          "internalType": "bytes",
          "name": "data",
          "type": "bytes"
        }
      ],
      "name": "RequestFulfilled",
      "type": "event"
    },
    {
      "inputs": [],
      "name": "acceptOwnership",
      "outputs": [],
      "stateMutability": "nonpayable",
      "type": "function"
    },
    {
      "inputs": [
        {
          "internalType": "address",
          "name": "_address",
          "type": "address"
        }
      ],
      "name": "checkParkingSpotLocationOwner",
      "outputs": [
        {
          "internalType": "bytes32",
          "name": "",
          "type": "bytes32"
        }
      ],
      "stateMutability": "view",
      "type": "function"
    },
    {
      "inputs": [
        {
          "internalType": "address",
          "name": "_address",
          "type": "address"
        },
        {
          "internalType": "uint16",
          "name": "_index",
          "type": "uint16"
        }
      ],
      "name": "checkParkingSpotLocationOwnerArray",
      "outputs": [
        {
          "internalType": "bytes32",
          "name": "",
          "type": "bytes32"
        }
      ],
      "stateMutability": "view",
      "type": "function"
    },
    {
      "inputs": [],
      "name": "data",
      "outputs": [
        {
          "internalType": "bytes",
          "name": "",
          "type": "bytes"
        }
      ],
      "stateMutability": "view",
      "type": "function"
    },
    {
      "inputs": [],
      "name": "fakeFulfillBytes",
      "outputs": [],
      "stateMutability": "nonpayable",
      "type": "function"
    },
    {
      "inputs": [
        {
          "internalType": "bytes32",
          "name": "requestId",
          "type": "bytes32"
        },
        {
          "internalType": "bytes",
          "name": "bytesData",
          "type": "bytes"
        }
      ],
      "name": "fulfillBytes",
      "outputs": [],
      "stateMutability": "nonpayable",
      "type": "function"
    },
    {
      "inputs": [],
      "name": "owner",
      "outputs": [
        {
          "internalType": "address",
          "name": "",
          "type": "address"
        }
      ],
      "stateMutability": "view",
      "type": "function"
    },
    {
      "inputs": [
        {
          "internalType": "address",
          "name": "",
          "type": "address"
        }
      ],
      "name": "parkingSpotLocationOwner",
      "outputs": [
        {
          "internalType": "bytes32",
          "name": "",
          "type": "bytes32"
        }
      ],
      "stateMutability": "view",
      "type": "function"
    },
    {
      "inputs": [
        {
          "internalType": "address",
          "name": "",
          "type": "address"
        },
        {
          "internalType": "uint256",
          "name": "",
          "type": "uint256"
        }
      ],
      "name": "parkingSpotLocationOwnerArray",
      "outputs": [
        {
          "internalType": "bytes32",
          "name": "",
          "type": "bytes32"
        }
      ],
      "stateMutability": "view",
      "type": "function"
    },
    {
      "inputs": [],
      "name": "parking_spot_location",
      "outputs": [
        {
          "internalType": "bytes32",
          "name": "",
          "type": "bytes32"
        }
      ],
      "stateMutability": "view",
      "type": "function"
    },
    {
      "inputs": [],
      "name": "requestOffchainParkingSpotData",
      "outputs": [],
      "stateMutability": "nonpayable",
      "type": "function"
    },
    {
      "inputs": [
        {
          "internalType": "address",
          "name": "to",
          "type": "address"
        }
      ],
      "name": "transferOwnership",
      "outputs": [],
      "stateMutability": "nonpayable",
      "type": "function"
    },
    {
      "inputs": [],
      "name": "withdrawLink",
      "outputs": [],
      "stateMutability": "nonpayable",
      "type": "function"
    }
  ],
  "transactionHash": "0xe6ee62660e9bf5247e4722c6b22f71ac3f23909e65adc6b1b6ccccd08d4f7b75",
  "args": [
    "0xf98Cd24CF1f864DF4942165569Fc0114f866067d",
    {
      "0": 101,
      "1": 101,
      "2": 50,
      "3": 102,
      "4": 53,
      "5": 51,
      "6": 97,
      "7": 52,
      "8": 50,
      "9": 99,
      "10": 54,
      "11": 50,
      "12": 52,
      "13": 98,
      "14": 54,
      "15": 57,
      "16": 57,
      "17": 98,
      "18": 98,
      "19": 48,
      "20": 97,
      "21": 51,
      "22": 97,
      "23": 51,
      "24": 56,
      "25": 49,
      "26": 97,
      "27": 57,
      "28": 102,
      "29": 102,
      "30": 55,
      "31": 102
    },
    "100000000000000000",
    "0x01be23585060835e02b77ef475b0cc51aa1e0709"
  ],
  "numDeployments": 2,
  "solcInputHash": "8b825d7095c7bed7007353da274099e0",
  "bytecode": "0x608060405260016004553480156200001657600080fd5b506040516200305d3803806200305d83398181016040528101906200003c919062000411565b338060008073ffffffffffffffffffffffffffffffffffffffff168273ffffffffffffffffffffffffffffffffffffffff161415620000b2576040517f08c379a0000000000000000000000000000000000000000000000000000000008152600401620000a990620004e4565b60405180910390fd5b81600660006101000a81548173ffffffffffffffffffffffffffffffffffffffff021916908373ffffffffffffffffffffffffffffffffffffffff160217905550600073ffffffffffffffffffffffffffffffffffffffff168173ffffffffffffffffffffffffffffffffffffffff16146200013a5762000139816200017760201b60201c565b5b5050506200014e81620002a960201b60201c565b6200015f84620002ed60201b60201c565b82600b8190555081600c819055505050505062000578565b3373ffffffffffffffffffffffffffffffffffffffff168173ffffffffffffffffffffffffffffffffffffffff161415620001e9576040517f08c379a0000000000000000000000000000000000000000000000000000000008152600401620001e09062000556565b60405180910390fd5b80600760006101000a81548173ffffffffffffffffffffffffffffffffffffffff021916908373ffffffffffffffffffffffffffffffffffffffff1602179055508073ffffffffffffffffffffffffffffffffffffffff16600660009054906101000a900473ffffffffffffffffffffffffffffffffffffffff1673ffffffffffffffffffffffffffffffffffffffff167fed8889f560326eb138920d842192f0eb3dd22b4f139c87a2c57538e05bae127860405160405180910390a350565b80600260006101000a81548173ffffffffffffffffffffffffffffffffffffffff021916908373ffffffffffffffffffffffffffffffffffffffff16021790555050565b80600360006101000a81548173ffffffffffffffffffffffffffffffffffffffff021916908373ffffffffffffffffffffffffffffffffffffffff16021790555050565b600080fd5b600073ffffffffffffffffffffffffffffffffffffffff82169050919050565b6000620003638262000336565b9050919050565b620003758162000356565b81146200038157600080fd5b50565b60008151905062000395816200036a565b92915050565b6000819050919050565b620003b0816200039b565b8114620003bc57600080fd5b50565b600081519050620003d081620003a5565b92915050565b6000819050919050565b620003eb81620003d6565b8114620003f757600080fd5b50565b6000815190506200040b81620003e0565b92915050565b600080600080608085870312156200042e576200042d62000331565b5b60006200043e8782880162000384565b94505060206200045187828801620003bf565b93505060406200046487828801620003fa565b9250506060620004778782880162000384565b91505092959194509250565b600082825260208201905092915050565b7f43616e6e6f7420736574206f776e657220746f207a65726f0000000000000000600082015250565b6000620004cc60188362000483565b9150620004d98262000494565b602082019050919050565b60006020820190508181036000830152620004ff81620004bd565b9050919050565b7f43616e6e6f74207472616e7366657220746f2073656c66000000000000000000600082015250565b60006200053e60178362000483565b91506200054b8262000506565b602082019050919050565b6000602082019050818103600083015262000571816200052f565b9050919050565b612ad580620005886000396000f3fe608060405234801561001057600080fd5b50600436106100cf5760003560e01c80638da5cb5b1161008c578063c2fb852311610066578063c2fb8523146101ee578063c551a1451461020a578063d5aaaf9314610228578063f2fde38b14610232576100cf565b80638da5cb5b146101965780638dc654a2146101b4578063b2c42c3a146101be576100cf565b80630902d949146100d45780631399b38014610104578063272929a1146101345780636da554ae1461016457806373d4a13a1461016e57806379ba50971461018c575b600080fd5b6100ee60048036038101906100e99190611b30565b61024e565b6040516100fb9190611b89565b60405180910390f35b61011e60048036038101906101199190611bda565b6102b8565b60405161012b9190611b89565b60405180910390f35b61014e60048036038101906101499190611c1a565b6102e9565b60405161015b9190611b89565b60405180910390f35b61016c610332565b005b610176610493565b6040516101839190611ce0565b60405180910390f35b610194610521565b005b61019e6106b8565b6040516101ab9190611d11565b60405180910390f35b6101bc6106e2565b005b6101d860048036038101906101d39190611c1a565b61082f565b6040516101e59190611b89565b60405180910390f35b61020860048036038101906102039190611e8d565b610847565b005b610212610abe565b60405161021f9190611b89565b60405180910390f35b610230610ac4565b005b61024c60048036038101906102479190611c1a565b610c61565b005b6000600d60008473ffffffffffffffffffffffffffffffffffffffff1673ffffffffffffffffffffffffffffffffffffffff1681526020019081526020016000208261ffff16815481106102a5576102a4611ee9565b5b9060005260206000200154905092915050565b600d60205281600052604060002081815481106102d457600080fd5b90600052602060002001600091509150505481565b6000600e60008373ffffffffffffffffffffffffffffffffffffffff1673ffffffffffffffffffffffffffffffffffffffff168152602001908152602001600020549050919050565b6040518060400160405280601081526020017f38382e383838382c2038382e38383838000000000000000000000000000000008152506008908051906020019061037d9291906118d4565b50600861038990611ff5565b600981905550600861039a90611ff5565b600e6000600a60009054906101000a900473ffffffffffffffffffffffffffffffffffffffff1673ffffffffffffffffffffffffffffffffffffffff1673ffffffffffffffffffffffffffffffffffffffff16815260200190815260200160002081905550600d6000600a60009054906101000a900473ffffffffffffffffffffffffffffffffffffffff1673ffffffffffffffffffffffffffffffffffffffff1673ffffffffffffffffffffffffffffffffffffffff168152602001908152602001600020600861046b90611ff5565b9080600181540180825580915050600190039060005260206000200160009091909190915055565b600880546104a090611f47565b80601f01602080910402602001604051908101604052809291908181526020018280546104cc90611f47565b80156105195780601f106104ee57610100808354040283529160200191610519565b820191906000526020600020905b8154815290600101906020018083116104fc57829003601f168201915b505050505081565b600760009054906101000a900473ffffffffffffffffffffffffffffffffffffffff1673ffffffffffffffffffffffffffffffffffffffff163373ffffffffffffffffffffffffffffffffffffffff16146105b1576040517f08c379a00000000000000000000000000000000000000000000000000000000081526004016105a8906120c3565b60405180910390fd5b6000600660009054906101000a900473ffffffffffffffffffffffffffffffffffffffff16905033600660006101000a81548173ffffffffffffffffffffffffffffffffffffffff021916908373ffffffffffffffffffffffffffffffffffffffff1602179055506000600760006101000a81548173ffffffffffffffffffffffffffffffffffffffff021916908373ffffffffffffffffffffffffffffffffffffffff1602179055503373ffffffffffffffffffffffffffffffffffffffff168173ffffffffffffffffffffffffffffffffffffffff167f8be0079c531659141344cd1fd0a4f28419497f9722a3daafe3b4186f6b6457e060405160405180910390a350565b6000600660009054906101000a900473ffffffffffffffffffffffffffffffffffffffff16905090565b6106ea610c75565b60006106f4610d07565b90508073ffffffffffffffffffffffffffffffffffffffff1663a9059cbb338373ffffffffffffffffffffffffffffffffffffffff166370a08231306040518263ffffffff1660e01b815260040161074c9190611d11565b602060405180830381865afa158015610769573d6000803e3d6000fd5b505050506040513d601f19601f8201168201806040525081019061078d91906120f8565b6040518363ffffffff1660e01b81526004016107aa929190612134565b6020604051808303816000875af11580156107c9573d6000803e3d6000fd5b505050506040513d601f19601f820116820180604052508101906107ed9190612195565b61082c576040517f08c379a00000000000000000000000000000000000000000000000000000000081526004016108239061220e565b60405180910390fd5b50565b600e6020528060005260406000206000915090505481565b816005600082815260200190815260200160002060009054906101000a900473ffffffffffffffffffffffffffffffffffffffff1673ffffffffffffffffffffffffffffffffffffffff163373ffffffffffffffffffffffffffffffffffffffff16146108e9576040517f08c379a00000000000000000000000000000000000000000000000000000000081526004016108e0906122a0565b60405180910390fd5b6005600082815260200190815260200160002060006101000a81549073ffffffffffffffffffffffffffffffffffffffff0219169055807f7cc135e0cebb02c3480ae5d74d377283180a2601f8f644edf7987b009316c63a60405160405180910390a28160405161095a91906122fc565b6040518091039020837f1a111c5dcf9a71088bd5e1797fdfaf399fec2afbb24aca247e4e3e9f4b61df9160405160405180910390a381600890805190602001906109a592919061195a565b5060086109b190611ff5565b60098190555060086109c290611ff5565b600e6000600a60009054906101000a900473ffffffffffffffffffffffffffffffffffffffff1673ffffffffffffffffffffffffffffffffffffffff1673ffffffffffffffffffffffffffffffffffffffff16815260200190815260200160002081905550600d6000600a60009054906101000a900473ffffffffffffffffffffffffffffffffffffffff1673ffffffffffffffffffffffffffffffffffffffff1673ffffffffffffffffffffffffffffffffffffffff1681526020019081526020016000206008610a9390611ff5565b9080600181540180825580915050600190039060005260206000200160009091909190915055505050565b60095481565b33600a60006101000a81548173ffffffffffffffffffffffffffffffffffffffff021916908373ffffffffffffffffffffffffffffffffffffffff1602179055506000610b283373ffffffffffffffffffffffffffffffffffffffff166014610d31565b90506000610b40600b543063c2fb852360e01b610f6d565b905060006040518060800160405280604d8152602001612a53604d9139905060008184604051602001610b7492919061235a565b6040516020818303038152906040529050610bcf6040518060400160405280600381526020017f67657400000000000000000000000000000000000000000000000000000000008152508285610f9e9092919063ffffffff16565b610c4e6040518060400160405280600481526020017f70617468000000000000000000000000000000000000000000000000000000008152506040518060400160405280600881526020017f6c6f636174696f6e00000000000000000000000000000000000000000000000081525085610f9e9092919063ffffffff16565b610c5a83600c54610fd1565b5050505050565b610c69610c75565b610c7281611008565b50565b600660009054906101000a900473ffffffffffffffffffffffffffffffffffffffff1673ffffffffffffffffffffffffffffffffffffffff163373ffffffffffffffffffffffffffffffffffffffff1614610d05576040517f08c379a0000000000000000000000000000000000000000000000000000000008152600401610cfc906123ca565b60405180910390fd5b565b6000600260009054906101000a900473ffffffffffffffffffffffffffffffffffffffff16905090565b606060006002836002610d449190612419565b610d4e9190612473565b67ffffffffffffffff811115610d6757610d66611d62565b5b6040519080825280601f01601f191660200182016040528015610d995781602001600182028036833780820191505090505b5090507f300000000000000000000000000000000000000000000000000000000000000081600081518110610dd157610dd0611ee9565b5b60200101907effffffffffffffffffffffffffffffffffffffffffffffffffffffffffffff1916908160001a9053507f780000000000000000000000000000000000000000000000000000000000000081600181518110610e3557610e34611ee9565b5b60200101907effffffffffffffffffffffffffffffffffffffffffffffffffffffffffffff1916908160001a90535060006001846002610e759190612419565b610e7f9190612473565b90505b6001811115610f1f577f3031323334353637383961626364656600000000000000000000000000000000600f861660108110610ec157610ec0611ee9565b5b1a60f81b828281518110610ed857610ed7611ee9565b5b60200101907effffffffffffffffffffffffffffffffffffffffffffffffffffffffffffff1916908160001a905350600485901c945080610f18906124c9565b9050610e82565b5060008414610f63576040517f08c379a0000000000000000000000000000000000000000000000000000000008152600401610f5a9061253f565b60405180910390fd5b8091505092915050565b610f756119e0565b610f7d6119e0565b610f9485858584611137909392919063ffffffff16565b9150509392505050565b610fb58284608001516111e790919063ffffffff16565b610fcc8184608001516111e790919063ffffffff16565b505050565b6000611000600360009054906101000a900473ffffffffffffffffffffffffffffffffffffffff16848461120c565b905092915050565b3373ffffffffffffffffffffffffffffffffffffffff168173ffffffffffffffffffffffffffffffffffffffff161415611077576040517f08c379a000000000000000000000000000000000000000000000000000000000815260040161106e906125ab565b60405180910390fd5b80600760006101000a81548173ffffffffffffffffffffffffffffffffffffffff021916908373ffffffffffffffffffffffffffffffffffffffff1602179055508073ffffffffffffffffffffffffffffffffffffffff16600660009054906101000a900473ffffffffffffffffffffffffffffffffffffffff1673ffffffffffffffffffffffffffffffffffffffff167fed8889f560326eb138920d842192f0eb3dd22b4f139c87a2c57538e05bae127860405160405180910390a350565b61113f6119e0565b61114f85608001516101006112d8565b508385600001818152505082856020019073ffffffffffffffffffffffffffffffffffffffff16908173ffffffffffffffffffffffffffffffffffffffff16815250508185604001907bffffffffffffffffffffffffffffffffffffffffffffffffffffffff191690817bffffffffffffffffffffffffffffffffffffffffffffffffffffffff191681525050849050949350505050565b6111f48260038351611342565b61120781836114c790919063ffffffff16565b505050565b60008060045490506001816112219190612473565b6004819055506000634042994660e01b60008087600001513089604001518760018c6080015160000151604051602401611262989796959493929190612606565b604051602081830303815290604052907bffffffffffffffffffffffffffffffffffffffffffffffffffffffff19166020820180517bffffffffffffffffffffffffffffffffffffffffffffffffffffffff838183161783525050505090506112cd868386846114e9565b925050509392505050565b6112e0611a4d565b60006020836112ef91906126ba565b1461131b5760208261130191906126ba565b602061130d91906126eb565b826113189190612473565b91505b81836020018181525050604051808452600081528281016020016040525082905092915050565b60178167ffffffffffffffff1611611379576113738160058460ff16901b60ff16178461167e90919063ffffffff16565b506114c2565b60ff8167ffffffffffffffff16116113cf576113a8601860058460ff16901b178461167e90919063ffffffff16565b506113c98167ffffffffffffffff1660018561169e9092919063ffffffff16565b506114c1565b61ffff8167ffffffffffffffff1611611426576113ff601960058460ff16901b178461167e90919063ffffffff16565b506114208167ffffffffffffffff1660028561169e9092919063ffffffff16565b506114c0565b63ffffffff8167ffffffffffffffff161161147f57611458601a60058460ff16901b178461167e90919063ffffffff16565b506114798167ffffffffffffffff1660048561169e9092919063ffffffff16565b506114bf565b61149c601b60058460ff16901b178461167e90919063ffffffff16565b506114bd8167ffffffffffffffff1660088561169e9092919063ffffffff16565b505b5b5b5b505050565b6114cf611a4d565b6114e1838460000151518485516116c0565b905092915050565b600030846040516020016114fe9291906127d8565b604051602081830303815290604052805190602001209050846005600083815260200190815260200160002060006101000a81548173ffffffffffffffffffffffffffffffffffffffff021916908373ffffffffffffffffffffffffffffffffffffffff160217905550807fb5e6e01e79f91267dc17b4e6314d5d4d03593d2ceee0fbb452b750bd70ea5af960405160405180910390a2600260009054906101000a900473ffffffffffffffffffffffffffffffffffffffff1673ffffffffffffffffffffffffffffffffffffffff16634000aea08685856040518463ffffffff1660e01b81526004016115f493929190612804565b6020604051808303816000875af1158015611613573d6000803e3d6000fd5b505050506040513d601f19601f820116820180604052508101906116379190612195565b611676576040517f08c379a000000000000000000000000000000000000000000000000000000000815260040161166d906128b4565b60405180910390fd5b949350505050565b611686611a4d565b61169683846000015151846117af565b905092915050565b6116a6611a4d565b6116b7848560000151518585611806565b90509392505050565b6116c8611a4d565b82518211156116d657600080fd5b846020015182856116e79190612473565b111561171c5761171b85600261170c886020015188876117079190612473565b611894565b6117169190612419565b6118b0565b5b60008086518051876020830101935080888701111561173b5787860182525b60208701925050505b60208410611782578051825260208261175d9190612473565b915060208161176c9190612473565b905060208461177b91906126eb565b9350611744565b60006001856020036101000a03905080198251168184511681811785525050508692505050949350505050565b6117b7611a4d565b836020015183106117dd576117dc84600286602001516117d79190612419565b6118b0565b5b83518051602085830101848153818614156117f9576001820183525b5050508390509392505050565b61180e611a4d565b8460200151848361181f9190612473565b11156118475761184685600286856118379190612473565b6118419190612419565b6118b0565b5b60006001836101006118599190612a07565b61186391906126eb565b905085518386820101858319825116178152815185880111156118865784870182525b505085915050949350505050565b6000818311156118a6578290506118aa565b8190505b92915050565b6000826000015190506118c383836112d8565b506118ce83826114c7565b50505050565b8280546118e090611f47565b90600052602060002090601f0160209004810192826119025760008555611949565b82601f1061191b57805160ff1916838001178555611949565b82800160010185558215611949579182015b8281111561194857825182559160200191906001019061192d565b5b5090506119569190611a67565b5090565b82805461196690611f47565b90600052602060002090601f01602090048101928261198857600085556119cf565b82601f106119a157805160ff19168380011785556119cf565b828001600101855582156119cf579182015b828111156119ce5782518255916020019190600101906119b3565b5b5090506119dc9190611a67565b5090565b6040518060a0016040528060008019168152602001600073ffffffffffffffffffffffffffffffffffffffff16815260200160007bffffffffffffffffffffffffffffffffffffffffffffffffffffffff1916815260200160008152602001611a47611a4d565b81525090565b604051806040016040528060608152602001600081525090565b5b80821115611a80576000816000905550600101611a68565b5090565b6000604051905090565b600080fd5b600080fd5b600073ffffffffffffffffffffffffffffffffffffffff82169050919050565b6000611ac382611a98565b9050919050565b611ad381611ab8565b8114611ade57600080fd5b50565b600081359050611af081611aca565b92915050565b600061ffff82169050919050565b611b0d81611af6565b8114611b1857600080fd5b50565b600081359050611b2a81611b04565b92915050565b60008060408385031215611b4757611b46611a8e565b5b6000611b5585828601611ae1565b9250506020611b6685828601611b1b565b9150509250929050565b6000819050919050565b611b8381611b70565b82525050565b6000602082019050611b9e6000830184611b7a565b92915050565b6000819050919050565b611bb781611ba4565b8114611bc257600080fd5b50565b600081359050611bd481611bae565b92915050565b60008060408385031215611bf157611bf0611a8e565b5b6000611bff85828601611ae1565b9250506020611c1085828601611bc5565b9150509250929050565b600060208284031215611c3057611c2f611a8e565b5b6000611c3e84828501611ae1565b91505092915050565b600081519050919050565b600082825260208201905092915050565b60005b83811015611c81578082015181840152602081019050611c66565b83811115611c90576000848401525b50505050565b6000601f19601f8301169050919050565b6000611cb282611c47565b611cbc8185611c52565b9350611ccc818560208601611c63565b611cd581611c96565b840191505092915050565b60006020820190508181036000830152611cfa8184611ca7565b905092915050565b611d0b81611ab8565b82525050565b6000602082019050611d266000830184611d02565b92915050565b611d3581611b70565b8114611d4057600080fd5b50565b600081359050611d5281611d2c565b92915050565b600080fd5b600080fd5b7f4e487b7100000000000000000000000000000000000000000000000000000000600052604160045260246000fd5b611d9a82611c96565b810181811067ffffffffffffffff82111715611db957611db8611d62565b5b80604052505050565b6000611dcc611a84565b9050611dd88282611d91565b919050565b600067ffffffffffffffff821115611df857611df7611d62565b5b611e0182611c96565b9050602081019050919050565b82818337600083830152505050565b6000611e30611e2b84611ddd565b611dc2565b905082815260208101848484011115611e4c57611e4b611d5d565b5b611e57848285611e0e565b509392505050565b600082601f830112611e7457611e73611d58565b5b8135611e84848260208601611e1d565b91505092915050565b60008060408385031215611ea457611ea3611a8e565b5b6000611eb285828601611d43565b925050602083013567ffffffffffffffff811115611ed357611ed2611a93565b5b611edf85828601611e5f565b9150509250929050565b7f4e487b7100000000000000000000000000000000000000000000000000000000600052603260045260246000fd5b7f4e487b7100000000000000000000000000000000000000000000000000000000600052602260045260246000fd5b60006002820490506001821680611f5f57607f821691505b60208210811415611f7357611f72611f18565b5b50919050565b600081549050611f8881611f47565b9050919050565b60008190508160005260206000209050919050565b60008160001c9050919050565b6000819050919050565b6000611fce611fc983611fa4565b611fb1565b9050919050565b6000611fe18254611fbb565b9050919050565b600082821b905092915050565b600061200082611f79565b82601f8211156120165761201384611f8f565b90505b61201f81611fd5565b9250602082101561205f5761205a7fffffffffffffffffffffffffffffffffffffffffffffffffffffffffffffffff83602003600802611fe8565b831692505b5050919050565b600082825260208201905092915050565b7f4d7573742062652070726f706f736564206f776e657200000000000000000000600082015250565b60006120ad601683612066565b91506120b882612077565b602082019050919050565b600060208201905081810360008301526120dc816120a0565b9050919050565b6000815190506120f281611bae565b92915050565b60006020828403121561210e5761210d611a8e565b5b600061211c848285016120e3565b91505092915050565b61212e81611ba4565b82525050565b60006040820190506121496000830185611d02565b6121566020830184612125565b9392505050565b60008115159050919050565b6121728161215d565b811461217d57600080fd5b50565b60008151905061218f81612169565b92915050565b6000602082840312156121ab576121aa611a8e565b5b60006121b984828501612180565b91505092915050565b7f556e61626c6520746f207472616e736665720000000000000000000000000000600082015250565b60006121f8601283612066565b9150612203826121c2565b602082019050919050565b60006020820190508181036000830152612227816121eb565b9050919050565b7f536f75726365206d75737420626520746865206f7261636c65206f662074686560008201527f2072657175657374000000000000000000000000000000000000000000000000602082015250565b600061228a602883612066565b91506122958261222e565b604082019050919050565b600060208201905081810360008301526122b98161227d565b9050919050565b600081905092915050565b60006122d682611c47565b6122e081856122c0565b93506122f0818560208601611c63565b80840191505092915050565b600061230882846122cb565b915081905092915050565b600081519050919050565b600081905092915050565b600061233482612313565b61233e818561231e565b935061234e818560208601611c63565b80840191505092915050565b60006123668285612329565b91506123728284612329565b91508190509392505050565b7f4f6e6c792063616c6c61626c65206279206f776e657200000000000000000000600082015250565b60006123b4601683612066565b91506123bf8261237e565b602082019050919050565b600060208201905081810360008301526123e3816123a7565b9050919050565b7f4e487b7100000000000000000000000000000000000000000000000000000000600052601160045260246000fd5b600061242482611ba4565b915061242f83611ba4565b9250817fffffffffffffffffffffffffffffffffffffffffffffffffffffffffffffffff0483118215151615612468576124676123ea565b5b828202905092915050565b600061247e82611ba4565b915061248983611ba4565b9250827fffffffffffffffffffffffffffffffffffffffffffffffffffffffffffffffff038211156124be576124bd6123ea565b5b828201905092915050565b60006124d482611ba4565b915060008214156124e8576124e76123ea565b5b600182039050919050565b7f537472696e67733a20686578206c656e67746820696e73756666696369656e74600082015250565b6000612529602083612066565b9150612534826124f3565b602082019050919050565b600060208201905081810360008301526125588161251c565b9050919050565b7f43616e6e6f74207472616e7366657220746f2073656c66000000000000000000600082015250565b6000612595601783612066565b91506125a08261255f565b602082019050919050565b600060208201905081810360008301526125c481612588565b9050919050565b60007fffffffff0000000000000000000000000000000000000000000000000000000082169050919050565b612600816125cb565b82525050565b60006101008201905061261c600083018b611d02565b612629602083018a612125565b6126366040830189611b7a565b6126436060830188611d02565b61265060808301876125f7565b61265d60a0830186612125565b61266a60c0830185612125565b81810360e083015261267c8184611ca7565b90509998505050505050505050565b7f4e487b7100000000000000000000000000000000000000000000000000000000600052601260045260246000fd5b60006126c582611ba4565b91506126d083611ba4565b9250826126e0576126df61268b565b5b828206905092915050565b60006126f682611ba4565b915061270183611ba4565b925082821015612714576127136123ea565b5b828203905092915050565b6000819050919050565b600061274461273f61273a84611a98565b61271f565b611a98565b9050919050565b600061275682612729565b9050919050565b60006127688261274b565b9050919050565b60008160601b9050919050565b60006127878261276f565b9050919050565b60006127998261277c565b9050919050565b6127b16127ac8261275d565b61278e565b82525050565b6000819050919050565b6127d26127cd82611ba4565b6127b7565b82525050565b60006127e482856127a0565b6014820191506127f482846127c1565b6020820191508190509392505050565b60006060820190506128196000830186611d02565b6128266020830185612125565b81810360408301526128388184611ca7565b9050949350505050565b7f756e61626c6520746f207472616e73666572416e6443616c6c20746f206f726160008201527f636c650000000000000000000000000000000000000000000000000000000000602082015250565b600061289e602383612066565b91506128a982612842565b604082019050919050565b600060208201905081810360008301526128cd81612891565b9050919050565b60008160011c9050919050565b6000808291508390505b600185111561292b57808604811115612907576129066123ea565b5b60018516156129165780820291505b8081029050612924856128d4565b94506128eb565b94509492505050565b6000826129445760019050612a00565b816129525760009050612a00565b81600181146129685760028114612972576129a1565b6001915050612a00565b60ff841115612984576129836123ea565b5b8360020a91508482111561299b5761299a6123ea565b5b50612a00565b5060208310610133831016604e8410600b84101617156129d65782820a9050838111156129d1576129d06123ea565b5b612a00565b6129e384848460016128e1565b925090508184048111156129fa576129f96123ea565b5b81810290505b9392505050565b6000612a1282611ba4565b9150612a1d83611ba4565b9250612a4a7fffffffffffffffffffffffffffffffffffffffffffffffffffffffffffffffff8484612934565b90509291505056fe68747470733a2f2f79666b6f6361717a75382e657865637574652d6170692e75732d656173742d312e616d617a6f6e6177732e636f6d2f746573742f72656769737465723f616464726573733da26469706673582212204db2d9c87c8f82f209b5a518d37c531a912a6fc94928440fe4f50d68cb168eab64736f6c634300080c0033",
  "devdoc": {
    "kind": "dev",
    "methods": {},
    "version": 1
  },
  "userdoc": {
    "kind": "user",
    "methods": {
      "acceptOwnership()": {
        "notice": "Allows an ownership transfer to be completed by the recipient."
      },
      "owner()": {
        "notice": "Get the current owner"
      },
      "transferOwnership(address)": {
        "notice": "Allows an owner to begin transferring ownership to a new address, pending."
      }
    },
    "version": 1
  },
  "storageLayout": {
    "storage": [
      {
        "astId": 319,
        "contract": "contracts/OffchainParkingDataResponse.sol:OffchainParkingDataResponse",
        "label": "s_ens",
        "offset": 0,
        "slot": "0",
        "type": "t_contract(ENSInterface)1214"
      },
      {
        "astId": 321,
        "contract": "contracts/OffchainParkingDataResponse.sol:OffchainParkingDataResponse",
        "label": "s_ensNode",
        "offset": 0,
        "slot": "1",
        "type": "t_bytes32"
      },
      {
        "astId": 324,
        "contract": "contracts/OffchainParkingDataResponse.sol:OffchainParkingDataResponse",
        "label": "s_link",
        "offset": 0,
        "slot": "2",
        "type": "t_contract(LinkTokenInterface)1309"
      },
      {
        "astId": 327,
        "contract": "contracts/OffchainParkingDataResponse.sol:OffchainParkingDataResponse",
        "label": "s_oracle",
        "offset": 0,
        "slot": "3",
        "type": "t_contract(OperatorInterface)1389"
      },
      {
        "astId": 330,
        "contract": "contracts/OffchainParkingDataResponse.sol:OffchainParkingDataResponse",
        "label": "s_requestCount",
        "offset": 0,
        "slot": "4",
        "type": "t_uint256"
      },
      {
        "astId": 334,
        "contract": "contracts/OffchainParkingDataResponse.sol:OffchainParkingDataResponse",
        "label": "s_pendingRequests",
        "offset": 0,
        "slot": "5",
        "type": "t_mapping(t_bytes32,t_address)"
      },
      {
        "astId": 889,
        "contract": "contracts/OffchainParkingDataResponse.sol:OffchainParkingDataResponse",
        "label": "s_owner",
        "offset": 0,
        "slot": "6",
        "type": "t_address"
      },
      {
        "astId": 891,
        "contract": "contracts/OffchainParkingDataResponse.sol:OffchainParkingDataResponse",
        "label": "s_pendingOwner",
        "offset": 0,
        "slot": "7",
        "type": "t_address"
      },
      {
        "astId": 4920,
        "contract": "contracts/OffchainParkingDataResponse.sol:OffchainParkingDataResponse",
        "label": "data",
        "offset": 0,
        "slot": "8",
        "type": "t_bytes_storage"
      },
      {
        "astId": 4922,
        "contract": "contracts/OffchainParkingDataResponse.sol:OffchainParkingDataResponse",
        "label": "parking_spot_location",
        "offset": 0,
        "slot": "9",
        "type": "t_bytes32"
      },
      {
        "astId": 4924,
        "contract": "contracts/OffchainParkingDataResponse.sol:OffchainParkingDataResponse",
        "label": "parkingSpotRequesterAddr",
        "offset": 0,
        "slot": "10",
        "type": "t_address"
      },
      {
        "astId": 4926,
        "contract": "contracts/OffchainParkingDataResponse.sol:OffchainParkingDataResponse",
        "label": "jobId",
        "offset": 0,
        "slot": "11",
        "type": "t_bytes32"
      },
      {
        "astId": 4928,
        "contract": "contracts/OffchainParkingDataResponse.sol:OffchainParkingDataResponse",
        "label": "fee",
        "offset": 0,
        "slot": "12",
        "type": "t_uint256"
      },
      {
        "astId": 4965,
        "contract": "contracts/OffchainParkingDataResponse.sol:OffchainParkingDataResponse",
        "label": "parkingSpotLocationOwnerArray",
        "offset": 0,
        "slot": "13",
        "type": "t_mapping(t_address,t_array(t_bytes32)dyn_storage)"
      },
      {
        "astId": 4969,
        "contract": "contracts/OffchainParkingDataResponse.sol:OffchainParkingDataResponse",
        "label": "parkingSpotLocationOwner",
        "offset": 0,
        "slot": "14",
        "type": "t_mapping(t_address,t_bytes32)"
      }
    ],
    "types": {
      "t_address": {
        "encoding": "inplace",
        "label": "address",
        "numberOfBytes": "20"
      },
      "t_array(t_bytes32)dyn_storage": {
        "base": "t_bytes32",
        "encoding": "dynamic_array",
        "label": "bytes32[]",
        "numberOfBytes": "32"
      },
      "t_bytes32": {
        "encoding": "inplace",
        "label": "bytes32",
        "numberOfBytes": "32"
      },
      "t_bytes_storage": {
        "encoding": "bytes",
        "label": "bytes",
        "numberOfBytes": "32"
      },
      "t_contract(ENSInterface)1214": {
        "encoding": "inplace",
        "label": "contract ENSInterface",
        "numberOfBytes": "20"
      },
      "t_contract(LinkTokenInterface)1309": {
        "encoding": "inplace",
        "label": "contract LinkTokenInterface",
        "numberOfBytes": "20"
      },
      "t_contract(OperatorInterface)1389": {
        "encoding": "inplace",
        "label": "contract OperatorInterface",
        "numberOfBytes": "20"
      },
      "t_mapping(t_address,t_array(t_bytes32)dyn_storage)": {
        "encoding": "mapping",
        "key": "t_address",
        "label": "mapping(address => bytes32[])",
        "numberOfBytes": "32",
        "value": "t_array(t_bytes32)dyn_storage"
      },
      "t_mapping(t_address,t_bytes32)": {
        "encoding": "mapping",
        "key": "t_address",
        "label": "mapping(address => bytes32)",
        "numberOfBytes": "32",
        "value": "t_bytes32"
      },
      "t_mapping(t_bytes32,t_address)": {
        "encoding": "mapping",
        "key": "t_bytes32",
        "label": "mapping(bytes32 => address)",
        "numberOfBytes": "32",
        "value": "t_address"
      },
      "t_uint256": {
        "encoding": "inplace",
        "label": "uint256",
        "numberOfBytes": "32"
      }
    }
  }
}