{
  "address": "0x1A538661bB7489b7f2578deA944a8723A17c0Be5",
  "abi": [
    {
      "inputs": [
        {
          "internalType": "address",
          "name": "_parkingSpotTokenAddress",
          "type": "address"
        }
      ],
      "stateMutability": "nonpayable",
      "type": "constructor"
    },
    {
      "inputs": [
        {
          "internalType": "uint256",
          "name": "_parking_spot_id",
          "type": "uint256"
        }
      ],
      "name": "checkSpotAvailability",
      "outputs": [
        {
          "internalType": "bool",
          "name": "",
          "type": "bool"
        }
      ],
      "stateMutability": "view",
      "type": "function"
    },
    {
      "inputs": [
        {
          "internalType": "uint256",
          "name": "_parking_spot_id",
          "type": "uint256"
        }
      ],
      "name": "checkSpotPermittedParkingEndTime",
      "outputs": [
        {
          "internalType": "uint16",
          "name": "",
          "type": "uint16"
        }
      ],
      "stateMutability": "view",
      "type": "function"
    },
    {
      "inputs": [
        {
          "internalType": "uint256",
          "name": "_parking_spot_id",
          "type": "uint256"
        }
      ],
      "name": "checkSpotPermittedParkingStartTime",
      "outputs": [
        {
          "internalType": "uint16",
          "name": "",
          "type": "uint16"
        }
      ],
      "stateMutability": "view",
      "type": "function"
    },
    {
      "inputs": [],
      "name": "parkingSpotTokenAddress",
      "outputs": [
        {
          "internalType": "address",
          "name": "",
          "type": "address"
        }
      ],
      "stateMutability": "view",
      "type": "function"
    },
    {
      "inputs": [
        {
          "internalType": "uint256",
          "name": "",
          "type": "uint256"
        }
      ],
      "name": "permittedParkingTime",
      "outputs": [
        {
          "internalType": "uint16",
          "name": "startTime",
          "type": "uint16"
        },
        {
          "internalType": "uint16",
          "name": "endTime",
          "type": "uint16"
        }
      ],
      "stateMutability": "view",
      "type": "function"
    },
    {
      "inputs": [
        {
          "internalType": "uint256",
          "name": "_parking_spot_id",
          "type": "uint256"
        },
        {
          "internalType": "bool",
          "name": "_availability",
          "type": "bool"
        }
      ],
      "name": "setSpotAvailability",
      "outputs": [],
      "stateMutability": "nonpayable",
      "type": "function"
    },
    {
      "inputs": [
        {
          "internalType": "uint256",
          "name": "_parking_spot_id",
          "type": "uint256"
        },
        {
          "internalType": "uint16",
          "name": "_start_time",
          "type": "uint16"
        },
        {
          "internalType": "uint16",
          "name": "_end_time",
          "type": "uint16"
        }
      ],
      "name": "setSpotPermittedParkingTime",
      "outputs": [],
      "stateMutability": "nonpayable",
      "type": "function"
    },
    {
      "inputs": [
        {
          "internalType": "uint256",
          "name": "",
          "type": "uint256"
        }
      ],
      "name": "spot_available",
      "outputs": [
        {
          "internalType": "bool",
          "name": "",
          "type": "bool"
        }
      ],
      "stateMutability": "view",
      "type": "function"
    }
  ],
  "transactionHash": "0xe29c5c3419898e9e1624ffca3da3bcd33ea27f08021f748fa87c6d51a135e673",
  "args": [
    "0x2EDca11fE8d9fBcA1258AeBb6e9436D67966eACD"
  ],
  "numDeployments": 2,
  "solcInputHash": "a573d0b3d33e0e34abf2b4cc01955d8f",
  "bytecode": "0x60a0604052600260009054906101000a900473ffffffffffffffffffffffffffffffffffffffff1673ffffffffffffffffffffffffffffffffffffffff1660809073ffffffffffffffffffffffffffffffffffffffff1681525034801561006557600080fd5b50604051610aa3380380610aa383398181016040528101906100879190610131565b80600260006101000a81548173ffffffffffffffffffffffffffffffffffffffff021916908373ffffffffffffffffffffffffffffffffffffffff1602179055505061015e565b600080fd5b600073ffffffffffffffffffffffffffffffffffffffff82169050919050565b60006100fe826100d3565b9050919050565b61010e816100f3565b811461011957600080fd5b50565b60008151905061012b81610105565b92915050565b600060208284031215610147576101466100ce565b5b60006101558482850161011c565b91505092915050565b60805161092a6101796000396000610440015261092a6000f3fe608060405234801561001057600080fd5b50600436106100885760003560e01c8063a53308dc1161005b578063a53308dc14610113578063ccc5ffe914610144578063e91926f114610174578063f89c26d0146101a457610088565b80631a1089c21461008d57806332cb2364146100bd57806381e72eec146100d95780638a5103f4146100f7575b600080fd5b6100a760048036038101906100a29190610531565b6101d4565b6040516100b4919061057b565b60405180910390f35b6100d760048036038101906100d291906105ce565b610207565b005b6100e161027d565b6040516100ee919061064f565b60405180910390f35b610111600480360381019061010c9190610696565b6102a3565b005b61012d60048036038101906101289190610531565b610369565b60405161013b9291906106e9565b60405180910390f35b61015e60048036038101906101599190610531565b6103a9565b60405161016b919061057b565b60405180910390f35b61018e60048036038101906101899190610531565b6103dc565b60405161019b9190610721565b60405180910390f35b6101be60048036038101906101b99190610531565b610405565b6040516101cb9190610721565b60405180910390f35b6000806001600084815260200190815260200160002090508060000160029054906101000a900461ffff16915050919050565b61021082610425565b61024f576040517f08c379a0000000000000000000000000000000000000000000000000000000008152600401610246906107bf565b60405180910390fd5b8060008084815260200190815260200160002060006101000a81548160ff0219169083151502179055505050565b600260009054906101000a900473ffffffffffffffffffffffffffffffffffffffff1681565b6102ac83610425565b6102eb576040517f08c379a00000000000000000000000000000000000000000000000000000000081526004016102e290610851565b60405180910390fd5b60405180604001604052808361ffff1681526020018261ffff168152506001600085815260200190815260200160002060008201518160000160006101000a81548161ffff021916908361ffff16021790555060208201518160000160026101000a81548161ffff021916908361ffff160217905550905050505050565b60016020528060005260406000206000915090508060000160009054906101000a900461ffff16908060000160029054906101000a900461ffff16905082565b6000806001600084815260200190815260200160002090508060000160009054906101000a900461ffff16915050919050565b600080600083815260200190815260200160002060009054906101000a900460ff169050919050565b60006020528060005260406000206000915054906101000a900460ff1681565b60003373ffffffffffffffffffffffffffffffffffffffff167f000000000000000000000000000000000000000000000000000000000000000073ffffffffffffffffffffffffffffffffffffffff16636352211e846040518263ffffffff1660e01b81526004016104979190610880565b602060405180830381865afa1580156104b4573d6000803e3d6000fd5b505050506040513d601f19601f820116820180604052508101906104d891906108c7565b73ffffffffffffffffffffffffffffffffffffffff16149050919050565b600080fd5b6000819050919050565b61050e816104fb565b811461051957600080fd5b50565b60008135905061052b81610505565b92915050565b600060208284031215610547576105466104f6565b5b60006105558482850161051c565b91505092915050565b600061ffff82169050919050565b6105758161055e565b82525050565b6000602082019050610590600083018461056c565b92915050565b60008115159050919050565b6105ab81610596565b81146105b657600080fd5b50565b6000813590506105c8816105a2565b92915050565b600080604083850312156105e5576105e46104f6565b5b60006105f38582860161051c565b9250506020610604858286016105b9565b9150509250929050565b600073ffffffffffffffffffffffffffffffffffffffff82169050919050565b60006106398261060e565b9050919050565b6106498161062e565b82525050565b60006020820190506106646000830184610640565b92915050565b6106738161055e565b811461067e57600080fd5b50565b6000813590506106908161066a565b92915050565b6000806000606084860312156106af576106ae6104f6565b5b60006106bd8682870161051c565b93505060206106ce86828701610681565b92505060406106df86828701610681565b9150509250925092565b60006040820190506106fe600083018561056c565b61070b602083018461056c565b9392505050565b61071b81610596565b82525050565b60006020820190506107366000830184610712565b92915050565b600082825260208201905092915050565b7f4e6f7420617070726f76656420746f20757064617465207061726b696e67207360008201527f706f7420417661696c6162696c69747900000000000000000000000000000000602082015250565b60006107a960308361073c565b91506107b48261074d565b604082019050919050565b600060208201905081810360008301526107d88161079c565b9050919050565b7f4e6f7420617070726f76656420746f20757064617465207061726b696e67207360008201527f706f7420617661696c6162696c6974792074696d657300000000000000000000602082015250565b600061083b60368361073c565b9150610846826107df565b604082019050919050565b6000602082019050818103600083015261086a8161082e565b9050919050565b61087a816104fb565b82525050565b60006020820190506108956000830184610871565b92915050565b6108a48161062e565b81146108af57600080fd5b50565b6000815190506108c18161089b565b92915050565b6000602082840312156108dd576108dc6104f6565b5b60006108eb848285016108b2565b9150509291505056fea264697066735822122022751f7381bb631a46d119f28e54171604c2ea75f73d6e40ff8cbb786887dfce64736f6c634300080c0033",
  "devdoc": {
    "kind": "dev",
    "methods": {},
    "version": 1
  },
  "userdoc": {
    "kind": "user",
    "methods": {},
    "version": 1
  },
  "storageLayout": {
    "storage": [
      {
        "astId": 5202,
        "contract": "contracts/ParkingSpotAttributes.sol:ParkingSpotAttributes",
        "label": "spot_available",
        "offset": 0,
        "slot": "0",
        "type": "t_mapping(t_uint256,t_bool)"
      },
      {
        "astId": 5207,
        "contract": "contracts/ParkingSpotAttributes.sol:ParkingSpotAttributes",
        "label": "permittedParkingTime",
        "offset": 0,
        "slot": "1",
        "type": "t_mapping(t_uint256,t_struct(availabilityTimes)5198_storage)"
      },
      {
        "astId": 5209,
        "contract": "contracts/ParkingSpotAttributes.sol:ParkingSpotAttributes",
        "label": "parkingSpotTokenAddress",
        "offset": 0,
        "slot": "2",
        "type": "t_address"
      }
    ],
    "types": {
      "t_address": {
        "encoding": "inplace",
        "label": "address",
        "numberOfBytes": "20"
      },
      "t_bool": {
        "encoding": "inplace",
        "label": "bool",
        "numberOfBytes": "1"
      },
      "t_mapping(t_uint256,t_bool)": {
        "encoding": "mapping",
        "key": "t_uint256",
        "label": "mapping(uint256 => bool)",
        "numberOfBytes": "32",
        "value": "t_bool"
      },
      "t_mapping(t_uint256,t_struct(availabilityTimes)5198_storage)": {
        "encoding": "mapping",
        "key": "t_uint256",
        "label": "mapping(uint256 => struct ParkingSpotAttributes.availabilityTimes)",
        "numberOfBytes": "32",
        "value": "t_struct(availabilityTimes)5198_storage"
      },
      "t_struct(availabilityTimes)5198_storage": {
        "encoding": "inplace",
        "label": "struct ParkingSpotAttributes.availabilityTimes",
        "members": [
          {
            "astId": 5195,
            "contract": "contracts/ParkingSpotAttributes.sol:ParkingSpotAttributes",
            "label": "startTime",
            "offset": 0,
            "slot": "0",
            "type": "t_uint16"
          },
          {
            "astId": 5197,
            "contract": "contracts/ParkingSpotAttributes.sol:ParkingSpotAttributes",
            "label": "endTime",
            "offset": 2,
            "slot": "0",
            "type": "t_uint16"
          }
        ],
        "numberOfBytes": "32"
      },
      "t_uint16": {
        "encoding": "inplace",
        "label": "uint16",
        "numberOfBytes": "2"
      },
      "t_uint256": {
        "encoding": "inplace",
        "label": "uint256",
        "numberOfBytes": "32"
      }
    }
  }
}