{
  "address": "0x462f5E5BDE8407073d5A1AB805c795c18D3c84ed",
  "abi": [
    {
      "inputs": [
        {
          "internalType": "uint256",
          "name": "_parking_spot_id",
          "type": "uint256"
        }
      ],
      "name": "checkParkingSpotTimezone",
      "outputs": [
        {
          "internalType": "uint8[2]",
          "name": "",
          "type": "uint8[2]"
        }
      ],
      "stateMutability": "view",
      "type": "function"
    },
    {
      "inputs": [
        {
          "internalType": "uint256",
          "name": "_parking_spot_id",
          "type": "uint256"
        }
      ],
      "name": "checkSpotAvailability",
      "outputs": [
        {
          "internalType": "bool",
          "name": "",
          "type": "bool"
        }
      ],
      "stateMutability": "view",
      "type": "function"
    },
    {
      "inputs": [
        {
          "internalType": "uint256",
          "name": "_parking_spot_id",
          "type": "uint256"
        }
      ],
      "name": "checkSpotPermittedParkingEndTime",
      "outputs": [
        {
          "internalType": "uint8",
          "name": "",
          "type": "uint8"
        },
        {
          "internalType": "uint8",
          "name": "",
          "type": "uint8"
        }
      ],
      "stateMutability": "view",
      "type": "function"
    },
    {
      "inputs": [
        {
          "internalType": "uint256",
          "name": "_parking_spot_id",
          "type": "uint256"
        }
      ],
      "name": "checkSpotPermittedParkingStartTime",
      "outputs": [
        {
          "internalType": "uint8",
          "name": "",
          "type": "uint8"
        },
        {
          "internalType": "uint8",
          "name": "",
          "type": "uint8"
        }
      ],
      "stateMutability": "view",
      "type": "function"
    },
    {
      "inputs": [
        {
          "internalType": "uint256",
          "name": "",
          "type": "uint256"
        },
        {
          "internalType": "uint256",
          "name": "",
          "type": "uint256"
        }
      ],
      "name": "parkingSpotTimeZone",
      "outputs": [
        {
          "internalType": "uint8",
          "name": "",
          "type": "uint8"
        }
      ],
      "stateMutability": "view",
      "type": "function"
    },
    {
      "inputs": [
        {
          "internalType": "uint256",
          "name": "",
          "type": "uint256"
        }
      ],
      "name": "permittedParkingTime",
      "outputs": [
        {
          "internalType": "uint8",
          "name": "startHour",
          "type": "uint8"
        },
        {
          "internalType": "uint8",
          "name": "startMinute",
          "type": "uint8"
        },
        {
          "internalType": "uint8",
          "name": "endHour",
          "type": "uint8"
        },
        {
          "internalType": "uint8",
          "name": "endMinute",
          "type": "uint8"
        }
      ],
      "stateMutability": "view",
      "type": "function"
    },
    {
      "inputs": [
        {
          "internalType": "uint256",
          "name": "",
          "type": "uint256"
        }
      ],
      "name": "pricePerHour",
      "outputs": [
        {
          "internalType": "uint256",
          "name": "",
          "type": "uint256"
        }
      ],
      "stateMutability": "view",
      "type": "function"
    },
    {
      "inputs": [
        {
          "internalType": "uint256",
          "name": "_parking_spot_id",
          "type": "uint256"
        },
        {
          "internalType": "uint8",
          "name": "_isNegative",
          "type": "uint8"
        },
        {
          "internalType": "uint8",
          "name": "_timezone",
          "type": "uint8"
        }
      ],
      "name": "setParkingSpotTimezone",
      "outputs": [],
      "stateMutability": "nonpayable",
      "type": "function"
    },
    {
      "inputs": [
        {
          "internalType": "uint256",
          "name": "_tokenId",
          "type": "uint256"
        },
        {
          "internalType": "uint256",
          "name": "_pricePerHour",
          "type": "uint256"
        }
      ],
      "name": "setPricePerHour",
      "outputs": [],
      "stateMutability": "nonpayable",
      "type": "function"
    },
    {
      "inputs": [
        {
          "internalType": "address",
          "name": "_requestParkingSpotTokenAddress",
          "type": "address"
        }
      ],
      "name": "setRequestParkingSpotTokenAddress",
      "outputs": [],
      "stateMutability": "nonpayable",
      "type": "function"
    },
    {
      "inputs": [
        {
          "internalType": "uint256",
          "name": "_parking_spot_id",
          "type": "uint256"
        },
        {
          "internalType": "bool",
          "name": "_availability",
          "type": "bool"
        }
      ],
      "name": "setSpotAvailability",
      "outputs": [],
      "stateMutability": "nonpayable",
      "type": "function"
    },
    {
      "inputs": [
        {
          "internalType": "uint256",
          "name": "_tokenId",
          "type": "uint256"
        },
        {
          "internalType": "bool",
          "name": "_inUse",
          "type": "bool"
        }
      ],
      "name": "setSpotInUse",
      "outputs": [],
      "stateMutability": "nonpayable",
      "type": "function"
    },
    {
      "inputs": [
        {
          "internalType": "uint256",
          "name": "_parking_spot_id",
          "type": "uint256"
        },
        {
          "internalType": "uint8",
          "name": "_start_hour",
          "type": "uint8"
        },
        {
          "internalType": "uint8",
          "name": "_start_minute",
          "type": "uint8"
        },
        {
          "internalType": "uint8",
          "name": "_end_hour",
          "type": "uint8"
        },
        {
          "internalType": "uint8",
          "name": "_end_minute",
          "type": "uint8"
        }
      ],
      "name": "setSpotPermittedParkingTime",
      "outputs": [],
      "stateMutability": "nonpayable",
      "type": "function"
    },
    {
      "inputs": [
        {
          "internalType": "uint256",
          "name": "",
          "type": "uint256"
        }
      ],
      "name": "spotInUse",
      "outputs": [
        {
          "internalType": "bool",
          "name": "",
          "type": "bool"
        }
      ],
      "stateMutability": "view",
      "type": "function"
    },
    {
      "inputs": [
        {
          "internalType": "uint256",
          "name": "",
          "type": "uint256"
        }
      ],
      "name": "spot_available",
      "outputs": [
        {
          "internalType": "bool",
          "name": "",
          "type": "bool"
        }
      ],
      "stateMutability": "view",
      "type": "function"
    }
  ],
  "transactionHash": "0x24213cc79fe80a9d1f0827762f3c4002b04cce4b61bbb7a4d3d2185ad0af6645",
  "args": [],
  "numDeployments": 4,
  "solcInputHash": "ead1351e0cac3501ee14312072acd140",
  "bytecode": "0x608060405234801561001057600080fd5b5061140b806100206000396000f3fe608060405234801561001057600080fd5b50600436106100f55760003560e01c806367ed943811610097578063b0fb11de11610066578063b0fb11de14610296578063ccc5ffe9146102c6578063e91926f1146102f7578063f89c26d014610327576100f5565b806367ed9438146101fb578063828f74b11461021757806384fed32a14610247578063a53308dc14610263576100f5565b806332cb2364116100d357806332cb2364146101635780633ee036871461017f57806354e3e36e1461019b5780635fe20047146101cb576100f5565b806313ce43be146100fa5780631a1089c2146101165780631c8b4c2b14610147575b600080fd5b610114600480360381019061010f9190610b81565b610357565b005b610130600480360381019061012b9190610bc1565b610373565b60405161013e929190610c0a565b60405180910390f35b610161600480360381019061015c9190610c91565b6103bb565b005b61017d60048036038101906101789190610cf6565b6103ff565b005b61019960048036038101906101949190610cf6565b6104a1565b005b6101b560048036038101906101b09190610bc1565b6104d0565b6040516101c29190610d45565b60405180910390f35b6101e560048036038101906101e09190610bc1565b6104f0565b6040516101f29190610e0b565b60405180910390f35b61021560048036038101906102109190610e52565b610574565b005b610231600480360381019061022c9190610bc1565b610630565b60405161023e9190610eb4565b60405180910390f35b610261600480360381019061025c9190610ecf565b610648565b005b61027d60048036038101906102789190610bc1565b61087a565b60405161028d9493929190610f4a565b60405180910390f35b6102b060048036038101906102ab9190610b81565b6108de565b6040516102bd9190610f8f565b60405180910390f35b6102e060048036038101906102db9190610bc1565b610917565b6040516102ee929190610c0a565b60405180910390f35b610311600480360381019061030c9190610bc1565b61095f565b60405161031e9190610d45565b60405180910390f35b610341600480360381019061033c9190610bc1565b610988565b60405161034e9190610d45565b60405180910390f35b8060046000848152602001908152602001600020819055505050565b60008060006001600085815260200190815260200160002090508060000160029054906101000a900460ff168160000160039054906101000a900460ff169250925050915091565b80600560006101000a81548173ffffffffffffffffffffffffffffffffffffffff021916908373ffffffffffffffffffffffffffffffffffffffff16021790555050565b610408826109a8565b610447576040517f08c379a000000000000000000000000000000000000000000000000000000000815260040161043e9061102d565b60405180910390fd5b8060008084815260200190815260200160002060006101000a81548160ff02191690831515021790555060006003600084815260200190815260200160002060006101000a81548160ff0219169083151502179055505050565b806003600084815260200190815260200160002060006101000a81548160ff0219169083151502179055505050565b60036020528060005260406000206000915054906101000a900460ff1681565b6104f8610a6d565b60026000838152602001908152602001600020600280602002604051908101604052809291908260028015610568576020028201916000905b82829054906101000a900460ff1660ff16815260200190600101906020826000010492830192600103820291508084116105315790505b50505050509050919050565b600e8160ff161115801561058b575060008260ff16145b806105a95750600b8160ff16111580156105a8575060018260ff16145b5b6105e8576040517f08c379a00000000000000000000000000000000000000000000000000000000081526004016105df90611099565b60405180910390fd5b60405180604001604052808360ff1660ff1681526020018260ff1660ff168152506002600085815260200190815260200160002090600261062a929190610a8f565b50505050565b60046020528060005260406000206000915090505481565b60178460ff16111561068f576040517f08c379a00000000000000000000000000000000000000000000000000000000081526004016106869061112b565b60405180910390fd5b603b8360ff1611156106d6576040517f08c379a00000000000000000000000000000000000000000000000000000000081526004016106cd906111bd565b60405180910390fd5b60178260ff16111561071d576040517f08c379a00000000000000000000000000000000000000000000000000000000081526004016107149061124f565b60405180910390fd5b603b8160ff161115610764576040517f08c379a000000000000000000000000000000000000000000000000000000000815260040161075b906112e1565b60405180910390fd5b61076d856109a8565b6107ac576040517f08c379a00000000000000000000000000000000000000000000000000000000081526004016107a390611373565b60405180910390fd5b60405180608001604052808560ff1681526020018460ff1681526020018360ff1681526020018260ff168152506001600087815260200190815260200160002060008201518160000160006101000a81548160ff021916908360ff16021790555060208201518160000160016101000a81548160ff021916908360ff16021790555060408201518160000160026101000a81548160ff021916908360ff16021790555060608201518160000160036101000a81548160ff021916908360ff1602179055509050505050505050565b60016020528060005260406000206000915090508060000160009054906101000a900460ff16908060000160019054906101000a900460ff16908060000160029054906101000a900460ff16908060000160039054906101000a900460ff16905084565b600260205281600052604060002081600281106108fa57600080fd5b60209182820401919006915091509054906101000a900460ff1681565b60008060006001600085815260200190815260200160002090508060000160009054906101000a900460ff168160000160019054906101000a900460ff169250925050915091565b600080600083815260200190815260200160002060009054906101000a900460ff169050919050565b60006020528060005260406000206000915054906101000a900460ff1681565b60003373ffffffffffffffffffffffffffffffffffffffff167339ee8697ec001b3eed0bb190e8c4aea2a2532c9573ffffffffffffffffffffffffffffffffffffffff16636352211e846040518263ffffffff1660e01b8152600401610a0e9190610eb4565b602060405180830381865afa158015610a2b573d6000803e3d6000fd5b505050506040513d601f19601f82011682018060405250810190610a4f91906113a8565b73ffffffffffffffffffffffffffffffffffffffff16149050919050565b6040518060400160405280600290602082028036833780820191505090505090565b826002601f01602090048101928215610b185791602002820160005b83821115610ae957835183826101000a81548160ff021916908360ff1602179055509260200192600101602081600001049283019260010302610aab565b8015610b165782816101000a81549060ff0219169055600101602081600001049283019260010302610ae9565b505b509050610b259190610b29565b5090565b5b80821115610b42576000816000905550600101610b2a565b5090565b600080fd5b6000819050919050565b610b5e81610b4b565b8114610b6957600080fd5b50565b600081359050610b7b81610b55565b92915050565b60008060408385031215610b9857610b97610b46565b5b6000610ba685828601610b6c565b9250506020610bb785828601610b6c565b9150509250929050565b600060208284031215610bd757610bd6610b46565b5b6000610be584828501610b6c565b91505092915050565b600060ff82169050919050565b610c0481610bee565b82525050565b6000604082019050610c1f6000830185610bfb565b610c2c6020830184610bfb565b9392505050565b600073ffffffffffffffffffffffffffffffffffffffff82169050919050565b6000610c5e82610c33565b9050919050565b610c6e81610c53565b8114610c7957600080fd5b50565b600081359050610c8b81610c65565b92915050565b600060208284031215610ca757610ca6610b46565b5b6000610cb584828501610c7c565b91505092915050565b60008115159050919050565b610cd381610cbe565b8114610cde57600080fd5b50565b600081359050610cf081610cca565b92915050565b60008060408385031215610d0d57610d0c610b46565b5b6000610d1b85828601610b6c565b9250506020610d2c85828601610ce1565b9150509250929050565b610d3f81610cbe565b82525050565b6000602082019050610d5a6000830184610d36565b92915050565b600060029050919050565b600081905092915050565b6000819050919050565b610d8981610bee565b82525050565b6000610d9b8383610d80565b60208301905092915050565b6000602082019050919050565b610dbd81610d60565b610dc78184610d6b565b9250610dd282610d76565b8060005b83811015610e03578151610dea8782610d8f565b9650610df583610da7565b925050600181019050610dd6565b505050505050565b6000604082019050610e206000830184610db4565b92915050565b610e2f81610bee565b8114610e3a57600080fd5b50565b600081359050610e4c81610e26565b92915050565b600080600060608486031215610e6b57610e6a610b46565b5b6000610e7986828701610b6c565b9350506020610e8a86828701610e3d565b9250506040610e9b86828701610e3d565b9150509250925092565b610eae81610b4b565b82525050565b6000602082019050610ec96000830184610ea5565b92915050565b600080600080600060a08688031215610eeb57610eea610b46565b5b6000610ef988828901610b6c565b9550506020610f0a88828901610e3d565b9450506040610f1b88828901610e3d565b9350506060610f2c88828901610e3d565b9250506080610f3d88828901610e3d565b9150509295509295909350565b6000608082019050610f5f6000830187610bfb565b610f6c6020830186610bfb565b610f796040830185610bfb565b610f866060830184610bfb565b95945050505050565b6000602082019050610fa46000830184610bfb565b92915050565b600082825260208201905092915050565b7f4e6f7420617070726f76656420746f20757064617465207061726b696e67207360008201527f706f7420417661696c6162696c69747900000000000000000000000000000000602082015250565b6000611017603083610faa565b915061102282610fbb565b604082019050919050565b600060208201905081810360008301526110468161100a565b9050919050565b7f506c6561736520696e70757420612076616c69642074696d657a6f6e65000000600082015250565b6000611083601d83610faa565b915061108e8261104d565b602082019050919050565b600060208201905081810360008301526110b281611076565b9050919050565b7f537461727420686f7572206d757374206265206265747765656e203020616e6460008201527f2032330000000000000000000000000000000000000000000000000000000000602082015250565b6000611115602383610faa565b9150611120826110b9565b604082019050919050565b6000602082019050818103600083015261114481611108565b9050919050565b7f5374617274206d696e757465206d757374206265206265747765656e2030206160008201527f6e64203539000000000000000000000000000000000000000000000000000000602082015250565b60006111a7602583610faa565b91506111b28261114b565b604082019050919050565b600060208201905081810360008301526111d68161119a565b9050919050565b7f456e6420686f7572206d757374206265206265747765656e203020616e64203260008201527f3300000000000000000000000000000000000000000000000000000000000000602082015250565b6000611239602183610faa565b9150611244826111dd565b604082019050919050565b600060208201905081810360008301526112688161122c565b9050919050565b7f456e64206d696e757465206d757374206265206265747765656e203020616e6460008201527f2035390000000000000000000000000000000000000000000000000000000000602082015250565b60006112cb602383610faa565b91506112d68261126f565b604082019050919050565b600060208201905081810360008301526112fa816112be565b9050919050565b7f4e6f7420617070726f76656420746f20757064617465207061726b696e67207360008201527f706f7420617661696c6162696c6974792074696d657300000000000000000000602082015250565b600061135d603683610faa565b915061136882611301565b604082019050919050565b6000602082019050818103600083015261138c81611350565b9050919050565b6000815190506113a281610c65565b92915050565b6000602082840312156113be576113bd610b46565b5b60006113cc84828501611393565b9150509291505056fea2646970667358221220f6d9df637a7e0e83917db310c5dc22603724a907bfc29965911c27aa954e76d064736f6c634300080c0033",
  "devdoc": {
    "kind": "dev",
    "methods": {},
    "version": 1
  },
  "userdoc": {
    "kind": "user",
    "methods": {},
    "version": 1
  },
  "storageLayout": {
    "storage": [
      {
        "astId": 8639,
        "contract": "contracts/ParkingSpotAttributes.sol:ParkingSpotAttributes",
        "label": "spot_available",
        "offset": 0,
        "slot": "0",
        "type": "t_mapping(t_uint256,t_bool)"
      },
      {
        "astId": 8644,
        "contract": "contracts/ParkingSpotAttributes.sol:ParkingSpotAttributes",
        "label": "permittedParkingTime",
        "offset": 0,
        "slot": "1",
        "type": "t_mapping(t_uint256,t_struct(availabilityTimes)8635_storage)"
      },
      {
        "astId": 8650,
        "contract": "contracts/ParkingSpotAttributes.sol:ParkingSpotAttributes",
        "label": "parkingSpotTimeZone",
        "offset": 0,
        "slot": "2",
        "type": "t_mapping(t_uint256,t_array(t_uint8)2_storage)"
      },
      {
        "astId": 8654,
        "contract": "contracts/ParkingSpotAttributes.sol:ParkingSpotAttributes",
        "label": "spotInUse",
        "offset": 0,
        "slot": "3",
        "type": "t_mapping(t_uint256,t_bool)"
      },
      {
        "astId": 8658,
        "contract": "contracts/ParkingSpotAttributes.sol:ParkingSpotAttributes",
        "label": "pricePerHour",
        "offset": 0,
        "slot": "4",
        "type": "t_mapping(t_uint256,t_uint256)"
      },
      {
        "astId": 8660,
        "contract": "contracts/ParkingSpotAttributes.sol:ParkingSpotAttributes",
        "label": "requestParkingSpotTokenAddress",
        "offset": 0,
        "slot": "5",
        "type": "t_address"
      }
    ],
    "types": {
      "t_address": {
        "encoding": "inplace",
        "label": "address",
        "numberOfBytes": "20"
      },
      "t_array(t_uint8)2_storage": {
        "base": "t_uint8",
        "encoding": "inplace",
        "label": "uint8[2]",
        "numberOfBytes": "32"
      },
      "t_bool": {
        "encoding": "inplace",
        "label": "bool",
        "numberOfBytes": "1"
      },
      "t_mapping(t_uint256,t_array(t_uint8)2_storage)": {
        "encoding": "mapping",
        "key": "t_uint256",
        "label": "mapping(uint256 => uint8[2])",
        "numberOfBytes": "32",
        "value": "t_array(t_uint8)2_storage"
      },
      "t_mapping(t_uint256,t_bool)": {
        "encoding": "mapping",
        "key": "t_uint256",
        "label": "mapping(uint256 => bool)",
        "numberOfBytes": "32",
        "value": "t_bool"
      },
      "t_mapping(t_uint256,t_struct(availabilityTimes)8635_storage)": {
        "encoding": "mapping",
        "key": "t_uint256",
        "label": "mapping(uint256 => struct ParkingSpotAttributes.availabilityTimes)",
        "numberOfBytes": "32",
        "value": "t_struct(availabilityTimes)8635_storage"
      },
      "t_mapping(t_uint256,t_uint256)": {
        "encoding": "mapping",
        "key": "t_uint256",
        "label": "mapping(uint256 => uint256)",
        "numberOfBytes": "32",
        "value": "t_uint256"
      },
      "t_struct(availabilityTimes)8635_storage": {
        "encoding": "inplace",
        "label": "struct ParkingSpotAttributes.availabilityTimes",
        "members": [
          {
            "astId": 8628,
            "contract": "contracts/ParkingSpotAttributes.sol:ParkingSpotAttributes",
            "label": "startHour",
            "offset": 0,
            "slot": "0",
            "type": "t_uint8"
          },
          {
            "astId": 8630,
            "contract": "contracts/ParkingSpotAttributes.sol:ParkingSpotAttributes",
            "label": "startMinute",
            "offset": 1,
            "slot": "0",
            "type": "t_uint8"
          },
          {
            "astId": 8632,
            "contract": "contracts/ParkingSpotAttributes.sol:ParkingSpotAttributes",
            "label": "endHour",
            "offset": 2,
            "slot": "0",
            "type": "t_uint8"
          },
          {
            "astId": 8634,
            "contract": "contracts/ParkingSpotAttributes.sol:ParkingSpotAttributes",
            "label": "endMinute",
            "offset": 3,
            "slot": "0",
            "type": "t_uint8"
          }
        ],
        "numberOfBytes": "32"
      },
      "t_uint256": {
        "encoding": "inplace",
        "label": "uint256",
        "numberOfBytes": "32"
      },
      "t_uint8": {
        "encoding": "inplace",
        "label": "uint8",
        "numberOfBytes": "1"
      }
    }
  }
}