{
  "address": "0x1026943312b99dE4041F46d64bE6B9161eeA9e20",
  "abi": [
    {
      "inputs": [
        {
          "internalType": "address",
          "name": "_parkingSpotTokenAddress",
          "type": "address"
        }
      ],
      "stateMutability": "nonpayable",
      "type": "constructor"
    },
    {
      "inputs": [
        {
          "internalType": "uint256",
          "name": "_parking_spot_id",
          "type": "uint256"
        }
      ],
      "name": "checkSpotAvailability",
      "outputs": [
        {
          "internalType": "bool",
          "name": "",
          "type": "bool"
        }
      ],
      "stateMutability": "view",
      "type": "function"
    },
    {
      "inputs": [
        {
          "internalType": "uint256",
          "name": "_parking_spot_id",
          "type": "uint256"
        }
      ],
      "name": "checkSpotPermittedParkingEndTime",
      "outputs": [
        {
          "internalType": "uint16",
          "name": "",
          "type": "uint16"
        }
      ],
      "stateMutability": "view",
      "type": "function"
    },
    {
      "inputs": [
        {
          "internalType": "uint256",
          "name": "_parking_spot_id",
          "type": "uint256"
        }
      ],
      "name": "checkSpotPermittedParkingStartTime",
      "outputs": [
        {
          "internalType": "uint16",
          "name": "",
          "type": "uint16"
        }
      ],
      "stateMutability": "view",
      "type": "function"
    },
    {
      "inputs": [
        {
          "internalType": "uint256",
          "name": "",
          "type": "uint256"
        }
      ],
      "name": "permittedParkingTime",
      "outputs": [
        {
          "internalType": "uint16",
          "name": "startTime",
          "type": "uint16"
        },
        {
          "internalType": "uint16",
          "name": "endTime",
          "type": "uint16"
        }
      ],
      "stateMutability": "view",
      "type": "function"
    },
    {
      "inputs": [
        {
          "internalType": "uint256",
          "name": "_parking_spot_id",
          "type": "uint256"
        },
        {
          "internalType": "bool",
          "name": "_availability",
          "type": "bool"
        }
      ],
      "name": "setSpotAvailability",
      "outputs": [],
      "stateMutability": "nonpayable",
      "type": "function"
    },
    {
      "inputs": [
        {
          "internalType": "uint256",
          "name": "_parking_spot_id",
          "type": "uint256"
        },
        {
          "internalType": "uint16",
          "name": "_start_time",
          "type": "uint16"
        },
        {
          "internalType": "uint16",
          "name": "_end_time",
          "type": "uint16"
        }
      ],
      "name": "setSpotPermittedParkingTime",
      "outputs": [],
      "stateMutability": "nonpayable",
      "type": "function"
    },
    {
      "inputs": [
        {
          "internalType": "uint256",
          "name": "",
          "type": "uint256"
        }
      ],
      "name": "spot_available",
      "outputs": [
        {
          "internalType": "bool",
          "name": "",
          "type": "bool"
        }
      ],
      "stateMutability": "view",
      "type": "function"
    }
  ],
  "transactionHash": "0x8c37a5b9d7e6114ebd8fcb0af21ed42996fe34a734f0c19d1d509831c308a807",
  "args": [
    "0x17b6d8add53b9bd12EfFC1253854139e89EBa9Fe"
  ],
  "numDeployments": 1,
  "solcInputHash": "0a0e9e6bcbe978ae566ff1dc31fc2090",
  "bytecode": "0x60a0604052600260009054906101000a900473ffffffffffffffffffffffffffffffffffffffff1673ffffffffffffffffffffffffffffffffffffffff1660809073ffffffffffffffffffffffffffffffffffffffff1681525034801561006557600080fd5b5060405161088938038061088983398181016040528101906100879190610131565b80600260006101000a81548173ffffffffffffffffffffffffffffffffffffffff021916908373ffffffffffffffffffffffffffffffffffffffff1602179055505061015e565b600080fd5b600073ffffffffffffffffffffffffffffffffffffffff82169050919050565b60006100fe826100d3565b9050919050565b61010e816100f3565b811461011957600080fd5b50565b60008151905061012b81610105565b92915050565b600060208284031215610147576101466100ce565b5b60006101558482850161011c565b91505092915050565b608051610710610179600039600061038501526107106000f3fe608060405234801561001057600080fd5b506004361061007d5760003560e01c8063a53308dc1161005b578063a53308dc146100ea578063ccc5ffe91461011b578063e91926f11461014b578063f89c26d01461017b5761007d565b80631a1089c21461008257806332cb2364146100b25780638a5103f4146100ce575b600080fd5b61009c60048036038101906100979190610476565b6101ab565b6040516100a991906104c0565b60405180910390f35b6100cc60048036038101906100c79190610513565b6101de565b005b6100e860048036038101906100e3919061057f565b61021e565b005b61010460048036038101906100ff9190610476565b6102ae565b6040516101129291906105d2565b60405180910390f35b61013560048036038101906101309190610476565b6102ee565b60405161014291906104c0565b60405180910390f35b61016560048036038101906101609190610476565b610321565b604051610172919061060a565b60405180910390f35b61019560048036038101906101909190610476565b61034a565b6040516101a2919061060a565b60405180910390f35b6000806001600084815260200190815260200160002090508060000160029054906101000a900461ffff16915050919050565b6101e78261036a565b6101f057600080fd5b8060008084815260200190815260200160002060006101000a81548160ff0219169083151502179055505050565b6102278361036a565b61023057600080fd5b60405180604001604052808361ffff1681526020018261ffff168152506001600085815260200190815260200160002060008201518160000160006101000a81548161ffff021916908361ffff16021790555060208201518160000160026101000a81548161ffff021916908361ffff160217905550905050505050565b60016020528060005260406000206000915090508060000160009054906101000a900461ffff16908060000160029054906101000a900461ffff16905082565b6000806001600084815260200190815260200160002090508060000160009054906101000a900461ffff16915050919050565b600080600083815260200190815260200160002060009054906101000a900460ff169050919050565b60006020528060005260406000206000915054906101000a900460ff1681565b60003373ffffffffffffffffffffffffffffffffffffffff167f000000000000000000000000000000000000000000000000000000000000000073ffffffffffffffffffffffffffffffffffffffff16636352211e846040518263ffffffff1660e01b81526004016103dc9190610634565b602060405180830381865afa1580156103f9573d6000803e3d6000fd5b505050506040513d601f19601f8201168201806040525081019061041d91906106ad565b73ffffffffffffffffffffffffffffffffffffffff16149050919050565b600080fd5b6000819050919050565b61045381610440565b811461045e57600080fd5b50565b6000813590506104708161044a565b92915050565b60006020828403121561048c5761048b61043b565b5b600061049a84828501610461565b91505092915050565b600061ffff82169050919050565b6104ba816104a3565b82525050565b60006020820190506104d560008301846104b1565b92915050565b60008115159050919050565b6104f0816104db565b81146104fb57600080fd5b50565b60008135905061050d816104e7565b92915050565b6000806040838503121561052a5761052961043b565b5b600061053885828601610461565b9250506020610549858286016104fe565b9150509250929050565b61055c816104a3565b811461056757600080fd5b50565b60008135905061057981610553565b92915050565b6000806000606084860312156105985761059761043b565b5b60006105a686828701610461565b93505060206105b78682870161056a565b92505060406105c88682870161056a565b9150509250925092565b60006040820190506105e760008301856104b1565b6105f460208301846104b1565b9392505050565b610604816104db565b82525050565b600060208201905061061f60008301846105fb565b92915050565b61062e81610440565b82525050565b60006020820190506106496000830184610625565b92915050565b600073ffffffffffffffffffffffffffffffffffffffff82169050919050565b600061067a8261064f565b9050919050565b61068a8161066f565b811461069557600080fd5b50565b6000815190506106a781610681565b92915050565b6000602082840312156106c3576106c261043b565b5b60006106d184828501610698565b9150509291505056fea26469706673582212202041b6b022cacf11569d6c1ec458247ec50a1897a343932954606018c1117e1164736f6c634300080c0033",
  "devdoc": {
    "kind": "dev",
    "methods": {},
    "version": 1
  },
  "userdoc": {
    "kind": "user",
    "methods": {},
    "version": 1
  },
  "storageLayout": {
    "storage": [
      {
        "astId": 5168,
        "contract": "contracts/ParkingSpotAttributes.sol:ParkingSpotAttributes",
        "label": "spot_available",
        "offset": 0,
        "slot": "0",
        "type": "t_mapping(t_uint256,t_bool)"
      },
      {
        "astId": 5173,
        "contract": "contracts/ParkingSpotAttributes.sol:ParkingSpotAttributes",
        "label": "permittedParkingTime",
        "offset": 0,
        "slot": "1",
        "type": "t_mapping(t_uint256,t_struct(availabilityTimes)5164_storage)"
      },
      {
        "astId": 5175,
        "contract": "contracts/ParkingSpotAttributes.sol:ParkingSpotAttributes",
        "label": "parkingSpotTokenAddress",
        "offset": 0,
        "slot": "2",
        "type": "t_address"
      }
    ],
    "types": {
      "t_address": {
        "encoding": "inplace",
        "label": "address",
        "numberOfBytes": "20"
      },
      "t_bool": {
        "encoding": "inplace",
        "label": "bool",
        "numberOfBytes": "1"
      },
      "t_mapping(t_uint256,t_bool)": {
        "encoding": "mapping",
        "key": "t_uint256",
        "label": "mapping(uint256 => bool)",
        "numberOfBytes": "32",
        "value": "t_bool"
      },
      "t_mapping(t_uint256,t_struct(availabilityTimes)5164_storage)": {
        "encoding": "mapping",
        "key": "t_uint256",
        "label": "mapping(uint256 => struct ParkingSpotAttributes.availabilityTimes)",
        "numberOfBytes": "32",
        "value": "t_struct(availabilityTimes)5164_storage"
      },
      "t_struct(availabilityTimes)5164_storage": {
        "encoding": "inplace",
        "label": "struct ParkingSpotAttributes.availabilityTimes",
        "members": [
          {
            "astId": 5161,
            "contract": "contracts/ParkingSpotAttributes.sol:ParkingSpotAttributes",
            "label": "startTime",
            "offset": 0,
            "slot": "0",
            "type": "t_uint16"
          },
          {
            "astId": 5163,
            "contract": "contracts/ParkingSpotAttributes.sol:ParkingSpotAttributes",
            "label": "endTime",
            "offset": 2,
            "slot": "0",
            "type": "t_uint16"
          }
        ],
        "numberOfBytes": "32"
      },
      "t_uint16": {
        "encoding": "inplace",
        "label": "uint16",
        "numberOfBytes": "2"
      },
      "t_uint256": {
        "encoding": "inplace",
        "label": "uint256",
        "numberOfBytes": "32"
      }
    }
  }
}