{
  "address": "0x2EDca11fE8d9fBcA1258AeBb6e9436D67966eACD",
  "abi": [
    {
      "inputs": [
        {
          "internalType": "address",
          "name": "_OffchainParkingDataResponseAddress",
          "type": "address"
        }
      ],
      "stateMutability": "nonpayable",
      "type": "constructor"
    },
    {
      "anonymous": false,
      "inputs": [
        {
          "indexed": true,
          "internalType": "address",
          "name": "owner",
          "type": "address"
        },
        {
          "indexed": true,
          "internalType": "address",
          "name": "approved",
          "type": "address"
        },
        {
          "indexed": true,
          "internalType": "uint256",
          "name": "tokenId",
          "type": "uint256"
        }
      ],
      "name": "Approval",
      "type": "event"
    },
    {
      "anonymous": false,
      "inputs": [
        {
          "indexed": true,
          "internalType": "address",
          "name": "owner",
          "type": "address"
        },
        {
          "indexed": true,
          "internalType": "address",
          "name": "operator",
          "type": "address"
        },
        {
          "indexed": false,
          "internalType": "bool",
          "name": "approved",
          "type": "bool"
        }
      ],
      "name": "ApprovalForAll",
      "type": "event"
    },
    {
      "anonymous": false,
      "inputs": [
        {
          "indexed": true,
          "internalType": "address",
          "name": "from",
          "type": "address"
        },
        {
          "indexed": true,
          "internalType": "address",
          "name": "to",
          "type": "address"
        },
        {
          "indexed": true,
          "internalType": "uint256",
          "name": "tokenId",
          "type": "uint256"
        }
      ],
      "name": "Transfer",
      "type": "event"
    },
    {
      "inputs": [],
      "name": "OffchainParkingDataResponseAddress",
      "outputs": [
        {
          "internalType": "address",
          "name": "",
          "type": "address"
        }
      ],
      "stateMutability": "view",
      "type": "function"
    },
    {
      "inputs": [
        {
          "internalType": "address",
          "name": "to",
          "type": "address"
        },
        {
          "internalType": "uint256",
          "name": "tokenId",
          "type": "uint256"
        }
      ],
      "name": "approve",
      "outputs": [],
      "stateMutability": "nonpayable",
      "type": "function"
    },
    {
      "inputs": [
        {
          "internalType": "address",
          "name": "owner",
          "type": "address"
        }
      ],
      "name": "balanceOf",
      "outputs": [
        {
          "internalType": "uint256",
          "name": "",
          "type": "uint256"
        }
      ],
      "stateMutability": "view",
      "type": "function"
    },
    {
      "inputs": [
        {
          "internalType": "uint256",
          "name": "tokenId",
          "type": "uint256"
        }
      ],
      "name": "getApproved",
      "outputs": [
        {
          "internalType": "address",
          "name": "",
          "type": "address"
        }
      ],
      "stateMutability": "view",
      "type": "function"
    },
    {
      "inputs": [
        {
          "internalType": "address",
          "name": "owner",
          "type": "address"
        },
        {
          "internalType": "address",
          "name": "operator",
          "type": "address"
        }
      ],
      "name": "isApprovedForAll",
      "outputs": [
        {
          "internalType": "bool",
          "name": "",
          "type": "bool"
        }
      ],
      "stateMutability": "view",
      "type": "function"
    },
    {
      "inputs": [
        {
          "internalType": "address",
          "name": "user",
          "type": "address"
        },
        {
          "internalType": "uint16",
          "name": "_index",
          "type": "uint16"
        }
      ],
      "name": "mintParkingSpot",
      "outputs": [
        {
          "internalType": "uint256",
          "name": "",
          "type": "uint256"
        }
      ],
      "stateMutability": "nonpayable",
      "type": "function"
    },
    {
      "inputs": [],
      "name": "name",
      "outputs": [
        {
          "internalType": "string",
          "name": "",
          "type": "string"
        }
      ],
      "stateMutability": "view",
      "type": "function"
    },
    {
      "inputs": [
        {
          "internalType": "uint256",
          "name": "tokenId",
          "type": "uint256"
        }
      ],
      "name": "ownerOf",
      "outputs": [
        {
          "internalType": "address",
          "name": "",
          "type": "address"
        }
      ],
      "stateMutability": "view",
      "type": "function"
    },
    {
      "inputs": [
        {
          "internalType": "address",
          "name": "from",
          "type": "address"
        },
        {
          "internalType": "address",
          "name": "to",
          "type": "address"
        },
        {
          "internalType": "uint256",
          "name": "tokenId",
          "type": "uint256"
        }
      ],
      "name": "safeTransferFrom",
      "outputs": [],
      "stateMutability": "nonpayable",
      "type": "function"
    },
    {
      "inputs": [
        {
          "internalType": "address",
          "name": "from",
          "type": "address"
        },
        {
          "internalType": "address",
          "name": "to",
          "type": "address"
        },
        {
          "internalType": "uint256",
          "name": "tokenId",
          "type": "uint256"
        },
        {
          "internalType": "bytes",
          "name": "data",
          "type": "bytes"
        }
      ],
      "name": "safeTransferFrom",
      "outputs": [],
      "stateMutability": "nonpayable",
      "type": "function"
    },
    {
      "inputs": [
        {
          "internalType": "address",
          "name": "operator",
          "type": "address"
        },
        {
          "internalType": "bool",
          "name": "approved",
          "type": "bool"
        }
      ],
      "name": "setApprovalForAll",
      "outputs": [],
      "stateMutability": "nonpayable",
      "type": "function"
    },
    {
      "inputs": [
        {
          "internalType": "bytes32",
          "name": "",
          "type": "bytes32"
        }
      ],
      "name": "spotTokenised",
      "outputs": [
        {
          "internalType": "bool",
          "name": "",
          "type": "bool"
        }
      ],
      "stateMutability": "view",
      "type": "function"
    },
    {
      "inputs": [
        {
          "internalType": "bytes4",
          "name": "interfaceId",
          "type": "bytes4"
        }
      ],
      "name": "supportsInterface",
      "outputs": [
        {
          "internalType": "bool",
          "name": "",
          "type": "bool"
        }
      ],
      "stateMutability": "view",
      "type": "function"
    },
    {
      "inputs": [],
      "name": "symbol",
      "outputs": [
        {
          "internalType": "string",
          "name": "",
          "type": "string"
        }
      ],
      "stateMutability": "view",
      "type": "function"
    },
    {
      "inputs": [
        {
          "internalType": "uint256",
          "name": "tokenId",
          "type": "uint256"
        }
      ],
      "name": "tokenURI",
      "outputs": [
        {
          "internalType": "string",
          "name": "",
          "type": "string"
        }
      ],
      "stateMutability": "view",
      "type": "function"
    },
    {
      "inputs": [
        {
          "internalType": "address",
          "name": "from",
          "type": "address"
        },
        {
          "internalType": "address",
          "name": "to",
          "type": "address"
        },
        {
          "internalType": "uint256",
          "name": "tokenId",
          "type": "uint256"
        }
      ],
      "name": "transferFrom",
      "outputs": [],
      "stateMutability": "nonpayable",
      "type": "function"
    }
  ],
  "transactionHash": "0x79ad1c85364cd74135f674cde4fc5269fbc22e5eeb1dfb5c53dd6a34b44d4bb1",
  "args": [
    "0xc20fBE2c2A13a282Fac3a6d62Cf1fD1c3b620AB2"
  ],
  "numDeployments": 2,
  "solcInputHash": "2797136e89f6d746b29c31cf4a6b2ecf",
  "bytecode": "0x60a0604052600860009054906101000a900473ffffffffffffffffffffffffffffffffffffffff1673ffffffffffffffffffffffffffffffffffffffff1660809073ffffffffffffffffffffffffffffffffffffffff168152503480156200006657600080fd5b506040516200328e3803806200328e83398181016040528101906200008c91906200028e565b6040518060400160405280601081526020017f5061726b696e6753706f74546f6b656e000000000000000000000000000000008152506040518060400160405280600381526020017f505354000000000000000000000000000000000000000000000000000000000081525081600090805190602001906200011092919062000174565b5080600190805190602001906200012992919062000174565b50505080600860006101000a81548173ffffffffffffffffffffffffffffffffffffffff021916908373ffffffffffffffffffffffffffffffffffffffff1602179055505062000325565b8280546200018290620002ef565b90600052602060002090601f016020900481019282620001a65760008555620001f2565b82601f10620001c157805160ff1916838001178555620001f2565b82800160010185558215620001f2579182015b82811115620001f1578251825591602001919060010190620001d4565b5b50905062000201919062000205565b5090565b5b808211156200022057600081600090555060010162000206565b5090565b600080fd5b600073ffffffffffffffffffffffffffffffffffffffff82169050919050565b6000620002568262000229565b9050919050565b620002688162000249565b81146200027457600080fd5b50565b60008151905062000288816200025d565b92915050565b600060208284031215620002a757620002a662000224565b5b6000620002b78482850162000277565b91505092915050565b7f4e487b7100000000000000000000000000000000000000000000000000000000600052602260045260246000fd5b600060028204905060018216806200030857607f821691505b602082108114156200031f576200031e620002c0565b5b50919050565b608051612f4d6200034160003960006115300152612f4d6000f3fe608060405234801561001057600080fd5b50600436106101005760003560e01c80636352211e11610097578063b88d4fde11610066578063b88d4fde146102bf578063c87b56dd146102db578063cc6b64a41461030b578063e985e9c51461033b57610100565b80636352211e1461022557806370a082311461025557806395d89b4114610285578063a22cb465146102a357610100565b806323b872dd116100d357806323b872dd1461019f5780632d67219e146101bb57806330e50542146101eb57806342842e0e1461020957610100565b806301ffc9a71461010557806306fdde0314610135578063081812fc14610153578063095ea7b314610183575b600080fd5b61011f600480360381019061011a9190611d10565b61036b565b60405161012c9190611d58565b60405180910390f35b61013d61044d565b60405161014a9190611e0c565b60405180910390f35b61016d60048036038101906101689190611e64565b6104df565b60405161017a9190611ed2565b60405180910390f35b61019d60048036038101906101989190611f19565b610525565b005b6101b960048036038101906101b49190611f59565b61063d565b005b6101d560048036038101906101d09190611fe6565b61069d565b6040516101e29190612035565b60405180910390f35b6101f36106e3565b6040516102009190611ed2565b60405180910390f35b610223600480360381019061021e9190611f59565b610709565b005b61023f600480360381019061023a9190611e64565b610729565b60405161024c9190611ed2565b60405180910390f35b61026f600480360381019061026a9190612050565b6107db565b60405161027c9190612035565b60405180910390f35b61028d610893565b60405161029a9190611e0c565b60405180910390f35b6102bd60048036038101906102b891906120a9565b610925565b005b6102d960048036038101906102d4919061221e565b61093b565b005b6102f560048036038101906102f09190611e64565b61099d565b6040516103029190611e0c565b60405180910390f35b610325600480360381019061032091906122d7565b610ab0565b6040516103329190611d58565b60405180910390f35b61035560048036038101906103509190612304565b610ad0565b6040516103629190611d58565b60405180910390f35b60007f80ac58cd000000000000000000000000000000000000000000000000000000007bffffffffffffffffffffffffffffffffffffffffffffffffffffffff1916827bffffffffffffffffffffffffffffffffffffffffffffffffffffffff1916148061043657507f5b5e139f000000000000000000000000000000000000000000000000000000007bffffffffffffffffffffffffffffffffffffffffffffffffffffffff1916827bffffffffffffffffffffffffffffffffffffffffffffffffffffffff1916145b80610446575061044582610b64565b5b9050919050565b60606000805461045c90612373565b80601f016020809104026020016040519081016040528092919081815260200182805461048890612373565b80156104d55780601f106104aa576101008083540402835291602001916104d5565b820191906000526020600020905b8154815290600101906020018083116104b857829003601f168201915b5050505050905090565b60006104ea82610bce565b6004600083815260200190815260200160002060009054906101000a900473ffffffffffffffffffffffffffffffffffffffff169050919050565b600061053082610729565b90508073ffffffffffffffffffffffffffffffffffffffff168373ffffffffffffffffffffffffffffffffffffffff1614156105a1576040517f08c379a000000000000000000000000000000000000000000000000000000000815260040161059890612417565b60405180910390fd5b8073ffffffffffffffffffffffffffffffffffffffff166105c0610c19565b73ffffffffffffffffffffffffffffffffffffffff1614806105ef57506105ee816105e9610c19565b610ad0565b5b61062e576040517f08c379a0000000000000000000000000000000000000000000000000000000008152600401610625906124a9565b60405180910390fd5b6106388383610c21565b505050565b61064e610648610c19565b82610cda565b61068d576040517f08c379a00000000000000000000000000000000000000000000000000000000081526004016106849061253b565b60405180910390fd5b610698838383610d6f565b505050565b60006106a96009610fd6565b60006106b483610fec565b905060006106c26009611012565b90506106ce8582611020565b6106d881836111fa565b809250505092915050565b600860009054906101000a900473ffffffffffffffffffffffffffffffffffffffff1681565b6107248383836040518060200160405280600081525061093b565b505050565b6000806002600084815260200190815260200160002060009054906101000a900473ffffffffffffffffffffffffffffffffffffffff169050600073ffffffffffffffffffffffffffffffffffffffff168173ffffffffffffffffffffffffffffffffffffffff1614156107d2576040517f08c379a00000000000000000000000000000000000000000000000000000000081526004016107c9906125a7565b60405180910390fd5b80915050919050565b60008073ffffffffffffffffffffffffffffffffffffffff168273ffffffffffffffffffffffffffffffffffffffff16141561084c576040517f08c379a000000000000000000000000000000000000000000000000000000000815260040161084390612639565b60405180910390fd5b600360008373ffffffffffffffffffffffffffffffffffffffff1673ffffffffffffffffffffffffffffffffffffffff168152602001908152602001600020549050919050565b6060600180546108a290612373565b80601f01602080910402602001604051908101604052809291908181526020018280546108ce90612373565b801561091b5780601f106108f05761010080835404028352916020019161091b565b820191906000526020600020905b8154815290600101906020018083116108fe57829003601f168201915b5050505050905090565b610937610930610c19565b838361126e565b5050565b61094c610946610c19565b83610cda565b61098b576040517f08c379a00000000000000000000000000000000000000000000000000000000081526004016109829061253b565b60405180910390fd5b610997848484846113db565b50505050565b60606109a882610bce565b60006006600084815260200190815260200160002080546109c890612373565b80601f01602080910402602001604051908101604052809291908181526020018280546109f490612373565b8015610a415780601f10610a1657610100808354040283529160200191610a41565b820191906000526020600020905b815481529060010190602001808311610a2457829003601f168201915b505050505090506000610a52611437565b9050600081511415610a68578192505050610aab565b600082511115610a9d578082604051602001610a85929190612695565b60405160208183030381529060405292505050610aab565b610aa68461144e565b925050505b919050565b60076020528060005260406000206000915054906101000a900460ff1681565b6000600560008473ffffffffffffffffffffffffffffffffffffffff1673ffffffffffffffffffffffffffffffffffffffff16815260200190815260200160002060008373ffffffffffffffffffffffffffffffffffffffff1673ffffffffffffffffffffffffffffffffffffffff16815260200190815260200160002060009054906101000a900460ff16905092915050565b60007f01ffc9a7000000000000000000000000000000000000000000000000000000007bffffffffffffffffffffffffffffffffffffffffffffffffffffffff1916827bffffffffffffffffffffffffffffffffffffffffffffffffffffffff1916149050919050565b610bd7816114b6565b610c16576040517f08c379a0000000000000000000000000000000000000000000000000000000008152600401610c0d906125a7565b60405180910390fd5b50565b600033905090565b816004600083815260200190815260200160002060006101000a81548173ffffffffffffffffffffffffffffffffffffffff021916908373ffffffffffffffffffffffffffffffffffffffff160217905550808273ffffffffffffffffffffffffffffffffffffffff16610c9483610729565b73ffffffffffffffffffffffffffffffffffffffff167f8c5be1e5ebec7d5bd14f71427d1e84f3dd0314c0f7b2291e5b200ac8c7c3b92560405160405180910390a45050565b600080610ce683610729565b90508073ffffffffffffffffffffffffffffffffffffffff168473ffffffffffffffffffffffffffffffffffffffff161480610d285750610d278185610ad0565b5b80610d6657508373ffffffffffffffffffffffffffffffffffffffff16610d4e846104df565b73ffffffffffffffffffffffffffffffffffffffff16145b91505092915050565b8273ffffffffffffffffffffffffffffffffffffffff16610d8f82610729565b73ffffffffffffffffffffffffffffffffffffffff1614610de5576040517f08c379a0000000000000000000000000000000000000000000000000000000008152600401610ddc9061272b565b60405180910390fd5b600073ffffffffffffffffffffffffffffffffffffffff168273ffffffffffffffffffffffffffffffffffffffff161415610e55576040517f08c379a0000000000000000000000000000000000000000000000000000000008152600401610e4c906127bd565b60405180910390fd5b610e60838383611522565b610e6b600082610c21565b6001600360008573ffffffffffffffffffffffffffffffffffffffff1673ffffffffffffffffffffffffffffffffffffffff1681526020019081526020016000206000828254610ebb919061280c565b925050819055506001600360008473ffffffffffffffffffffffffffffffffffffffff1673ffffffffffffffffffffffffffffffffffffffff1681526020019081526020016000206000828254610f129190612840565b92505081905550816002600083815260200190815260200160002060006101000a81548173ffffffffffffffffffffffffffffffffffffffff021916908373ffffffffffffffffffffffffffffffffffffffff160217905550808273ffffffffffffffffffffffffffffffffffffffff168473ffffffffffffffffffffffffffffffffffffffff167fddf252ad1be2c89b69c2b068fc378daa952ba7f163c4a11628f55a4df523b3ef60405160405180910390a4610fd1838383611527565b505050565b6001816000016000828254019250508190555050565b60606000610ff98361152c565b90506000611006826115d1565b90508092505050919050565b600081600001549050919050565b600073ffffffffffffffffffffffffffffffffffffffff168273ffffffffffffffffffffffffffffffffffffffff161415611090576040517f08c379a0000000000000000000000000000000000000000000000000000000008152600401611087906128e2565b60405180910390fd5b611099816114b6565b156110d9576040517f08c379a00000000000000000000000000000000000000000000000000000000081526004016110d09061294e565b60405180910390fd5b6110e560008383611522565b6001600360008473ffffffffffffffffffffffffffffffffffffffff1673ffffffffffffffffffffffffffffffffffffffff16815260200190815260200160002060008282546111359190612840565b92505081905550816002600083815260200190815260200160002060006101000a81548173ffffffffffffffffffffffffffffffffffffffff021916908373ffffffffffffffffffffffffffffffffffffffff160217905550808273ffffffffffffffffffffffffffffffffffffffff16600073ffffffffffffffffffffffffffffffffffffffff167fddf252ad1be2c89b69c2b068fc378daa952ba7f163c4a11628f55a4df523b3ef60405160405180910390a46111f660008383611527565b5050565b611203826114b6565b611242576040517f08c379a0000000000000000000000000000000000000000000000000000000008152600401611239906129e0565b60405180910390fd5b80600660008481526020019081526020016000209080519060200190611269929190611c01565b505050565b8173ffffffffffffffffffffffffffffffffffffffff168373ffffffffffffffffffffffffffffffffffffffff1614156112dd576040517f08c379a00000000000000000000000000000000000000000000000000000000081526004016112d490612a4c565b60405180910390fd5b80600560008573ffffffffffffffffffffffffffffffffffffffff1673ffffffffffffffffffffffffffffffffffffffff16815260200190815260200160002060008473ffffffffffffffffffffffffffffffffffffffff1673ffffffffffffffffffffffffffffffffffffffff16815260200190815260200160002060006101000a81548160ff0219169083151502179055508173ffffffffffffffffffffffffffffffffffffffff168373ffffffffffffffffffffffffffffffffffffffff167f17307eab39ab6107e8899845ad3d59bd9653f200f220920489ca2b5937696c31836040516113ce9190611d58565b60405180910390a3505050565b6113e6848484610d6f565b6113f28484848461168f565b611431576040517f08c379a000000000000000000000000000000000000000000000000000000000815260040161142890612ade565b60405180910390fd5b50505050565b606060405180602001604052806000815250905090565b606061145982610bce565b6000611463611437565b9050600081511161148357604051806020016040528060008152506114ae565b8061148d84611817565b60405160200161149e929190612695565b6040516020818303038152906040525b915050919050565b60008073ffffffffffffffffffffffffffffffffffffffff166002600084815260200190815260200160002060009054906101000a900473ffffffffffffffffffffffffffffffffffffffff1673ffffffffffffffffffffffffffffffffffffffff1614159050919050565b505050565b505050565b60007f000000000000000000000000000000000000000000000000000000000000000073ffffffffffffffffffffffffffffffffffffffff16630902d94933846040518363ffffffff1660e01b8152600401611589929190612b0d565b602060405180830381865afa1580156115a6573d6000803e3d6000fd5b505050506040513d601f19601f820116820180604052508101906115ca9190612b4b565b9050919050565b60606115dc82611978565b1561161c576040517f08c379a000000000000000000000000000000000000000000000000000000000815260040161161390612bea565b60405180910390fd5b6000604051806060016040528060318152602001612ee7603191399050600061165c3373ffffffffffffffffffffffffffffffffffffffff1660206119a2565b905060008282604051602001611673929190612695565b6040516020818303038152906040529050809350505050919050565b60006116b08473ffffffffffffffffffffffffffffffffffffffff16611bde565b1561180a578373ffffffffffffffffffffffffffffffffffffffff1663150b7a026116d9610c19565b8786866040518563ffffffff1660e01b81526004016116fb9493929190612c5f565b6020604051808303816000875af192505050801561173757506040513d601f19601f820116820180604052508101906117349190612cc0565b60015b6117ba573d8060008114611767576040519150601f19603f3d011682016040523d82523d6000602084013e61176c565b606091505b506000815114156117b2576040517f08c379a00000000000000000000000000000000000000000000000000000000081526004016117a990612ade565b60405180910390fd5b805181602001fd5b63150b7a0260e01b7bffffffffffffffffffffffffffffffffffffffffffffffffffffffff1916817bffffffffffffffffffffffffffffffffffffffffffffffffffffffff19161491505061180f565b600190505b949350505050565b6060600082141561185f576040518060400160405280600181526020017f30000000000000000000000000000000000000000000000000000000000000008152509050611973565b600082905060005b6000821461189157808061187a90612ced565b915050600a8261188a9190612d65565b9150611867565b60008167ffffffffffffffff8111156118ad576118ac6120f3565b5b6040519080825280601f01601f1916602001820160405280156118df5781602001600182028036833780820191505090505b5090505b6000851461196c576001826118f8919061280c565b9150600a856119079190612d96565b60306119139190612840565b60f81b81838151811061192957611928612dc7565b5b60200101907effffffffffffffffffffffffffffffffffffffffffffffffffffffffffffff1916908160001a905350600a856119659190612d65565b94506118e3565b8093505050505b919050565b60006007600083815260200190815260200160002060009054906101000a900460ff169050919050565b6060600060028360026119b59190612df6565b6119bf9190612840565b67ffffffffffffffff8111156119d8576119d76120f3565b5b6040519080825280601f01601f191660200182016040528015611a0a5781602001600182028036833780820191505090505b5090507f300000000000000000000000000000000000000000000000000000000000000081600081518110611a4257611a41612dc7565b5b60200101907effffffffffffffffffffffffffffffffffffffffffffffffffffffffffffff1916908160001a9053507f780000000000000000000000000000000000000000000000000000000000000081600181518110611aa657611aa5612dc7565b5b60200101907effffffffffffffffffffffffffffffffffffffffffffffffffffffffffffff1916908160001a90535060006001846002611ae69190612df6565b611af09190612840565b90505b6001811115611b90577f3031323334353637383961626364656600000000000000000000000000000000600f861660108110611b3257611b31612dc7565b5b1a60f81b828281518110611b4957611b48612dc7565b5b60200101907effffffffffffffffffffffffffffffffffffffffffffffffffffffffffffff1916908160001a905350600485901c945080611b8990612e50565b9050611af3565b5060008414611bd4576040517f08c379a0000000000000000000000000000000000000000000000000000000008152600401611bcb90612ec6565b60405180910390fd5b8091505092915050565b6000808273ffffffffffffffffffffffffffffffffffffffff163b119050919050565b828054611c0d90612373565b90600052602060002090601f016020900481019282611c2f5760008555611c76565b82601f10611c4857805160ff1916838001178555611c76565b82800160010185558215611c76579182015b82811115611c75578251825591602001919060010190611c5a565b5b509050611c839190611c87565b5090565b5b80821115611ca0576000816000905550600101611c88565b5090565b6000604051905090565b600080fd5b600080fd5b60007fffffffff0000000000000000000000000000000000000000000000000000000082169050919050565b611ced81611cb8565b8114611cf857600080fd5b50565b600081359050611d0a81611ce4565b92915050565b600060208284031215611d2657611d25611cae565b5b6000611d3484828501611cfb565b91505092915050565b60008115159050919050565b611d5281611d3d565b82525050565b6000602082019050611d6d6000830184611d49565b92915050565b600081519050919050565b600082825260208201905092915050565b60005b83811015611dad578082015181840152602081019050611d92565b83811115611dbc576000848401525b50505050565b6000601f19601f8301169050919050565b6000611dde82611d73565b611de88185611d7e565b9350611df8818560208601611d8f565b611e0181611dc2565b840191505092915050565b60006020820190508181036000830152611e268184611dd3565b905092915050565b6000819050919050565b611e4181611e2e565b8114611e4c57600080fd5b50565b600081359050611e5e81611e38565b92915050565b600060208284031215611e7a57611e79611cae565b5b6000611e8884828501611e4f565b91505092915050565b600073ffffffffffffffffffffffffffffffffffffffff82169050919050565b6000611ebc82611e91565b9050919050565b611ecc81611eb1565b82525050565b6000602082019050611ee76000830184611ec3565b92915050565b611ef681611eb1565b8114611f0157600080fd5b50565b600081359050611f1381611eed565b92915050565b60008060408385031215611f3057611f2f611cae565b5b6000611f3e85828601611f04565b9250506020611f4f85828601611e4f565b9150509250929050565b600080600060608486031215611f7257611f71611cae565b5b6000611f8086828701611f04565b9350506020611f9186828701611f04565b9250506040611fa286828701611e4f565b9150509250925092565b600061ffff82169050919050565b611fc381611fac565b8114611fce57600080fd5b50565b600081359050611fe081611fba565b92915050565b60008060408385031215611ffd57611ffc611cae565b5b600061200b85828601611f04565b925050602061201c85828601611fd1565b9150509250929050565b61202f81611e2e565b82525050565b600060208201905061204a6000830184612026565b92915050565b60006020828403121561206657612065611cae565b5b600061207484828501611f04565b91505092915050565b61208681611d3d565b811461209157600080fd5b50565b6000813590506120a38161207d565b92915050565b600080604083850312156120c0576120bf611cae565b5b60006120ce85828601611f04565b92505060206120df85828601612094565b9150509250929050565b600080fd5b600080fd5b7f4e487b7100000000000000000000000000000000000000000000000000000000600052604160045260246000fd5b61212b82611dc2565b810181811067ffffffffffffffff8211171561214a576121496120f3565b5b80604052505050565b600061215d611ca4565b90506121698282612122565b919050565b600067ffffffffffffffff821115612189576121886120f3565b5b61219282611dc2565b9050602081019050919050565b82818337600083830152505050565b60006121c16121bc8461216e565b612153565b9050828152602081018484840111156121dd576121dc6120ee565b5b6121e884828561219f565b509392505050565b600082601f830112612205576122046120e9565b5b81356122158482602086016121ae565b91505092915050565b6000806000806080858703121561223857612237611cae565b5b600061224687828801611f04565b945050602061225787828801611f04565b935050604061226887828801611e4f565b925050606085013567ffffffffffffffff81111561228957612288611cb3565b5b612295878288016121f0565b91505092959194509250565b6000819050919050565b6122b4816122a1565b81146122bf57600080fd5b50565b6000813590506122d1816122ab565b92915050565b6000602082840312156122ed576122ec611cae565b5b60006122fb848285016122c2565b91505092915050565b6000806040838503121561231b5761231a611cae565b5b600061232985828601611f04565b925050602061233a85828601611f04565b9150509250929050565b7f4e487b7100000000000000000000000000000000000000000000000000000000600052602260045260246000fd5b6000600282049050600182168061238b57607f821691505b6020821081141561239f5761239e612344565b5b50919050565b7f4552433732313a20617070726f76616c20746f2063757272656e74206f776e6560008201527f7200000000000000000000000000000000000000000000000000000000000000602082015250565b6000612401602183611d7e565b915061240c826123a5565b604082019050919050565b60006020820190508181036000830152612430816123f4565b9050919050565b7f4552433732313a20617070726f76652063616c6c6572206973206e6f7420746f60008201527f6b656e206f776e6572206e6f7220617070726f76656420666f7220616c6c0000602082015250565b6000612493603e83611d7e565b915061249e82612437565b604082019050919050565b600060208201905081810360008301526124c281612486565b9050919050565b7f4552433732313a2063616c6c6572206973206e6f7420746f6b656e206f776e6560008201527f72206e6f7220617070726f766564000000000000000000000000000000000000602082015250565b6000612525602e83611d7e565b9150612530826124c9565b604082019050919050565b6000602082019050818103600083015261255481612518565b9050919050565b7f4552433732313a20696e76616c696420746f6b656e2049440000000000000000600082015250565b6000612591601883611d7e565b915061259c8261255b565b602082019050919050565b600060208201905081810360008301526125c081612584565b9050919050565b7f4552433732313a2061646472657373207a65726f206973206e6f74206120766160008201527f6c6964206f776e65720000000000000000000000000000000000000000000000602082015250565b6000612623602983611d7e565b915061262e826125c7565b604082019050919050565b6000602082019050818103600083015261265281612616565b9050919050565b600081905092915050565b600061266f82611d73565b6126798185612659565b9350612689818560208601611d8f565b80840191505092915050565b60006126a18285612664565b91506126ad8284612664565b91508190509392505050565b7f4552433732313a207472616e736665722066726f6d20696e636f72726563742060008201527f6f776e6572000000000000000000000000000000000000000000000000000000602082015250565b6000612715602583611d7e565b9150612720826126b9565b604082019050919050565b6000602082019050818103600083015261274481612708565b9050919050565b7f4552433732313a207472616e7366657220746f20746865207a65726f2061646460008201527f7265737300000000000000000000000000000000000000000000000000000000602082015250565b60006127a7602483611d7e565b91506127b28261274b565b604082019050919050565b600060208201905081810360008301526127d68161279a565b9050919050565b7f4e487b7100000000000000000000000000000000000000000000000000000000600052601160045260246000fd5b600061281782611e2e565b915061282283611e2e565b925082821015612835576128346127dd565b5b828203905092915050565b600061284b82611e2e565b915061285683611e2e565b9250827fffffffffffffffffffffffffffffffffffffffffffffffffffffffffffffffff0382111561288b5761288a6127dd565b5b828201905092915050565b7f4552433732313a206d696e7420746f20746865207a65726f2061646472657373600082015250565b60006128cc602083611d7e565b91506128d782612896565b602082019050919050565b600060208201905081810360008301526128fb816128bf565b9050919050565b7f4552433732313a20746f6b656e20616c7265616479206d696e74656400000000600082015250565b6000612938601c83611d7e565b915061294382612902565b602082019050919050565b600060208201905081810360008301526129678161292b565b9050919050565b7f45524337323155524953746f726167653a2055524920736574206f66206e6f6e60008201527f6578697374656e7420746f6b656e000000000000000000000000000000000000602082015250565b60006129ca602e83611d7e565b91506129d58261296e565b604082019050919050565b600060208201905081810360008301526129f9816129bd565b9050919050565b7f4552433732313a20617070726f766520746f2063616c6c657200000000000000600082015250565b6000612a36601983611d7e565b9150612a4182612a00565b602082019050919050565b60006020820190508181036000830152612a6581612a29565b9050919050565b7f4552433732313a207472616e7366657220746f206e6f6e20455243373231526560008201527f63656976657220696d706c656d656e7465720000000000000000000000000000602082015250565b6000612ac8603283611d7e565b9150612ad382612a6c565b604082019050919050565b60006020820190508181036000830152612af781612abb565b9050919050565b612b0781611fac565b82525050565b6000604082019050612b226000830185611ec3565b612b2f6020830184612afe565b9392505050565b600081519050612b45816122ab565b92915050565b600060208284031215612b6157612b60611cae565b5b6000612b6f84828501612b36565b91505092915050565b7f5061726b696e672073706f7420636f2d6f7264696e617465732061726520616c60008201527f7265616479206d696e746564206173206120746f6b656e000000000000000000602082015250565b6000612bd4603783611d7e565b9150612bdf82612b78565b604082019050919050565b60006020820190508181036000830152612c0381612bc7565b9050919050565b600081519050919050565b600082825260208201905092915050565b6000612c3182612c0a565b612c3b8185612c15565b9350612c4b818560208601611d8f565b612c5481611dc2565b840191505092915050565b6000608082019050612c746000830187611ec3565b612c816020830186611ec3565b612c8e6040830185612026565b8181036060830152612ca08184612c26565b905095945050505050565b600081519050612cba81611ce4565b92915050565b600060208284031215612cd657612cd5611cae565b5b6000612ce484828501612cab565b91505092915050565b6000612cf882611e2e565b91507fffffffffffffffffffffffffffffffffffffffffffffffffffffffffffffffff821415612d2b57612d2a6127dd565b5b600182019050919050565b7f4e487b7100000000000000000000000000000000000000000000000000000000600052601260045260246000fd5b6000612d7082611e2e565b9150612d7b83611e2e565b925082612d8b57612d8a612d36565b5b828204905092915050565b6000612da182611e2e565b9150612dac83611e2e565b925082612dbc57612dbb612d36565b5b828206905092915050565b7f4e487b7100000000000000000000000000000000000000000000000000000000600052603260045260246000fd5b6000612e0182611e2e565b9150612e0c83611e2e565b9250817fffffffffffffffffffffffffffffffffffffffffffffffffffffffffffffffff0483118215151615612e4557612e446127dd565b5b828202905092915050565b6000612e5b82611e2e565b91506000821415612e6f57612e6e6127dd565b5b600182039050919050565b7f537472696e67733a20686578206c656e67746820696e73756666696369656e74600082015250565b6000612eb0602083611d7e565b9150612ebb82612e7a565b602082019050919050565b60006020820190508181036000830152612edf81612ea3565b905091905056fe646174613a746578742f706c61696e3b636861727365743d5554462d382c7061726b696e6753706f744c61744c6f6e673aa26469706673582212208632441e85e1102ec17b252cef9a2610c565d014d14c2ce32883991b6daf229564736f6c634300080c0033",
  "devdoc": {
    "kind": "dev",
    "methods": {
      "approve(address,uint256)": {
        "details": "See {IERC721-approve}."
      },
      "balanceOf(address)": {
        "details": "See {IERC721-balanceOf}."
      },
      "getApproved(uint256)": {
        "details": "See {IERC721-getApproved}."
      },
      "isApprovedForAll(address,address)": {
        "details": "See {IERC721-isApprovedForAll}."
      },
      "name()": {
        "details": "See {IERC721Metadata-name}."
      },
      "ownerOf(uint256)": {
        "details": "See {IERC721-ownerOf}."
      },
      "safeTransferFrom(address,address,uint256)": {
        "details": "See {IERC721-safeTransferFrom}."
      },
      "safeTransferFrom(address,address,uint256,bytes)": {
        "details": "See {IERC721-safeTransferFrom}."
      },
      "setApprovalForAll(address,bool)": {
        "details": "See {IERC721-setApprovalForAll}."
      },
      "supportsInterface(bytes4)": {
        "details": "See {IERC165-supportsInterface}."
      },
      "symbol()": {
        "details": "See {IERC721Metadata-symbol}."
      },
      "tokenURI(uint256)": {
        "details": "See {IERC721Metadata-tokenURI}."
      },
      "transferFrom(address,address,uint256)": {
        "details": "See {IERC721-transferFrom}."
      }
    },
    "version": 1
  },
  "userdoc": {
    "kind": "user",
    "methods": {},
    "version": 1
  },
  "storageLayout": {
    "storage": [
      {
        "astId": 25,
        "contract": "contracts/ParkingSpotToken.sol:ParkingSpotToken",
        "label": "_name",
        "offset": 0,
        "slot": "0",
        "type": "t_string_storage"
      },
      {
        "astId": 27,
        "contract": "contracts/ParkingSpotToken.sol:ParkingSpotToken",
        "label": "_symbol",
        "offset": 0,
        "slot": "1",
        "type": "t_string_storage"
      },
      {
        "astId": 31,
        "contract": "contracts/ParkingSpotToken.sol:ParkingSpotToken",
        "label": "_owners",
        "offset": 0,
        "slot": "2",
        "type": "t_mapping(t_uint256,t_address)"
      },
      {
        "astId": 35,
        "contract": "contracts/ParkingSpotToken.sol:ParkingSpotToken",
        "label": "_balances",
        "offset": 0,
        "slot": "3",
        "type": "t_mapping(t_address,t_uint256)"
      },
      {
        "astId": 39,
        "contract": "contracts/ParkingSpotToken.sol:ParkingSpotToken",
        "label": "_tokenApprovals",
        "offset": 0,
        "slot": "4",
        "type": "t_mapping(t_uint256,t_address)"
      },
      {
        "astId": 45,
        "contract": "contracts/ParkingSpotToken.sol:ParkingSpotToken",
        "label": "_operatorApprovals",
        "offset": 0,
        "slot": "5",
        "type": "t_mapping(t_address,t_mapping(t_address,t_bool))"
      },
      {
        "astId": 1013,
        "contract": "contracts/ParkingSpotToken.sol:ParkingSpotToken",
        "label": "_tokenURIs",
        "offset": 0,
        "slot": "6",
        "type": "t_mapping(t_uint256,t_string_storage)"
      },
      {
        "astId": 1986,
        "contract": "contracts/ParkingSpotToken.sol:ParkingSpotToken",
        "label": "spotTokenised",
        "offset": 0,
        "slot": "7",
        "type": "t_mapping(t_bytes32,t_bool)"
      },
      {
        "astId": 1988,
        "contract": "contracts/ParkingSpotToken.sol:ParkingSpotToken",
        "label": "OffchainParkingDataResponseAddress",
        "offset": 0,
        "slot": "8",
        "type": "t_address"
      },
      {
        "astId": 1995,
        "contract": "contracts/ParkingSpotToken.sol:ParkingSpotToken",
        "label": "_tokenIds",
        "offset": 0,
        "slot": "9",
        "type": "t_struct(Counter)1475_storage"
      }
    ],
    "types": {
      "t_address": {
        "encoding": "inplace",
        "label": "address",
        "numberOfBytes": "20"
      },
      "t_bool": {
        "encoding": "inplace",
        "label": "bool",
        "numberOfBytes": "1"
      },
      "t_bytes32": {
        "encoding": "inplace",
        "label": "bytes32",
        "numberOfBytes": "32"
      },
      "t_mapping(t_address,t_bool)": {
        "encoding": "mapping",
        "key": "t_address",
        "label": "mapping(address => bool)",
        "numberOfBytes": "32",
        "value": "t_bool"
      },
      "t_mapping(t_address,t_mapping(t_address,t_bool))": {
        "encoding": "mapping",
        "key": "t_address",
        "label": "mapping(address => mapping(address => bool))",
        "numberOfBytes": "32",
        "value": "t_mapping(t_address,t_bool)"
      },
      "t_mapping(t_address,t_uint256)": {
        "encoding": "mapping",
        "key": "t_address",
        "label": "mapping(address => uint256)",
        "numberOfBytes": "32",
        "value": "t_uint256"
      },
      "t_mapping(t_bytes32,t_bool)": {
        "encoding": "mapping",
        "key": "t_bytes32",
        "label": "mapping(bytes32 => bool)",
        "numberOfBytes": "32",
        "value": "t_bool"
      },
      "t_mapping(t_uint256,t_address)": {
        "encoding": "mapping",
        "key": "t_uint256",
        "label": "mapping(uint256 => address)",
        "numberOfBytes": "32",
        "value": "t_address"
      },
      "t_mapping(t_uint256,t_string_storage)": {
        "encoding": "mapping",
        "key": "t_uint256",
        "label": "mapping(uint256 => string)",
        "numberOfBytes": "32",
        "value": "t_string_storage"
      },
      "t_string_storage": {
        "encoding": "bytes",
        "label": "string",
        "numberOfBytes": "32"
      },
      "t_struct(Counter)1475_storage": {
        "encoding": "inplace",
        "label": "struct Counters.Counter",
        "members": [
          {
            "astId": 1474,
            "contract": "contracts/ParkingSpotToken.sol:ParkingSpotToken",
            "label": "_value",
            "offset": 0,
            "slot": "0",
            "type": "t_uint256"
          }
        ],
        "numberOfBytes": "32"
      },
      "t_uint256": {
        "encoding": "inplace",
        "label": "uint256",
        "numberOfBytes": "32"
      }
    }
  }
}