{
  "_format": "hh-sol-artifact-1",
  "contractName": "GenericLargeResponse",
  "sourceName": "contracts/GenericLargeResponse.sol",
  "abi": [
    {
      "inputs": [],
      "stateMutability": "nonpayable",
      "type": "constructor"
    },
    {
      "anonymous": false,
      "inputs": [
        {
          "indexed": true,
          "internalType": "bytes32",
          "name": "id",
          "type": "bytes32"
        }
      ],
      "name": "ChainlinkCancelled",
      "type": "event"
    },
    {
      "anonymous": false,
      "inputs": [
        {
          "indexed": true,
          "internalType": "bytes32",
          "name": "id",
          "type": "bytes32"
        }
      ],
      "name": "ChainlinkFulfilled",
      "type": "event"
    },
    {
      "anonymous": false,
      "inputs": [
        {
          "indexed": true,
          "internalType": "bytes32",
          "name": "id",
          "type": "bytes32"
        }
      ],
      "name": "ChainlinkRequested",
      "type": "event"
    },
    {
      "anonymous": false,
      "inputs": [
        {
          "indexed": true,
          "internalType": "address",
          "name": "from",
          "type": "address"
        },
        {
          "indexed": true,
          "internalType": "address",
          "name": "to",
          "type": "address"
        }
      ],
      "name": "OwnershipTransferRequested",
      "type": "event"
    },
    {
      "anonymous": false,
      "inputs": [
        {
          "indexed": true,
          "internalType": "address",
          "name": "from",
          "type": "address"
        },
        {
          "indexed": true,
          "internalType": "address",
          "name": "to",
          "type": "address"
        }
      ],
      "name": "OwnershipTransferred",
      "type": "event"
    },
    {
      "anonymous": false,
      "inputs": [
        {
          "indexed": true,
          "internalType": "bytes32",
          "name": "requestId",
          "type": "bytes32"
        },
        {
          "indexed": true,
          "internalType": "bytes",
          "name": "data",
          "type": "bytes"
        }
      ],
      "name": "RequestFulfilled",
      "type": "event"
    },
    {
      "inputs": [],
      "name": "acceptOwnership",
      "outputs": [],
      "stateMutability": "nonpayable",
      "type": "function"
    },
    {
      "inputs": [
        {
          "internalType": "address",
          "name": "_address",
          "type": "address"
        }
      ],
      "name": "checkParkingSpotLocationOwner",
      "outputs": [
        {
          "internalType": "bytes32",
          "name": "",
          "type": "bytes32"
        }
      ],
      "stateMutability": "view",
      "type": "function"
    },
    {
      "inputs": [
        {
          "internalType": "address",
          "name": "_address",
          "type": "address"
        },
        {
          "internalType": "uint16",
          "name": "_index",
          "type": "uint16"
        }
      ],
      "name": "checkParkingSpotLocationOwnerArray",
      "outputs": [
        {
          "internalType": "bytes32",
          "name": "",
          "type": "bytes32"
        }
      ],
      "stateMutability": "view",
      "type": "function"
    },
    {
      "inputs": [],
      "name": "data",
      "outputs": [
        {
          "internalType": "bytes",
          "name": "",
          "type": "bytes"
        }
      ],
      "stateMutability": "view",
      "type": "function"
    },
    {
      "inputs": [
        {
          "internalType": "bytes32",
          "name": "requestId",
          "type": "bytes32"
        },
        {
          "internalType": "bytes",
          "name": "bytesData",
          "type": "bytes"
        }
      ],
      "name": "fulfillBytes",
      "outputs": [],
      "stateMutability": "nonpayable",
      "type": "function"
    },
    {
      "inputs": [],
      "name": "owner",
      "outputs": [
        {
          "internalType": "address",
          "name": "",
          "type": "address"
        }
      ],
      "stateMutability": "view",
      "type": "function"
    },
    {
      "inputs": [
        {
          "internalType": "address",
          "name": "",
          "type": "address"
        }
      ],
      "name": "parkingSpotLocationOwner",
      "outputs": [
        {
          "internalType": "bytes32",
          "name": "",
          "type": "bytes32"
        }
      ],
      "stateMutability": "view",
      "type": "function"
    },
    {
      "inputs": [
        {
          "internalType": "address",
          "name": "",
          "type": "address"
        },
        {
          "internalType": "uint256",
          "name": "",
          "type": "uint256"
        }
      ],
      "name": "parkingSpotLocationOwnerArray",
      "outputs": [
        {
          "internalType": "bytes32",
          "name": "",
          "type": "bytes32"
        }
      ],
      "stateMutability": "view",
      "type": "function"
    },
    {
      "inputs": [],
      "name": "parking_spot_location",
      "outputs": [
        {
          "internalType": "bytes32",
          "name": "",
          "type": "bytes32"
        }
      ],
      "stateMutability": "view",
      "type": "function"
    },
    {
      "inputs": [],
      "name": "requestOffchainParkingSpotData",
      "outputs": [],
      "stateMutability": "nonpayable",
      "type": "function"
    },
    {
      "inputs": [
        {
          "internalType": "address",
          "name": "to",
          "type": "address"
        }
      ],
      "name": "transferOwnership",
      "outputs": [],
      "stateMutability": "nonpayable",
      "type": "function"
    },
    {
      "inputs": [],
      "name": "withdrawLink",
      "outputs": [],
      "stateMutability": "nonpayable",
      "type": "function"
    }
  ],
  "bytecode": "0x608060405260016004553480156200001657600080fd5b50338060008073ffffffffffffffffffffffffffffffffffffffff168273ffffffffffffffffffffffffffffffffffffffff1614156200008d576040517f08c379a00000000000000000000000000000000000000000000000000000000081526004016200008490620003d5565b60405180910390fd5b81600660006101000a81548173ffffffffffffffffffffffffffffffffffffffff021916908373ffffffffffffffffffffffffffffffffffffffff160217905550600073ffffffffffffffffffffffffffffffffffffffff168173ffffffffffffffffffffffffffffffffffffffff161462000115576200011481620001ba60201b60201c565b5b5050506200013d7301be23585060835e02b77ef475b0cc51aa1e0709620002ec60201b60201c565b6200016273f98cd24cf1f864df4942165569fc0114f866067d6200033060201b60201c565b7f6565326635336134326336323462363939626230613361333831613966663766600b81905550600a670de0b6b3a76400006001620001a2919062000430565b620001ae9190620004c0565b600c819055506200056a565b3373ffffffffffffffffffffffffffffffffffffffff168173ffffffffffffffffffffffffffffffffffffffff1614156200022c576040517f08c379a0000000000000000000000000000000000000000000000000000000008152600401620002239062000548565b60405180910390fd5b80600760006101000a81548173ffffffffffffffffffffffffffffffffffffffff021916908373ffffffffffffffffffffffffffffffffffffffff1602179055508073ffffffffffffffffffffffffffffffffffffffff16600660009054906101000a900473ffffffffffffffffffffffffffffffffffffffff1673ffffffffffffffffffffffffffffffffffffffff167fed8889f560326eb138920d842192f0eb3dd22b4f139c87a2c57538e05bae127860405160405180910390a350565b80600260006101000a81548173ffffffffffffffffffffffffffffffffffffffff021916908373ffffffffffffffffffffffffffffffffffffffff16021790555050565b80600360006101000a81548173ffffffffffffffffffffffffffffffffffffffff021916908373ffffffffffffffffffffffffffffffffffffffff16021790555050565b600082825260208201905092915050565b7f43616e6e6f7420736574206f776e657220746f207a65726f0000000000000000600082015250565b6000620003bd60188362000374565b9150620003ca8262000385565b602082019050919050565b60006020820190508181036000830152620003f081620003ae565b9050919050565b6000819050919050565b7f4e487b7100000000000000000000000000000000000000000000000000000000600052601160045260246000fd5b60006200043d82620003f7565b91506200044a83620003f7565b9250817fffffffffffffffffffffffffffffffffffffffffffffffffffffffffffffffff048311821515161562000486576200048562000401565b5b828202905092915050565b7f4e487b7100000000000000000000000000000000000000000000000000000000600052601260045260246000fd5b6000620004cd82620003f7565b9150620004da83620003f7565b925082620004ed57620004ec62000491565b5b828204905092915050565b7f43616e6e6f74207472616e7366657220746f2073656c66000000000000000000600082015250565b60006200053060178362000374565b91506200053d82620004f8565b602082019050919050565b60006020820190508181036000830152620005638162000521565b9050919050565b6128c9806200057a6000396000f3fe608060405234801561001057600080fd5b50600436106100b45760003560e01c80638dc654a2116100715780638dc654a21461018f578063b2c42c3a14610199578063c2fb8523146101c9578063c551a145146101e5578063d5aaaf9314610203578063f2fde38b1461020d576100b4565b80630902d949146100b95780631399b380146100e9578063272929a11461011957806373d4a13a1461014957806379ba5097146101675780638da5cb5b14610171575b600080fd5b6100d360048036038101906100ce9190611924565b610229565b6040516100e0919061197d565b60405180910390f35b61010360048036038101906100fe91906119ce565b610293565b604051610110919061197d565b60405180910390f35b610133600480360381019061012e9190611a0e565b6102c4565b604051610140919061197d565b60405180910390f35b61015161030d565b60405161015e9190611ad4565b60405180910390f35b61016f61039b565b005b610179610532565b6040516101869190611b05565b60405180910390f35b61019761055c565b005b6101b360048036038101906101ae9190611a0e565b6106a9565b6040516101c0919061197d565b60405180910390f35b6101e360048036038101906101de9190611c81565b6106c1565b005b6101ed610938565b6040516101fa919061197d565b60405180910390f35b61020b61093e565b005b61022760048036038101906102229190611a0e565b610adb565b005b6000600d60008473ffffffffffffffffffffffffffffffffffffffff1673ffffffffffffffffffffffffffffffffffffffff1681526020019081526020016000208261ffff16815481106102805761027f611cdd565b5b9060005260206000200154905092915050565b600d60205281600052604060002081815481106102af57600080fd5b90600052602060002001600091509150505481565b6000600e60008373ffffffffffffffffffffffffffffffffffffffff1673ffffffffffffffffffffffffffffffffffffffff168152602001908152602001600020549050919050565b6008805461031a90611d3b565b80601f016020809104026020016040519081016040528092919081815260200182805461034690611d3b565b80156103935780601f1061036857610100808354040283529160200191610393565b820191906000526020600020905b81548152906001019060200180831161037657829003601f168201915b505050505081565b600760009054906101000a900473ffffffffffffffffffffffffffffffffffffffff1673ffffffffffffffffffffffffffffffffffffffff163373ffffffffffffffffffffffffffffffffffffffff161461042b576040517f08c379a000000000000000000000000000000000000000000000000000000000815260040161042290611dca565b60405180910390fd5b6000600660009054906101000a900473ffffffffffffffffffffffffffffffffffffffff16905033600660006101000a81548173ffffffffffffffffffffffffffffffffffffffff021916908373ffffffffffffffffffffffffffffffffffffffff1602179055506000600760006101000a81548173ffffffffffffffffffffffffffffffffffffffff021916908373ffffffffffffffffffffffffffffffffffffffff1602179055503373ffffffffffffffffffffffffffffffffffffffff168173ffffffffffffffffffffffffffffffffffffffff167f8be0079c531659141344cd1fd0a4f28419497f9722a3daafe3b4186f6b6457e060405160405180910390a350565b6000600660009054906101000a900473ffffffffffffffffffffffffffffffffffffffff16905090565b610564610aef565b600061056e610b81565b90508073ffffffffffffffffffffffffffffffffffffffff1663a9059cbb338373ffffffffffffffffffffffffffffffffffffffff166370a08231306040518263ffffffff1660e01b81526004016105c69190611b05565b602060405180830381865afa1580156105e3573d6000803e3d6000fd5b505050506040513d601f19601f820116820180604052508101906106079190611dff565b6040518363ffffffff1660e01b8152600401610624929190611e3b565b6020604051808303816000875af1158015610643573d6000803e3d6000fd5b505050506040513d601f19601f820116820180604052508101906106679190611e9c565b6106a6576040517f08c379a000000000000000000000000000000000000000000000000000000000815260040161069d90611f15565b60405180910390fd5b50565b600e6020528060005260406000206000915090505481565b816005600082815260200190815260200160002060009054906101000a900473ffffffffffffffffffffffffffffffffffffffff1673ffffffffffffffffffffffffffffffffffffffff163373ffffffffffffffffffffffffffffffffffffffff1614610763576040517f08c379a000000000000000000000000000000000000000000000000000000000815260040161075a90611fa7565b60405180910390fd5b6005600082815260200190815260200160002060006101000a81549073ffffffffffffffffffffffffffffffffffffffff0219169055807f7cc135e0cebb02c3480ae5d74d377283180a2601f8f644edf7987b009316c63a60405160405180910390a2816040516107d49190612003565b6040518091039020837f1a111c5dcf9a71088bd5e1797fdfaf399fec2afbb24aca247e4e3e9f4b61df9160405160405180910390a3816008908051906020019061081f92919061174e565b50600861082b90612096565b600981905550600861083c90612096565b600e6000600a60009054906101000a900473ffffffffffffffffffffffffffffffffffffffff1673ffffffffffffffffffffffffffffffffffffffff1673ffffffffffffffffffffffffffffffffffffffff16815260200190815260200160002081905550600d6000600a60009054906101000a900473ffffffffffffffffffffffffffffffffffffffff1673ffffffffffffffffffffffffffffffffffffffff1673ffffffffffffffffffffffffffffffffffffffff168152602001908152602001600020600861090d90612096565b9080600181540180825580915050600190039060005260206000200160009091909190915055505050565b60095481565b33600a60006101000a81548173ffffffffffffffffffffffffffffffffffffffff021916908373ffffffffffffffffffffffffffffffffffffffff16021790555060006109a23373ffffffffffffffffffffffffffffffffffffffff166014610bab565b905060006109ba600b543063c2fb852360e01b610de7565b905060006040518060800160405280604d8152602001612847604d91399050600081846040516020016109ee92919061214e565b6040516020818303038152906040529050610a496040518060400160405280600381526020017f67657400000000000000000000000000000000000000000000000000000000008152508285610e189092919063ffffffff16565b610ac86040518060400160405280600481526020017f70617468000000000000000000000000000000000000000000000000000000008152506040518060400160405280600881526020017f6c6f636174696f6e00000000000000000000000000000000000000000000000081525085610e189092919063ffffffff16565b610ad483600c54610e4b565b5050505050565b610ae3610aef565b610aec81610e82565b50565b600660009054906101000a900473ffffffffffffffffffffffffffffffffffffffff1673ffffffffffffffffffffffffffffffffffffffff163373ffffffffffffffffffffffffffffffffffffffff1614610b7f576040517f08c379a0000000000000000000000000000000000000000000000000000000008152600401610b76906121be565b60405180910390fd5b565b6000600260009054906101000a900473ffffffffffffffffffffffffffffffffffffffff16905090565b606060006002836002610bbe919061220d565b610bc89190612267565b67ffffffffffffffff811115610be157610be0611b56565b5b6040519080825280601f01601f191660200182016040528015610c135781602001600182028036833780820191505090505b5090507f300000000000000000000000000000000000000000000000000000000000000081600081518110610c4b57610c4a611cdd565b5b60200101907effffffffffffffffffffffffffffffffffffffffffffffffffffffffffffff1916908160001a9053507f780000000000000000000000000000000000000000000000000000000000000081600181518110610caf57610cae611cdd565b5b60200101907effffffffffffffffffffffffffffffffffffffffffffffffffffffffffffff1916908160001a90535060006001846002610cef919061220d565b610cf99190612267565b90505b6001811115610d99577f3031323334353637383961626364656600000000000000000000000000000000600f861660108110610d3b57610d3a611cdd565b5b1a60f81b828281518110610d5257610d51611cdd565b5b60200101907effffffffffffffffffffffffffffffffffffffffffffffffffffffffffffff1916908160001a905350600485901c945080610d92906122bd565b9050610cfc565b5060008414610ddd576040517f08c379a0000000000000000000000000000000000000000000000000000000008152600401610dd490612333565b60405180910390fd5b8091505092915050565b610def6117d4565b610df76117d4565b610e0e85858584610fb1909392919063ffffffff16565b9150509392505050565b610e2f82846080015161106190919063ffffffff16565b610e4681846080015161106190919063ffffffff16565b505050565b6000610e7a600360009054906101000a900473ffffffffffffffffffffffffffffffffffffffff168484611086565b905092915050565b3373ffffffffffffffffffffffffffffffffffffffff168173ffffffffffffffffffffffffffffffffffffffff161415610ef1576040517f08c379a0000000000000000000000000000000000000000000000000000000008152600401610ee89061239f565b60405180910390fd5b80600760006101000a81548173ffffffffffffffffffffffffffffffffffffffff021916908373ffffffffffffffffffffffffffffffffffffffff1602179055508073ffffffffffffffffffffffffffffffffffffffff16600660009054906101000a900473ffffffffffffffffffffffffffffffffffffffff1673ffffffffffffffffffffffffffffffffffffffff167fed8889f560326eb138920d842192f0eb3dd22b4f139c87a2c57538e05bae127860405160405180910390a350565b610fb96117d4565b610fc98560800151610100611152565b508385600001818152505082856020019073ffffffffffffffffffffffffffffffffffffffff16908173ffffffffffffffffffffffffffffffffffffffff16815250508185604001907bffffffffffffffffffffffffffffffffffffffffffffffffffffffff191690817bffffffffffffffffffffffffffffffffffffffffffffffffffffffff191681525050849050949350505050565b61106e82600383516111bc565b611081818361134190919063ffffffff16565b505050565b600080600454905060018161109b9190612267565b6004819055506000634042994660e01b60008087600001513089604001518760018c60800151600001516040516024016110dc9897969594939291906123fa565b604051602081830303815290604052907bffffffffffffffffffffffffffffffffffffffffffffffffffffffff19166020820180517bffffffffffffffffffffffffffffffffffffffffffffffffffffffff8381831617835250505050905061114786838684611363565b925050509392505050565b61115a611841565b600060208361116991906124ae565b146111955760208261117b91906124ae565b602061118791906124df565b826111929190612267565b91505b81836020018181525050604051808452600081528281016020016040525082905092915050565b60178167ffffffffffffffff16116111f3576111ed8160058460ff16901b60ff1617846114f890919063ffffffff16565b5061133c565b60ff8167ffffffffffffffff161161124957611222601860058460ff16901b17846114f890919063ffffffff16565b506112438167ffffffffffffffff166001856115189092919063ffffffff16565b5061133b565b61ffff8167ffffffffffffffff16116112a057611279601960058460ff16901b17846114f890919063ffffffff16565b5061129a8167ffffffffffffffff166002856115189092919063ffffffff16565b5061133a565b63ffffffff8167ffffffffffffffff16116112f9576112d2601a60058460ff16901b17846114f890919063ffffffff16565b506112f38167ffffffffffffffff166004856115189092919063ffffffff16565b50611339565b611316601b60058460ff16901b17846114f890919063ffffffff16565b506113378167ffffffffffffffff166008856115189092919063ffffffff16565b505b5b5b5b505050565b611349611841565b61135b8384600001515184855161153a565b905092915050565b600030846040516020016113789291906125cc565b604051602081830303815290604052805190602001209050846005600083815260200190815260200160002060006101000a81548173ffffffffffffffffffffffffffffffffffffffff021916908373ffffffffffffffffffffffffffffffffffffffff160217905550807fb5e6e01e79f91267dc17b4e6314d5d4d03593d2ceee0fbb452b750bd70ea5af960405160405180910390a2600260009054906101000a900473ffffffffffffffffffffffffffffffffffffffff1673ffffffffffffffffffffffffffffffffffffffff16634000aea08685856040518463ffffffff1660e01b815260040161146e939291906125f8565b6020604051808303816000875af115801561148d573d6000803e3d6000fd5b505050506040513d601f19601f820116820180604052508101906114b19190611e9c565b6114f0576040517f08c379a00000000000000000000000000000000000000000000000000000000081526004016114e7906126a8565b60405180910390fd5b949350505050565b611500611841565b6115108384600001515184611629565b905092915050565b611520611841565b611531848560000151518585611680565b90509392505050565b611542611841565b825182111561155057600080fd5b846020015182856115619190612267565b111561159657611595856002611586886020015188876115819190612267565b61170e565b611590919061220d565b61172a565b5b6000808651805187602083010193508088870111156115b55787860182525b60208701925050505b602084106115fc57805182526020826115d79190612267565b91506020816115e69190612267565b90506020846115f591906124df565b93506115be565b60006001856020036101000a03905080198251168184511681811785525050508692505050949350505050565b611631611841565b83602001518310611657576116568460028660200151611651919061220d565b61172a565b5b8351805160208583010184815381861415611673576001820183525b5050508390509392505050565b611688611841565b846020015184836116999190612267565b11156116c1576116c085600286856116b19190612267565b6116bb919061220d565b61172a565b5b60006001836101006116d391906127fb565b6116dd91906124df565b905085518386820101858319825116178152815185880111156117005784870182525b505085915050949350505050565b60008183111561172057829050611724565b8190505b92915050565b60008260000151905061173d8383611152565b506117488382611341565b50505050565b82805461175a90611d3b565b90600052602060002090601f01602090048101928261177c57600085556117c3565b82601f1061179557805160ff19168380011785556117c3565b828001600101855582156117c3579182015b828111156117c25782518255916020019190600101906117a7565b5b5090506117d0919061185b565b5090565b6040518060a0016040528060008019168152602001600073ffffffffffffffffffffffffffffffffffffffff16815260200160007bffffffffffffffffffffffffffffffffffffffffffffffffffffffff191681526020016000815260200161183b611841565b81525090565b604051806040016040528060608152602001600081525090565b5b8082111561187457600081600090555060010161185c565b5090565b6000604051905090565b600080fd5b600080fd5b600073ffffffffffffffffffffffffffffffffffffffff82169050919050565b60006118b78261188c565b9050919050565b6118c7816118ac565b81146118d257600080fd5b50565b6000813590506118e4816118be565b92915050565b600061ffff82169050919050565b611901816118ea565b811461190c57600080fd5b50565b60008135905061191e816118f8565b92915050565b6000806040838503121561193b5761193a611882565b5b6000611949858286016118d5565b925050602061195a8582860161190f565b9150509250929050565b6000819050919050565b61197781611964565b82525050565b6000602082019050611992600083018461196e565b92915050565b6000819050919050565b6119ab81611998565b81146119b657600080fd5b50565b6000813590506119c8816119a2565b92915050565b600080604083850312156119e5576119e4611882565b5b60006119f3858286016118d5565b9250506020611a04858286016119b9565b9150509250929050565b600060208284031215611a2457611a23611882565b5b6000611a32848285016118d5565b91505092915050565b600081519050919050565b600082825260208201905092915050565b60005b83811015611a75578082015181840152602081019050611a5a565b83811115611a84576000848401525b50505050565b6000601f19601f8301169050919050565b6000611aa682611a3b565b611ab08185611a46565b9350611ac0818560208601611a57565b611ac981611a8a565b840191505092915050565b60006020820190508181036000830152611aee8184611a9b565b905092915050565b611aff816118ac565b82525050565b6000602082019050611b1a6000830184611af6565b92915050565b611b2981611964565b8114611b3457600080fd5b50565b600081359050611b4681611b20565b92915050565b600080fd5b600080fd5b7f4e487b7100000000000000000000000000000000000000000000000000000000600052604160045260246000fd5b611b8e82611a8a565b810181811067ffffffffffffffff82111715611bad57611bac611b56565b5b80604052505050565b6000611bc0611878565b9050611bcc8282611b85565b919050565b600067ffffffffffffffff821115611bec57611beb611b56565b5b611bf582611a8a565b9050602081019050919050565b82818337600083830152505050565b6000611c24611c1f84611bd1565b611bb6565b905082815260208101848484011115611c4057611c3f611b51565b5b611c4b848285611c02565b509392505050565b600082601f830112611c6857611c67611b4c565b5b8135611c78848260208601611c11565b91505092915050565b60008060408385031215611c9857611c97611882565b5b6000611ca685828601611b37565b925050602083013567ffffffffffffffff811115611cc757611cc6611887565b5b611cd385828601611c53565b9150509250929050565b7f4e487b7100000000000000000000000000000000000000000000000000000000600052603260045260246000fd5b7f4e487b7100000000000000000000000000000000000000000000000000000000600052602260045260246000fd5b60006002820490506001821680611d5357607f821691505b60208210811415611d6757611d66611d0c565b5b50919050565b600082825260208201905092915050565b7f4d7573742062652070726f706f736564206f776e657200000000000000000000600082015250565b6000611db4601683611d6d565b9150611dbf82611d7e565b602082019050919050565b60006020820190508181036000830152611de381611da7565b9050919050565b600081519050611df9816119a2565b92915050565b600060208284031215611e1557611e14611882565b5b6000611e2384828501611dea565b91505092915050565b611e3581611998565b82525050565b6000604082019050611e506000830185611af6565b611e5d6020830184611e2c565b9392505050565b60008115159050919050565b611e7981611e64565b8114611e8457600080fd5b50565b600081519050611e9681611e70565b92915050565b600060208284031215611eb257611eb1611882565b5b6000611ec084828501611e87565b91505092915050565b7f556e61626c6520746f207472616e736665720000000000000000000000000000600082015250565b6000611eff601283611d6d565b9150611f0a82611ec9565b602082019050919050565b60006020820190508181036000830152611f2e81611ef2565b9050919050565b7f536f75726365206d75737420626520746865206f7261636c65206f662074686560008201527f2072657175657374000000000000000000000000000000000000000000000000602082015250565b6000611f91602883611d6d565b9150611f9c82611f35565b604082019050919050565b60006020820190508181036000830152611fc081611f84565b9050919050565b600081905092915050565b6000611fdd82611a3b565b611fe78185611fc7565b9350611ff7818560208601611a57565b80840191505092915050565b600061200f8284611fd2565b915081905092915050565b60008154905061202981611d3b565b9050919050565b60008190508160005260206000209050919050565b60008160001c9050919050565b6000819050919050565b600061206f61206a83612045565b612052565b9050919050565b6000612082825461205c565b9050919050565b600082821b905092915050565b60006120a18261201a565b82601f8211156120b7576120b484612030565b90505b6120c081612076565b92506020821015612100576120fb7fffffffffffffffffffffffffffffffffffffffffffffffffffffffffffffffff83602003600802612089565b831692505b5050919050565b600081519050919050565b600081905092915050565b600061212882612107565b6121328185612112565b9350612142818560208601611a57565b80840191505092915050565b600061215a828561211d565b9150612166828461211d565b91508190509392505050565b7f4f6e6c792063616c6c61626c65206279206f776e657200000000000000000000600082015250565b60006121a8601683611d6d565b91506121b382612172565b602082019050919050565b600060208201905081810360008301526121d78161219b565b9050919050565b7f4e487b7100000000000000000000000000000000000000000000000000000000600052601160045260246000fd5b600061221882611998565b915061222383611998565b9250817fffffffffffffffffffffffffffffffffffffffffffffffffffffffffffffffff048311821515161561225c5761225b6121de565b5b828202905092915050565b600061227282611998565b915061227d83611998565b9250827fffffffffffffffffffffffffffffffffffffffffffffffffffffffffffffffff038211156122b2576122b16121de565b5b828201905092915050565b60006122c882611998565b915060008214156122dc576122db6121de565b5b600182039050919050565b7f537472696e67733a20686578206c656e67746820696e73756666696369656e74600082015250565b600061231d602083611d6d565b9150612328826122e7565b602082019050919050565b6000602082019050818103600083015261234c81612310565b9050919050565b7f43616e6e6f74207472616e7366657220746f2073656c66000000000000000000600082015250565b6000612389601783611d6d565b915061239482612353565b602082019050919050565b600060208201905081810360008301526123b88161237c565b9050919050565b60007fffffffff0000000000000000000000000000000000000000000000000000000082169050919050565b6123f4816123bf565b82525050565b600061010082019050612410600083018b611af6565b61241d602083018a611e2c565b61242a604083018961196e565b6124376060830188611af6565b61244460808301876123eb565b61245160a0830186611e2c565b61245e60c0830185611e2c565b81810360e08301526124708184611a9b565b90509998505050505050505050565b7f4e487b7100000000000000000000000000000000000000000000000000000000600052601260045260246000fd5b60006124b982611998565b91506124c483611998565b9250826124d4576124d361247f565b5b828206905092915050565b60006124ea82611998565b91506124f583611998565b925082821015612508576125076121de565b5b828203905092915050565b6000819050919050565b600061253861253361252e8461188c565b612513565b61188c565b9050919050565b600061254a8261251d565b9050919050565b600061255c8261253f565b9050919050565b60008160601b9050919050565b600061257b82612563565b9050919050565b600061258d82612570565b9050919050565b6125a56125a082612551565b612582565b82525050565b6000819050919050565b6125c66125c182611998565b6125ab565b82525050565b60006125d88285612594565b6014820191506125e882846125b5565b6020820191508190509392505050565b600060608201905061260d6000830186611af6565b61261a6020830185611e2c565b818103604083015261262c8184611a9b565b9050949350505050565b7f756e61626c6520746f207472616e73666572416e6443616c6c20746f206f726160008201527f636c650000000000000000000000000000000000000000000000000000000000602082015250565b6000612692602383611d6d565b915061269d82612636565b604082019050919050565b600060208201905081810360008301526126c181612685565b9050919050565b60008160011c9050919050565b6000808291508390505b600185111561271f578086048111156126fb576126fa6121de565b5b600185161561270a5780820291505b8081029050612718856126c8565b94506126df565b94509492505050565b60008261273857600190506127f4565b8161274657600090506127f4565b816001811461275c576002811461276657612795565b60019150506127f4565b60ff841115612778576127776121de565b5b8360020a91508482111561278f5761278e6121de565b5b506127f4565b5060208310610133831016604e8410600b84101617156127ca5782820a9050838111156127c5576127c46121de565b5b6127f4565b6127d784848460016126d5565b925090508184048111156127ee576127ed6121de565b5b81810290505b9392505050565b600061280682611998565b915061281183611998565b925061283e7fffffffffffffffffffffffffffffffffffffffffffffffffffffffffffffffff8484612728565b90509291505056fe68747470733a2f2f79666b6f6361717a75382e657865637574652d6170692e75732d656173742d312e616d617a6f6e6177732e636f6d2f746573742f72656769737465723f616464726573733da2646970667358221220e0dad8715e2dbc0994c911a261533deba66914d3bd1c289cea8ffaf54a9b754664736f6c634300080c0033",
  "linkReferences": {},
  "deployedLinkReferences": {}
}