{
  "_format": "hh-sol-artifact-1",
  "contractName": "GenericLargeResponse",
  "sourceName": "contracts/GenericLargeResponse.sol",
  "abi": [
    {
      "inputs": [],
      "stateMutability": "nonpayable",
      "type": "constructor"
    },
    {
      "anonymous": false,
      "inputs": [
        {
          "indexed": true,
          "internalType": "bytes32",
          "name": "id",
          "type": "bytes32"
        }
      ],
      "name": "ChainlinkCancelled",
      "type": "event"
    },
    {
      "anonymous": false,
      "inputs": [
        {
          "indexed": true,
          "internalType": "bytes32",
          "name": "id",
          "type": "bytes32"
        }
      ],
      "name": "ChainlinkFulfilled",
      "type": "event"
    },
    {
      "anonymous": false,
      "inputs": [
        {
          "indexed": true,
          "internalType": "bytes32",
          "name": "id",
          "type": "bytes32"
        }
      ],
      "name": "ChainlinkRequested",
      "type": "event"
    },
    {
      "anonymous": false,
      "inputs": [
        {
          "indexed": true,
          "internalType": "address",
          "name": "from",
          "type": "address"
        },
        {
          "indexed": true,
          "internalType": "address",
          "name": "to",
          "type": "address"
        }
      ],
      "name": "OwnershipTransferRequested",
      "type": "event"
    },
    {
      "anonymous": false,
      "inputs": [
        {
          "indexed": true,
          "internalType": "address",
          "name": "from",
          "type": "address"
        },
        {
          "indexed": true,
          "internalType": "address",
          "name": "to",
          "type": "address"
        }
      ],
      "name": "OwnershipTransferred",
      "type": "event"
    },
    {
      "anonymous": false,
      "inputs": [
        {
          "indexed": true,
          "internalType": "bytes32",
          "name": "requestId",
          "type": "bytes32"
        },
        {
          "indexed": true,
          "internalType": "bytes",
          "name": "data",
          "type": "bytes"
        }
      ],
      "name": "RequestFulfilled",
      "type": "event"
    },
    {
      "inputs": [],
      "name": "acceptOwnership",
      "outputs": [],
      "stateMutability": "nonpayable",
      "type": "function"
    },
    {
      "inputs": [],
      "name": "data",
      "outputs": [
        {
          "internalType": "bytes",
          "name": "",
          "type": "bytes"
        }
      ],
      "stateMutability": "view",
      "type": "function"
    },
    {
      "inputs": [
        {
          "internalType": "bytes32",
          "name": "requestId",
          "type": "bytes32"
        },
        {
          "internalType": "bytes",
          "name": "bytesData",
          "type": "bytes"
        }
      ],
      "name": "fulfillBytes",
      "outputs": [],
      "stateMutability": "nonpayable",
      "type": "function"
    },
    {
      "inputs": [],
      "name": "owner",
      "outputs": [
        {
          "internalType": "address",
          "name": "",
          "type": "address"
        }
      ],
      "stateMutability": "view",
      "type": "function"
    },
    {
      "inputs": [],
      "name": "parking_spot_location",
      "outputs": [
        {
          "internalType": "string",
          "name": "",
          "type": "string"
        }
      ],
      "stateMutability": "view",
      "type": "function"
    },
    {
      "inputs": [],
      "name": "requestOffchainParkingSpotData",
      "outputs": [],
      "stateMutability": "nonpayable",
      "type": "function"
    },
    {
      "inputs": [
        {
          "internalType": "address",
          "name": "to",
          "type": "address"
        }
      ],
      "name": "transferOwnership",
      "outputs": [],
      "stateMutability": "nonpayable",
      "type": "function"
    },
    {
      "inputs": [],
      "name": "withdrawLink",
      "outputs": [],
      "stateMutability": "nonpayable",
      "type": "function"
    }
  ],
  "bytecode": "0x608060405260016004553480156200001657600080fd5b50338060008073ffffffffffffffffffffffffffffffffffffffff168273ffffffffffffffffffffffffffffffffffffffff1614156200008d576040517f08c379a00000000000000000000000000000000000000000000000000000000081526004016200008490620003d5565b60405180910390fd5b81600660006101000a81548173ffffffffffffffffffffffffffffffffffffffff021916908373ffffffffffffffffffffffffffffffffffffffff160217905550600073ffffffffffffffffffffffffffffffffffffffff168173ffffffffffffffffffffffffffffffffffffffff161462000115576200011481620001ba60201b60201c565b5b5050506200013d7301be23585060835e02b77ef475b0cc51aa1e0709620002ec60201b60201c565b6200016273f98cd24cf1f864df4942165569fc0114f866067d6200033060201b60201c565b7f6565326635336134326336323462363939626230613361333831613966663766600a81905550600a670de0b6b3a76400006001620001a2919062000430565b620001ae9190620004c0565b600b819055506200056a565b3373ffffffffffffffffffffffffffffffffffffffff168173ffffffffffffffffffffffffffffffffffffffff1614156200022c576040517f08c379a0000000000000000000000000000000000000000000000000000000008152600401620002239062000548565b60405180910390fd5b80600760006101000a81548173ffffffffffffffffffffffffffffffffffffffff021916908373ffffffffffffffffffffffffffffffffffffffff1602179055508073ffffffffffffffffffffffffffffffffffffffff16600660009054906101000a900473ffffffffffffffffffffffffffffffffffffffff1673ffffffffffffffffffffffffffffffffffffffff167fed8889f560326eb138920d842192f0eb3dd22b4f139c87a2c57538e05bae127860405160405180910390a350565b80600260006101000a81548173ffffffffffffffffffffffffffffffffffffffff021916908373ffffffffffffffffffffffffffffffffffffffff16021790555050565b80600360006101000a81548173ffffffffffffffffffffffffffffffffffffffff021916908373ffffffffffffffffffffffffffffffffffffffff16021790555050565b600082825260208201905092915050565b7f43616e6e6f7420736574206f776e657220746f207a65726f0000000000000000600082015250565b6000620003bd60188362000374565b9150620003ca8262000385565b602082019050919050565b60006020820190508181036000830152620003f081620003ae565b9050919050565b6000819050919050565b7f4e487b7100000000000000000000000000000000000000000000000000000000600052601160045260246000fd5b60006200043d82620003f7565b91506200044a83620003f7565b9250817fffffffffffffffffffffffffffffffffffffffffffffffffffffffffffffffff048311821515161562000486576200048562000401565b5b828202905092915050565b7f4e487b7100000000000000000000000000000000000000000000000000000000600052601260045260246000fd5b6000620004cd82620003f7565b9150620004da83620003f7565b925082620004ed57620004ec62000491565b5b828204905092915050565b7f43616e6e6f74207472616e7366657220746f2073656c66000000000000000000600082015250565b60006200053060178362000374565b91506200053d82620004f8565b602082019050919050565b60006020820190508181036000830152620005638162000521565b9050919050565b612542806200057a6000396000f3fe608060405234801561001057600080fd5b50600436106100885760003560e01c8063c2fb85231161005b578063c2fb8523146100dd578063c551a145146100f9578063d5aaaf9314610117578063f2fde38b1461012157610088565b806373d4a13a1461008d57806379ba5097146100ab5780638da5cb5b146100b55780638dc654a2146100d3575b600080fd5b61009561013d565b6040516100a29190611706565b60405180910390f35b6100b36101cb565b005b6100bd610362565b6040516100ca9190611769565b60405180910390f35b6100db61038c565b005b6100f760048036038101906100f29190611903565b6104d9565b005b610101610659565b60405161010e91906119b4565b60405180910390f35b61011f6106e7565b005b61013b60048036038101906101369190611a02565b610843565b005b6008805461014a90611a5e565b80601f016020809104026020016040519081016040528092919081815260200182805461017690611a5e565b80156101c35780601f10610198576101008083540402835291602001916101c3565b820191906000526020600020905b8154815290600101906020018083116101a657829003601f168201915b505050505081565b600760009054906101000a900473ffffffffffffffffffffffffffffffffffffffff1673ffffffffffffffffffffffffffffffffffffffff163373ffffffffffffffffffffffffffffffffffffffff161461025b576040517f08c379a000000000000000000000000000000000000000000000000000000000815260040161025290611adc565b60405180910390fd5b6000600660009054906101000a900473ffffffffffffffffffffffffffffffffffffffff16905033600660006101000a81548173ffffffffffffffffffffffffffffffffffffffff021916908373ffffffffffffffffffffffffffffffffffffffff1602179055506000600760006101000a81548173ffffffffffffffffffffffffffffffffffffffff021916908373ffffffffffffffffffffffffffffffffffffffff1602179055503373ffffffffffffffffffffffffffffffffffffffff168173ffffffffffffffffffffffffffffffffffffffff167f8be0079c531659141344cd1fd0a4f28419497f9722a3daafe3b4186f6b6457e060405160405180910390a350565b6000600660009054906101000a900473ffffffffffffffffffffffffffffffffffffffff16905090565b610394610857565b600061039e6108e9565b90508073ffffffffffffffffffffffffffffffffffffffff1663a9059cbb338373ffffffffffffffffffffffffffffffffffffffff166370a08231306040518263ffffffff1660e01b81526004016103f69190611769565b602060405180830381865afa158015610413573d6000803e3d6000fd5b505050506040513d601f19601f820116820180604052508101906104379190611b32565b6040518363ffffffff1660e01b8152600401610454929190611b6e565b6020604051808303816000875af1158015610473573d6000803e3d6000fd5b505050506040513d601f19601f820116820180604052508101906104979190611bcf565b6104d6576040517f08c379a00000000000000000000000000000000000000000000000000000000081526004016104cd90611c48565b60405180910390fd5b50565b816005600082815260200190815260200160002060009054906101000a900473ffffffffffffffffffffffffffffffffffffffff1673ffffffffffffffffffffffffffffffffffffffff163373ffffffffffffffffffffffffffffffffffffffff161461057b576040517f08c379a000000000000000000000000000000000000000000000000000000000815260040161057290611cda565b60405180910390fd5b6005600082815260200190815260200160002060006101000a81549073ffffffffffffffffffffffffffffffffffffffff0219169055807f7cc135e0cebb02c3480ae5d74d377283180a2601f8f644edf7987b009316c63a60405160405180910390a2816040516105ec9190611d36565b6040518091039020837f1a111c5dcf9a71088bd5e1797fdfaf399fec2afbb24aca247e4e3e9f4b61df9160405160405180910390a381600890805190602001906106379291906114b6565b506008600990805461064890611a5e565b61065392919061153c565b50505050565b6009805461066690611a5e565b80601f016020809104026020016040519081016040528092919081815260200182805461069290611a5e565b80156106df5780601f106106b4576101008083540402835291602001916106df565b820191906000526020600020905b8154815290600101906020018083116106c257829003601f168201915b505050505081565b600061070a3373ffffffffffffffffffffffffffffffffffffffff166014610913565b90506000610722600a543063c2fb852360e01b610b4f565b905060006040518060800160405280604d81526020016124c0604d9139905060008184604051602001610756929190611d89565b60405160208183030381529060405290506107b16040518060400160405280600381526020017f67657400000000000000000000000000000000000000000000000000000000008152508285610b809092919063ffffffff16565b6108306040518060400160405280600481526020017f70617468000000000000000000000000000000000000000000000000000000008152506040518060400160405280600881526020017f6c6f636174696f6e00000000000000000000000000000000000000000000000081525085610b809092919063ffffffff16565b61083c83600b54610bb3565b5050505050565b61084b610857565b61085481610bea565b50565b600660009054906101000a900473ffffffffffffffffffffffffffffffffffffffff1673ffffffffffffffffffffffffffffffffffffffff163373ffffffffffffffffffffffffffffffffffffffff16146108e7576040517f08c379a00000000000000000000000000000000000000000000000000000000081526004016108de90611df9565b60405180910390fd5b565b6000600260009054906101000a900473ffffffffffffffffffffffffffffffffffffffff16905090565b6060600060028360026109269190611e48565b6109309190611ea2565b67ffffffffffffffff811115610949576109486117d8565b5b6040519080825280601f01601f19166020018201604052801561097b5781602001600182028036833780820191505090505b5090507f3000000000000000000000000000000000000000000000000000000000000000816000815181106109b3576109b2611ef8565b5b60200101907effffffffffffffffffffffffffffffffffffffffffffffffffffffffffffff1916908160001a9053507f780000000000000000000000000000000000000000000000000000000000000081600181518110610a1757610a16611ef8565b5b60200101907effffffffffffffffffffffffffffffffffffffffffffffffffffffffffffff1916908160001a90535060006001846002610a579190611e48565b610a619190611ea2565b90505b6001811115610b01577f3031323334353637383961626364656600000000000000000000000000000000600f861660108110610aa357610aa2611ef8565b5b1a60f81b828281518110610aba57610ab9611ef8565b5b60200101907effffffffffffffffffffffffffffffffffffffffffffffffffffffffffffff1916908160001a905350600485901c945080610afa90611f27565b9050610a64565b5060008414610b45576040517f08c379a0000000000000000000000000000000000000000000000000000000008152600401610b3c90611f9d565b60405180910390fd5b8091505092915050565b610b576115c9565b610b5f6115c9565b610b7685858584610d19909392919063ffffffff16565b9150509392505050565b610b97828460800151610dc990919063ffffffff16565b610bae818460800151610dc990919063ffffffff16565b505050565b6000610be2600360009054906101000a900473ffffffffffffffffffffffffffffffffffffffff168484610dee565b905092915050565b3373ffffffffffffffffffffffffffffffffffffffff168173ffffffffffffffffffffffffffffffffffffffff161415610c59576040517f08c379a0000000000000000000000000000000000000000000000000000000008152600401610c5090612009565b60405180910390fd5b80600760006101000a81548173ffffffffffffffffffffffffffffffffffffffff021916908373ffffffffffffffffffffffffffffffffffffffff1602179055508073ffffffffffffffffffffffffffffffffffffffff16600660009054906101000a900473ffffffffffffffffffffffffffffffffffffffff1673ffffffffffffffffffffffffffffffffffffffff167fed8889f560326eb138920d842192f0eb3dd22b4f139c87a2c57538e05bae127860405160405180910390a350565b610d216115c9565b610d318560800151610100610eba565b508385600001818152505082856020019073ffffffffffffffffffffffffffffffffffffffff16908173ffffffffffffffffffffffffffffffffffffffff16815250508185604001907bffffffffffffffffffffffffffffffffffffffffffffffffffffffff191690817bffffffffffffffffffffffffffffffffffffffffffffffffffffffff191681525050849050949350505050565b610dd68260038351610f24565b610de981836110a990919063ffffffff16565b505050565b6000806004549050600181610e039190611ea2565b6004819055506000634042994660e01b60008087600001513089604001518760018c6080015160000151604051602401610e44989796959493929190612073565b604051602081830303815290604052907bffffffffffffffffffffffffffffffffffffffffffffffffffffffff19166020820180517bffffffffffffffffffffffffffffffffffffffffffffffffffffffff83818316178352505050509050610eaf868386846110cb565b925050509392505050565b610ec2611636565b6000602083610ed19190612127565b14610efd57602082610ee39190612127565b6020610eef9190612158565b82610efa9190611ea2565b91505b81836020018181525050604051808452600081528281016020016040525082905092915050565b60178167ffffffffffffffff1611610f5b57610f558160058460ff16901b60ff16178461126090919063ffffffff16565b506110a4565b60ff8167ffffffffffffffff1611610fb157610f8a601860058460ff16901b178461126090919063ffffffff16565b50610fab8167ffffffffffffffff166001856112809092919063ffffffff16565b506110a3565b61ffff8167ffffffffffffffff161161100857610fe1601960058460ff16901b178461126090919063ffffffff16565b506110028167ffffffffffffffff166002856112809092919063ffffffff16565b506110a2565b63ffffffff8167ffffffffffffffff16116110615761103a601a60058460ff16901b178461126090919063ffffffff16565b5061105b8167ffffffffffffffff166004856112809092919063ffffffff16565b506110a1565b61107e601b60058460ff16901b178461126090919063ffffffff16565b5061109f8167ffffffffffffffff166008856112809092919063ffffffff16565b505b5b5b5b505050565b6110b1611636565b6110c3838460000151518485516112a2565b905092915050565b600030846040516020016110e0929190612245565b604051602081830303815290604052805190602001209050846005600083815260200190815260200160002060006101000a81548173ffffffffffffffffffffffffffffffffffffffff021916908373ffffffffffffffffffffffffffffffffffffffff160217905550807fb5e6e01e79f91267dc17b4e6314d5d4d03593d2ceee0fbb452b750bd70ea5af960405160405180910390a2600260009054906101000a900473ffffffffffffffffffffffffffffffffffffffff1673ffffffffffffffffffffffffffffffffffffffff16634000aea08685856040518463ffffffff1660e01b81526004016111d693929190612271565b6020604051808303816000875af11580156111f5573d6000803e3d6000fd5b505050506040513d601f19601f820116820180604052508101906112199190611bcf565b611258576040517f08c379a000000000000000000000000000000000000000000000000000000000815260040161124f90612321565b60405180910390fd5b949350505050565b611268611636565b6112788384600001515184611391565b905092915050565b611288611636565b6112998485600001515185856113e8565b90509392505050565b6112aa611636565b82518211156112b857600080fd5b846020015182856112c99190611ea2565b11156112fe576112fd8560026112ee886020015188876112e99190611ea2565b611476565b6112f89190611e48565b611492565b5b60008086518051876020830101935080888701111561131d5787860182525b60208701925050505b60208410611364578051825260208261133f9190611ea2565b915060208161134e9190611ea2565b905060208461135d9190612158565b9350611326565b60006001856020036101000a03905080198251168184511681811785525050508692505050949350505050565b611399611636565b836020015183106113bf576113be84600286602001516113b99190611e48565b611492565b5b83518051602085830101848153818614156113db576001820183525b5050508390509392505050565b6113f0611636565b846020015184836114019190611ea2565b11156114295761142885600286856114199190611ea2565b6114239190611e48565b611492565b5b600060018361010061143b9190612474565b6114459190612158565b905085518386820101858319825116178152815185880111156114685784870182525b505085915050949350505050565b6000818311156114885782905061148c565b8190505b92915050565b6000826000015190506114a58383610eba565b506114b083826110a9565b50505050565b8280546114c290611a5e565b90600052602060002090601f0160209004810192826114e4576000855561152b565b82601f106114fd57805160ff191683800117855561152b565b8280016001018555821561152b579182015b8281111561152a57825182559160200191906001019061150f565b5b5090506115389190611650565b5090565b82805461154890611a5e565b90600052602060002090601f01602090048101928261156a57600085556115b8565b82601f1061157b57805485556115b8565b828001600101855582156115b857600052602060002091601f016020900482015b828111156115b757825482559160010191906001019061159c565b5b5090506115c59190611650565b5090565b6040518060a0016040528060008019168152602001600073ffffffffffffffffffffffffffffffffffffffff16815260200160007bffffffffffffffffffffffffffffffffffffffffffffffffffffffff1916815260200160008152602001611630611636565b81525090565b604051806040016040528060608152602001600081525090565b5b80821115611669576000816000905550600101611651565b5090565b600081519050919050565b600082825260208201905092915050565b60005b838110156116a757808201518184015260208101905061168c565b838111156116b6576000848401525b50505050565b6000601f19601f8301169050919050565b60006116d88261166d565b6116e28185611678565b93506116f2818560208601611689565b6116fb816116bc565b840191505092915050565b6000602082019050818103600083015261172081846116cd565b905092915050565b600073ffffffffffffffffffffffffffffffffffffffff82169050919050565b600061175382611728565b9050919050565b61176381611748565b82525050565b600060208201905061177e600083018461175a565b92915050565b6000604051905090565b600080fd5b600080fd5b6000819050919050565b6117ab81611798565b81146117b657600080fd5b50565b6000813590506117c8816117a2565b92915050565b600080fd5b600080fd5b7f4e487b7100000000000000000000000000000000000000000000000000000000600052604160045260246000fd5b611810826116bc565b810181811067ffffffffffffffff8211171561182f5761182e6117d8565b5b80604052505050565b6000611842611784565b905061184e8282611807565b919050565b600067ffffffffffffffff82111561186e5761186d6117d8565b5b611877826116bc565b9050602081019050919050565b82818337600083830152505050565b60006118a66118a184611853565b611838565b9050828152602081018484840111156118c2576118c16117d3565b5b6118cd848285611884565b509392505050565b600082601f8301126118ea576118e96117ce565b5b81356118fa848260208601611893565b91505092915050565b6000806040838503121561191a5761191961178e565b5b6000611928858286016117b9565b925050602083013567ffffffffffffffff81111561194957611948611793565b5b611955858286016118d5565b9150509250929050565b600081519050919050565b600082825260208201905092915050565b60006119868261195f565b611990818561196a565b93506119a0818560208601611689565b6119a9816116bc565b840191505092915050565b600060208201905081810360008301526119ce818461197b565b905092915050565b6119df81611748565b81146119ea57600080fd5b50565b6000813590506119fc816119d6565b92915050565b600060208284031215611a1857611a1761178e565b5b6000611a26848285016119ed565b91505092915050565b7f4e487b7100000000000000000000000000000000000000000000000000000000600052602260045260246000fd5b60006002820490506001821680611a7657607f821691505b60208210811415611a8a57611a89611a2f565b5b50919050565b7f4d7573742062652070726f706f736564206f776e657200000000000000000000600082015250565b6000611ac660168361196a565b9150611ad182611a90565b602082019050919050565b60006020820190508181036000830152611af581611ab9565b9050919050565b6000819050919050565b611b0f81611afc565b8114611b1a57600080fd5b50565b600081519050611b2c81611b06565b92915050565b600060208284031215611b4857611b4761178e565b5b6000611b5684828501611b1d565b91505092915050565b611b6881611afc565b82525050565b6000604082019050611b83600083018561175a565b611b906020830184611b5f565b9392505050565b60008115159050919050565b611bac81611b97565b8114611bb757600080fd5b50565b600081519050611bc981611ba3565b92915050565b600060208284031215611be557611be461178e565b5b6000611bf384828501611bba565b91505092915050565b7f556e61626c6520746f207472616e736665720000000000000000000000000000600082015250565b6000611c3260128361196a565b9150611c3d82611bfc565b602082019050919050565b60006020820190508181036000830152611c6181611c25565b9050919050565b7f536f75726365206d75737420626520746865206f7261636c65206f662074686560008201527f2072657175657374000000000000000000000000000000000000000000000000602082015250565b6000611cc460288361196a565b9150611ccf82611c68565b604082019050919050565b60006020820190508181036000830152611cf381611cb7565b9050919050565b600081905092915050565b6000611d108261166d565b611d1a8185611cfa565b9350611d2a818560208601611689565b80840191505092915050565b6000611d428284611d05565b915081905092915050565b600081905092915050565b6000611d638261195f565b611d6d8185611d4d565b9350611d7d818560208601611689565b80840191505092915050565b6000611d958285611d58565b9150611da18284611d58565b91508190509392505050565b7f4f6e6c792063616c6c61626c65206279206f776e657200000000000000000000600082015250565b6000611de360168361196a565b9150611dee82611dad565b602082019050919050565b60006020820190508181036000830152611e1281611dd6565b9050919050565b7f4e487b7100000000000000000000000000000000000000000000000000000000600052601160045260246000fd5b6000611e5382611afc565b9150611e5e83611afc565b9250817fffffffffffffffffffffffffffffffffffffffffffffffffffffffffffffffff0483118215151615611e9757611e96611e19565b5b828202905092915050565b6000611ead82611afc565b9150611eb883611afc565b9250827fffffffffffffffffffffffffffffffffffffffffffffffffffffffffffffffff03821115611eed57611eec611e19565b5b828201905092915050565b7f4e487b7100000000000000000000000000000000000000000000000000000000600052603260045260246000fd5b6000611f3282611afc565b91506000821415611f4657611f45611e19565b5b600182039050919050565b7f537472696e67733a20686578206c656e67746820696e73756666696369656e74600082015250565b6000611f8760208361196a565b9150611f9282611f51565b602082019050919050565b60006020820190508181036000830152611fb681611f7a565b9050919050565b7f43616e6e6f74207472616e7366657220746f2073656c66000000000000000000600082015250565b6000611ff360178361196a565b9150611ffe82611fbd565b602082019050919050565b6000602082019050818103600083015261202281611fe6565b9050919050565b61203281611798565b82525050565b60007fffffffff0000000000000000000000000000000000000000000000000000000082169050919050565b61206d81612038565b82525050565b600061010082019050612089600083018b61175a565b612096602083018a611b5f565b6120a36040830189612029565b6120b0606083018861175a565b6120bd6080830187612064565b6120ca60a0830186611b5f565b6120d760c0830185611b5f565b81810360e08301526120e981846116cd565b90509998505050505050505050565b7f4e487b7100000000000000000000000000000000000000000000000000000000600052601260045260246000fd5b600061213282611afc565b915061213d83611afc565b92508261214d5761214c6120f8565b5b828206905092915050565b600061216382611afc565b915061216e83611afc565b92508282101561218157612180611e19565b5b828203905092915050565b6000819050919050565b60006121b16121ac6121a784611728565b61218c565b611728565b9050919050565b60006121c382612196565b9050919050565b60006121d5826121b8565b9050919050565b60008160601b9050919050565b60006121f4826121dc565b9050919050565b6000612206826121e9565b9050919050565b61221e612219826121ca565b6121fb565b82525050565b6000819050919050565b61223f61223a82611afc565b612224565b82525050565b6000612251828561220d565b601482019150612261828461222e565b6020820191508190509392505050565b6000606082019050612286600083018661175a565b6122936020830185611b5f565b81810360408301526122a581846116cd565b9050949350505050565b7f756e61626c6520746f207472616e73666572416e6443616c6c20746f206f726160008201527f636c650000000000000000000000000000000000000000000000000000000000602082015250565b600061230b60238361196a565b9150612316826122af565b604082019050919050565b6000602082019050818103600083015261233a816122fe565b9050919050565b60008160011c9050919050565b6000808291508390505b60018511156123985780860481111561237457612373611e19565b5b60018516156123835780820291505b808102905061239185612341565b9450612358565b94509492505050565b6000826123b1576001905061246d565b816123bf576000905061246d565b81600181146123d557600281146123df5761240e565b600191505061246d565b60ff8411156123f1576123f0611e19565b5b8360020a91508482111561240857612407611e19565b5b5061246d565b5060208310610133831016604e8410600b84101617156124435782820a90508381111561243e5761243d611e19565b5b61246d565b612450848484600161234e565b9250905081840481111561246757612466611e19565b5b81810290505b9392505050565b600061247f82611afc565b915061248a83611afc565b92506124b77fffffffffffffffffffffffffffffffffffffffffffffffffffffffffffffffff84846123a1565b90509291505056fe68747470733a2f2f79666b6f6361717a75382e657865637574652d6170692e75732d656173742d312e616d617a6f6e6177732e636f6d2f746573742f72656769737465723f616464726573733da2646970667358221220a86d8a7321e38acf14827c82e79fccea7c63e69020fe7f120b7b0f4dff4d113864736f6c634300080c0033",
  "linkReferences": {},
  "deployedLinkReferences": {}
}